S01B0000446F7070656C4D61676E6574727565687265722E737265634C
S11300000C94CF030C94F6030C94F6030C94F603AF
S11300100C94F6030C94F6030C94F6030C94F60378
S11300200C94F6030C94F6030C94E60A0C94F60371
S11300300C94F6030C94F6030C94F6030C94F60358
S11300400C94F6030C94F6030C94F6030C94F60348
S11300500C94170C0C94F6030C94DE0B0C94F6031E
S11300600C94F6030C94F6030C94F6030C94F60328
S11300700C94F6030C94F6030C94F6030C94F60318
S11300800C94F6030C94F6030C94F6030C94F60308
S11300900C94F6030C94F6030C94F6030C94F603F8
S11300A00C94F6030C94F6030C94F6030C94F603E8
S11300B00C94F6030C94F6030C94F6030C941A0BAC
S11300C00C94F6030C94F6030C94F6030C94F603C8
S11300D00C94F6030C94F6030C94F6030C94F603B8
S11300E00C94F6030C94F6030C94F6030C94F603A8
S11300F00C94F6030C94F6030C94F6030C94F60398
S11301000C94F6030C94F6030C94F6030C94F60387
S11301100C94F6030C94F6030C94F6030C94F60377
S11301200C94F6030C94F6030C94F6030C94F60367
S11301300C94F6030C94F6030C94F6030C94F60357
S11301400C94F6030C94F6030C94F6030C947E0CB6
S11301500C94F6030C94450C0C94F6030C94F603DF
S11301600C94F6030C94F6030C94F6030C94F60327
S11301700C94F6030C94F6030C94F6030C94F60317
S11301800C94F6030C94F6030C94F6030C94F60307
S11301900C94F6030C94F6030C94F6030C94F603F7
S11301A00C94F6030C94F6030C94F6030C94F603E7
S11301B00C94F6030C94F6030C94F6030C94F603D7
S11301C00C94F6030C94F6030C94F6030C94F603C7
S11301D00C94F6030C94F6030C94F6030C94F603B7
S11301E00C94F6030C94F6030C94F6030C94F603A7
S11301F00C94F6030C945E3A0C94DE3A3F096C09B5
S11302006C096C096C096C096C096C096C096C0942
S11302106C096C096C096C096C096C096C096C0932
S113022024096C096C096C096C096C0909096C09CD
S11302306C09EE086C096C096C096C09D3086C092B
S11302406C096C096C096C096C096C096C096C0902
S11302506C096C09B8086C096C096C096C096C09A7
S11302609D086C096C096C096C096C0982086B0A9D
S1130270980A980A980A980A980A980A980A980A6A
S1130280980A980A980A980A980A980A980A980A5A
S1130290980A500A980A980A980A980A980A350AF5
S11302A0980A980A1A0A980A980A980A980AFF0952
S11302B0980A980A980A980A980A980A980A980A2A
S11302C0980A980A980AE409980A980A980A980ACF
S11302D0980AC909980A980A980A980A980AAE09C5
S11302E08218F11BF11BF11BF11BF11BF11BF11B1C
S11302F0F11BF11BF11BF11BF11BF11BF11BF11B9A
S1130300BF18F11BF11BF11BF11BF11BF11BF11BBE
S1130310F11BF11BF11BF11BF11BF11BF11BF11B79
S11303202119F11BF11BF11BF11BF11BF11BF11B3B
S1130330F11BF11BF11BF11BF11BF11BF11BF11B59
S1130340A419F11BF11BF11BF11BF11BF11BF11B98
S1130350F11BF11BF11BF11BF11BF11BF11BF11B39
S1130360231A571A871AF11BF11BF11BF11BF11BFE
S1130370F11BF11BF11BF11BF11BF11BF11BF11B19
S1130380BB1AEF1A1F1BF11BF11BF11BF11BF11B15
S1130390F11BF11BF11BF11BF11BF11BF11BF11BF9
S11303A0571B8B1BBF1B011D6F206F206F206F20FD
S11303B06F206F206F206F206F206F206F206F20C1
S11303C06F206F206F203D1D6F206F206F206F20E6
S11303D06F206F206F206F206F206F206F206F20A1
S11303E06F206F206F209F1D6F206F206F206F2064
S11303F06F206F206F206F206F206F206F206F2081
S11304006F206F206F20221E6F206F206F206F20BF
S11304106F206F206F206F206F206F206F206F2060
S11304206F206F206F20A11ED51E051F6F206F2027
S11304306F206F206F206F206F206F206F206F2040
S11304406F206F206F20391F6D1F9D1F6F206F203D
S11304506F206F206F206F206F206F206F206F2020
S11304606F206F206F20D51F09203D207F2F73320E
S11304707332733273327332733273327332733250
S113048073327332733273327332733224308D3079
S1130490F4305F31D131483239394F39463A4F3926
S11304A0463A5D397E39463ADC39EE394B3A313ACF
S11304B01E0343004E004300200043006F006E0003
S11304C0740072006F006C006C0065007200000024
S11304D00E0377006F006F00640079006D00000068
S11304E00403090409023E00020100C032090400A9
S11304F00001020201000524001001042402060583
S113050024060001070582030800FF090401000214
S11305100A000000070504024000010705830240A9
S113052000011201100102000040EB030424010049
S11305300102DC010000000000000000002F0000A8
S113054000000700070000147F147F1400242A7F92
S11305502A12006264081323003649552250000011
S11305600503000000001C224100000041221C0081
S11305700014083E08140008083E0808000000A003
S113058060000008080808080000606000000020FF
S113059010080402003E5149453E0000427F4000DD
S11305A0004261514946002141454B310018141263
S11305B07F10002745454539003C4A494930000130
S11305C07109050300364949493600064949291E7F
S11305D000003636000000005636000000081422E1
S11305E041000014141414140000412214080002E1
S11305F00151090600324959513E007C1211127C06
S1130600007F49494936003E41414122007F414132
S1130610221C007F49494941007F09090901003E24
S11306204149497A007F0808087F0000417F410062
S1130630002040413F01007F08142241007F4040D8
S11306404040007F020C027F007F0408107F003EC0
S11306504141413E007F09090906003E4151215EA6
S1130660007F091929460046494949310001017FA3
S11306700101003F4040403F001F2040201F003F39
S11306804038403F006314081463000708700807EB
S113069000615149454300007F41410000552A55FE
S11306A02A55000041417F00000402010204004079
S11306B0404040400000010204000020545454789B
S11306C0007F4844443800384444442000384444BB
S11306D0487F00385454541800087E090102001859
S11306E0A4A4A47C007F080404780000447D400096
S11306F0004080847D00007F102844000000417F7A
S11307004000007C04180478007C08040478003855
S11307104444443800FC242424180018242418FCDD
S1130720007C0804040800485454542000043F4446
S11307304020003C4040207C001C2040201C003C09
S11307404030403C004428102844001CA0A0A07C59
S1130750004464544C4400000877410000000063E6
S11307600000000041770800000804080804003D68
S11307704040207D003D4040403D00215454547988
S1130780007D1211127D003944444439003D424237
S1130790423D000205020000007E01495573112408
S11307A01FBECFEFCDBFDFE2DEBFEAEAF6E28AEAA0
S11307B09FE28193EF3FF907E1F713E2A0E0B0E293
S11307C0EEEDF7E700E00BBF02C007900D92A231F7
S11307D0B107D9F726E2A2E1B3E201C01D92AA3A19
S11307E0B207E1F70E947F200C94ED3B0C940000CB
S11307F0AC01E0EDF0E090819F739068908380817C
S1130800807F80838081806280839081907F9160EB
S1130810908380818F738083662389F0FA0161500D
S1130820262F30E02F5F3F4F240F351FA0EDB0E09F
S1130830919113969C931397E217F307C9F7E0ED90
S1130840F0E0818181608183818180FDFDCFE0EDD5
S1130850F0E06481258136814781862F90E0A0E015
S1130860B0E0B42B922B2081207F2083BC01CD01EA
S1130870832B0895292F33272230310559F0233053
S1130880310569F02130310521F582E190E022E261
S113089035E028C08EE390E024EE34E023C09927AD
S11308A08130910551F018F0029769F017C0E0EE1D
S11308B0F4E0849190E09F0115C0E0EDF4E08491B0
S11308C090E09F010FC0E0EBF4E0849190E09F0181
S11308D009C080E090E020E030E004C080E090E0D7
S11308E020E030E0FA012083318308951F93CF93F1
S11308F0DF93C0E4D6E010E11E8386E00E94573304
S11309001D83DF91CF911F910895EF92FF921F9362
S1130910CF93DF93EC017B01142F82E00E945733C5
S1130920C7010E946133612FCE010E946B33DF91B6
S1130930CF911F91FF90EF900895EF92FF921F9334
S1130940CF93DF93EC017B01142F83E00E94573394
S1130950C7010E946133612FCE010E948133DF9170
S1130960CF911F91FF90EF900895EF920F931F93F3
S1130970CF93DF93442371F04FE1649F200D311D29
S11309801124E12C0FE140EABC0180EA94E00E94CA
S113099006340FC0C0E4D6E010E11E83A901EFE1E4
S11309A06E9F400D511D1124BA014FE10E949D0418
S11309B01D83DF91CF911F910F91EF900895EF92D6
S11309C00F931F93CF93DF93442379F0462F50E086
S11309D0440F551F240F351FE12C02E040EABC01EF
S11309E080EA94E00E9406340DC0C0E4D6E010E131
S11309F01E8370E0660F771F620F731F42E00E9430
S1130A009D041D83DF91CF911F910F91EF90089565
S1130A108F929F92AF92CF92EF92FF920F931F9378
S1130A20CF93DF934C01162FE901442381F08FE12A
S1130A30689F200D311D1124A12CC12CE12C0FE144
S1130A4040EAB40180EA94E00E9498331DC00E94F9
S1130A507604EFE7FEE33197F1F700C000000F2EB4
S1130A60F0E4EF2EF6E0FF2EF02D00E1F70106830F
S1130A70BE01FFE11F9F600D711D11244FE1C401F0
S1130A800E948504F7010583DF91CF911F910F9197
S1130A90FF90EF90CF90AF909F908F9008958F929A
S1130AA09F92AF92CF92EF92FF920F931F93CF93A7
S1130AB0DF934C01F62E8901442389F0262F30E080
S1130AC0220F331F200F311FA12CC12CE12C02E077
S1130AD040EABC0180EA94E00E94983319C00E9465
S1130AE076048FE79EE30197F1F700C00000C0E4AD
S1130AF0D6E06894EE24E4F8EE826F2D70E0660F81
S1130B00771F600F711F42E0C4010E948504ED82CB
S1130B10DF91CF911F910F91FF90EF90CF90AF9005
S1130B209F908F900895AF92CF92EF920F93CF93AF
S1130B30DF9300D0CDB7DEB783E089831A82A12C7E
S1130B40CC24C394E12C02E020E430E042E8BE016E
S1130B506F5F7F4F80EA94E00E9498330F900F906C
S1130B60DF91CF910F91EF90CF90AF900895AF9216
S1130B70CF92EF920F931F93CF93DF9300D0CDB713
S1130B80DEB711E019831A82A12CCC24C394E12C82
S1130B9002E020E430E042E8BE016F5F7F4F80EA6C
S1130BA094E00E9498338FE39FE10197F1F700C02E
S1130BB000001A8320E430E042E8BE016F5F7F4FFB
S1130BC080EA94E00E9498330F900F90DF91CF91C8
S1130BD01F910F91EF90CF90AF900895AF92CF9265
S1130BE0EF920F93CF93DF931F92CDB7DEB7898334
S1130BF0AA24A394C12CE12C01E020E030E048E7D2
S1130C00BE016F5F7F4F80EA94E00E9498330F909B
S1130C10DF91CF910F91EF90CF90AF900895AF9265
S1130C20CF92EF92FF920F931F93CF93DF9300D055
S1130C3000D0CDB7DEB7F62E182F110F810F182F65
S1130C40110F4423C1F080EB860F898381E28A83EC
S1130C501B838FE78C83AA24A394C12CE12C04E08A
S1130C6020E030E048E7BE016F5F7F4F80EA94E008
S1130C700E94983338C082E0810F8F708983AA2440
S1130C80A394C12CE12C01E020E030E048E7BE0150
S1130C906F5F7F4F80EA94E00E949833812F90E049
S1130CA002969595879595958795959587959595AC
S1130CB087958061898320E030E048E7BE016F5F5B
S1130CC07F4F80EA94E00E9498338F2D8F70806B61
S1130CD0898320E030E048E7BE016F5F7F4F80EA00
S1130CE094E00E9498332496CDBFDEBFDF91CF916C
S1130CF01F910F91FF90EF90CF90AF900895482FE0
S1130D0060E080E00E940F060895AF92CF92DF92D8
S1130D10EF92FF920F931F93CF93DF9300D0CDB741
S1130D20DEB7D82E0E947F061982DD20A1F018E0DC
S1130D30AA24A394C12CEE24E39400E820E430E038
S1130D4048E7BE016F5F7F4F80EA94E00E949833CA
S1130D50115071F723C0F12C80E00E94EE0580E170
S1130D600E94EE058F2D8F70806B0E94EE051A8213
S1130D7014E8AA24A394C12CE12C01E020E430E07F
S1130D8048E7BE016E5F7F4F80EA94E00E9498338B
S1130D90115079F7F39488E0F812DECF8D2D0E947C
S1130DA07F060F900F90DF91CF911F910F91FF90CD
S1130DB0EF90DF90CF90AF9008958EEA0E94EE05F9
S1130DC082E00E94EE0580E10E94EE0580E40E942C
S1130DD0EE0580EB0E94EE0581E80E94EE0580E8B6
S1130DE00E94EE0581EA0E94EE0586EA0E94EE0565
S1130DF088EA0E94EE058FE30E94EE058DEA0E94C8
S1130E00EE058BE80E94EE0580E30E94EE0588EC77
S1130E100E94EE0583ED0E94EE0580E00E94EE053F
S1130E2085ED0E94EE0580E80E94EE0589ED0E94A2
S1130E30EE058FE10E94EE058AED0E94EE0582E147
S1130E400E94EE058BED0E94EE0580E40E94EE0503
S1130E508FEA0E94EE0580E00E9485060895AF9215
S1130E60CF92EF920F931F93CF93DF93CDB7DEB75B
S1130E706697CDBFDEBF182F8EEA898385ED8A83FE
S1130E8080E88B8388EA8C83AA24A394C12CE12C68
S1130E9004E020E030E048E7BE016F5F7F4F80EA66
S1130EA094E00E9498338FE38D8301E020E030E0EA
S1130EB048E7BE016B5F7F4F80EA94E00E9498335D
S1130EC083ED8E831F8280E488878DE8898704E020
S1130ED020E030E048E7BE016A5F7F4F80EA94E09B
S1130EE00E949833113049F577C08D83AA24A394C6
S1130EF0C12CE12C01E020E030E048E7BE016B5F4B
S1130F007F4F80EA94E00E94983386E0EDE4F1E2BA
S1130F10DE01519601900D928A95E1F706E020E0FA
S1130F2030E048E7BE016F5E7F4F80EA94E00E94A4
S1130F30983381E00E9485069EC084E18D83AA24B3
S1130F40A394C12CE12C01E020E030E048E7BE018D
S1130F506B5F7F4F80EA94E00E94983380E28A8737
S1130F601B8681EA8C8788EC8D8704E020E030E0E2
S1130F7048E7BE01665F7F4F80EA94E00E949833A1
S1130F808AED8E8782E18F8781E8888B03E020E0F9
S1130F9030E048E7BE01625F7F4F80EA94E00E9440
S1130FA098338FEC8D8301E020E030E048E7BE0108
S1130FB06B5F7F4F80EA94E00E94983389ED8D83C4
S1130FC020E030E048E7BE016B5F7F4F80EA94E0A9
S1130FD00E94983381EF89CF80E18D83AA24A39462
S1130FE0C12CE12C01E020E030E048E7BE016B5F5A
S1130FF07F4F80EA94E00E94983380E28A871B86C0
S113100081EA8C8788EC8D8704E020E030E048E7B3
S1131010BE01665F7F4F80EA94E00E9498338AEDB8
S11310208E8782E18F8781E8888B03E020E030E0BF
S113103048E7BE01625F7F4F80EA94E00E949833E4
S11310408FE98D8301E020E030E048E7BE016B5F6B
S11310507F4F80EA94E00E94983389ED8D8320E0ED
S113106030E048E7BE016B5F7F4F80EA94E00E9466
S1131070983382E23ACF6696CDBFDEBFDF91CF913F
S11310801F910F91EF90CF90AF900895AF92CF92B0
S1131090EF920F93E0EEE80FE03608F40BC1803BCB
S11310A009F408C18F3909F405C18F7D8C3909F41D
S11310B001C1863909F4FEC0843809F00DC1FAC0B3
S11310C084918D933196A217B307D1F7AA24A394E0
S11310D0C12CE12C06E020E430E048E768E173E24B
S11310E080EA94E00E949833F7C08E2F90E0FC01D0
S11310F0E456F109E933F10508F0EEC0E250FF4F80
S11311000C944C3BEEE6F7E0A8E1B3E22EE133E2C7
S113111084918D9331962A173B07D1F7AA24A3947F
S1131120C12CE12C06E020E430E048E768E173E2FA
S113113080EA94E00E949833CFC0E6E8F7E0A8E1A3
S1131140B3E22EE133E284918D9331962A173B0763
S1131150D1F7AA24A394C12CE12C06E020E430E0CA
S113116048E768E173E280EA94E00E949833B4C0EF
S1131170E2E9F7E0A8E1B3E22EE133E284918D9352
S11311803196A217B307D1F7AA24A394C12CE12C5A
S113119006E020E430E048E768E173E280EA94E0A6
S11311A00E94983399C0EAE7F7E0A8E1B3E22EE1A0
S11311B033E284918D9331962A173B07D1F7AA2401
S11311C0A394C12CE12C06E020E430E048E768E178
S11311D073E280EA94E00E9498337EC0E8E9F7E085
S11311E0A8E1B3E22EE133E284918D933196A21704
S11311F0B307D1F7AA24A394C12CE12C06E020E480
S113120030E048E768E173E280EA94E00E949833B2
S113121063C0E4E7F7E0A8E1B3E22EE133E28491AE
S11312208D933196A217B307D1F7AA24A394C12CA6
S1131230E12C06E020E430E048E768E173E280EA6C
S113124094E00E94983348C0ECE8F7E0A8E1B3E2E8
S11312502EE133E284918D9331962A173B07D1F71F
S1131260AA24A394C12CE12C06E020E430E048E752
S113127068E173E280EA94E00E9498332DC0E0E8CC
S1131280F7E0A8E1B3E22EE133E284918D93319645
S11312902A173B07D1F7AA24A394C12CE12C06E01A
S11312A020E430E048E768E173E280EA94E00E94D9
S11312B0983312C0EF3508F018CFF0E0CF01880F53
S11312C0991FE80FF91FEE0FFF1FEC5CFA4FA8E11E
S11312D0B3E22EE133E2F4CE0F91EF90CF90AF90D2
S11312E00895AF92CF92EF920F93E0EEE80FE036BD
S11312F008F40CC1803B09F409C18F3909F406C113
S11313008F7D8C3909F402C1863909F4FFC0843811
S113131009F00EC1FBC0849180958D933196A2177C
S1131320B307C9F7AA24A394C12CE12C06E020E456
S113133030E048E762E173E280EA94E00E94983387
S1131340F7C08E2F90E0FC01E456F109E933F10572
S113135008F0EEC0E95CFE4F0C944C3BEEE6F7E07F
S1131360A2E1B3E228E133E284918D9331962A1706
S11313703B07D1F7AA24A394C12CE12C06E020E476
S113138030E048E762E173E280EA94E00E94983337
S1131390CFC0E6E8F7E0A2E1B3E228E133E28491CA
S11313A08D9331962A173B07D1F7AA24A394C12C15
S11313B0E12C06E020E430E048E762E173E280EAF1
S11313C094E00E949833B4C0E2E9F7E0A2E1B3E20A
S11313D028E133E284918D933196A217B307D1F7B4
S11313E0AA24A394C12CE12C06E020E430E048E7D1
S11313F062E173E280EA94E00E94983399C0EAE7DC
S1131400F7E0A2E1B3E228E133E284918D933196CF
S11314102A173B07D1F7AA24A394C12CE12C06E098
S113142020E430E048E762E173E280EA94E00E945D
S113143098337EC0E8E9F7E0A2E1B3E228E133E2C1
S113144084918D933196A217B307D1F7AA24A3945C
S1131450C12CE12C06E020E430E048E762E173E2CD
S113146080EA94E00E94983363C0E4E7F7E0A2E1E5
S1131470B3E228E133E284918D933196A217B30746
S1131480D1F7AA24A394C12CE12C06E020E430E097
S113149048E762E173E280EA94E00E94983348C02E
S11314A0ECE8F7E0A2E1B3E228E133E284918D9322
S11314B031962A173B07D1F7AA24A394C12CE12C17
S11314C006E020E430E048E762E173E280EA94E079
S11314D00E9498332DC0E0E8F7E0A2E1B3E228E1EE
S11314E033E284918D9331962A173B07D1F7AA24CE
S11314F0A394C12CE12C06E020E430E048E762E14B
S113150073E280EA94E00E94983312C0EF3508F049
S113151018CFF0E0CF01880F991FE80FF91FEE0FE5
S1131520FF1FEC5CFA4FA2E1B3E228E133E2F3CE11
S11315300F91EF90CF90AF900895CF93DF93EC018C
S11315408881882331F021960E944608899181116F
S1131550FBCFDF91CF910895CF93DF93EC01888186
S1131560882331F021960E94710989918111FBCF62
S1131570DF91CF910895DF92EF92FF920F931F9323
S1131580CF93DF93FC0180818823C1F0D42ED62F22
S11315908F010F5F1F4FC0E0CD1730F0DC1620F035
S11315A078010E94710903C078010E944608CF5F48
S11315B0F70180810F5F1F4F8111EECFDF91CF9133
S11315C01F910F91FF90EF90DF9008951F920F925B
S11315D00FB60F9211248F939F93AF93BF93809173
S11315E01B248F5F80931B2480911B248770B1F48C
S11315F080911C2490911D24A0911E24B0911F243D
S11316000196A11DB11D80931C2490931D24A093C9
S11316101E24B0931F2481E080930F2481E08093E3
S11316201224BF91AF919F918F910F900FBE0F9095
S11316301F9018951F920F920FB60F9211242F939B
S11316403F938F939F93809121238F5F80932123D6
S11316508A3008F44CC09091080620910A24909591
S1131660392F3227209103212323922F9095909391
S1131670032120910221232329272093022193234C
S1131680922320910A24292720930A2430910A24A2
S1131690209109249323922B9093092490910A2456
S11316A094FD04C091E39093202312C090912023D1
S11316B0915019F0909320230BC094E19093202330
S11316C090910A24209108249071922B90930824DD
S11316D09DEC899F912D1124969596959695990F39
S11316E0292F220F220F920F891B8093212380918F
S11316F0080682FF02C093E001C090E080910806D2
S113170083FF02C081E0982780911024891B80FF09
S113171009C0909310249091112482709150890FE4
S1131720809311249F918F913F912F910F900FBE21
S11317300F901F901895F894909109248923909103
S1131740092498279093092478940895F894909103
S11317500824892390910824982790930824789446
S11317600895F89490910A24909589230E949B0BE4
S113177008950E94A60B0E949B0B0895FC01A0E80B
S1131780B6E088E250968C93509751968C9381E002
S1131790828393E2958398E0918384830895FB0187
S11317A0208130E0220F331F820F931FDC014D9301
S11317B05C9380818F5F8F70808308951F920F9256
S11317C00FB60F9211240BB60F922F933F934F93A2
S11317D05F936F937F938F939F93AF93BF93EF9395
S11317E0FF93209168083091690840E050E060EC74
S11317F071EE84EE90E00E940B3BA90162E573E276
S113180083E593E20E94CF0BFF91EF91BF91AF91DB
S11318109F918F917F916F915F914F913F912F9104
S11318200F900BBE0F900FBE0F901F9018951F9234
S11318300F920FB60F9211240BB60F922F933F9372
S11318404F935F936F937F938F939F93AF93BF93C4
S1131850EF93FF9340E050E062E573E283E593E2A7
S11318600E94CF0BFF91EF91BF91AF919F918F9108
S11318707F916F915F914F913F912F910F900BBE8C
S11318800F900FBE0F901F9018951F920F920FB6D6
S11318900F9211240BB60F922F933F934F935F93A4
S11318A06F937F938F939F93AF93BF93EF93FF9324
S11318B0209168093091690940E050E060EC71EED4
S11318C084EE90E00E940B3BA90163E773E284E796
S11318D093E20E94CF0BFF91EF91BF91AF919F9143
S11318E08F917F916F915F914F913F912F910F90C5
S11318F00BBE0F900FBE0F901F9018951F920F9262
S11319000FB60F9211240BB60F922F933F934F9360
S11319105F936F937F938F939F93AF93BF93EF9353
S1131920FF9340E050E063E773E284E793E20E94B0
S1131930CF0BFF91EF91BF91AF919F918F917F91C9
S11319406F915F914F913F912F910F900BBE0F902C
S11319500FBE0F901F901895F894FC01AC01405EE7
S11319605F4F80E090E0DC0121913191820F931F61
S1131970A11DB11DE417F507B9F70097A105B1053D
S113198049F0689413F8B695A7959795879516949A
S1131990D1F702C080E090E078940895CF92DF926E
S11319A0EF92FF92CF93DF93CDB7DEB7A897CDBF69
S11319B0DEBF80910E24882309F436C183E593E2C7
S11319C00E94AC0CA0E0B0E08093172490931824FC
S11319D0A0931924B0931A2480912121909122215B
S11319E040911724509118246091192470911A245D
S11319F0A0E0B0E0841B950BA60BB70B8DA39EA3B0
S1131A00AFA3B8A7CDA0DEA0EFA0F8A4CC0CDD1C3A
S1131A10EE1CFF1CCC0CDD1CEE1CFF1CCC0CDD1CD6
S1131A20EE1CFF1CCC0CDD1CEE1CFF1CCC0CDD1CC6
S1131A30EE1CFF1C609117217091182180911921CF
S1131A4090911A212DE730E040E050E00E940B3BDA
S1131A50C701B6010E942D3B29A33AA34BA35CA363
S1131A60809128099091290949A15AA16BA17CA1CF
S1131A70A0E0B0E0841B950BA60BB70B8D8F9E8F57
S1131A80AF8FB8A38D8D9E8DAF8DB8A1BB2324F4E9
S1131A901D8E1E8E1F8E18A28D8D9E8DAF8DB8A1AA
S1131AA081329340A105B10544F080E293E0A0E0C7
S1131AB0B0E08D8F9E8FAF8FB8A38D8D9E8DAF8D2F
S1131AC0B8A180932809909329098D8D9E8DAF8D9F
S1131AD0B8A181159340A105B1054CF08091252151
S1131AE090912621029780932521909326218D8D14
S1131AF09E8DAF8DB8A18A3F9105A105B1054CF427
S1131B0080912521909126210296809325219093FE
S1131B10262180912521909126218130904130F019
S1131B2080E090E1809325219093262180912521C6
S1131B3090912621853A954030F485EA95E080938A
S1131B402521909326218091252190912621209171
S1131B50292130912A21A0E0B0E0821B930BA10936
S1131B60B1098DA39EA3AFA3B8A7CDA0DEA0EFA01B
S1131B70F8A4CC0CDD1CEE1CFF1CCC0CDD1CEE1CF4
S1131B80FF1CCC0CDD1CEE1CFF1CCC0CDD1CEE1C65
S1131B90FF1CCC0CDD1CEE1CFF1C60911B21709102
S1131BA01C2180911D2190911E212DE730E040E001
S1131BB050E00E940B3BC701B6010E942D3B298FC8
S1131BC03A8F4B8F5C8F20912A0830912B08898D96
S1131BD09A8DAB8DBC8D820F931FA11DB11D8D8F6E
S1131BE09E8FAF8FB8A38D8D9E8DAF8DB8A18115BB
S1131BF09240A105B1050CF06AC18D8D9E8DAF8D0B
S1131C00B8A1181619061A061B060CF457C15FC1B1
S1131C1010922A0810922B080FC08FEF91E0809346
S1131C202A0890932B0808C01092280910922909B9
S1131C3010922A0810922B0880910D24882309F40D
S1131C4034C184E793E20E94AC0CA0E0B0E080933E
S1131C50132490931424A0931524B09316248091F4
S1131C601F219091202140911324509114246091BC
S1131C70152470911624A0E0B0E0841B950BA60BEC
S1131C80B70B8D8B9E8BAF8BB88FCD88DE88EF889A
S1131C90F88CCC0CDD1CEE1CFF1CCC0CDD1CEE1CEB
S1131CA0FF1CCC0CDD1CEE1CFF1CCC0CDD1CEE1C44
S1131CB0FF1CCC0CDD1CEE1CFF1C60910F217091ED
S1131CC0102180911121909112212DE730E040E004
S1131CD050E00E940B3BC701B6010E942D3B298BAB
S1131CE03A8B4B8B5C8B80912A0990912B09498903
S1131CF05A896B897C89A0E0B0E0841B950BA60B04
S1131D00B70B8D879E87AF87B88B8D859E85AF85F2
S1131D10B889BB2324F41D861E861F86188A8D85E8
S1131D209E85AF85B88981329340A105B10544F001
S1131D3080E293E0A0E0B0E08D879E87AF87B88B08
S1131D408D859E85AF85B88980932A0990932B0948
S1131D508D859E85AF85B88981159340A105B10510
S1131D604CF0809123219091242102978093232188
S1131D70909324218D859E85AF85B8898A3F9105EE
S1131D80A105B1054CF48091232190912421029660
S1131D9080932321909324218091232190912421C5
S1131DA08130904130F080E090E180932321909342
S1131DB024218091232190912421853A954030F467
S1131DC085EA95E080932321909324218091232117
S1131DD0909124212091272130912821A0E0B0E086
S1131DE0821B930BA109B10989879A87AB87BC87AA
S1131DF0C984DA84EB84FC84CC0CDD1CEE1CFF1C4F
S1131E00CC0CDD1CEE1CFF1CCC0CDD1CEE1CFF1CE2
S1131E10CC0CDD1CEE1CFF1CCC0CDD1CEE1CFF1CD2
S1131E2060911321709114218091152190911621B4
S1131E302DE730E040E050E00E940B3BC701B601C3
S1131E400E942D3B2D833E834F8358872091280881
S1131E50309129088D819E81AF81B885820F931FAF
S1131E60A11DB11D89839A83AB83BC8389819A8127
S1131E70AB81BC8181159240A105B10584F58981AE
S1131E809A81AB81BC81181619061A061B0674F1D7
S1131E9026C0109228081092290830C08FEF91E0D4
S1131EA0809328089093290829C010922A09109237
S1131EB02B09109228081092290820C08D8D9E8D20
S1131EC0AF8DB8A180932A0890932B08B5CE898D45
S1131ED09A8DAB8DBC8DBB230CF09FCE99CE8D819A
S1131EE09E81AF81B885BB23CCF6D3CF89819A81FB
S1131EF0AB81BC818093280890932908A896CDBF14
S1131F00DEBFDF91CF91FF90EF90DF90CF900895E7
S1131F10CF93DF9300D0CDB7DEB71982DC011496DE
S1131F20EC91F0E0062E02C0F595E7950A94E2F7ED
S1131F30E0FF02C031E039831A82242311F021E04A
S1131F402A8339812A81321749F021E030E002C026
S1131F50220F331F6A95E2F7FC0127830F900F903D
S1131F60DF91CF9108950F931F93CF93DF93FA01DD
S1131F7020812223E1F1EB018C0110828091232343
S1131F800E9485064091232360E081E00E940F06B1
S1131F9083E591E20E949D0A4091232361E081E060
S1131FA00E940F0688E591E20E949D0A0A301105FD
S1131FB020F488ED91E20E949D0A4AE0BE01C80126
S1131FC00E94B33BCE010E949D0A83E691E20E94E7
S1131FD09D0A4091232362E081E00E940F0686E679
S1131FE091E20E949D0A8EE691E20E949D0ADF9191
S1131FF0CF911F910F910895E0E5F0E082E2828392
S1132000808188608083818183FFFDCFA0E0B4E07C
S11320108FE790E01A968D939C931B97E0E4F0E091
S113202083E0838391E09C938383E0E0F4E0818107
S113203080FFFDCF83E0809302040895CF93DF9364
S113204082E08093CA01ECE1F0E0E4911092CA01CD
S1132050C0E5D0E084E08E83A0E6B0E01396EC9374
S113206013978BE115968C93159787EB16968C93A3
S1132070169781E08C9388ED84BF83E08883E0E544
S1132080F0E0818181FFFDCFE0E5F0E080E1858330
S113209088ED84BF83E18083818184FFFDCF81E06B
S11320A08093680088ED84BF84E080934000DF91D2
S11320B0CF910895CF93DF93C0E8D1E08AE6888377
S11320C0A0E6B6E052968C915297816052968C931A
S11320D05297E0E4F8E088EA838330E1318325E035
S11320E0208383E0868387839BE69D8353969C911C
S11320F05397916053969C93E0E4F9E09DEA9383AF
S11321003183208386838783E0E0F8E093E391833F
S113211081E080832FEF31E026A337A3E0E0F9E0EC
S11321208083918328EE33E026A337A3E0E0FAE02E
S113213020E030E126A337A3868384E08083DF9107
S1132140CF9108958091080682FF02C083E001C008
S113215080E09091080693FF02C091E08927809364
S1132160102410921124089580910621823059F090
S1132170843099F08130E1F4F89480911124109224
S1132180112478940895F89480911124982F9170D3
S113219090931124789485950895F894809111244E
S11321A0982F93709093112478948595859508952C
S11321B0F89480911124982F93709093112478941B
S11321C08595859508954F925F926F927F929F9225
S11321D0AF92BF92CF92DF92EF92FF920F931F9331
S11321E0CF93DF93EC01962E5A016901F8018081A7
S11321F0882309F426C11082809123230E94850636
S11322004091232360E081E00E940F06992029F089
S113221083E791E20E949D0A04C087E891E20E944C
S11322209D0A4091232361E081E00E940F068CE91E
S113223091E20E949D0A8C819D81AE81BF81803490
S11322409244AF40B10520F488ED91E20E949D0ACA
S11322508C819D81AE81BF8180319742A105B105FA
S113226020F488ED91E20E949D0A8C819D81AE81CB
S1132270BF81883E9340A105B10520F488ED91E229
S11322800E949D0A6C817D818E819F8124E630E0CD
S113229040E050E00E940B3BDA01C9014AE0B6017C
S11322A00E94B33BC6010E949D0A4091232362E031
S11322B081E00E940F0688EA91E20E949D0A8881CB
S11322C09981AA81BB8180349244AF40B10520F446
S11322D088ED91E20E949D0A88819981AA81BB813F
S11322E0803A9648A140B10520F488ED91E20E941D
S11322F09D0A88819981AA81BB8180319742A10579
S1132300B10520F488ED91E20E949D0A68817981EB
S11323108A819B8128EE33E040E050E00E940B3B31
S1132320DA01C9014AE0B6010E94B33BC6010E942A
S11323309D0A4091232363E081E00E940F0686EB0F
S113234091E20E949D0A8C859D85AE85BF8580346F
S11323509244AF40B10520F488ED91E20E949D0AB9
S11323608C859D85AE85BF8580319742A105B105D9
S113237020F488ED91E20E949D0A8C859D85AE85AE
S1132380BF85883E9340A105B10520F488ED91E214
S11323900E949D0A6C857D858E859F8524E630E0AC
S11323A040E050E00E940B3BDA01C9014AE0B6016B
S11323B00E94B33BC6010E949D0A4091232364E01E
S11323C081E00E940F0682EC91E20E949D0A8885BA
S11323D09985AA85BB8580349244AF40B10520F429
S11323E088ED91E20E949D0A88859985AA85BB851E
S11323F0803A9648A140B10520F488ED91E20E940C
S11324009D0A88859985AA85BB8580319742A10557
S1132410B10520F488ED91E20E949D0A68857985D2
S11324208A859B8528EE33E040E050E00E940B3B18
S1132430DA01C9014AE0B6010E94B33BC6010E9419
S11324409D0A80919E23882309F4BCC1803209F43B
S113245073C018F4803141F0A6C1803309F4D4C0AC
S1132460803409F439C19FC10E94B410A82F880F89
S1132470BB0B24E630E00E94643B4C805D806E80A0
S11324807F80DC01CB01840D951DA61DB71D8C83B7
S11324909D83AE83BF834091232361E080E10E944A
S11324A00F068C819D81AE81BF8180349244AF4000
S11324B0B10520F488ED91E20E949D0A8C819D81F2
S11324C0AE81BF8180319742A105B10520F488ED2A
S11324D091E20E949D0A8C819D81AE81BF81883EDC
S11324E09340A105B10520F488ED91E20E949D0A74
S11324F06C817D818E819F8124E630E040E050E054
S11325000E940B3BDA01C9014AE0B6010E94B33BC9
S1132510C6010E94AC0A80E10E94B10B882309F431
S113252051C181E0F8018083F501808382E0F701E5
S1132530808310929E2346C10E94B410A82F880F56
S1132540BB0B24E630E00E94643B488059806A80DB
S11325507B80DC01CB01840D951DA61DB71D8883EE
S11325609983AA83BB834091232362E08EE30E9474
S11325700F0688819981AA81BB8180349244AF403F
S1132580B10520F488ED91E20E949D0A8881998129
S1132590AA81BB8180319742A105B10520F488ED61
S11325A091E20E949D0A88819981AA81BB81883E1B
S11325B09340A105B10520F488ED91E20E949D0AA3
S11325C0688179818A819B8124E630E040E050E093
S11325D00E940B3BDA01C9014AE0B6010E94B33BF9
S11325E0C6010E94AC0A80E10E94B10B882309F461
S11325F0E9C081E0F8018083F501808382E0F7017E
S1132600808310929E23DEC00E94B410A82F880FEE
S1132610BB0B24E630E00E94643B4C845D846E84F2
S11326207F84DC01CB01840D951DA61DB71D8C870D
S11326309D87AE87BF874091232363E08CE00E948F
S11326400F068C859D85AE85BF8580349244AF404E
S1132650B10520F488ED91E20E949D0A8C859D8548
S1132660AE85BF8580319742A105B10520F488ED80
S113267091E20E949D0A8C859D85AE85BF85883E2A
S11326809340A105B10520F488ED91E20E949D0AD2
S11326906C857D858E859F8524E630E040E050E0A2
S11326A00E940B3BDA01C9014AE0B6010E94B33B28
S11326B0C6010E94AC0A80E10E94B10B882309F490
S11326C081C081E0F8018083F501808382E0F70115
S11326D0808310929E2376C00E94B410A82F880F86
S11326E0BB0B24E630E00E94643B488459846A842E
S11326F07B84DC01CB01840D951DA61DB71D888745
S11327009987AA87BB874091232364E08CE00E94C9
S11327100F0688859985AA85BB8580349244AF408D
S1132720B10520F488ED91E20E949D0A888599857F
S1132730AA85BB8580319742A105B10520F488EDB7
S113274091E20E949D0A88859985AA85BB85883E69
S11327509340A105B10520F488ED91E20E949D0A01
S1132760688579858A859B8524E630E040E050E0E1
S11327700E940B3BDA01C9014AE0B6010E94B33B57
S1132780C6010E94AC0A80E10E94B10B8823D1F0FB
S113279081E0F8018083F501808382E0F701808382
S11327A010929E230FC080E10E94B10B882351F048
S11327B081E0F8018083F501808382E0F701808362
S11327C010929E23DF91CF911F910F91FF90EF9074
S11327D0DF90CF90BF90AF909F907F906F905F906D
S11327E04F900895CF92DF92EF92FF920F931F9331
S11327F0FC01DA01C901AB01770F660B770B00818D
S1132800118122813381400F511F621F731F8A017E
S11328109B0184179507A607B7072CF040835183C3
S1132820628373830AC06A017B01C81AD90AEA0A5F
S1132830FB0AC082D182E282F382332344F4480F3C
S1132840591F6A1F7B1F40835183628373831F91C7
S11328500F91FF90EF90DF90CF900895AF92BF92C9
S1132860DF92EF92FF920F931F93CF93DF93CDB735
S1132870DEB76597CDBFDEBF5C01F42ED22E0023F8
S113288009F4DEC0FB0180819181A281B381F5014D
S11328904081518162817381841B950BA60BB70B18
S11328A08F87988BA98BBA8B6F85788989899A8948
S11328B020E13EE040E050E00E940B3B2B873C8748
S11328C04D875E87EE2041F01F86188A198A1A8A7E
S11328D01B861C861D861E866B857C858D859E8544
S11328E02AE0AE014D5E5F4F0E94913B8B859C8533
S11328F0AD85BE850A97A105B10560F480E390E03B
S113290089839A83BE016D5E7F4FCE0101960E943A
S11329107F3B07C0BE016D5E7F4FCE0101960E94D2
S11329208A3BFE01319601900020E9F731978AE352
S113293090E0808391836F85788989899A8920E1E1
S11329403EE040E050E00E940B3B6F87788B898B20
S11329509A8B6F85788989899A892CE330E040E0E5
S113296050E00E940B3B2B873C874D875E876B852D
S11329707C858D859E852AE0AE014D5E5F4F0E9469
S1132980913B8B859C85AD85BE850A97A105B105D4
S113299050F4FE01319601900020E9F7319780E36D
S11329A090E080839183BE016D5E7F4F8E010F5F47
S11329B01F4FC8010E947F3BF80101900020E9F7F6
S11329C031978AE390E0808391836F857889898940
S11329D09A892CE330E040E050E00E940B3B6F8783
S11329E0788B898B9A8B6F85788989899A892AE073
S11329F0AE014D5E5F4F0E94913B8F859889A989F6
S1132A00BA890A97A105B10548F4F801019000209C
S1132A10E9F7319780E390E080839183BE016D5E96
S1132A207F4FCE0101960E947F3B409123236D2D61
S1132A308F2D0E940F06CE0101960E949D0A0AC0A6
S1132A4040912323622F8F2D0E940F0680ED91E287
S1132A500E949D0A6596CDBFDEBFDF91CF911F9185
S1132A600F91FF90EF90DF90BF90AF900895DF92A9
S1132A70EF92FF920F931F93CF93DF93CDB7DEB7FF
S1132A806597CDBFDEBFF62EE42ED22EFC018081E9
S1132A909181A281B3818E879F87A88BB98B8E8504
S1132AA09F85A889B98981309644A540B10540F035
S1132AB080E096E4A5E0B0E08E879F87A88BB98B71
S1132AC06E857F858889998920E13EE040E050E069
S1132AD00E940B3B2A8B3B8B4C8B5D8B6A897B89D9
S1132AE08C899D892AE0AE01455F5F4F0E94913B2E
S1132AF08A899B89AC89BD890A97A105B10560F4CF
S1132B0080E390E089839A83BE01655F7F4FCE01A5
S1132B1001960E947F3B07C0BE01655F7F4FCE01D7
S1132B2001960E948A3BFE01319601900020E9F74C
S1132B3031978AE390E0808391836E857F858889CD
S1132B40998920E13EE040E050E00E940B3B6E8713
S1132B507F87888B998B6E857F85888999892CE3FB
S1132B6030E040E050E00E940B3B2A8B3B8B4C8BC7
S1132B705D8B6A897B898C899D892AE0AE01455FDA
S1132B805F4F0E94913B8A899B89AC89BD890A97D2
S1132B90A105B10550F4FE01319601900020E9F73A
S1132BA0319780E390E080839183BE01655F7F4F1E
S1132BB08E010F5F1F4FC8010E947F3BF8010190F7
S1132BC00020E9F731978AE390E0808391836E8552
S1132BD07F85888999892CE330E040E050E00E94A9
S1132BE00B3B6E877F87888B998B6E857F85888961
S1132BF099892AE0AE01455F5F4F0E94913B8E8523
S1132C009F85A889B9890A97A105B10548F4F801F7
S1132C1001900020E9F7319780E390E0808391836D
S1132C20BE01655F7F4FCE0101960E947F3BF1108C
S1132C3005C0CE0101960E949D0A06C04D2D6E2D41
S1132C40CE0101960E94BB0A6596CDBFDEBFDF911F
S1132C50CF911F910F91FF90EF90DF900895E0E0E6
S1132C60F2E086E3848783E08587118282E08283B1
S1132C7087E0848381E080830895FC0181E0808380
S1132C80660F660F660F618380818068808383810D
S1132C908823E9F3A0E0B2E016968C911697169675
S1132CA08C9380818068808383818823E9F3A0E00A
S1132CB0B2E016968C91169716968C938481958122
S1132CC008959C01A8EEB3E00E94553B6C507E41F0
S1132CD08340910928EE33E040E050E00E940B3B32
S1132CE0A4E1BCE30E946B3BDC01CB01072E7CE03A
S1132CF0B695A795979587957A95D1F7702D0895F0
S1132D00CF93DF93E0910D21F0910E218CE494E0B8
S1132D108187928788E592E08783908780E891E5B0
S1132D20A1E0B0E08787908BA18BB28B8CE291E01D
S1132D30A0E0B0E0878B908FA18FB28F80E29CE1FE
S1132D40A0E0B0E083879487A587B6871182C091FD
S1132D500D21D0910E211A8280E19EE0A0E0B0E026
S1132D608B8B9C8BAD8BBE8B81E08C831E821B82F4
S1132D701D826BE1CE010E94F8036B8F7C8F8D8FD7
S1132D809E8F28E230E04091222360E080910D2163
S1132D9090910E210E940805DF91CF910895CF9361
S1132DA0DF93E0910B21F0910C2180E29CE1A0E003
S1132DB0B0E083879487A587B6878CE494E0818705
S1132DC0928788E592E08783908780E891E5A1E087
S1132DD0B0E08787908BA18BB28B8CE390E0A0E06E
S1132DE0B0E0878B908FA18FB28F1182C0910B219D
S1132DF0D0910C211A8280E19EE0A0E0B0E08B8BA0
S1132E009C8BAD8BBE8B81E08C831B821E821D82CA
S1132E106BE1CE010E94F8036B8F7C8F8D8F9E8FA8
S1132E2027E430E04091222360E080910B219091CF
S1132E300C210E940805DF91CF9108950F931F93F1
S1132E40CF93DF93EC01162F042F80EA96E8A1E0DC
S1132E50B0E088839983AA83BB8388879987AA87EC
S1132E60BB878C839D83AE83BF8360E1CE010E94C8
S1132E70F803688B798B8A8B9B8B20E030E0402FA2
S1132E80612FCE010E944F05DF91CF911F910F91C9
S1132E900895CF93DF93EC0180E29CE1A0E0B0E0E1
S1132EA08B879C87AD87BE878CE494E089879A875B
S1132EB088E592E08F83988780E891E5A1E0B0E00F
S1132EC08F87988BA98BBA8B8CE390E0A0E0B0E05D
S1132ED08F8B988FA98FBA8F19821A8280E19EE016
S1132EE0A0E0B0E08B8B9C8BAD8BBE8B81E08C83A0
S1132EF01B821E821D826BE1CE010E94F8036B8F40
S1132F007C8F8D8F9E8FDF91CF9108954F925F922A
S1132F106F927F928F929F92AF92BF92CF92DF92E5
S1132F20EF92FF920F931F93CF93DF933C01EB013A
S1132F306A012901809101218823D9F0109201218D
S1132F4026E630E040912223F8016081CE010E9400
S1132F50B5048B8C9C8CAD8CBE8C6BE1CE010E9435
S1132F60F80386169706A806B90619F0CE010E9442
S1132F704917F7018081882309F4B3C01082809136
S1132F8023230E9485064091232360E081E00E9470
S1132F900F068AED91E20E949D0A4091232361E08D
S1132FA081E00E940F068CEE91E20E949D0AF801D6
S1132FB08081843620F488ED91E20E949D0AF80114
S1132FC080818A3020F488ED91E20E949D0AF80104
S1132FD080814AE0B60190E00E94B33BC6010E94A2
S1132FE09D0A4091232362E081E00E940F0681EF55
S1132FF091E20E949D0A8A81811104C087EF91E2C7
S11330000E949D0A8A81813021F48EEF91E20E9410
S11330109D0A8A81823021F488E092E20E949D0A0E
S11330204091232363E081E00E940F0686E192E24F
S11330300E949D0A4AE0B6018F8198850E94B33BA5
S1133040C6010E949D0A80E292E20E949D0A40917C
S1133050232364E081E00E940F0685E292E20E944D
S11330609D0A4AE0B60189859A850E94B33BC60150
S11330700E949D0A80E292E20E949D0A40912323CD
S113308065E081E00E940F068FE292E20E949D0AB1
S113309020E040E060E0CE010B960E94371540919D
S11330A0232366E081E00E940F068AE392E20E94F5
S11330B09D0A20E040E060E0CE010F960E943715A3
S11330C04091232367E081E00E940F0685E492E2A9
S11330D00E949D0A20E040E060E0CE0143960E94F9
S11330E03715E0919E23EE2309F47BC38E2F90E0E5
S11330F0FC017097E336F10508F073C3E059FE4F05
S11331000C944C3B0E94B410F8019081890F808389
S11331104091232361E081E00E940F068CEE91E24E
S11331200E949D0AF8018081843620F488ED91E2A2
S11331300E949D0AF80180818A3020F488ED91E292
S11331400E949D0AF80180814AE0B60190E00E9445
S1133150B33BC6010E94AC0A80E10E94B10B8823F4
S113316009F43FC381E080930121F7018083F301D7
S1133170808382E0F201808310929E2332C30E94F6
S1133180B4109A81890F8F3F11F08A8302C082E0C4
S11331908A839A818BEA989F812D11248695282F02
S11331A0220F820F981B9A834091232362E081E0CF
S11331B00E940F0681EF91E20E949D0A8A8181118B
S11331C004C087EF91E20E94AC0A8A81813021F425
S11331D08EEF91E20E94AC0A8A81823021F488E069
S11331E092E20E94AC0A80E10E94B10B882309F4A8
S11331F0F8C24091232362E081E00E940F0681EF30
S113320091E20E949D0A8A81811104C087EF91E2B4
S11332100E949D0A8A81813021F48EEF91E20E94FE
S11332209D0A8A81823021F488E092E20E949D0AFC
S113323082E0F301808381E0F201808310929E2377
S1133240D0C20E94B410082E000C990B9C01220FCE
S1133250331F880F991F880F991F880F991F820F9A
S1133260931F2F813885820F931F8F8398874091F6
S1133270232363E08AE00E940F06E0910D21F09180
S11332800E21878190850A9720F488ED91E20E94AF
S11332909D0A8F8198858436910520F488ED91E20A
S11332A00E949D0A8F819885883E934020F488ED82
S11332B091E20E949D0A4AE0B6018F8198850E949E
S11332C0B33BC6010E94AC0A80E292E20E949D0ACE
S11332D080E10E94B10B882309F483C24091232327
S11332E063E08AE00E940F068F8198850A9720F494
S11332F088ED91E20E949D0A8F819885843691051C
S113330020F488ED91E20E949D0A8F819885883E81
S1133310934020F488ED91E20E949D0A4AE0B601B0
S11333208F8198850E94B33BC6010E949D0A80E26A
S113333092E20E949D0A83E0F301808382E0F2011D
S1133340808310929E234DC20E94B410082E000C5C
S1133350990B9C01220F331F880F991F880F991F07
S1133360880F991F820F931F29853A85820F931F17
S113337089879A874091232364E08AE00E940F069C
S113338089859A850A9720F488ED91E20E949D0A26
S113339089859A858436910520F488ED91E20E940E
S11333A09D0A89859A85883E934020F488ED91E2B0
S11333B00E949D0A4AE0B60189859A850E94B33B22
S11333C0C6010E94AC0A80E292E20E949D0A80E15A
S11333D00E94B10B882309F404C24091232364E0C2
S11333E08AE00E940F0689859A850A9720F488ED61
S11333F091E20E949D0A89859A858436910520F47C
S113340088ED91E20E949D0A89859A85883E9340C1
S113341020F488ED91E20E949D0A4AE0B601898574
S11334209A850E94B33BC6010E949D0A80E292E203
S11334300E949D0A84E0F301808382E0F20180838C
S113344010929E23CEC10E94B4102B9620E13EE040
S1133450482F4203B001439F700D112420E036E44D
S113346045E050E0CE010E94F2134091232365E031
S11334708BE00E940F0621E040E061E0CE010E9453
S1133480371580E10E94B10B882309F4AAC1409149
S1133490232365E08BE00E940F0620E040E060E01B
S11334A0CE010E94371581E580939E239AC10E9424
S11334B0B4102B969CE38902B001112420E036E479
S11334C045E050E0CE010E94F2134091232365E0D1
S11334D08BE00E940F0624E043E061E0CE010E94ED
S11334E0371580E10E94B10B882309F47AC1409119
S11334F0232365E08BE00E940F0620E040E060E0BB
S1133500CE010E94371582E580939E236AC10E94F2
S1133510B4102B96682F880F770B20E036E445E033
S113352050E0CE010E94F2134091232365E08BE02A
S11335300E940F0627E046E061E0CE010E943715A5
S113354080E10E94B10B882309F44BC140912323ED
S113355065E08BE00E940F0620E040E060E0CE01D1
S11335600E94371585E0F301808382E0F2018083B5
S113357010929E2336C10E94B4102F9620E13EE0A3
S1133580482F4203B001439F700D112420E036E41C
S113359045E050E0CE010E94F2134091232366E0FF
S11335A08BE00E940F0621E040E061E0CE010E9422
S11335B0371580E10E94B10B882309F412C14091B0
S11335C0232366E08BE00E940F0620E040E060E0E9
S11335D0CE010E94371581E680939E2302C10E948A
S11335E0B4102F969CE38902B001112420E036E444
S11335F045E050E0CE010E94F2134091232366E09F
S11336008BE00E940F0624E043E061E0CE010E94BB
S1133610371580E10E94B10B882309F4E2C0409180
S1133620232366E08BE00E940F0620E040E060E088
S1133630CE010E94371582E680939E23D2C00E9459
S1133640B410682F880F770B80910D2190910E2173
S113365020E036E445E050E00F960E94F2134091DA
S1133660232366E08BE00E940F062F9627E046E0B6
S113367061E0CE010E94371580E10E94B10B8823DE
S113368009F4AFC04091232366E08BE00E940F064B
S113369020E040E060E0CE010E94371586E0F301AF
S11336A0808382E0F201808310929E239AC00E945C
S11336B0B410639620E13EE0482F4203B001439FDB
S11336C0700D112420E036E445E050E0CE010E9464
S11336D0F2134091232367E08BE00E940F0621E060
S11336E040E061E0CE010E94371580E10E94B10BF9
S11336F0882309F476C04091232367E08BE00E947D
S11337000F0620E040E060E0CE010E94371581E71B
S113371080939E2366C00E94B4109CE38902B0018A
S1133720112480910D2190910E2120E036E445E092
S113373050E043960E94F2134091232367E08BE00C
S11337400E940F06639624E043E061E0CE010E94EC
S1133750371580E10E94B10B882309F442C04091DF
S1133760232367E08BE00E940F0620E040E060E046
S1133770CE010E94371582E780939E2332C00E94B7
S1133780B4106396682F880F770B20E036E445E089
S113379050E0CE010E94F2134091232367E08BE0B6
S11337A00E940F0627E046E061E0CE010E94371533
S11337B080E10E94B10B8823A1F04091232367E0AC
S11337C08BE00E940F0620E040E060E0CE010E9402
S11337D0371587E0F301808382E0F2018083109241
S11337E09E23DF91CF911F910F91FF90EF90DF9077
S11337F0CF90BF90AF909F908F907F906F905F908D
S11338004F9008954F925F926F927F928F929F9202
S1133810AF92BF92CF92DF92EF92FF920F93CF932A
S1133820DF935C016B01EA01490180911F23882326
S1133830D9F010921F2326E630E0409122236091B4
S11338401E23CE010E94B5044B8C5C8C6D8C7E8C47
S11338506BE1CE010E94F803461657066806790606
S113386019F0CE010E944917F7018081882309F4D9
S1133870B7C01082809123230E94850640912323A0
S113388060E081E00E940F06002329F080E592E2C7
S11338900E949D0A04C08EE592E20E949D0A409116
S11338A0232361E081E00E940F068CEE91E20E94E6
S11338B09D0A8881843620F488ED91E20E949D0A55
S11338C088818A3020F488ED91E20E949D0A8881E3
S11338D04AE0B60190E00E94B33BC6010E949D0AF3
S11338E04091232362E081E00E940F0681EF91E280
S11338F00E949D0A8A81811104C087EF91E20E948F
S11339009D0A8A81813059F48EEF91E20E949D0ACA
S11339108A81813021F488E092E20E949D0A4091DC
S1133920232363E081E00E940F0686E192E20E9475
S11339309D0A4AE0B6018F8198850E94B33BC60177
S11339400E949D0A80E292E20E949D0A40912323F4
S113395064E081E00E940F0685E292E20E949D0AE3
S11339604AE0B60189859A850E94B33BC6010E944C
S11339709D0A80E292E20E949D0A4091232365E021
S113398081E00E940F068FE292E20E949D0A20E0ED
S113399040E060E0CE010B960E943715409123234E
S11339A066E081E00E940F068AE392E20E949D0A8B
S11339B020E040E060E0CE010F960E943715409170
S11339C0232367E081E00E940F0685E492E20E94CF
S11339D09D0A20E040E060E0CE0143960E94371546
S11339E0E0919E23EE2309F47AC38E2F90E0FC012C
S11339F07097E336F10508F072C3ED52FE4F0C9454
S1133A004C3B0E94B41090911E23890F80931E2377
S1133A104091232361E081E00E940F068CEE91E245
S1133A200E949D0A8881843620F488ED91E20E94E8
S1133A309D0A88818A3020F488ED91E20E949D0AD3
S1133A4080911E234AE0B60190E00E94B33BC60178
S1133A500E94AC0A80E10E94B10B882309F43FC3A1
S1133A6081E080931F23F7018083F501808382E046
S1133A70F401808310929E2332C30E94B4109A8171
S1133A80890F8F3F11F08A8302C082E08A839A8172
S1133A908BEA989F812D11248695282F220F820F5F
S1133AA0981B9A834091232362E081E00E940F06D1
S1133AB081EF91E20E949D0A8A81811104C087EFFF
S1133AC091E20E94AC0A8A81813021F48EEF91E266
S1133AD00E94AC0A8A81823021F488E092E20E943A
S1133AE0AC0A80E10E94B10B882309F4F8C240912A
S1133AF0232362E081E00E940F0681EF91E20E949D
S1133B009D0A8A81811104C087EF91E20E949D0A77
S1133B108A81813021F48EEF91E20E949D0A8A818C
S1133B20823021F488E092E20E949D0A82E0F5014D
S1133B30808381E0F401808310929E23D0C20E948E
S1133B40B410082E000C990B9C01220F331F880F10
S1133B50991F880F991F880F991F820F931F2F8118
S1133B603885820F931F8F8398874091232363E0C6
S1133B708AE00E940F06E0910D21F0910E218781C9
S1133B8090850A9720F488ED91E20E949D0A8F8126
S1133B9098858436910520F488ED91E20E949D0A6F
S1133BA08F819885883E934020F488ED91E20E94AD
S1133BB09D0A4AE0B6018F8198850E94B33BC601F5
S1133BC00E94AC0A80E292E20E949D0A80E10E9477
S1133BD0B10B882309F483C24091232363E08AE074
S1133BE00E940F068F8198850A9720F488ED91E250
S1133BF00E949D0A8F8198858436910520F488ED72
S1133C0091E20E949D0A8F819885883E934020F41A
S1133C1088ED91E20E949D0A4AE0B6018F81988561
S1133C200E94B33BC6010E949D0A80E292E20E9478
S1133C309D0A83E0F501808382E0F4018083109281
S1133C409E234DC20E94B410082E000C990B9C01B7
S1133C50220F331F880F991F880F991F880F991FF0
S1133C60820F931F29853A85820F931F89879A872C
S1133C704091232364E08AE00E940F0689859A8597
S1133C800A9720F488ED91E20E949D0A89859A851D
S1133C908436910520F488ED91E20E949D0A89857D
S1133CA09A85883E934020F488ED91E20E949D0A13
S1133CB04AE0B60189859A850E94B33BC6010E94F9
S1133CC0AC0A80E292E20E949D0A80E10E94B10B5C
S1133CD0882309F404C24091232364E08AE00E940B
S1133CE00F0689859A850A9720F488ED91E20E944F
S1133CF09D0A89859A858436910520F488ED91E2A0
S1133D000E949D0A89859A85883E934020F488ED17
S1133D1091E20E949D0A4AE0B60189859A850E9433
S1133D20B33BC6010E949D0A80E292E20E949D0A72
S1133D3084E0F501808382E0F401808310929E2365
S1133D40CEC10E94B4102B9620E13EE0482F4203DE
S1133D50B001439F700D112420E036E445E050E0AB
S1133D60CE010E94F2134091232365E08BE00E9470
S1133D700F0621E040E061E0CE010E94371580E1AA
S1133D800E94B10B882309F4AAC14091232365E062
S1133D908BE00E940F0620E040E060E0CE010E942C
S1133DA0371581E580939E239AC10E94B4102B9607
S1133DB09CE38902B001112420E036E445E050E0A0
S1133DC0CE010E94F2134091232365E08BE00E9410
S1133DD00F0624E043E061E0CE010E94371580E144
S1133DE00E94B10B882309F47AC14091232365E032
S1133DF08BE00E940F0620E040E060E0CE010E94CC
S1133E00371582E580939E236AC10E94B4102B96D5
S1133E10682F880F770B20E036E445E050E0CE01B0
S1133E200E94F2134091232365E08BE00E940F0669
S1133E3027E046E061E0CE010E94371580E10E9450
S1133E40B10B882309F44BC14091232365E08BE037
S1133E500E940F0620E040E060E0CE010E9437158A
S1133E6085E0F501808382E0F401808310929E2333
S1133E7036C10E94B4102F9620E13EE0482F420341
S1133E80B001439F700D112420E036E445E050E07A
S1133E90CE010E94F2134091232366E08BE00E943E
S1133EA00F0621E040E061E0CE010E94371580E179
S1133EB00E94B10B882309F412C14091232366E0C8
S1133EC08BE00E940F0620E040E060E0CE010E94FB
S1133ED0371581E680939E2302C10E94B4102F9669
S1133EE09CE38902B001112420E036E445E050E06F
S1133EF0CE010E94F2134091232366E08BE00E94DE
S1133F000F0624E043E061E0CE010E94371580E112
S1133F100E94B10B882309F4E2C04091232366E098
S1133F208BE00E940F0620E040E060E0CE010E949A
S1133F30371582E680939E23D2C00E94B410682F66
S1133F40880F770B80910D2190910E2120E036E4AB
S1133F5045E050E00F960E94F2134091232366E05F
S1133F608BE00E940F062F9627E046E061E0CE0129
S1133F700E94371580E10E94B10B882309F4AFC079
S1133F804091232366E08BE00E940F0620E040E08E
S1133F9060E0CE010E94371586E0F501808382E05F
S1133FA0F401808310929E239AC00E94B4106396F9
S1133FB020E13EE0482F4203B001439F700D1124DD
S1133FC020E036E445E050E0CE010E94F213409137
S1133FD0232367E08BE00E940F0621E040E061E0CC
S1133FE0CE010E94371580E10E94B10B882309F4A9
S1133FF076C04091232367E08BE00E940F0620E007
S113400040E060E0CE010E94371581E780939E2353
S113401066C00E94B4109CE38902B001112480910F
S11340200D2190910E2120E036E445E050E04396C6
S11340300E94F2134091232367E08BE00E940F0655
S1134040639624E043E061E0CE010E94371580E1ED
S11340500E94B10B882309F442C04091232367E0F6
S11340608BE00E940F0620E040E060E0CE010E9459
S1134070371582E780939E2332C00E94B410639662
S1134080682F880F770B20E036E445E050E0CE013E
S11340900E94F2134091232367E08BE00E940F06F5
S11340A027E046E061E0CE010E94371580E10E94DE
S11340B0B10B8823A1F04091232367E08BE00E9499
S11340C00F0620E040E060E0CE010E94371587E053
S11340D0F501808382E0F401808310929E23DF91B6
S11340E0CF910F91FF90EF90DF90CF90BF90AF9062
S11340F09F908F907F906F905F904F900895CF9393
S1134100DF93CDB7DEB7C055D109CDBFDEBF19826D
S113411080E090E00E94DD3B809306210E94FC0F2A
S11341200E941D350E941E100E945A100E942F16D4
S113413080EA94E00E94BE0B0E94A21091E090934A
S113414064251092632510926225109227261092FE
S1134150262610922526E0E4F6E088E3828BA0E68A
S1134160B6E083E011968C93119787E0818320E079
S113417036E080EEF9018183E0E2F6E0918388E1A4
S1134180818B828B52968C93529753968C93A0EA90
S1134190B0E012968C911297876012968C9380E40B
S11341A0D90115968C9395837894E0E0F8E085EA3C
S11341B090E080A791A782A793A7E0E0F9E010A67A
S11341C011A612A613A60E94483360EA80EA94E07E
S11341D00E946F348093222362E880EA94E00E9474
S11341E06F348093232328E230E04091222360E05F
S11341F080910D2190910E210E94B50427E430E0B6
S11342004091222360E080910B2190910C210E9427
S1134210B50420E030E04091222360E08091092140
S113422090910A210E94DF0420E030E04091222393
S113423061E080910721909108210E94DF046BE1E5
S113424080910D2190910E210E94F803E0910D219F
S1134250F0910E21038D148D258D368D6017710715
S11342608207930711F00E9480166BE180910B2165
S113427090910C210E94F803E0910B21F0910C2104
S1134280038D148D258D368D601771078207930772
S113429011F00E94CF1660E18091092190910A21CA
S11342A00E94F803E0910921F0910A210089118903
S11342B022893389601771078207930731F040918F
S11342C0222360E0CF010E941E1760E18091072144
S11342D0909108210E94F803E0910721F0910821B0
S11342E0008911892289338960177107820793072E
S11342F031F04091222361E0CF010E941E172091EA
S11343000D2130910E21F90181859285809321211F
S113431090932221E0910B21F0910C2181859285CB
S113432080931F2190932021C0901C24D0901D24A1
S1134330E0901E24F0901F24D9011B964D915D91AD
S11343406D917C911E97D701C601840F951FA61FFE
S1134350B71F8A839B83AC83BD83C0901C24D090F9
S11343601D24E0901E24F0901F24D9011F964D9126
S11343705D916D917C915297D701C601840F951F71
S1134380A61FB71F8E839F83A887B98780911C249B
S113439090911D24A0911E24B0911F24438554851F
S11343A065857685840F951FA61FB71F8A879B870F
S11343B0AC87BD8780911C2490911D24A0911E245C
S11343C0B0911F244785508961897289840F951F94
S11343D0A61FB71F8E879F87A88BB98B8091232335
S11343E0882341F00E9493050E94B70580E00E9453
S11343F02F0712C0BFEFE3ECF9E0B150E040F0400A
S1134400E1F700C0000080E00E94DD064091232314
S113441061E081E00E940F064091232360E081E087
S11344200E940F068091280682FF0AC087E0E3E01D
S1134430F3E2DE01529601900D928A95E1F709C0EC
S113444087E0EAE0F3E2DE01529601900D928A954C
S1134450E1F7CE0142960E949D0A4091232360E039
S11344608CE00E940F068091280681FF0AC087E035
S1134470E3E0F3E2DE01529601900D928A95E1F7B2
S113448009C087E0EAE0F3E2DE01529601900D9262
S11344908A95E1F7CE0142960E949D0A28961FAEA6
S11344A0289727961FAE2797412C512C320124962A
S11344B01CAE1DAE1EAE1FAE2497D12C26961FAE89
S11344C026972C961FAE2C972D961FAE2D97A12CB8
S11344D029961FAE2997B12C25961FAE2597CC247B
S11344E0C3940F2EF0E22F2EF6E03F2EF02D4E0156
S11344F009E1800E911C0E943B332B968EAF9FAF37
S11345002B97D10118968C91847090E02796BFADBB
S113451027972B2F30E082179307C1F1F101808593
S113452082FF21C0E0910921F0910A2184819581C3
S1134530A681B78180931B2190931C21A0931D21F8
S1134540B0931E2180819181A281B38180931B212C
S113455090931C21A0931D21B0931E21F1E0279676
S1134560FFAF279713C0E0910921F0910A218085BC
S11345709185A285B38580931B2190931C21A093E0
S11345801D21B0931E2127961FAE2797D10118969F
S11345908C91827090E02896BFAD28972B2F30E045
S11345A082179307C1F1F101808581FF21C0E09159
S11345B00721F091082184819581A681B781809398
S11345C0132190931421A0931521B0931621808177
S11345D09181A281B3818093132190931421A0939C
S11345E01521B0931621F1E02896FFAF289713C048
S11345F0E0910721F091082180859185A285B385FA
S11346008093132190931421A0931521B093162124
S113461028961FAE289784E391E20E943A378DE3EF
S113462091E20E94FD378BE291E20E94FD37A3E6FE
S1134630B5E21C91E2E6F5E280818117C8F4412FCE
S113464050E062E275E286E493E20E94763BA2E6E1
S1134650B5E21C9381E080936425809146238134E4
S113466039F0823449F48091442380958093442323
S113467080914523813091F4E5E2F6E21082412FE6
S113468050E066E473E285EE95E20E94763B109377
S1134690262681E080932726109245232996FFAD94
S11346A02997F11173C025960FAD2597013031F488
S11346B081E080930E2410920C2414C025961FAD23
S11346C02597111105C010920E2410920C2415C0C8
S11346D025962FAD2597223029F410920E2410929E
S11346E00C2454C025963FAD2597333031F481E036
S11346F080930E2480930C2449C025964FAD2597B2
S1134700443009F043C0E0910D21F0910E218091D5
S11347101C2490911D24A0911E24B0911F24438534
S1134720548565857685840F951FA61FB71F8A83D8
S11347309B83AC83BD8380911C2490911D24A09104
S11347401E24B0911F244785508961897289840F82
S1134750951FA61FB71F8E839F83A887B98781855E
S1134760928580932121909322211092952381E0B8
S113477084831582138210929A2310929B231092A1
S11347809C2310929D2325961FAE2597A11065C0EA
S113479051E0B51206C081E080930D2410920B24E1
S11347A00FC0B11005C010920D2410920B2411C03B
S11347B082E0B81205C010920D2410920B244DC053
S11347C093E0B91206C081E080930D2480930B24FA
S11347D044C0A4E0BA1241C0E0910B21F0910C2135
S11347E080911C2490911D24A0911E24B0911F241B
S11347F04385548565857685840F951FA61FB71F4D
S11348008A879B87AC87BD8780911C2490911D2447
S1134810A0911E24B0911F24478550896189728913
S1134820840F951FA61FB71F8E879F87A88BB98BF0
S11348308185928580931F21909320211092942347
S113484081E0848315821382109296231092972319
S11348501092982310929923B12C8091A123811155
S113486090C02996BFAD2997B1110C947732A1104D
S113487028C02D96EFAD2D97E11128C02C96FFADE1
S11348802C97F1113DC00E94B41026960FAD2697C7
S1134890080F26960FAF269733C084E09DEC899FBE
S11348A0912D11249695969525969FAF2597990F4E
S11348B0990F25961FAD2597910F891B25968FAFCC
S11348C025972D962FAD2D972223D1F00E94B41059
S11348D02091212130912221082E000C990BAC014A
S11348E0440F551F880F991F880F991F880F991F10
S11348F0840F951F820F931F80932121909322216F
S11349002C963FAD2C973323D1F00E94B410209104
S11349101F2130912021082E000C990BAC01440F6B
S1134920551F880F991F880F991F880F991F840F8F
S1134930951F820F931F80931F2190932021AA20FB
S113494091F00E94B4108B0D8F3F09F484E09DEC2C
S1134950899FB12C1124B694B6949B2D990F990F6D
S1134960B90E8B19B82E80E10E94B90B882349F047
S113497081E08093A123EEE9F3E210821182809317
S1134980A02380911224882321F0109212240E94E3
S1134990CE0C61E088E292E00E943D1680932921CA
S11349A090932A2160E080E292E00E943D16809379
S11349B0272190932821D39441E34D1510F40C94AE
S11349C083328091292190912A2124960CAD1DAD2A
S11349D02EAD3FAD2497080F191F211D311D2496BC
S11349E00CAF1DAF2EAF3FAF24978091272190913C
S11349F02821480E591E611C711C80910E248823A5
S1134A0011F40C94DF3280910C2481110C94D73270
S1134A1080919523811104C080E48093050608C029
S1134A2040911B2424E066E080E096E00E94880F19
S1134A3040911C2450911D2460911E2470911F24C8
S1134A408A819B81AC81BD81481759076A077B071E
S1134A5008F471C1E0910D21F0910E218281882327
S1134A6011F40C94CB32823079F50C94AF328481FA
S1134A70882351F18781908580932121909322216D
S1134A8040911C2450911D2460911E2470911F2478
S1134A9087859089A189B289840F951FA61FB71FA6
S1134AA04385548565857685841B950BA60BB70BCA
S1134AB08A839B83AC83BD83148281E08383828158
S1134AC0813009F038C109C08281813009F033C1D5
S1134AD08381882311F40C94D13281E0809395234F
S1134AE040911C2450911D2460911E2470911F2418
S1134AF087819085480F591F611D711D4A835B830F
S1134B006C837D830C94303340919A2350919B2382
S1134B1060919C2370919D238789908DA18DB28D86
S1134B20840F951FA61FB71F80939A2390939B23EE
S1134B30A0939C23B0939D2381859285809321210A
S1134B4090932221158281E0868314821382F89443
S1134B5080911C2490911D24A0911E24B0911F24A7
S1134B60E0910D21F0910E214789508D618D728D58
S1134B70840F951FA61FB71F8A839B83AC83BD83B5
S1134B8078940C943033878190858093212190937D
S1134B902221438954896589768980919A23909149
S1134BA09B23A0919C23B0919D23840F951FA61F46
S1134BB0B71F80939A2390939B23A0939C23B09335
S1134BC09D230785108921893289081B190B2A0B1B
S1134BD03B0BD901C8010789108D218D328D400FFF
S1134BE0511F621F731F481759076A077B0720F577
S1134BF0F89480911C2490911D24A0911E24B091BE
S1134C001F24E0910D21F0910E2143895489658977
S1134C107689840F951FA61FB71F8A839B83AC8355
S1134C20BD837894E0910D21F0910E2181E085837C
S1134C301482138216827FC040911C2450911D243B
S1134C4060911E2470911F24840F951FA61FB71F07
S1134C508A839B83AC83BD83148281E08383158222
S1134C60168269C08481882309F465C0992309F4F4
S1134C7062C087819085809321219093222143856E
S1134C8054856585768540939A2350939B2360933E
S1134C909C2370939D2387859089A189B289841B65
S1134CA0950BA60BB70B0789108D218D328D438987
S1134CB0548965897689400F511F621F731F4817F5
S1134CC059076A077B0718F5F89480911C24909182
S1134CD01D24A0911E24B0911F24E0910D21F09178
S1134CE00E214389548965897689840F951FA61FEF
S1134CF0B71F8A839B83AC83BD837894E0910D2195
S1134D00F0910E2181E085831482138214C04091B6
S1134D101C2450911D2460911E2470911F24840F23
S1134D20951FA61FB71F8A839B83AC83BD83148200
S1134D3081E08383158280910D24882311F40C94DF
S1134D401C3380910B2481110C941433809194238F
S1134D50811105C081E0D10115968C9307C0409163
S1134D601B2424E060E0C1010E94880F40911C24B0
S1134D7050911D2460911E2470911F248A859B8567
S1134D80AC85BD85481759076A077B0708F472C1CB
S1134D90E0910B21F0910C218281882311F40C9471
S1134DA00E33823079F50C94F2328481882351F1E8
S1134DB08781908580931F219093202140911C240A
S1134DC050911D2460911E2470911F248785908921
S1134DD0A189B289840F951FA61FB71F43855485E7
S1134DE065857685841B950BA60BB70B8A879B87F5
S1134DF0AC87BD87148281E083838281813009F08E
S1134E0039C107C08281813009F034C1838188238C
S1134E10A9F081E08093942340911C2450911D2497
S1134E2060911E2470911F2487819085480F591F1B
S1134E30611D711D4A875B876C877D878581882307
S1134E4009F43DC040919623509197236091982393
S1134E507091992383899489A589B689840F951FB4
S1134E60A61FB71F8093962390939723A09398230C
S1134E70B09399238789908D80931F21909320214B
S1134E80158281E0868314821382F89480911C2415
S1134E9090911D24A0911E24B0911F24E0910B2118
S1134EA0F0910C214789508D618D728D840F951F6F
S1134EB0A61FB71F8A879B87AC87BD877894E0912C
S1134EC00B21F0910C218681882309F46DC0878120
S1134ED0908580931F21909320214389548965896B
S1134EE076898091962390919723A0919823B091ED
S1134EF09923840F951FA61FB71F80939623909321
S1134F009723A0939823B093992307851089218927
S1134F103289081B190B2A0B3B0BD901C8010789DD
S1134F20108D218D328D400F511F621F731F481742
S1134F3059076A077B0718F5F89480911C2490910F
S1134F401D24A0911E24B0911F24E0910B21F09107
S1134F500C214389548965897689840F951FA61F7E
S1134F60B71F8A879B87AC87BD877894E0910B2114
S1134F70F0910C2181E08583148213827BC04091DF
S1134F801C2450911D2460911E2470911F24840FB1
S1134F90951FA61FB71F8A879B87AC87BD8714827E
S1134FA081E08383158266C08481882309F462C00A
S1134FB08781908580931F21909320214385548578
S1134FC06585768540939623509397236093982321
S1134FD07093992387859089A189B289841B950B45
S1134FE0A60BB70B0789108D218D328D4389548907
S1134FF065897689400F511F621F731F481759072F
S11350006A077B0718F5F89480911C2490911D245D
S1135010A0911E24B0911F24E0910B21F0910C214A
S11350204389548965897689840F951FA61FB71F04
S11350308A879B87AC87BD877894E0910B21F09198
S11350400C2181E085831482138214C040911C24B6
S113505050911D2460911E2470911F24840F951F6C
S1135060A61FB71F8A879B87AC87BD87148281E000
S1135070838315828091A12381112BC780910F24F2
S1135080882309F488C010920F2400910E24002371
S113509021F080910C248823B1F08A819B81AC811A
S11350A0BD810196A11DB11D8A839B83AC83BD8301
S11350B08E819F81A885B9850196A11DB11D8E831E
S11350C09F83A887B98780910D24882321F080913C
S11350D00B248823B1F08A859B85AC85BD85019618
S11350E0A11DB11D8A879B87AC87BD878E859F854F
S11350F0A889B9890196A11DB11D8E879F87A88BA8
S1135100B98BE0909523002321F000910C2481E0D9
S1135110082725E041E0BE016E5F7F4F8CE194E2F9
S11351200E942E14E090952300910E24002321F078
S113513000910C2481E0082726E041E0BE016A5F6B
S11351407F4F8CE194E20E942E14E090942300910E
S11351500D24002321F000910B2481E0082725E091
S11351604CE0BE01665F7F4F8CE194E20E942E14F6
S1135170E090942300910D24002321F000910B244E
S113518081E0082726E04CE0BE01625F7F4F8CE19E
S113519094E20E942E14CC2009F4ADC926961FADCA
S11351A026971F3F21F424E026962FAF26978DECF7
S11351B026963FAD2697389F812D11248695869596
S11351C0982F990F990F890F381B26963FAF269772
S11351D04091232360E081E00E940F06D1011896DC
S11351E08C9182FF0AC087E0E3E0F3E2DE0152968D
S11351F001900D928A95E1F709C087E0EAE0F3E2B5
S1135200DE01529601900D928A95E1F7CE01429605
S11352100E949D0A4091232360E08CE00E940F06C7
S1135220F101808581FF0AC087E0E3E0F3E2DE015B
S1135230529601900D928A95E1F709C087E0EAE061
S1135240F3E2DE01529601900D928A95E1F7CE01C8
S113525042960E949D0A4091232361E080E00E94CF
S11352600F06E0E0F9E080A591A508EE13E07801CF
S1135270E81AF90A82A593A5081B190B24962CADEC
S11352803DAD4EAD5FAD2497203137424105510508
S113529048F580E290E0D4018D939C9322968EADE4
S11352A09FAD22970E9461169C01369527953695ED
S11352B0279536952795A5ECB0E20E94553B4AE028
S11352C0BE01675D7F4F929582958F7089279F708D
S11352D089270E94B33BBE01675D7F4FC4010E94D2
S11352E07F3B1BC022968EAD9FAD22970E94611614
S11352F09C01369527953695279536952795A5ECE7
S1135300B0E20E94553B4AE0B401929582958F70B9
S113531089279F7089270E94B33B80E296E58DAF71
S11353209EAF1FAEF40101900020E9F731978CE2A3
S113533090E08083918322968EAD9FAD22970E9448
S11353406116FC019C01369527953695279536956F
S11353502795A5ECB0E20E94553B929582958F70FB
S113536089279F70892748EE53E0849F9001859F89
S1135370300D949F300D11244AE0BE01675D7F4FCC
S1135380CF01821B930B0E94B33BBE01675D7F4F2D
S1135390C4010E947F3BBE01635C7F4FC4010E9435
S11353A07F3BC4010E949D0A4091232361E08CE06D
S11353B00E940F06B0E14B16B7E25B06610471046C
S11353C030F580E290E0F40180839183C2010E9471
S11353D061169C0136952795369527953695279520
S11353E0A5ECB0E20E94553B4AE0BE01675D7F4FE9
S11353F0929582958F7089279F7089270E94B33B6D
S1135400BE01675D7F4FC4010E947F3B18C0C2018B
S11354100E9461169C0136952795369527953695F9
S11354202795A5ECB0E20E94553B4AE0B401929561
S113543082958F7089279F7089270E94B33BF4015E
S113544001900020E9F731978CE290E0808391830A
S1135450C2010E946116FC019C0136952795369580
S1135460279536952795A5ECB0E20E94553B929579
S113547082958F7089279F70892748EE53E0849F17
S11354809001859F300D949F300D11244AE0BE0198
S1135490675D7F4FCF01821B930B0E94B33BBE011C
S11354A0675D7F4FC4010E947F3BBE01635C7F4FF9
S11354B0C4010E947F3BC4010E949D0A40912323A2
S11354C062E081E00E940F06FAE0EF16F10420F496
S11354D088ED91E20E949D0A24E6E216F10420F48C
S11354E088ED91E20E949D0A38EEE31633E0F3065C
S11354F020F488ED91E20E949D0A9701ADECBCEC8A
S11355000E94553B3C017694679476946794769414
S113551067944AE0B401C3010E94B33BF4010190D3
S11355200020E9F731978CE290E080839183C301F6
S1135530880F991F660C771C660C771C660C771C09
S1135540680E791E4AE0BE01675D7F4FC701861968
S113555097090E94B33BBE01675D7F4FC4010E945F
S11355607F3BF40101900020E9F7319780E295E256
S1135570808391831282C4010E949D0A4091232357
S113558062E08CE00E940F060A30110520F488EDD9
S113559091E20E949D0A0436110520F488ED91E2FF
S11355A00E949D0A083E43E0140720F488ED91E22E
S11355B00E949D0A9801ADECBCEC0E94553B7C0115
S11355C0F694E794F694E794F694E7944AE0B401E9
S11355D0C7010E94B33BF40101900020E9F7319721
S11355E08CE290E080839183C701880F991FEE0CB1
S11355F0FF1CEE0CFF1CEE0CFF1CE80EF91E4AE02B
S1135600BE01675D7F4FC8018E199F090E94B33B9D
S1135610BE01675D7F4FC4010E947F3BF40101908E
S11356200020E9F7319780E295E28083918312822A
S1135630C4010E949D0AF894809117249091182423
S1135640A0911924B0911A244AE0B4010E94B33BFA
S11356507894D4010D900020E9F7119785E0ECE6E9
S1135660F2E201900D928A95E1F74091232363E0E1
S113567081E00E940F068091172490911824A09134
S11356801924B0911A240A97A105B10520F488EDD4
S113569091E20E949D0A8091172490911824A09170
S11356A01924B0911A2484369105A105B10520F47A
S11356B088ED91E20E949D0A80911724909118240C
S11356C0A0911924B0911A24883E9340A105B105F4
S11356D020F488ED91E20E949D0AC4010E949D0A73
S11356E080912121909122214AE0B4010E94B33B90
S11356F04091232364E081E00E940F0680912121E0
S1135700909122210A9720F488ED91E20E949D0A4B
S113571080912121909122218436910520F488EDF5
S113572091E20E949D0A8091212190912221883E3C
S1135730934020F488ED91E20E949D0AD4010D90DB
S11357400020E9F7119785E0ECE6F2E201900D9272
S11357508A95E1F72D96BFAD2D97BB2321F0C401A7
S11357600E94AC0A03C0C4010E949D0AF89480916F
S1135770132490911424A0911524B09116244AE086
S1135780B4010E94B33B7894D4010D900020E9F752
S1135790119785E0ECE6F2E201900D928A95E1F72B
S11357A04091232363E08CE00E940F068091132430
S11357B090911424A0911524B09116240A97A10560
S11357C0B10520F488ED91E20E949D0A8091132492
S11357D090911424A0911524B09116248436910537
S11357E0A105B10520F488ED91E20E949D0A809103
S11357F0132490911424A0911524B0911624883E6A
S11358009340A105B10520F488ED91E20E949D0A20
S1135810C4010E949D0A80911F21909120214AE099
S1135820B4010E94B33BD4010D900020E9F7119715
S113583085E0ECE6F2E201900D928A95E1F7409161
S1135840232364E08CE00E940F0680911F21909135
S113585020210A9720F488ED91E20E949D0A80910C
S11358601F21909120218436910520F488ED91E246
S11358700E949D0A80911F2190912021883E93408F
S113588020F488ED91E20E949D0A2C960FAD2C978E
S1135890002321F0C4010E94AC0A03C0C4010E9489
S11358A09D0A4AE0B40180E090E00E94B33B269652
S11358B01FAD269711118FC080E10E94B10B40915A
S11358C0232364E080E00E940F0688ED91E20E94A9
S11358D09D0A4091232364E08BE00E940F0688ED2B
S11358E091E20E949D0A4091232367E080E00E9498
S11358F00F0688ED91E20E949D0A4091232367E000
S11359008BE00E940F0688ED91E20E949D0A40916F
S1135910232367E081E00E940F0625962FAD25978B
S1135920211105C081E792E20E949D0A14C02596C8
S11359303FAD2597313029F48AE792E20E949D0A0F
S113594014C025964FAD2597423029F483E892E29E
S11359500E949D0A13C025965FAD2597533029F404
S11359608DE892E20E949D0A09C025968FAD259785
S1135970843021F487E992E20E949D0A4091232316
S113598067E08CE00E940F06B11005C081E792E247
S11359900E949D0A10C091E0B91205C08AE792E204
S11359A00E949D0A10C0A2E0BA1205C083E892E2E8
S11359B00E949D0A0DC2B3E0BB1205C08DE892E2BD
S11359C00E949D0A0BC1E4E0BE1202C287E992E282
S11359D00E949D0AFDC12696FFAD2697F13009F07D
S11359E0FDC080E10E94B10B882341F081E029963B
S11359F00FAD2997082729960FAF299740912323A4
S1135A0064E080E00E940F0688ED91E20E949D0A06
S1135A104091232364E08BE00E940F0688ED91E21D
S1135A200E949D0A4091232367E080E00E940F06B4
S1135A3080EA92E20E949D0A4091232367E08BE072
S1135A400E940F0688ED91E20E949D0A4091232353
S1135A5067E081E00E940F0629961FAD2997112364
S1135A6009F45EC025962FAD2597211105C081E765
S1135A7092E20E94AC0A14C025963FAD25973130BE
S1135A8029F48AE792E20E94AC0A14C025964FAD2D
S1135A902597423029F482EA92E20E94AC0A13C0AC
S1135AA025965FAD2597533029F48BEA92E20E9444
S1135AB0AC0A09C025968FAD2597843021F487E977
S1135AC092E20E94AC0A4091232367E08CE00E949A
S1135AD00F06B11005C081E792E20E949D0A10C032
S1135AE091E0B91205C08AE792E20E949D0A10C0B3
S1135AF0A2E0BA1205C082EA92E20E949D0AA3C102
S1135B00B3E0BB1205C08BEA92E20E949D0A60C119
S1135B10E4E0BE1298C187E992E20E949D0A93C113
S1135B202596FFAD2597F11105C081E792E20E9409
S1135B309D0A14C025960FAD2597013029F48AE7F4
S1135B4092E20E949D0A14C025961FAD259712303B
S1135B5029F482EA92E20E949D0A13C025962FAD91
S1135B602597233029F48BEA92E20E949D0A09C00A
S1135B7025963FAD2597343021F487E992E20E94BF
S1135B809D0A4091232367E08CE00E940F06B11028
S1135B9005C081E792E20E949D0A10C041E0B41260
S1135BA005C08AE792E20E949D0A10C052E0B51235
S1135BB005C082EA92E20E949D0A45C183E0B812C0
S1135BC005C08BEA92E20E949D0A02C194E0B912D8
S1135BD03AC187E992E20E949D0A35C12696AFAD8B
S1135BE02697A23009F0F4C080E10E94B10B88230B
S1135BF011F081E0A8264091232364E080E00E9414
S1135C000F0688ED91E20E949D0A4091232364E0EF
S1135C108BE00E940F0688ED91E20E949D0A40915C
S1135C20232367E080E00E940F0688ED91E20E9442
S1135C309D0A4091232367E08BE00E940F0680EACF
S1135C4092E20E949D0A4091232367E081E00E9432
S1135C500F06AA2009F45EC02596BFAD2597B111A1
S1135C6005C081E792E20E949D0A14C02596EFAD1B
S1135C702597E13029F48AE792E20E949D0A14C034
S1135C802596FFAD2597F23029F482EA92E20E942C
S1135C909D0A13C025960FAD2597033029F48BEA8E
S1135CA092E20E949D0A09C025961FAD25971430E3
S1135CB021F487E992E20E949D0A4091232367E040
S1135CC08CE00E940F06B11005C081E792E20E94A9
S1135CD0AC0A10C021E0B21205C08AE792E20E9429
S1135CE0AC0A10C032E0B31205C082EA92E20E940C
