:100000000C94B9030C94D8030C94D8030C94D80323
:100010000C94D8030C94D8030C94D8030C94D803F4
:100020000C94D8030C94D8030C94C80A0C94D803ED
:100030000C94D8030C94D8030C94D8030C94D803D4
:100040000C94D8030C94D8030C94D8030C94D803C4
:100050000C94F90B0C94D8030C94C00B0C94D8039B
:100060000C94D8030C94D8030C94D8030C94D803A4
:100070000C94D8030C94D8030C94D8030C94D80394
:100080000C94D8030C94D8030C94D8030C94D80384
:100090000C94D8030C94D8030C94D8030C94D80374
:1000A0000C94D8030C94D8030C94D8030C94D80364
:1000B0000C94D8030C94D8030C94D8030C94FC0A29
:1000C0000C94D8030C94D8030C94D8030C94D80344
:1000D0000C94D8030C94D8030C94D8030C94D80334
:1000E0000C94D8030C94D8030C94D8030C94D80324
:1000F0000C94D8030C94D8030C94D8030C94D80314
:100100000C94D8030C94D8030C94D8030C94D80303
:100110000C94D8030C94D8030C94D8030C94D803F3
:100120000C94D8030C94D8030C94D8030C94D803E3
:100130000C94D8030C94D8030C94D8030C94D803D3
:100140000C94D8030C94D8030C94D8030C94600C32
:100150000C94D8030C94270C0C94D8030C94D8035B
:100160000C94D8030C94D8030C94D8030C94D803A3
:100170000C94D8030C94D8030C94D8030C94D80393
:100180000C94D8030C94D8030C94D8030C94D80383
:100190000C94D8030C94D8030C94D8030C94D80373
:1001A0000C94D8030C94D8030C94D8030C94D80363
:1001B0000C94D8030C94D8030C94D8030C94D80353
:1001C0000C94D8030C94D8030C94D8030C94D80343
:1001D0000C94D8030C94D8030C94D8030C94D80333
:1001E0000C94D8030C94D8030C94D8030C94D80323
:1001F0000C94D8030C9416390C94963921094E09A5
:100200004E094E094E094E094E094E094E094E0936
:100210004E094E094E094E094E094E094E094E0926
:1002200006094E094E094E094E094E09EB084E09C2
:100230004E09D0084E094E094E094E09B5084E091F
:100240004E094E094E094E094E094E094E094E09F6
:100250004E094E099A084E094E094E094E094E099B
:100260007F084E094E094E094E094E0964084D0A91
:100270007A0A7A0A7A0A7A0A7A0A7A0A7A0A7A0A5E
:100280007A0A7A0A7A0A7A0A7A0A7A0A7A0A7A0A4E
:100290007A0A320A7A0A7A0A7A0A7A0A7A0A170AE9
:1002A0007A0A7A0AFC097A0A7A0A7A0A7A0AE10947
:1002B0007A0A7A0A7A0A7A0A7A0A7A0A7A0A7A0A1E
:1002C0007A0A7A0A7A0AC6097A0A7A0A7A0A7A0AC3
:1002D0007A0AAB097A0A7A0A7A0A7A0A7A0A9009B9
:1002E000A717161B161B161B161B161B161B161BF9
:1002F000161B161B161B161B161B161B161B161B76
:10030000E417161B161B161B161B161B161B161B9B
:10031000161B161B161B161B161B161B161B161B55
:100320004618161B161B161B161B161B161B161B18
:10033000161B161B161B161B161B161B161B161B35
:10034000C918161B161B161B161B161B161B161B75
:10035000161B161B161B161B161B161B161B161B15
:1003600048197C19AC19161B161B161B161B161BDD
:10037000161B161B161B161B161B161B161B161BF5
:10038000E019141A441A161B161B161B161B161BF3
:10039000161B161B161B161B161B161B161B161BD5
:1003A0007C1AB01AE41A261C941F941F941F941FE1
:1003B000941F941F941F941F941F941F941F941FA5
:1003C000941F941F941F621C941F941F941F941FCA
:1003D000941F941F941F941F941F941F941F941F85
:1003E000941F941F941FC41C941F941F941F941F48
:1003F000941F941F941F941F941F941F941F941F65
:10040000941F941F941F471D941F941F941F941FA3
:10041000941F941F941F941F941F941F941F941F44
:10042000941F941F941FC61DFA1D2A1E941F941F0B
:10043000941F941F941F941F941F941F941F941F24
:10044000941F941F941F5E1E921EC21E941F941F21
:10045000941F941F941F941F941F941F941F941F04
:10046000941F941F941FFA1E2E1F621FF137073826
:10047000FE380738FE3815383638FE389438A63836
:100480000339E9381E0343004E00430020004300B7
:100490006F006E00740072006F006C006C006500ED
:1004A000720000000E0377006F006F006400790097
:1004B0006D0000000403090409023E00020100C0AF
:1004C00032090400000102020100052400100104A9
:1004D0002402060524060001070582030800FF091F
:1004E000040100020A0000000705040240000107A1
:1004F0000583024000011201100102000040EB03DD
:10050000042401000102DC010000000000000000E2
:10051000002F000000000700070000147F147F1464
:1005200000242A7F2A1200626408132300364955EA
:10053000225000000503000000001C2241000000C2
:1005400041221C000014083E08140008083E080858
:10055000000000A0600000080808080800006060B3
:100560000000002010080402003E5149453E0000F2
:10057000427F4000004261514946002141454B31D4
:10058000001814127F10002745454539003C4A49A0
:100590004930000171090503003649494936000612
:1005A0004949291E0000363600000000563600007A
:1005B00000081422410000141414141400004122F5
:1005C000140800020151090600324959513E007CCD
:1005D0001211127C007F49494936003E41414122B7
:1005E000007F4141221C007F49494941007F0909A0
:1005F0000901003E4149497A007F0808087F000050
:10060000417F4100002040413F01007F081422410A
:10061000007F40404040007F020C027F007F0408C2
:10062000107F003E4141413E007F09090906003E1E
:100630004151215E007F0919294600464949493147
:100640000001017F0101003F4040403F001F20406A
:10065000201F003F4038403F006314081463000728
:100660000870080700615149454300007F4141007F
:1006700000552A552A55000041417F00000402011F
:1006800002040040404040400000010204000020FD
:1006900054545478007F484444380038444444203B
:1006A00000384444487F00385454541800087E09E8
:1006B00001020018A4A4A47C007F080404780000B0
:1006C000447D4000004080847D00007F102844006D
:1006D0000000417F4000007C04180478007C08047E
:1006E000047800384444443800FC242424180018BA
:1006F000242418FC007C08040408004854545420A6
:1007000000043F444020003C4040207C001C20402E
:10071000201C003C4030403C004428102844001C71
:10072000A0A0A07C004464544C4400000877410021
:100730000000006300000000417708000008040882
:100740000804003D4040207D003D4040403D0021E8
:1007500054545479007D1211127D003944444439B7
:10076000003D4242423D000205020000007E014978
:10077000557311241FBECFEFCDBFDFE2DEBF12E203
:10078000A0E0B0E2E0E4F5E700E00BBF02C00790B4
:100790000D92AC3FB107D9F726E2ACEFB2E201C04F
:1007A0001D92A339B207E1F70E94A41F0C949E3A50
:1007B0000C940000AC01E0EDF0E090819F73906834
:1007C00090838081807F808380818062808390811C
:1007D000907F9160908380818F738083662389F0FE
:1007E000FA016150262F30E02F5F3F4F240F351F55
:1007F000A0EDB0E0919113969C931397E217F30745
:10080000C9F7E0EDF0E0818181608183818180FD25
:10081000FDCFE0EDF0E06481258136814781862FB0
:1008200090E0A0E0B0E0B42B922B2081207F2083C9
:10083000BC01CD01832B0895292F332722303105A8
:1008400059F02330310569F02130310521F582E17D
:1008500090E026EF34E028C08EE390E028EB34E00F
:1008600023C099278130910551F018F0029769F063
:1008700017C0E4EBF4E0849190E09F0115C0E4EA36
:10088000F4E0849190E09F010FC0E4E8F4E08491EB
:1008900090E09F0109C080E090E020E030E004C0DB
:1008A00080E090E020E030E0FA0120833183089579
:1008B0001F93CF93DF93C0E4D6E010E11E8386E060
:1008C0000E940F321D83DF91CF911F910895EF9207
:1008D000FF921F93CF93DF93EC017B01142F82E0F3
:1008E0000E940F32C7010E941932612FCE010E946F
:1008F0002332DF91CF911F91FF90EF900895EF92F7
:10090000FF921F93CF93DF93EC017B01142F83E0C1
:100910000E940F32C7010E941932612FCE010E943E
:100920003932DF91CF911F91FF90EF900895EF92B0
:100930000F931F93CF93DF93442371F04FE1649F94
:10094000200D311D1124E12C0FE140EABC0180EAA9
:1009500094E00E94BE320FC0C0E4D6E010E11E83D6
:10096000A901EFE16E9F400D511D1124BA014FE125
:100970000E947F041D83DF91CF911F910F91EF9013
:100980000895EF920F931F93CF93DF93442379F051
:10099000462F50E0440F551F240F351FE12C02E075
:1009A00040EABC0180EA94E00E94BE320DC0C0E47F
:1009B000D6E010E11E8370E0660F771F620F731F91
:1009C00042E00E947F041D83DF91CF911F910F9120
:1009D000EF9008958F929F92AF92CF92EF92FF92F5
:1009E0000F931F93CF93DF934C01162FE9014423FC
:1009F00081F08FE1689F200D311D1124A12CC12CA5
:100A0000E12C0FE140EAB40180EA94E00E94503208
:100A10001DC00E945804EFE7FEE33197F1F700C0D4
:100A200000000F2EF0E4EF2EF6E0FF2EF02D00E197
:100A3000F7010683BE01FFE11F9F600D711D1124A8
:100A40004FE1C4010E946704F7010583DF91CF9154
:100A50001F910F91FF90EF90CF90AF909F908F904C
:100A600008958F929F92AF92CF92EF92FF920F9341
:100A70001F93CF93DF934C01F62E8901442389F015
:100A8000262F30E0220F331F200F311FA12CC12C45
:100A9000E12C02E040EABC0180EA94E00E9450327E
:100AA00019C00E9458048FE79EE30197F1F700C038
:100AB0000000C0E4D6E06894EE24E4F8EE826F2DE6
:100AC00070E0660F771F600F711F42E0C4010E9443
:100AD0006704ED82DF91CF911F910F91FF90EF900E
:100AE000CF90AF909F908F900895AF92CF92EF925A
:100AF0000F93CF93DF9300D0CDB7DEB783E0898328
:100B00001A82A12CCC24C394E12C02E020E430E032
:100B100042E8BE016F5F7F4F80EA94E00E9450324E
:100B20000F900F90DF91CF910F91EF90CF90AF90FA
:100B30000895AF92CF92EF920F931F93CF93DF93CD
:100B400000D0CDB7DEB711E019831A82A12CCC24D6
:100B5000C394E12C02E020E430E042E8BE016F5F84
:100B60007F4F80EA94E00E9450328FE39FE101972B
:100B7000F1F700C000001A8320E430E042E8BE0133
:100B80006F5F7F4F80EA94E00E9450320F900F9089
:100B9000DF91CF911F910F91EF90CF90AF9008957B
:100BA000AF92CF92EF920F93CF93DF931F92CDB777
:100BB000DEB78983AA24A394C12CE12C01E020E0B4
:100BC00030E048E7BE016F5F7F4F80EA94E00E940B
:100BD00050320F90DF91CF910F91EF90CF90AF9067
:100BE0000895AF92CF92EF92FF920F931F93CF93FE
:100BF000DF9300D000D0CDB7DEB7F62E182F110F3F
:100C0000810F182F110F4423C1F080EB860F8983C9
:100C100081E28A831B838FE78C83AA24A394C12C4F
:100C2000E12C04E020E030E048E7BE016F5F7F4F39
:100C300080EA94E00E94503238C082E0810F8F70C9
:100C40008983AA24A394C12CE12C01E020E030E0A8
:100C500048E7BE016F5F7F4F80EA94E00E94503208
:100C6000812F90E002969595879595958795959516
:100C70008795959587958061898320E030E048E7E6
:100C8000BE016F5F7F4F80EA94E00E9450328F2D4B
:100C90008F70806B898320E030E048E7BE016F5F92
:100CA0007F4F80EA94E00E9450322496CDBFDEBF91
:100CB000DF91CF911F910F91FF90EF90CF90AF9068
:100CC0000895482F60E080E00E94F1050895AF92FA
:100CD000CF92DF92EF92FF920F931F93CF93DF9308
:100CE00000D0CDB7DEB7D82E0E9461061982DD2074
:100CF000A1F018E0AA24A394C12CEE24E39400E808
:100D000020E430E048E7BE016F5F7F4F80EA94E067
:100D10000E945032115071F723C0F12C80E00E94E4
:100D2000D00580E10E94D0058F2D8F70806B0E94CE
:100D3000D0051A8214E8AA24A394C12CE12C01E066
:100D400020E430E048E7BE016E5F7F4F80EA94E028
:100D50000E945032115079F7F39488E0F812DECFF8
:100D60008D2D0E9461060F900F90DF91CF911F9102
:100D70000F91FF90EF90DF90CF90AF9008958EEAA3
:100D80000E94D00582E00E94D00580E10E94D0053B
:100D900080E40E94D00580EB0E94D00581E80E948B
:100DA000D00580E80E94D00581EA0E94D00586EA3D
:100DB0000E94D00588EA0E94D0058FE30E94D005EA
:100DC0008DEA0E94D0058BE80E94D00580E30E9446
:100DD000D00588EC0E94D00583ED0E94D00580E00C
:100DE0000E94D00585ED0E94D00580E80E94D005C4
:100DF00089ED0E94D0058FE10E94D0058AED0E9406
:100E0000D00582E10E94D0058BED0E94D00580E4E0
:100E10000E94D0058FEA0E94D00580E00E946706FC
:100E20000895AF92CF92EF920F931F93CF93DF93DA
:100E3000CDB7DEB76697CDBFDEBF182F8EEA8983A8
:100E400085ED8A8380E88B8388EA8C83AA24A39427
:100E5000C12CE12C04E020E030E048E7BE016F5FE8
:100E60007F4F80EA94E00E9450328FE38D8301E04F
:100E700020E030E048E7BE016B5F7F4F80EA94E0FE
:100E80000E94503283ED8E831F8280E488878DE834
:100E9000898704E020E030E048E7BE016A5F7F4FC9
:100EA00080EA94E00E945032113049F577C08D837A
:100EB000AA24A394C12CE12C01E020E030E048E713
:100EC000BE016B5F7F4F80EA94E00E94503286E063
:100ED000EEE4F1E2DE01519601900D928A95E1F780
:100EE00006E020E030E048E7BE016F5E7F4F80EA19
:100EF00094E00E94503281E00E9467069EC084E127
:100F00008D83AA24A394C12CE12C01E020E030E0E1
:100F100048E7BE016B5F7F4F80EA94E00E94503249
:100F200080E28A871B8681EA8C8788EC8D8704E0C3
:100F300020E030E048E7BE01665F7F4F80EA94E042
:100F40000E9450328AED8E8782E18F8781E8888BFC
:100F500003E020E030E048E7BE01625F7F4F80EAB7
:100F600094E00E9450328FEC8D8301E020E030E06D
:100F700048E7BE016B5F7F4F80EA94E00E945032E9
:100F800089ED8D8320E030E048E7BE016B5F7F4F45
:100F900080EA94E00E94503281EF89CF80E18D8316
:100FA000AA24A394C12CE12C01E020E030E048E722
:100FB000BE016B5F7F4F80EA94E00E94503280E276
:100FC0008A871B8681EA8C8788EC8D8704E020E085
:100FD00030E048E7BE01665F7F4F80EA94E00E9400
:100FE00050328AED8E8782E18F8781E8888B03E01B
:100FF00020E030E048E7BE01625F7F4F80EA94E086
:101000000E9450328FE98D8301E020E030E048E714
:10101000BE016B5F7F4F80EA94E00E94503289ED01
:101020008D8320E030E048E7BE016B5F7F4F80EAB0
:1010300094E00E94503282E23ACF6696CDBFDEBF86
:10104000DF91CF911F910F91EF90CF90AF900895C6
:10105000AF92CF92EF920F93E0EEE80FE03608F4F4
:101060000BC1803B09F408C18F3909F405C18F7D9C
:101070008C3909F401C1863909F4FEC0843809F0BD
:101080000DC1FAC084918D933196A217B307D1F7A1
:10109000AA24A394C12CE12C06E020E430E048E728
:1010A00062E073E280EA94E00E945032F7C08E2F33
:1010B00090E0FC01E456F109E933F10508F0EEC0D7
:1010C000E250FF4F0C94043AE2E4F7E0A2E0B3E20E
:1010D00028E033E284918D9331962A173B07D1F7AC
:1010E000AA24A394C12CE12C06E020E430E048E7D8
:1010F00062E073E280EA94E00E945032CFC0EAE5F9
:10110000F7E0A2E0B3E228E033E284918D933196D8
:101110002A173B07D1F7AA24A394C12CE12C06E09F
:1011200020E430E048E762E073E280EA94E00E9465
:101130005032B4C0E6E6F7E0A2E0B3E228E033E2E2
:1011400084918D933196A217B307D1F7AA24A39463
:10115000C12CE12C06E020E430E048E762E073E2D5
:1011600080EA94E00E94503299C0EEE4F7E0A2E0F9
:10117000B3E228E033E284918D9331962A173B073E
:10118000D1F7AA24A394C12CE12C06E020E430E09E
:1011900048E762E073E280EA94E00E9450327EC049
:1011A000ECE6F7E0A2E0B3E228E033E284918D932D
:1011B0003196A217B307D1F7AA24A394C12CE12C2E
:1011C00006E020E430E048E762E073E280EA94E081
:1011D0000E94503263C0E8E4F7E0A2E0B3E228E006
:1011E00033E284918D933196A217B307D1F7AA24E5
:1011F000A394C12CE12C06E020E430E048E762E053
:1012000073E280EA94E00E94503248C0E0E6F7E0E2
:10121000A2E0B3E228E033E284918D9331962A175D
:101220003B07D1F7AA24A394C12CE12C06E020E4CB
:1012300030E048E762E073E280EA94E00E945032D6
:101240002DC0E4E5F7E0A2E0B3E228E033E28491C8
:101250008D9331962A173B07D1F7AA24A394C12C6A
:10126000E12C06E020E430E048E762E073E280EA47
:1012700094E00E94503212C0EF3508F018CFF0E031
:10128000CF01880F991FE80FF91FEE0FFF1FE85FCE
:10129000FA4FA2E0B3E228E033E2F4CE0F91EF90F0
:1012A000CF90AF900895AF92CF92EF920F93E0EE70
:1012B000E80FE03608F40CC1803B09F409C18F390E
:1012C00009F406C18F7D8C3909F402C1863909F40D
:1012D000FFC0843809F00EC1FBC0849180958D93C6
:1012E0003196A217B307C9F7AA24A394C12CE12C05
:1012F00006E020E430E048E76CEF72E280EA94E038
:101300000E945032F7C08E2F90E0FC01E456F109A4
:10131000E933F10508F0EEC0E95CFE4F0C94043AA5
:10132000E2E4F7E0ACEFB2E222E033E284918D93A5
:1013300031962A173B07D1F7AA24A394C12CE12C9C
:1013400006E020E430E048E76CEF72E280EA94E0E7
:101350000E945032CFC0EAE5F7E0ACEFB2E222E003
:1013600033E284918D9331962A173B07D1F7AA2453
:10137000A394C12CE12C06E020E430E048E76CEFB8
:1013800072E280EA94E00E945032B4C0E6E6F7E0F0
:10139000ACEFB2E222E033E284918D933196A21752
:1013A000B307D1F7AA24A394C12CE12C06E020E4D2
:1013B00030E048E76CEF72E280EA94E00E9450323D
:1013C00099C0EEE4F7E0ACEFB2E222E033E28491C0
:1013D0008D9331962A173B07D1F7AA24A394C12CE9
:1013E000E12C06E020E430E048E76CEF72E280EAAE
:1013F00094E00E9450327EC0ECE6F7E0ACEFB2E23F
:1014000022E033E284918D933196A217B307D1F78E
:10141000AA24A394C12CE12C06E020E430E048E7A4
:101420006CEF72E280EA94E00E94503263C0E8E41C
:10143000F7E0ACEFB2E222E033E284918D93319693
:10144000A217B307D1F7AA24A394C12CE12C06E07C
:1014500020E430E048E76CEF72E280EA94E00E941A
:10146000503248C0E0E6F7E0ACEFB2E222E033E20F
:1014700084918D9331962A173B07D1F7AA24A39420
:10148000C12CE12C06E020E430E048E76CEF72E28A
:1014900080EA94E00E9450322DC0E4E5F7E0ACEF22
:1014A000B2E222E033E284918D9331962A173B0712
:1014B000D1F7AA24A394C12CE12C06E020E430E06B
:1014C00048E76CEF72E280EA94E00E94503212C06A
:1014D000EF3508F018CFF0E0CF01880F991FE80F23
:1014E000F91FEE0FFF1FE85FFA4FACEFB2E222E008
:1014F00033E2F3CE0F91EF90CF90AF900895CF935A
:10150000DF93EC018881882331F021960E9428081E
:1015100089918111FBCFDF91CF910895CF93DF9314
:10152000EC018881882331F021960E94530989912A
:101530008111FBCFDF91CF910895DF92EF92FF925F
:101540000F931F93CF93DF93FC0180818823C1F019
:10155000D42ED62F8F010F5F1F4FC0E0CD1730F074
:10156000DC1620F078010E94530903C078010E9424
:101570002808CF5FF70180810F5F1F4F8111EECFE9
:10158000DF91CF911F910F91FF90EF90DF90089521
:101590001F920F920FB60F9211248F939F93AF93C8
:1015A000BF93809104248F5F80930424809104244E
:1015B0008770B1F48091052490910624A0910724AE
:1015C000B09108240196A11DB11D8093052490932C
:1015D0000624A0930724B093082481E08093F82385
:1015E00081E08093FB23BF91AF919F918F910F90EA
:1015F0000FBE0F901F9018951F920F920FB60F926B
:1016000011242F933F938F939F9380910A238F5F91
:1016100080930A238A3008F44CC0909108062091E8
:10162000F3239095392F3227209104212323922FE1
:10163000909590930421209103212323292720931F
:101640000321932392232091F32329272093F3232B
:101650003091F3232091F2239323922B9093F22342
:101660009091F32394FD04C091E39093092312C059
:1016700090910923915019F0909309230BC094E1A4
:10168000909309239091F3232091F1239071922B51
:101690009093F1239DEC899F912D11249695969519
:1016A0009695990F292F220F220F920F891B809355
:1016B0000A238091080682FF02C093E001C090E0F7
:1016C0008091080683FF02C081E098278091F9236A
:1016D000891B80FF09C09093F9239091FA238270AF
:1016E0009150890F8093FA239F918F913F912F9171
:1016F0000F900FBE0F901F901895F8949091F223C1
:1017000089239091F22398279093F2237894089557
:10171000F8949091F12389239091F1239827909345
:10172000F12378940895F8949091F3239095892368
:101730000E947D0B08950E94880B0E947D0B0895E6
:10174000FC01A0E8B6E088E250968C935097519641
:101750008C9381E0828393E2958398E091838483E4
:101760000895FB01208130E0220F331F820F931F69
:10177000DC014D935C9380818F5F8F70808308952F
:101780001F920F920FB60F9211240BB60F922F9348
:101790003F934F935F936F937F938F939F93AF93F9
:1017A000BF93EF93FF93209168083091690840E060
:1017B00050E060EC71EE84EE90E00E94C339A90124
:1017C0006BE373E28CE393E20E94B10BFF91EF9124
:1017D000BF91AF919F918F917F916F915F914F9149
:1017E0003F912F910F900BBE0F900FBE0F901F9047
:1017F00018951F920F920FB60F9211240BB60F92ED
:101800002F933F934F935F936F937F938F939F9308
:10181000AF93BF93EF93FF9340E050E06BE373E22D
:101820008CE393E20E94B10BFF91EF91BF91AF91D6
:101830009F918F917F916F915F914F913F912F91E8
:101840000F900BBE0F900FBE0F901F9018951F9218
:101850000F920FB60F9211240BB60F922F933F9356
:101860004F935F936F937F938F939F93AF93BF93A8
:10187000EF93FF93209168093091690940E050E0AF
:1018800060EC71EE84EE90E00E94C339A9016CE532
:1018900073E28DE593E20E94B10BFF91EF91BF914E
:1018A000AF919F918F917F916F915F914F913F91F8
:1018B0002F910F900BBE0F900FBE0F901F90189599
:1018C0001F920F920FB60F9211240BB60F922F9307
:1018D0003F934F935F936F937F938F939F93AF93B8
:1018E000BF93EF93FF9340E050E06CE573E28DE52A
:1018F00093E20E94B10BFF91EF91BF91AF919F9145
:101900008F917F916F915F914F913F912F910F90A8
:101910000BBE0F900FBE0F901F901895F894FC010E
:10192000AC01405E5F4F80E090E0DC01219131919D
:10193000820F931FA11DB11DE417F507B9F700979A
:10194000A105B10549F0689413F8B695A795979548
:1019500087951694D1F702C080E090E078940895BE
:10196000CF92DF92EF92FF92CF93DF93CDB7DEB7A6
:10197000A897CDBFDEBF8091F723882309F436C135
:101980008CE393E20E948E0CA0E0B0E080930024F0
:1019900090930124A0930224B093032480912221E8
:1019A00090912321409100245091012460910224C0
:1019B00070910324A0E0B0E0841B950BA60BB70B3D
:1019C0008DA39EA3AFA3B8A7CDA0DEA0EFA0F8A4DF
:1019D000CC0CDD1CEE1CFF1CCC0CDD1CEE1CFF1C1B
:1019E000CC0CDD1CEE1CFF1CCC0CDD1CEE1CFF1C0B
:1019F000CC0CDD1CEE1CFF1C60911821709119218C
:101A000080911A2190911B212DE730E040E050E0B9
:101A10000E94C339C701B6010E94E53929A33AA340
:101A20004BA35CA3809128099091290949A15AA14F
:101A30006BA17CA1A0E0B0E0841B950BA60BB70BBB
:101A40008D8F9E8FAF8FB8A38D8D9E8DAF8DB8A1DA
:101A5000BB2324F41D8E1E8E1F8E18A28D8D9E8D8D
:101A6000AF8DB8A181329340A105B10544F080E269
:101A700093E0A0E0B0E08D8F9E8FAF8FB8A38D8DE7
:101A80009E8DAF8DB8A180932809909329098D8DE3
:101A90009E8DAF8DB8A181159340A105B1054CF085
:101AA000809126219091272102978093262190935F
:101AB00027218D8D9E8DAF8DB8A18A3F9105A105FF
:101AC000B1054CF4809126219091272102968093B4
:101AD00026219093272180912621909127218130E2
:101AE000904130F080E090E180932621909327216F
:101AF0008091262190912721853A954030F485EAFE
:101B000095E0809326219093272180912621909122
:101B1000272120912A2130912B21A0E0B0E0821BC7
:101B2000930BA109B1098DA39EA3AFA3B8A7CDA024
:101B3000DEA0EFA0F8A4CC0CDD1CEE1CFF1CCC0C2E
:101B4000DD1CEE1CFF1CCC0CDD1CEE1CFF1CCC0CA9
:101B5000DD1CEE1CFF1CCC0CDD1CEE1CFF1C609180
:101B60001C2170911D2180911E2190911F212DE734
:101B700030E040E050E00E94C339C701B6010E9446
:101B8000E539298F3A8F4B8F5C8F20912A0830914D
:101B90002B08898D9A8DAB8DBC8D820F931FA11D53
:101BA000B11D8D8F9E8FAF8FB8A38D8D9E8DAF8D04
:101BB000B8A181159240A105B1050CF06AC18D8DC7
:101BC0009E8DAF8DB8A1181619061A061B060CF4C7
:101BD00057C15FC110922A0810922B080FC08FEFD7
:101BE00091E080932A0890932B0808C0109228094E
:101BF0001092290910922A0810922B088091F6233E
:101C0000882309F434C18DE593E20E948E0CA0E094
:101C1000B0E08093FC239093FD23A093FE23B09328
:101C2000FF2380912021909121214091FC2350910C
:101C3000FD236091FE237091FF23A0E0B0E0841BA0
:101C4000950BA60BB70B8D8B9E8BAF8BB88FCD886A
:101C5000DE88EF88F88CCC0CDD1CEE1CFF1CCC0C55
:101C6000DD1CEE1CFF1CCC0CDD1CEE1CFF1CCC0C88
:101C7000DD1CEE1CFF1CCC0CDD1CEE1CFF1C60915F
:101C800010217091112180911221909113212DE743
:101C900030E040E050E00E94C339C701B6010E9425
:101CA000E539298B3A8B4B8B5C8B80912A0990917B
:101CB0002B0949895A896B897C89A0E0B0E0841B93
:101CC000950BA60BB70B8D879E87AF87B88B8D853D
:101CD0009E85AF85B889BB2324F41D861E861F868A
:101CE000188A8D859E85AF85B88981329340A1057C
:101CF000B10544F080E293E0A0E0B0E08D879E87DC
:101D0000AF87B88B8D859E85AF85B88980932A096A
:101D100090932B098D859E85AF85B8898115934059
:101D2000A105B1054CF080912421909125210297C5
:101D300080932421909325218D859E85AF85B88938
:101D40008A3F9105A105B1054CF480912421909121
:101D5000252102968093242190932521809124218E
:101D6000909125218130904130F080E090E1809386
:101D70002421909325218091242190912521853A39
:101D8000954030F485EA95E08093242190932521B5
:101D90008091242190912521209128213091292181
:101DA000A0E0B0E0821B930BA109B10989879A8753
:101DB000AB87BC87C984DA84EB84FC84CC0CDD1C43
:101DC000EE1CFF1CCC0CDD1CEE1CFF1CCC0CDD1C27
:101DD000EE1CFF1CCC0CDD1CEE1CFF1CCC0CDD1C17
:101DE000EE1CFF1C60911421709115218091162129
:101DF000909117212DE730E040E050E00E94C33978
:101E0000C701B6010E94E5392D833E834F83588771
:101E100020912808309129088D819E81AF81B88555
:101E2000820F931FA11DB11D89839A83AB83BC834D
:101E300089819A81AB81BC8181159240A105B10550
:101E400084F589819A81AB81BC81181619061A061E
:101E50001B0674F126C0109228081092290830C081
:101E60008FEF91E0809328089093290829C0109261
:101E70002A0910922B09109228081092290820C0D4
:101E80008D8D9E8DAF8DB8A180932A0890932B08DD
:101E9000B5CE898D9A8DAB8DBC8DBB230CF09FCEBA
:101EA00099CE8D819E81AF81B885BB23CCF6D3CFEF
:101EB00089819A81AB81BC818093280890932908FD
:101EC000A896CDBFDEBFDF91CF91FF90EF90DF905E
:101ED000CF900895CF93DF9300D0CDB7DEB71982AE
:101EE000DC011496EC91F0E0062E02C0F595E79522
:101EF0000A94E2F7E0FF02C031E039831A8224231A
:101F000011F021E02A8339812A81321749F021E03A
:101F100030E002C0220F331F6A95E2F7FC012783ED
:101F20000F900F90DF91CF910895E0E5F0E082E20D
:101F30008283808188608083818183FFFDCFA0E0E0
:101F4000B4E08FE790E01A968D939C931B97E0E4A2
:101F5000F0E083E0838391E09C938383E0E0F4E00E
:101F6000818180FFFDCF83E0809302040895CF93A9
:101F7000DF9382E08093CA01ECE1F0E0E4911092FB
:101F8000CA01C0E5D0E084E08E83A0E6B0E01396FD
:101F9000EC9313978BE115968C93159787EB169618
:101FA0008C93169781E08C9388ED84BF83E08883BF
:101FB000E0E5F0E0818181FFFDCFE0E5F0E080E148
:101FC000858388ED84BF83E18083818184FFFDCF99
:101FD00081E08093680088ED84BF84E080934000B6
:101FE000DF91CF910895CF93DF93C0E8D1E08AE6E7
:101FF0008883A0E6B6E052968C9152978160529603
:102000008C935297E0E4F8E088EA838330E13183EF
:1020100025E0208383E0868387839BE69D83539618
:102020009C915397916053969C93E0E4F9E09DEA6C
:1020300093833183208386838783E0E0F8E093E312
:10204000918381E080832FEF31E026A337A3E0E086
:10205000F9E08083918328EE33E026A337A3E0E004
:10206000FAE020E030E126A337A3868384E0808372
:10207000DF91CF9108958091080682FF02C083E02E
:1020800001C080E09091080693FF02C091E089278B
:102090008093F9231092FA230895809107218230CA
:1020A00059F0843099F08130E1F4F8948091FA236A
:1020B0001092FA2378940895F8948091FA23982F37
:1020C00091709093FA23789485950895F89480916F
:1020D000FA23982F93709093FA2378948595859599
:1020E0000895F8948091FA23982F93709093FA238F
:1020F00078948595859508959F92AF92BF92CF92DF
:10210000DF92EF92FF920F931F93CF93DF936901BA
:10211000F8013081332309F47EC25A01962EEC0176
:10212000108280910C230E94670640910C2360E08E
:1021300081E00E94F105992029F084E591E20E9456
:102140007F0A04C088E691E20E947F0A40910C2336
:1021500061E081E00E94F1058DE791E20E947F0A33
:102160008C819D81AE81BF8180319742A105B105EF
:1021700020F483EC91E20E947F0A8C819D81AE81E4
:10218000BF81883E9340A105B10520F483EC91E224
:102190000E947F0A6C817D818E819F8124E630E0E0
:1021A00040E050E00E94C339DA01C9014AE0B601BB
:1021B0000E94643AC6010E947F0A40910C2362E0AB
:1021C00081E00E94F1058CE891E20E947F0A8881FB
:1021D0009981AA81BB81803A9648A140B10520F43B
:1021E00083EC91E20E947F0A88819981AA81BB8158
:1021F00080319742A105B10520F483EC91E20E9461
:102200007F0A688179818A819B8128EE33E040E0F2
:1022100050E00E94C339DA01C9014AE0B6010E94C8
:10222000643AC6010E947F0A40910C2363E081E07A
:102230000E94F1058CE991E20E947F0A8C819D81C8
:10224000AE81BF8180319742A105B10520F483ECB6
:1022500091E20E947F0A8C819D81AE81BF81883E80
:102260009340A105B10520F483EC91E20E947F0A1E
:102270006C817D818E819F8124E630E040E050E0DA
:102280000E94C339DA01C9014AE0B6010E94643AEA
:10229000C6010E947F0A40910C2364E081E00E9405
:1022A000F1058BEA91E20E947F0A88819981AA81D7
:1022B000BB81803A9648A140B10520F483EC91E2BD
:1022C0000E947F0A88819981AA81BB8180319742CF
:1022D000A105B10520F483EC91E20E947F0A688198
:1022E00079818A819B8128EE33E040E050E00E94B2
:1022F000C339DA01C9014AE0B6010E94643AC60155
:102300000E947F0A80918723882309F484C1803248
:1023100009F465C018F4803141F06EC1803309F4CE
:10232000B8C0803409F40FC167C10E944D10E4E6C3
:102330008E02C0011124092E000CAA0BBB0B4C818C
:102340005D816E817F81840F951FA61FB71F8C83CF
:102350009D83AE83BF8340910C2361E08CE00E949B
:10236000F1058C819D81AE81BF8180319742A105AD
:10237000B10520F483EC91E20E947F0A8C819D815B
:10238000AE81BF81883E9340A105B10520F483EC66
:1023900091E20E947F0A6C817D818E819F8124E67B
:1023A00030E040E050E00E94C339DA01C9014AE060
:1023B000B6010E94643AC6010E948E0A80E10E9422
:1023C000930B882309F427C181E0F8018083F5018C
:1023D000808382E0F7018083109287231CC10E94D2
:1023E0004D10F4E68F02C0011124092E000CAA0B37
:1023F000BB0B488159816A817B81840F951FA61F81
:10240000B71F88839983AA83BB8340910C2361E023
:102410008CE00E94F10588819981AA81BB8180317D
:102420009742A105B10520F483EC91E20E947F0A56
:1024300088819981AA81BB81883E9340A105B1051D
:1024400020F483EC91E20E947F0A688179818A817D
:102450009B8124E630E040E050E00E94C339DA017D
:10246000C9014AE0B6010E94643AC6010E948E0A80
:1024700080E10E94930B882309F4CDC081E0F8012C
:102480008083F501808382E0F701808310928723A7
:10249000C2C00E944D10F4E68F02C0011124092E23
:1024A000000CAA0BBB0B4C855D856E857F85840F68
:1024B000951FA61FB71F8C879D87AE87BF8740914A
:1024C0000C2361E08CE00E94F1058C859D85AE8532
:1024D000BF8580319742A105B10520F483EC91E2DC
:1024E0000E947F0A8C859D85AE85BF85883E93407E
:1024F000A105B10520F483EC91E20E947F0A6C856E
:102500007D858E859F8524E630E040E050E00E9486
:10251000C339DA01C9014AE0B6010E94643AC60132
:102520000E948E0A80E10E94930B882309F473C0F5
:1025300081E0F8018083F501808382E0F7018083E8
:102540001092872368C00E944D10F4E68F02C001EC
:102550001124092E000CAA0BBB0B488559856A85EE
:102560007B85840F951FA61FB71F88879987AA8729
:10257000BB8740910C2361E08CE00E94F1058885C7
:102580009985AA85BB8580319742A105B10520F4C4
:1025900083EC91E20E947F0A88859985AA85BB8594
:1025A000883E9340A105B10520F483EC91E20E949E
:1025B0007F0A688579858A859B8524E630E040E03E
:1025C00050E00E94C339DA01C9014AE0B6010E9415
:1025D000643AC6010E948E0A80E10E94930B882310
:1025E000D1F081E0F8018083F501808382E0F7017A
:1025F0008083109287230FC080E10E94930B882371
:1026000051F081E0F8018083F501808382E0F701D9
:10261000808310928723DF91CF911F910F91FF90BC
:10262000EF90DF90CF90BF90AF909F900895CF92A2
:10263000DF92EF92FF920F931F93FC01DA01C90121
:10264000AB01770F660B770B0081118122813381FB
:10265000400F511F621F731F8A019B01841795074A
:10266000A607B7072CF040835183628373830AC0A7
:102670006A017B01C81AD90AEA0AFB0AC082D18220
:10268000E282F382332344F4480F591F6A1F7B1FF1
:1026900040835183628373831F910F91FF90EF906A
:1026A000DF90CF900895AF92BF92DF92EF92FF92AA
:1026B0000F931F93CF93DF93CDB7DEB76597CDBF51
:1026C000DEBF5C01F42ED22E002309F4DEC0FB0134
:1026D00080819181A281B381F50140815181628124
:1026E0007381841B950BA60BB70B8F87988BA98BD7
:1026F000BA8B6F85788989899A8920E13EE040E02C
:1027000050E00E94C3392B873C874D875E87EE20BF
:1027100041F01F86188A198A1A8A1B861C861D8614
:102720001E866B857C858D859E852AE0AE014D5E7B
:102730005F4F0E94423A8B859C85AD85BE850A9786
:10274000A105B10560F480E390E089839A83BE011E
:102750006D5E7F4FCE0101960E94303A07C0BE01E8
:102760006D5E7F4FCE0101960E943B3AFE0131968D
:1027700001900020E9F731978AE390E0808391830C
:102780006F85788989899A8920E13EE040E050E0B0
:102790000E94C3396F87788B898B9A8B6F85788974
:1027A00089899A892CE330E040E050E00E94C339E7
:1027B0002B873C874D875E876B857C858D859E85C5
:1027C0002AE0AE014D5E5F4F0E94423A8B859C85A8
:1027D000AD85BE850A97A105B10550F4FE0131967D
:1027E00001900020E9F7319780E390E080839183A6
:1027F000BE016D5E7F4F8E010F5F1F4FC8010E94AB
:10280000303AF80101900020E9F731978AE390E02F
:10281000808391836F85788989899A892CE330E058
:1028200040E050E00E94C3396F87788B898B9A8B88
:102830006F85788989899A892AE0AE014D5E5F4F5C
:102840000E94423A8F859889A989BA890A97A10579
:10285000B10548F4F80101900020E9F7319780E3D1
:1028600090E080839183BE016D5E7F4FCE01019623
:102870000E94303A40910C236D2D8F2D0E94F1055E
:10288000CE0101960E947F0A0AC040910C23622F5C
:102890008F2D0E94F1058BEB91E20E947F0A6596D5
:1028A000CDBFDEBFDF91CF911F910F91FF90EF90D1
:1028B000DF90BF90AF900895DF92EF92FF920F9359
:1028C0001F93CF93DF93CDB7DEB76597CDBFDEBF44
:1028D000F62EE42ED22EFC0180819181A281B3815B
:1028E0008E879F87A88BB98B8E859F85A889B9898C
:1028F00081309644A540B10540F080E096E4A5E023
:10290000B0E08E879F87A88BB98B6E857F8588897D
:10291000998920E13EE040E050E00E94C3392A8BD3
:102920003B8B4C8B5D8B6A897B898C899D892AE0E6
:10293000AE01455F5F4F0E94423A8A899B89AC890C
:10294000BD890A97A105B10560F480E390E0898311
:102950009A83BE01655F7F4FCE0101960E94303A97
:1029600007C0BE01655F7F4FCE0101960E943B3AD2
:10297000FE01319601900020E9F731978AE390E05B
:10298000808391836E857F858889998920E13EE0E7
:1029900040E050E00E94C3396E877F87888B998B17
:1029A0006E857F85888999892CE330E040E050E08E
:1029B0000E94C3392A8B3B8B4C8B5D8B6A897B8948
:1029C0008C899D892AE0AE01455F5F4F0E94423AA3
:1029D0008A899B89AC89BD890A97A105B10550F404
:1029E000FE01319601900020E9F7319780E390E0F5
:1029F00080839183BE01655F7F4F8E010F5F1F4F04
:102A0000C8010E94303AF80101900020E9F731979F
:102A10008AE390E0808391836E857F858889998998
:102A20002CE330E040E050E00E94C3396E877F879E
:102A3000888B998B6E857F85888999892AE0AE017C
:102A4000455F5F4F0E94423A8E859F85A889B9896C
:102A50000A97A105B10548F4F80101900020E9F7B3
:102A6000319780E390E080839183BE01655F7F4F63
:102A7000CE0101960E94303AF11005C0CE010196B8
:102A80000E947F0A06C04D2D6E2DCE0101960E9438
:102A90009D0A6596CDBFDEBFDF91CF911F910F914B
:102AA000FF90EF90DF900895E0E0F2E086E3848706
:102AB00083E08587118282E0828387E0848381E0DE
:102AC00080830895FC0181E08083660F660F660FA6
:102AD000618380818068808383818823E9F3A0E01B
:102AE000B2E016968C91169716968C93808180682A
:102AF000808383818823E9F3A0E0B2E016968C916D
:102B0000169716968C938481958108959C01A8EE62
:102B1000B3E00E940D3A6C507E418340910928EE4B
:102B200033E040E050E00E94C339A4E1BCE30E94DE
:102B30001C3ADC01CB01072E7CE0B695A795979552
:102B400087957A95D1F7702D0895CF93DF93E09113
:102B50000E21F0910F218CE494E08187928788E523
:102B600092E08783908780E891E5A1E0B0E08787D5
:102B7000908BA18BB28B8CE291E0A0E0B0E0878BD0
:102B8000908FA18FB28F80E29CE1A0E0B0E08387BC
:102B90009487A587B6871182C0910E21D0910F210D
:102BA0001A8280E19EE0A0E0B0E08B8B9C8BAD8B25
:102BB000BE8B81E08C831E821B821D826BE1CE0165
:102BC0000E94DA036B8F7C8F8D8F9E8F28E230E01E
:102BD00040910B2360E080910E2190910F210E9483
:102BE000EA04DF91CF910895CF93DF93E0910C2118
:102BF000F0910D2180E29CE1A0E0B0E08387948712
:102C0000A587B6878CE494E08187928788E592E077
:102C10008783908780E891E5A1E0B0E08787908B7B
:102C2000A18BB28B8CE390E0A0E0B0E0878B908F1B
:102C3000A18FB28F1182C0910C21D0910D211A82E7
:102C400080E19EE0A0E0B0E08B8B9C8BAD8BBE8BD7
:102C500081E08C831B821E821D826BE1CE010E946B
:102C6000DA036B8F7C8F8D8F9E8F27E430E040914D
:102C70000B2360E080910C2190910D210E94EA04C9
:102C8000DF91CF9108950F931F93CF93DF93EC01C2
:102C9000162F042F80EA96E8A1E0B0E0888399839C
:102CA000AA83BB8388879987AA87BB878C839D83E8
:102CB000AE83BF8360E1CE010E94DA03688B798B1B
:102CC0008A8B9B8B20E030E0402F612FCE010E9449
:102CD0003105DF91CF911F910F910895CF93DF932D
:102CE000EC0180E29CE1A0E0B0E08B879C87AD879F
:102CF000BE878CE494E089879A8788E592E08F8389
:102D0000988780E891E5A1E0B0E08F87988BA98B48
:102D1000BA8B8CE390E0A0E0B0E08F8B988FA98F06
:102D2000BA8F19821A8280E19EE0A0E0B0E08B8B1E
:102D30009C8BAD8BBE8B81E08C831B821E821D829F
:102D40006BE1CE010E94DA036B8F7C8F8D8F9E8F9B
:102D5000DF91CF9108954F925F926F927F928F9201
:102D60009F92AF92BF92CF92DF92EF92FF920F931A
:102D70001F93CF93DF933C01EB016A0129018091FE
:102D800002218823D9F01092022126E630E04091FA
:102D90000B23F8016081CE010E9497048B8C9C8CE0
:102DA000AD8CBE8C6BE1CE010E94DA0386169706CD
:102DB000A806B90619F0CE010E946E16F7018081AF
:102DC000882309F4B3C0108280910C230E94670607
:102DD00040910C2360E081E00E94F10585EC91E2D6
:102DE0000E947F0A40910C2361E081E00E94F1057E
:102DF00087ED91E20E947F0AF8018081843620F4F9
:102E000083EC91E20E947F0AF80180818A3020F4ED
:102E100083EC91E20E947F0AF80180814AE0B601CA
:102E200090E00E94643AC6010E947F0A40910C2300
:102E300062E081E00E94F1058CED91E20E947F0A40
:102E40008A81811104C082EE91E20E947F0A8A8108
:102E5000813021F489EE91E20E947F0A8A818230DA
:102E600021F483EF91E20E947F0A40910C2363E0FA
:102E700081E00E94F10581E092E20E947F0A4AE02F
:102E8000B6018F8198850E94643AC6010E947F0A2C
:102E90008BE092E20E947F0A40910C2364E081E083
:102EA0000E94F10580E192E20E947F0A4AE0B601A9
:102EB00089859A850E94643AC6010E947F0A8BE048
:102EC00092E20E947F0A40910C2365E081E00E941B
:102ED000F1058AE192E20E947F0A20E040E060E092
:102EE000CE010B960E945C1440910C2366E081E0B9
:102EF0000E94F10585E292E20E947F0A20E040E014
:102F000060E0CE010F960E945C1440910C2367E0B4
:102F100081E00E94F10580E392E20E947F0A20E0B6
:102F200040E060E0CE0143960E945C14E09187236C
:102F3000EE2309F47BC38E2F90E0FC017097E336FB
:102F4000F10508F073C3E059FE4F0C94043A0E9457
:102F50004D10F8019081890F808340910C2361E02E
:102F600081E00E94F10587ED91E20E947F0AF8015D
:102F70008081843620F483EC91E20E947F0AF8017C
:102F800080818A3020F483EC91E20E947F0AF8016C
:102F900080814AE0B60190E00E94643AC6010E9436
:102FA0008E0A80E10E94930B882309F43FC381E0DD
:102FB00080930221F7018083F301808382E0F20194
:102FC00080831092872332C30E944D109A81890F0B
:102FD0008F3F11F08A8302C082E08A839A818BEA54
:102FE000989F812D11248695282F220F820F981BE0
:102FF0009A8340910C2362E081E00E94F1058CED00
:1030000091E20E947F0A8A81811104C082EE91E2DE
:103010000E948E0A8A81813021F489EE91E20E9419
:103020008E0A8A81823021F483EF91E20E948E0A17
:1030300080E10E94930B882309F4F8C240910C238D
:1030400062E081E00E94F1058CED91E20E947F0A2E
:103050008A81811104C082EE91E20E947F0A8A81F6
:10306000813021F489EE91E20E947F0A8A818230C8
:1030700021F483EF91E20E947F0A82E0F3018083D2
:1030800081E0F201808310928723D0C20E944D100C
:10309000082E000C990B9C01220F331F880F991FDB
:1030A000880F991F880F991F820F931F2F813885D2
:1030B000820F931F8F83988740910C2363E08AE0EF
:1030C0000E94F105E0910E21F0910F2187819085FA
:1030D0000A9720F483EC91E20E947F0A8F81988501
:1030E0008436910520F483EC91E20E947F0A8F815F
:1030F0009885883E934020F483EC91E20E947F0AF9
:103100004AE0B6018F8198850E94643AC6010E9408
:103110008E0A8BE092E20E947F0A80E10E94930B6C
:10312000882309F483C240910C2363E08AE00E9463
:10313000F1058F8198850A9720F483EC91E20E9433
:103140007F0A8F8198858436910520F483EC91E283
:103150000E947F0A8F819885883E934020F483ECFB
:1031600091E20E947F0A4AE0B6018F8198850E9411
:10317000643AC6010E947F0A8BE092E20E947F0AB5
:1031800083E0F301808382E0F20180831092872341
:103190004DC20E944D10082E000C990B9C01220F6D
:1031A000331F880F991F880F991F880F991F820F4F
:1031B000931F29853A85820F931F89879A874091AB
:1031C0000C2364E08AE00E94F10589859A850A97BC
:1031D00020F483EC91E20E947F0A89859A858436E7
:1031E000910520F483EC91E20E947F0A89859A85FB
:1031F000883E934020F483EC91E20E947F0A4AE0EB
:10320000B60189859A850E94643AC6010E948E0A99
:103210008BE092E20E947F0A80E10E94930B882358
:1032200009F404C240910C2364E08AE00E94F10595
:1032300089859A850A9720F483EC91E20E947F0A9F
:1032400089859A858436910520F483EC91E20E9469
:103250007F0A89859A85883E934020F483EC91E229
:103260000E947F0A4AE0B60189859A850E94643AE5
:10327000C6010E947F0A8BE092E20E947F0A84E0EE
:10328000F301808382E0F201808310928723CEC114
:103290000E944D102B9620E13EE0482F4203B001E2
:1032A000439F700D112420E036E445E050E0CE014C
:1032B0000E94171340910C2365E08BE00E94F105FA
:1032C00021E040E061E0CE010E945C1480E10E94B8
:1032D000930B882309F4AAC140910C2365E08BE08D
:1032E0000E94F10520E040E060E0CE010E945C1405
:1032F00081E5809387239AC10E944D102B969CE311
:103300008902B001112420E036E445E050E0CE010E
:103310000E94171340910C2365E08BE00E94F10599
:1033200024E043E061E0CE010E945C1480E10E9451
:10333000930B882309F47AC140910C2365E08BE05C
:103340000E94F10520E040E060E0CE010E945C14A4
:1033500082E5809387236AC10E944D102B96682FC7
:10336000880F770B20E036E445E050E0CE010E9464
:10337000171340910C2365E08BE00E94F10527E0D4
:1033800046E061E0CE010E945C1480E10E94930B54
:10339000882309F44BC140910C2365E08BE00E9427
:1033A000F10520E040E060E0CE010E945C1485E081
:1033B000F301808382E0F20180831092872336C17B
:1033C0000E944D102F9620E13EE0482F4203B001AD
:1033D000439F700D112420E036E445E050E0CE011B
:1033E0000E94171340910C2366E08BE00E94F105C8
:1033F00021E040E061E0CE010E945C1480E10E9487
:10340000930B882309F412C140910C2366E08BE0F2
:103410000E94F10520E040E060E0CE010E945C14D3
:1034200081E68093872302C10E944D102F969CE372
:103430008902B001112420E036E445E050E0CE01DD
:103440000E94171340910C2366E08BE00E94F10567
:1034500024E043E061E0CE010E945C1480E10E9420
:10346000930B882309F4E2C040910C2366E08BE0C3
:103470000E94F10520E040E060E0CE010E945C1473
:1034800082E680938723D2C00E944D10682F880F58
:10349000770B80910E2190910F2120E036E445E0DA
:1034A00050E00F960E94171340910C2366E08BE0CA
:1034B0000E94F1052F9627E046E061E0CE010E94D0
:1034C0005C1480E10E94930B882309F4AFC0409103
:1034D0000C2366E08BE00E94F10520E040E060E014
:1034E000CE010E945C1486E0F301808382E0F20149
:1034F0008083109287239AC00E944D10639620E12A
:103500003EE0482F4203B001439F700D112420E09C
:1035100036E445E050E0CE010E94171340910C23A1
:1035200067E08BE00E94F10521E040E061E0CE0120
:103530000E945C1480E10E94930B882309F476C0FA
:1035400040910C2367E08BE00E94F10520E040E011
:1035500060E0CE010E945C1481E78093872366C0FF
:103560000E944D109CE38902B001112480910E212C
:1035700090910F2120E036E445E050E043960E9410
:10358000171340910C2367E08BE00E94F1056396CE
:1035900024E043E061E0CE010E945C1480E10E94DF
:1035A000930B882309F442C040910C2367E08BE021
:1035B0000E94F10520E040E060E0CE010E945C1432
:1035C00082E78093872332C00E944D106396682F54
:1035D000880F770B20E036E445E050E0CE010E94F2
:1035E000171340910C2367E08BE00E94F10527E060
:1035F00046E061E0CE010E945C1480E10E94930BE2
:103600008823A1F040910C2367E08BE00E94F10534
:1036100020E040E060E0CE010E945C1487E0F3010E
:10362000808382E0F201808310928723DF91CF9123
:103630001F910F91FF90EF90DF90CF90BF90AF90D0
:103640009F908F907F906F905F904F9008954F92D2
:103650005F926F927F928F929F92AF92BF92CF9222
:10366000DF92EF92FF920F93CF93DF935C016B0198
:10367000EA014901809101218823D9F010920121AA
:1036800026E630E040910B2360910823CE010E9492
:1036900097044B8C5C8C6D8C7E8C6BE1CE010E9410
:1036A000DA03461657066806790619F0CE010E941D
:1036B0006E16F7018081882309F4B7C010828091CB
:1036C0000C230E94670640910C2360E081E00E9479
:1036D000F105002329F08BE392E20E947F0A04C0E7
:1036E00089E492E20E947F0A40910C2361E081E02C
:1036F0000E94F10587ED91E20E947F0A888184365D
:1037000020F483EC91E20E947F0A88818A3020F4C1
:1037100083EC91E20E947F0A88814AE0B60190E042
:103720000E94643AC6010E947F0A40910C2362E025
:1037300081E00E94F1058CED91E20E947F0A8A816E
:10374000811104C082EE91E20E947F0A8A81813059
:1037500059F489EE91E20E947F0A8A81813021F436
:1037600083EF91E20E947F0A40910C2363E081E0A5
:103770000E94F10581E092E20E947F0A4AE0B601D0
:103780008F8198850E94643AC6010E947F0A8BE06F
:1037900092E20E947F0A40910C2364E081E00E9443
:1037A000F10580E192E20E947F0A4AE0B601898534
:1037B0009A850E94643AC6010E947F0A8BE092E2D9
:1037C0000E947F0A40910C2365E081E00E94F10590
:1037D0008AE192E20E947F0A20E040E060E0CE01B0
:1037E0000B960E945C1440910C2366E081E00E94DD
:1037F000F10585E292E20E947F0A20E040E060E06D
:10380000CE010F960E945C1440910C2367E081E08A
:103810000E94F10580E392E20E947F0A20E040E0EE
:1038200060E0CE0143960E945C14E0918723EE2372
:1038300009F47AC38E2F90E0FC017097E336F1050E
:1038400008F072C3ED52FE4F0C94043A0E944D10E2
:1038500090910823890F8093082340910C2361E005
:1038600081E00E94F10587ED91E20E947F0A888144
:10387000843620F483EC91E20E947F0A88818A30AA
:1038800020F483EC91E20E947F0A809108234AE0B1
:10389000B60190E00E94643AC6010E948E0A80E15F
:1038A0000E94930B882309F43FC381E08093012198
:1038B000F7018083F501808382E0F4018083109218
:1038C000872332C30E944D109A81890F8F3F11F0D8
:1038D0008A8302C082E08A839A818BEA989F812D35
:1038E00011248695282F220F820F981B9A834091CE
:1038F0000C2362E081E00E94F1058CED91E20E94D0
:103900007F0A8A81811104C082EE91E20E948E0AB0
:103910008A81813021F489EE91E20E948E0A8A81A7
:10392000823021F483EF91E20E948E0A80E10E94AE
:10393000930B882309F4F8C240910C2362E081E0E4
:103940000E94F1058CED91E20E947F0A8A8181112B
:1039500004C082EE91E20E947F0A8A81813021F4C4
:1039600089EE91E20E947F0A8A81823021F483EFFE
:1039700091E20E947F0A82E0F501808381E0F401F8
:10398000808310928723D0C20E944D10082E000C15
:10399000990B9C01220F331F880F991F880F991FC5
:1039A000880F991F820F931F2F813885820F931FD5
:1039B0008F83988740910C2363E08AE00E94F10591
:1039C000E0910E21F0910F21878190850A9720F4D4
:1039D00083EC91E20E947F0A8F819885843691055D
:1039E00020F483EC91E20E947F0A8F819885883EC3
:1039F000934020F483EC91E20E947F0A4AE0B601F2
:103A00008F8198850E94643AC6010E948E0A8BE0DD
:103A100092E20E947F0A80E10E94930B882309F4BE
:103A200083C240910C2363E08AE00E94F1058F81FC
:103A300098850A9720F483EC91E20E947F0A8F8197
:103A400098858436910520F483EC91E20E947F0AE8
:103A50008F819885883E934020F483EC91E20E9408
:103A60007F0A4AE0B6018F8198850E94643AC601B8
:103A70000E947F0A8BE092E20E947F0A83E0F501B8
:103A8000808382E0F4018083109287234DC20E94DC
:103A90004D10082E000C990B9C01220F331F880F2C
:103AA000991F880F991F880F991F820F931F2985CF
:103AB0003A85820F931F89879A8740910C2364E08F
:103AC0008AE00E94F10589859A850A9720F483ECA3
:103AD00091E20E947F0A89859A858436910520F4B7
:103AE00083EC91E20E947F0A89859A85883E934003
:103AF00020F483EC91E20E947F0A4AE0B6018985B6
:103B00009A850E94643AC6010E948E0A8BE092E276
:103B10000E947F0A80E10E94930B882309F404C26B
:103B200040910C2364E08AE00E94F10589859A8522
:103B30000A9720F483EC91E20E947F0A89859A8596
:103B40008436910520F483EC91E20E947F0A8985F6
:103B50009A85883E934020F483EC91E20E947F0A8C
:103B60004AE0B60189859A850E94643AC6010E949E
:103B70007F0A8BE092E20E947F0A84E0F501808355
:103B800082E0F401808310928723CEC10E944D1001
:103B90002B9620E13EE0482F4203B001439F700D79
:103BA000112420E036E445E050E0CE010E941713D6
:103BB00040910C2365E08BE00E94F10521E040E09C
:103BC00061E0CE010E945C1480E10E94930B882387
:103BD00009F4AAC140910C2365E08BE00E94F10535
:103BE00020E040E060E0CE010E945C1481E580931B
:103BF00087239AC10E944D102B969CE38902B00145
:103C0000112420E036E445E050E0CE010E94171375
:103C100040910C2365E08BE00E94F10524E043E035
:103C200061E0CE010E945C1480E10E94930B882326
:103C300009F47AC140910C2365E08BE00E94F10504
:103C400020E040E060E0CE010E945C1482E58093B9
:103C500087236AC10E944D102B96682F880F770B1F
:103C600020E036E445E050E0CE010E941713409179
:103C70000C2365E08BE00E94F10527E046E061E05F
:103C8000CE010E945C1480E10E94930B882309F40A
:103C90004BC140910C2365E08BE00E94F10520E0D0
:103CA00040E060E0CE010E945C1485E0F501808375
:103CB00082E0F40180831092872336C10E944D1068
:103CC0002F9620E13EE0482F4203B001439F700D44
:103CD000112420E036E445E050E0CE010E941713A5
:103CE00040910C2366E08BE00E94F10521E040E06A
:103CF00061E0CE010E945C1480E10E94930B882356
:103D000009F412C140910C2366E08BE00E94F1059A
:103D100020E040E060E0CE010E945C1481E68093E8
:103D2000872302C10E944D102F969CE38902B001A7
:103D3000112420E036E445E050E0CE010E94171344
:103D400040910C2366E08BE00E94F10524E043E003
:103D500061E0CE010E945C1480E10E94930B8823F5
:103D600009F4E2C040910C2366E08BE00E94F1056B
:103D700020E040E060E0CE010E945C1482E6809387
:103D80008723D2C00E944D10682F880F770B809137
:103D90000E2190910F2120E036E445E050E00F968F
:103DA0000E94171340910C2366E08BE00E94F105FE
:103DB0002F9627E046E061E0CE010E945C1480E18E
:103DC0000E94930B882309F4AFC040910C2366E056
:103DD0008BE00E94F10520E040E060E0CE010E940F
:103DE0005C1486E0F501808382E0F4018083109208
:103DF00087239AC00E944D10639620E13EE0482F31
:103E00004203B001439F700D112420E036E445E0E9
:103E100050E0CE010E94171340910C2367E08BE025
:103E20000E94F10521E040E061E0CE010E945C14B7
:103E300080E10E94930B882309F476C040910C2303
:103E400067E08BE00E94F10520E040E060E0CE01F9
:103E50000E945C1481E78093872366C00E944D1006
:103E60009CE38902B001112480910E2190910F21D1
:103E700020E036E445E050E043960E94171340915D
:103E80000C2367E08BE00E94F105639624E043E099
:103E900061E0CE010E945C1480E10E94930B8823B4
:103EA00009F442C040910C2367E08BE00E94F105C9
:103EB00020E040E060E0CE010E945C1482E7809345
:103EC000872332C00E944D106396682F880F770BAE
:103ED00020E036E445E050E0CE010E941713409107
:103EE0000C2367E08BE00E94F10527E046E061E0EB
:103EF000CE010E945C1480E10E94930B8823A1F004
:103F000040910C2367E08BE00E94F10520E040E047
:103F100060E0CE010E945C1487E0F501808382E0BE
:103F2000F401808310928723DF91CF910F91FF904E
:103F3000EF90DF90CF90BF90AF909F908F907F9049
:103F40006F905F904F900895CF93DF93CDB7DEB71A
:103F5000CE54D109CDBFDEBF198280E090E00E942F
:103F60008E3A809307210E94950F0E94D5330E94BC
:103F7000B70F0E94F30F0E94541580EA94E00E944C
:103F8000A00B0E943B1091E090934D2510924C2580
:103F900010924B251092102610920F2610920E268A
:103FA000E0E4F6E088E3828BA0E6B6E083E01196D9
:103FB0008C93119787E0818320E036E080EEF90151
:103FC0008183E0E2F6E0918388E1818B828B5296D7
:103FD0008C93529753968C93A0EAB0E012968C91F2
:103FE0001297876012968C9380E4D90115968C9372
:103FF00095837894E0E0F8E085EA90E080A791A7C7
:1040000082A793A7E0E0F9E010A611A612A613A6D6
:104010000E94003260EA80EA94E00E942733809395
:104020000B2362E880EA94E00E94273380930C23FC
:1040300028E230E040910B2360E080910E219091C6
:104040000F210E94970427E430E040910B2360E0A9
:1040500080910C2190910D210E94970426E630E07A
:1040600040910B2360E080910A2190910B210E94E6
:10407000C10426E630E040910B2361E080910821E5
:10408000909109210E94C1046BE180910E219091D1
:104090000F210E94DA03E0910E21F0910F21038D90
:1040A000148D258D368D601771078207930711F0E7
:1040B0000E94A5156BE180910C2190910D210E9429
:1040C000DA03E0910C21F0910D21038D148D258DE3
:1040D000368D601771078207930711F00E94F4155F
:1040E00060E180910A2190910B210E94DA03E09116
:1040F0000A21F0910B2100891189228933896017E7
:1041000071078207930731F040910B2360E0CF01E4
:104110000E94431660E180910821909109210E943C
:10412000DA03E0910821F09109210089118922899F
:104130003389601771078207930731F040910B2391
:1041400061E0CF010E94431620910E2130910F2192
:10415000F901818592858093222190932321E0911A
:104160000C21F0910D2181859285809320219093DF
:104170002121C0900524D0900624E0900724F090DF
:104180000824D9011B964D915D916D917C911E97EC
:10419000D701C601840F951FA61FB71F8A839B8373
:1041A000AC83BD83C0900524D0900624E090072402
:1041B000F0900824D9011F964D915D916D917C91ED
:1041C0005297D701C601840F951FA61FB71F8E8374
:1041D0009F83A887B9878091052490910624A09198
:1041E0000724B09108244385548565857685840F1E
:1041F000951FA61FB71F8A879B87AC87BD878091B5
:10420000052490910624A0910724B09108244785A5
:10421000508961897289840F951FA61FB71F8E87E9
:104220009F87A88BB98B80910C23882341F00E9433
:1042300075050E94990580E00E94110712C0BFEF2A
:10424000E3ECF9E0B150E040F040E1F700C00000DD
:1042500080E00E94BF0640910C2361E081E00E9453
:10426000F10540910C2360E081E00E94F10580910E
:10427000280682FF0AC087E0EEEEF2E2DE015296E7
:1042800001900D928A95E1F709C087E0E5EFF2E22F
:10429000DE01529601900D928A95E1F7CE01429689
:1042A0000E947F0A40910C2360E08CE00E94F1059F
:1042B0008091280681FF0AC087E0EEEEF2E2DE017F
:1042C000529601900D928A95E1F709C087E0E5EFDB
:1042D000F2E2DE01529601900D928A95E1F7CE014D
:1042E00042960E947F0A28961FAE289727961FAEF7
:1042F0002797412C512C320124961CAE1DAE1EAEC8
:104300001FAE2497D12C26961FAE26972A961FAE55
:104310002A972B961FAE2B97312C212C25961FAE5A
:104320002597C12C01E029960FAF29970F2EF0E2B7
:10433000AF2EF6E0BF2EF02D4E0119E1810E911C3B
:10434000D50118968C91847090E02796BFAD279781
:104350002B2F30E082179307C1F1F501808582FF92
:1043600021C0E0910A21F0910B2184819581A681E1
:10437000B78180931C2190931D21A0931E21B0939F
:104380001F2180819181A281B38180931C21909310
:104390001D21A0931E21B0931F21F1E02796FFAFAE
:1043A000279713C0E0910A21F0910B218085918518
:1043B000A285B38580931C2190931D21A0931E217B
:1043C000B0931F2127961FAE2797D50118968C9181
:1043D000827090E02896BFAD28972B2F30E082178F
:1043E0009307C1F1F501808581FF21C0E09108218B
:1043F000F091092184819581A681B7818093142150
:1044000090931521A0931621B0931721808191815B
:10441000A281B3818093142190931521A09316213A
:10442000B0931721F1E02896FFAF289713C0E091D1
:104430000821F091092180859185A285B38580931B
:10444000142190931521A0931621B093172128963B
:104450001FAE289785E391E20E94F2358EE391E248
:104460000E94B5368CE291E20E94B536ACE4B5E22A
:104470001C91EBE4F5E280818117C8F4412F50E0F4
:104480006BE075E28FE293E20E94273AABE4B5E27B
:104490001C9381E080934D2580912F23813439F046
:1044A000823449F480912D23809580932D2380912F
:1044B0002E23813091F4EEE0F6E21082412F50E09D
:1044C0006FE273E28EEC95E20E94273A10930F267A
:1044D00081E08093102610922E23211065C0F1E018
:1044E000CF1206C081E08093F7231092F5230FC00E
:1044F000C11005C01092F7231092F52311C002E0FD
:10450000C01205C01092F7231092F5234DC013E09E
:10451000C11206C081E08093F7238093F52344C045
:1045200024E0C21241C0E0910E21F0910F21809150
:10453000052490910624A0910724B0910824438576
:10454000548565857685840F951FA61FB71F8A83BE
:104550009B83AC83BD838091052490910624A09118
:104560000724B09108244785508961897289840F96
:10457000951FA61FB71F8E839F83A887B987818544
:104580009285809322219093232110927E2381E0B3
:1045900084831582138210928323109284231092B5
:1045A000852310928623C12C311073C025963FAD10
:1045B0002597313031F481E08093F6231092F42373
:1045C00014C025964FAD2597411105C01092F623D2
:1045D0001092F42315C025965FAD2597523029F42B
:1045E0001092F6231092F42354C025968FAD259790
:1045F000833031F481E08093F6238093F42349C023
:1046000025969FAD2597943009F043C0E0910C2189
:10461000F0910D218091052490910624A09107240A
:10462000B09108244385548565857685840F951F50
:10463000A61FB71F8A879B87AC87BD8780910524FB
:1046400090910624A0910724B091082447855089B1
:1046500061897289840F951FA61FB71F8E879F8758
:10466000A88BB98B818592858093202190932121FD
:1046700010927D2381E084831582138210927F2320
:1046800010928023109281231092822325961FAED0
:10469000259780918A23811190C021100C94553167
:1046A000311021C02B96AFAD2B97A11121C02A96B6
:1046B000BFAD2A97B11136C00E944D102696EFADBE
:1046C0002697E80F2696EFAF26972CC084E09DEC46
:1046D000899FC12C1124C694C6949C2D990F990FC3
:1046E000C90E8C19C82E2B96FFAD2B97FF23D1F046
:1046F0000E944D102091222130912321082E000C80
:10470000990BAC01440F551F880F991F880F991FF3
:10471000880F991F840F951F820F931F809322216A
:10472000909323212A960FAD2A970023D1F00E945F
:104730004D102091202130912121082E000C990B41
:10474000AC01440F551F880F991F880F991F880FC0
:10475000991F840F951F820F931F809320219093A0
:1047600021213320E1F00E944D1025961FAD2597A1
:10477000810F8F3F09F484E09DEC899F912D1124D6
:104780009695969525969FAF2597990F990F259603
:104790002FAD2597920F891B25968FAF259780E126
:1047A0000E949B0B882349F081E080938A23E7E8ED
:1047B000F3E210821182809389238091FB23882366
:1047C00021F01092FB230E94B00C61E088E292E09D
:1047D0000E94621580932A2190932B2160E080E251
:1047E00092E00E9462158093282190932921D3940E
:1047F00031E33D1510F40C945E3180912A219091A3
:104800002B2124960CAD1DAD2EAD3FAD2497080F86
:10481000191F211D311D24960CAF1DAF2EAF3FAFC8
:1048200024978091282190912921480E591E611CBE
:10483000711C8091F723882311F40C94B831809176
:10484000F52381110C94B03180917E23811104C035
:1048500080E48093050608C04091042424E066E0CB
:1048600080E096E00E946A0F409105245091062452
:1048700060910724709108248A819B81AC81BD815D
:10488000481759076A077B0708F474C1E0910E21A5
:10489000F0910F218281882311F40C94AA31823087
:1048A00079F50C948C318481882351F1878190852E
:1048B0008093222190932321409105245091062436
:1048C000609107247091082487859089A189B28915
:1048D000840F951FA61FB71F438554856585768570
:1048E000841B950BA60BB70B8A839B83AC83BD837C
:1048F000148281E083838281813009F03BC107C04B
:104900008281813009F036C183818823B9F081E04A
:1049100080937E23409105245091062460910724C2
:1049200070910824878190858A019B01080F191FC7
:10493000211D311D0A831B832C833D8385818823A0
:1049400009F43DC0409183235091842360918523D5
:10495000709186238789908DA18DB28D840F951FCC
:10496000A61FB71F8093832390938423A09385234E
:10497000B093862381859285809322219093232171
:10498000158281E0868314821382F8948091052435
:1049900090910624A0910724B0910824E0910E2163
:1049A000F0910F214789508D618D728D840F951F75
:1049B000A61FB71F8A839B83AC83BD837894E09145
:1049C0000E21F0910F218681882309F46DC0878123
:1049D000908580932221909323214389548965896E
:1049E00076898091832390918423A0918523B0912F
:1049F0008623840F951FA61FB71F80938323909350
:104A00008423A0938523B093862307851089218969
:104A10003289081B190B2A0B3B0BD901C8010789E6
:104A2000108D218D328D400F511F621F731F48174B
:104A300059076A077B0718F5F8948091052490912F
:104A40000624A0910724B0910824E0910E21F09152
:104A50000F214389548965897689840F951FA61F84
:104A6000B71F8A839B83AC83BD837894E0910E212A
:104A7000F0910F2181E08583148213827BC04091E5
:104A80000524509106246091072470910824840F16
:104A9000951FA61FB71F8A839B83AC83BD83148297
:104AA00081E08383158266C08481882309F462C013
:104AB000878190858093222190932321438554857B
:104AC0006585768540938323509384236093852363
:104AD0007093862387859089A189B289841B950B61
:104AE000A60BB70B0789108D218D328D4389548910
:104AF00065897689400F511F621F731F4817590738
:104B00006A077B0718F5F894809105249091062494
:104B1000A0910724B0910824E0910E21F0910F217B
:104B20004389548965897689840F951FA61FB71F0D
:104B30008A839B83AC83BD837894E0910E21F091AE
:104B40000F2181E085831482138214C040910524D3
:104B5000509106246091072470910824840F951FBA
:104B6000A61FB71F8A839B83AC83BD83148281E019
:104B7000838315828091F623882311F40C94F831F5
:104B80008091F42381110C94EF3180917D23811168
:104B900005C081E0D50115968C9307C0409104248F
:104BA00024E060E0C5010E946A0F40910524509105
:104BB000062460910724709108248A859B85AC8522
:104BC000BD85481759076A077B0708F474C1E0914F
:104BD0000C21F0910D218281882311F40C94D9319C
:104BE000823079F50C94EA318481882351F18781F0
:104BF000908580932021909321214091052450910C
:104C00000624609107247091082487859089A189E2
:104C1000B289840F951FA61FB71F438554856585EC
:104C20007685841B950BA60BB70B8A879B87AC8771
:104C3000BD87148281E083838281813009F03BC18A
:104C400007C08281813009F036C183818823B9F0A1
:104C500081E080937D23409105245091062460914A
:104C6000072470910824878190858A019B01080F91
:104C7000191F211D311D0A871B872C873D878581C0
:104C8000882309F43DC040917F2350918023609197
:104C900081237091822383899489A589B689840FA1
:104CA000951FA61FB71F80937F2390938023A09307
:104CB0008123B09382238789908D809320219093C4
:104CC0002121158281E0868314821382F8948091D9
:104CD000052490910624A0910724B0910824E09126
:104CE0000C21F0910D214789508D618D728D840FBB
:104CF000951FA61FB71F8A879B87AC87BD877894AF
:104D0000E0910C21F0910D218681882309F46DC07A
:104D10008781908580932021909321214389548914
:104D20006589768980917F2390918023A09181234A
:104D3000B0918223840F951FA61FB71F80937F23F6
:104D400090938023A0938123B093822307851089B9
:104D500021893289081B190B2A0B3B0BD901C80189
:104D60000789108D218D328D400F511F621F731FD7
:104D7000481759076A077B0718F5F89480910524AE
:104D800090910624A0910724B0910824E0910C2171
:104D9000F0910D214389548965897689840F951F87
:104DA000A61FB71F8A879B87AC87BD877894E09141
:104DB0000C21F0910D2181E08583148213827BC048
:104DC0004091052450910624609107247091082495
:104DD000840F951FA61FB71F8A879B87AC87BD8747
:104DE000148281E08383158266C08481882309F45C
:104DF00062C08781908580932021909321214385F3
:104E000054856585768540937F23509380236093F6
:104E100081237093822387859089A189B289841B1D
:104E2000950BA60BB70B0789108D218D328D438909
:104E3000548965897689400F511F621F731F481777
:104E400059076A077B0718F5F8948091052490911B
:104E50000624A0910724B0910824E0910C21F09140
:104E60000D214389548965897689840F951FA61F72
:104E7000B71F8A879B87AC87BD877894E0910C2108
:104E8000F0910D2181E085831482138214C040913A
:104E90000524509106246091072470910824840F02
:104EA000951FA61FB71F8A879B87AC87BD87148273
:104EB00081E08383158280918A2381112CC78091A0
:104EC000F823882309F488C01092F8230091F7236F
:104ED000002321F08091F5238823B1F08A819B8102
:104EE000AC81BD810196A11DB11D8A839B83AC83DA
:104EF000BD838E819F81A885B9850196A11DB11DB5
:104F00008E839F83A887B9878091F623882321F019
:104F10008091F4238823B1F08A859B85AC85BD857B
:104F20000196A11DB11D8A879B87AC87BD878E85A1
:104F30009F85A889B9890196A11DB11D8E879F877C
:104F4000A88BB98BE0907E23002321F00091F523FC
:104F500081E0082725E041E0BE016E5F7F4F85E0DC
:104F600094E20E945313E0907E230091F7230023E4
:104F700021F00091F52381E0082726E041E0BE0101
:104F80006A5F7F4F85E094E20E945313E0907D2397
:104F90000091F623002321F00091F42381E00827FB
:104FA00025E04CE0BE01665F7F4F85E094E20E9401
:104FB0005313E0907D230091F623002321F000910C
:104FC000F42381E0082726E04CE0BE01625F7F4FBA
:104FD00085E094E20E94531329961FAD299711236F
:104FE00009F4AEC926962FAD26972F3F21F434E061
:104FF00026963FAF26978DEC26964FAD2697489F75
:10500000812D112486958695982F990F990F890FD8
:10501000481B26964FAF269740910C2360E081E015
:105020000E94F105D50118968C9182FF0AC087E095
:10503000EEEEF2E2DE01529601900D928A95E1F7D2
:1050400009C087E0E5EFF2E2DE01529601900D9291
:105050008A95E1F7CE0142960E947F0A40910C2387
:1050600060E08CE00E94F105F501808581FF0AC0B7
:1050700087E0EEEEF2E2DE01529601900D928A9503
:10508000E1F709C087E0E5EFF2E2DE015296019018
:105090000D928A95E1F7CE0142960E947F0A4091D7
:1050A0000C2361E080E00E94F105E0E0F9E080A5DA
:1050B00091A508EE13E07801E81AF90A82A593A5F4
:1050C000081B190B24962CAD3DAD4EAD5FAD24975A
:1050D000203137424105510548F580E290E0D40186
:1050E0008D939C9322968EAD9FAD22970E9486153C
:1050F0009C01369527953695279536952795A5ECED
:10510000B0E20E940D3A4AE0BE01675D7F4F929582
:1051100082958F7089279F7089270E94643ABE010B
:10512000675D7F4FC4010E94303A1BC022968EAD4E
:105130009FAD22970E9486159C013695279536953E
:10514000279536952795A5ECB0E20E940D3A4AE0E6
:10515000B401929582958F7089279F7089270E944C
:10516000643A80E296E58DAF9EAF1FAEF4010190E8
:105170000020E9F731978CE290E0808391832296BA
:105180008EAD9FAD22970E948615FC019C0136953D
:1051900027953695279536952795A5ECB0E20E9480
:1051A0000D3A929582958F7089279F70892748EED6
:1051B00053E0849F9001859F300D949F300D112402
:1051C0004AE0BE01675D7F4FCF01821B930B0E94B7
:1051D000643ABE01675D7F4FC4010E94303ABE0150
:1051E000635C7F4FC4010E94303AC4010E947F0A71
:1051F00040910C2361E08CE00E94F105B0E14B1678
:10520000B7E25B066104710430F580E290E0F401DE
:1052100080839183C2010E9486159C013695279553
:105220003695279536952795A5ECB0E20E940D3A64
:105230004AE0BE01675D7F4F929582958F70892706
:105240009F7089270E94643ABE01675D7F4FC40149
:105250000E94303A18C0C2010E9486159C01369502
:1052600027953695279536952795A5ECB0E20E94AF
:105270000D3A4AE0B401929582958F7089279F700C
:1052800089270E94643AF40101900020E9F73197E0
:105290008CE290E080839183C2010E948615FC011C
:1052A0009C01369527953695279536952795A5EC3B
:1052B000B0E20E940D3A929582958F7089279F7077
:1052C000892748EE53E0849F9001859F300D949F7D
:1052D000300D11244AE0BE01675D7F4FCF01821B74
:1052E000930B0E94643ABE01675D7F4FC4010E9428
:1052F000303ABE01635C7F4FC4010E94303AC40162
:105300000E947F0A40910C2362E081E00E94F10537
:10531000FAE0EF16F10420F483EC91E20E947F0A98
:1053200024E6E216F10420F483EC91E20E947F0A65
:1053300038EEE31633E0F30620F483EC91E20E94AA
:105340007F0A9701ADECBCEC0E940D3A3C017694CB
:10535000679476946794769467944AE0B401C301A5
:105360000E94643AF40101900020E9F731978CE241
:1053700090E080839183C301880F991F660C771C8E
:10538000660C771C660C771C680E791E4AE0BE011D
:10539000675D7F4FC701861997090E94643ABE0175
:1053A000675D7F4FC4010E94303AF40101900020F4
:1053B000E9F7319780E295E2808391831282C401FC
:1053C0000E947F0A40910C2362E08CE00E94F1056C
:1053D0000A30110520F483EC91E20E947F0A043622
:1053E000110520F483EC91E20E947F0A083E43E01D
:1053F000140720F483EC91E20E947F0A9801ADEC3F
:10540000BCEC0E940D3A7C01F694E794F694E79484
:10541000F694E7944AE0B401C7010E94643AF401AB
:1054200001900020E9F731978CE290E0808391832E
:10543000C701880F991FEE0CFF1CEE0CFF1CEE0C31
:10544000FF1CE80EF91E4AE0BE01675D7F4FC801F0
:105450008E199F090E94643ABE01675D7F4FC401A7
:105460000E94303AF40101900020E9F7319780E280
:1054700095E2808391831282C4010E947F0AF8948E
:105480008091002490910124A0910224B0910324E2
:105490004AE0B4010E94643A7894D4010D9000204F
:1054A000E9F7119785E0E7E5F2E201900D928A9520
:1054B000E1F740910C2363E081E00E94F1058091C7
:1054C000002490910124A0910224B09103240A9712
:1054D000A105B10520F483EC91E20E947F0A80913E
:1054E000002490910124A0910224B09103248436D9
:1054F0009105A105B10520F483EC91E20E947F0A99
:105500008091002490910124A0910224B091032461
:10551000883E9340A105B10520F483EC91E20E94FE
:105520007F0AC4010E947F0A809122219091232149
:105530004AE0B4010E94643A40910C2364E081E0A7
:105540000E94F10580912221909123210A9720F455
:1055500083EC91E20E947F0A809122219091232185
:105560008436910520F483EC91E20E947F0A8091B9
:10557000222190912321883E934020F483EC91E2F4
:105580000E947F0AD4010D900020E9F7119785E071
:10559000E7E5F2E201900D928A95E1F72B96BFAD17
:1055A0002B97BB2321F0C4010E948E0A03C0C401C3
:1055B0000E947F0AF8948091FC239091FD23A09192
:1055C000FE23B091FF234AE0B4010E94643A78942C
:1055D000D4010D900020E9F7119785E0E7E5F2E2AC
:1055E00001900D928A95E1F740910C2363E08CE0E5
:1055F0000E94F1058091FC239091FD23A091FE2350
:10560000B091FF230A97A105B10520F483EC91E244
:105610000E947F0A8091FC239091FD23A091FE239C
:10562000B091FF2384369105A105B10520F483ECE8
:1056300091E20E947F0A8091FC239091FD23A0912A
:10564000FE23B091FF23883E9340A105B10520F4CD
:1056500083EC91E20E947F0AC4010E947F0A80913C
:105660002021909121214AE0B4010E94643AD401A2
:105670000D900020E9F7119785E0E7E5F2E201904F
:105680000D928A95E1F740910C2364E08CE00E9432
:10569000F10580912021909121210A9720F483EC3B
:1056A00091E20E947F0A80912021909121218436ED
:1056B000910520F483EC91E20E947F0A80912021E1
:1056C00090912121883E934020F483EC91E20E9446
:1056D0007F0A2A960FAD2A97002321F0C4010E9469
:1056E0008E0A03C0C4010E947F0A4AE0B40180E030
:1056F00090E00E94643A26961FAD2697111190C043
:1057000080E10E94930B40910C2364E080E00E94B2
:10571000F10583EC91E20E947F0A40910C2364E042
:105720008BE00E94F10583EC91E20E947F0A409198
:105730000C2367E080E00E94F10583EC91E20E9477
:105740007F0A40910C2367E08BE00E94F10583EC17
:1057500091E20E947F0A40910C2367E081E00E9461
:10576000F105C11005C08CE592E20E947F0A10C0CD
:1057700021E0C21205C085E692E20E947F0A10C0B5
:1057800032E0C31205C08EE692E20E947F0A0FC08B
:1057900043E0C41205C088E792E20E947F0A07C076
:1057A00054E0C51204C082E892E20E947F0A409150
:1057B0000C2367E08CE00E94F10525968FAD2597BC
:1057C000811105C08CE592E20E947F0A14C02596E3
:1057D0009FAD2597913029F485E692E20E947F0AD9
:1057E00014C02596AFAD2597A23029F48EE692E23B
:1057F0000E947F0A0DC22596BFAD2597B33029F4CC
:1058000088E792E20E947F0A07C12596EFAD2597AF
:10581000E43009F0FDC182E892E20E947F0AF8C1FB
:105820002696FFAD2697F13009F0F6C080E10E9480
:10583000930B882311F081E0282640910C2364E02B
:1058400080E00E94F10583EC91E20E947F0A409182
:105850000C2364E08BE00E94F10583EC91E20E944E
:105860007F0A40910C2367E080E00E94F1058BE8FD
:1058700092E20E947F0A40910C2367E08BE00E9435
:10588000F10583EC91E20E947F0A40910C2367E0CE
:1058900081E00E94F105222009F45FC0C11005C01B
:1058A0008CE592E20E948E0A10C001E0C01205C091
:1058B00085E692E20E948E0A10C012E0C11205C075
:1058C0008DE892E20E948E0A0FC023E0C21205C04A
:1058D00086E992E20E948E0A07C034E0C31204C037
:1058E00082E892E20E948E0A40910C2367E08CE0ED
:1058F0000E94F10525964FAD2597411105C08CE515
:1059000092E20E947F0A14C025965FAD2597513020
:1059100029F485E692E20E947F0A14C025968FAD95
:105920002597823029F48DE892E20E947F0AABC16C
:1059300025969FAD2597933029F486E992E20E943F
:105940007F0A66C12596AFAD2597A43009F09BC1AB
:1059500082E892E20E947F0A96C1C11005C08CE5E0
:1059600092E20E947F0A10C0B1E0CB1205C085E62A
:1059700092E20E947F0A10C0E2E0CE1205C08DE8DC
:1059800092E20E947F0A0FC0F3E0CF1205C086E9C1
:1059900092E20E947F0A07C004E0C01204C082E8BD
:1059A00092E20E947F0A40910C2367E08CE00E9403
:1059B000F10525961FAD2597111105C08CE592E2E2
:1059C0000E947F0A14C025962FAD2597213029F417
:1059D00085E692E20E947F0A14C025963FAD259786
:1059E000323029F48DE892E20E947F0A4CC125965C
:1059F0004FAD2597433029F486E992E20E947F0A51
:105A000007C125965FAD2597543009F03CC182E867
:105A100092E20E947F0A37C126968FAD2697823088
:105A200009F0F6C080E10E94930B882311F081E019
:105A3000382640910C2364E080E00E94F10583EC5D
:105A400091E20E947F0A40910C2364E08BE00E9467
:105A5000F10583EC91E20E947F0A40910C2367E0FC
:105A600080E00E94F10583EC91E20E947F0A409160
:105A70000C2367E08BE00E94F1058BE892E20E9424
:105A80007F0A40910C2367E081E00E94F1053320FA
:105A900009F45FC0C11005C08CE592E20E947F0A44
:105AA00010C091E0C91205C085E692E20E947F0A0B
:105AB00010C0A2E0CA1205C08DE892E20E947F0ADF
:105AC0000FC0B3E0CB1205C086E992E20E947F0AC4
:105AD00007C0E4E0CE1204C082E892E20E947F0A8E
