S01B0000446F7070656C4D61676E6574727565687265722E737265634C
S11300000C94B9030C94D8030C94D8030C94D8031F
S11300100C94D8030C94D8030C94D8030C94D803F0
S11300200C94D8030C94D8030C94EF080C94D803C4
S11300300C94D8030C94D8030C94D8030C94D803D0
S11300400C94D8030C94D8030C94D8030C94D803C0
S11300500C94200A0C94D8030C94E7090C94D8034C
S11300600C94D8030C94D8030C94D8030C94D803A0
S11300700C94D8030C94D8030C94D8030C94D80390
S11300800C94D8030C94D8030C94D8030C94D80380
S11300900C94D8030C94D8030C94D8030C94D80370
S11300A00C94D8030C94D8030C94D8030C94D80360
S11300B00C94D8030C94D8030C94D8030C942309FF
S11300C00C94D8030C94D8030C94D8030C94D80340
S11300D00C94D8030C94D8030C94D8030C94D80330
S11300E00C94D8030C94D8030C94D8030C94D80320
S11300F00C94D8030C94D8030C94D8030C94D80310
S11301000C94D8030C94D8030C94D8030C94D803FF
S11301100C94D8030C94D8030C94D8030C94D803EF
S11301200C94D8030C94D8030C94D8030C94D803DF
S11301300C94D8030C94D8030C94D8030C94D803CF
S11301400C94D8030C94D8030C94D8030C94870A09
S11301500C94D8030C944E0A0C94D8030C94D80332
S11301600C94D8030C94D8030C94D8030C94D8039F
S11301700C94D8030C94D8030C94D8030C94D8038F
S11301800C94D8030C94D8030C94D8030C94D8037F
S11301900C94D8030C94D8030C94D8030C94D8036F
S11301A00C94D8030C94D8030C94D8030C94D8035F
S11301B00C94D8030C94D8030C94D8030C94D8034F
S11301C00C94D8030C94D8030C94D8030C94D8033F
S11301D00C94D8030C94D8030C94D8030C94D8032F
S11301E00C94D8030C94D8030C94D8030C94D8031F
S11301F00C94D8030C940B300C948B30480775077F
S1130200750775077507750775077507750775070A
S113021075077507750775077507750775077507FA
S11302202D07750775077507750775071207750795
S11302307507F7067507750775077507DC067507F3
S113024075077507750775077507750775077507CA
S113025075077507C106750775077507750775076F
S1130260A606750775077507750775078B06740865
S1130270A108A108A108A108A108A108A108A10832
S1130280A108A108A108A108A108A108A108A10822
S1130290A1085908A108A108A108A108A1083E08BD
S11302A0A108A1082308A108A108A108A108080819
S11302B0A108A108A108A108A108A108A108A108F2
S11302C0A108A108A108ED07A108A108A108A10897
S11302D0A108D207A108A108A108A108A108B7078D
S11302E0C012FC15FC15FC15FC15FC15FC15FC15C1
S11302F0FC15FC15FC15FC15FC15FC15FC15FC1572
S1130300FB12FC15FC15FC15FC15FC15FC15FC1565
S1130310FC15FC15FC15FC15FC15FC15FC15FC1551
S11303205913FC15FC15FC15FC15FC15FC15FC15E6
S1130330FC15FC15FC15FC15FC15FC15FC15FC1531
S1130340D813FC15FC15FC15FC15FC15FC15FC1547
S1130350FC15FC15FC15FC15FC15FC15FC15FC1511
S113036053148314AF14FC15FC15FC15FC15FC1573
S1130370FC15FC15FC15FC15FC15FC15FC15FC15F1
S1130380DF140F153B15FC15FC15FC15FC15FC15AD
S1130390FC15FC15FC15FC15FC15FC15FC15FC15D1
S11303A06F159F15CE15F616311A311A311A311AF6
S11303B0311A311A311A311A311A311A311A311AE1
S11303C0311A311A311A3017311A311A311A311AD5
S11303D0311A311A311A311A311A311A311A311AC1
S11303E0311A311A311A8E17311A311A311A311A57
S11303F0311A311A311A311A311A311A311A311AA1
S1130400311A311A311A0D18311A311A311A311AB6
S1130410311A311A311A311A311A311A311A311A80
S1130420311A311A311A8818B818E418311A311AE5
S1130430311A311A311A311A311A311A311A311A60
S1130440311A311A311A141944197019311A311A1E
S1130450311A311A311A311A311A311A311A311A40
S1130460311A311A311AA419D419031AE62EFC2EA2
S1130470F32FFC2EF32F0A2F2B2FF32F892F9B2FD3
S1130480F82FDE2F1E0343004E00430020004300DC
S11304906F006E00740072006F006C006C006500E9
S11304A0720000000E0377006F006F006400790093
S11304B06D0000000403090409023E00020100C0AB
S11304C032090400000102020100052400100104A5
S11304D02402060524060001070582030800FF091B
S11304E0040100020A00000007050402400001079D
S11304F00583024000011201100102000040EB03D9
S1130500042401000102DC010000000000000000DE
S1130510002F000000000700070000147F147F1460
S113052000242A7F2A1200626408132300364955E6
S1130530225000000503000000001C2241000000BE
S113054041221C000014083E08140008083E080854
S1130550000000A0600000080808080800006060AF
S11305600000002010080402003E5149453E0000EE
S1130570427F4000004261514946002141454B31D0
S1130580001814127F10002745454539003C4A499C
S1130590493000017109050300364949493600060E
S11305A04949291E00003636000000005636000076
S11305B000081422410000141414141400004122F1
S11305C0140800020151090600324959513E007CC9
S11305D01211127C007F49494936003E41414122B3
S11305E0007F4141221C007F49494941007F09099C
S11305F00901003E4149497A007F0808087F00004C
S1130600417F4100002040413F01007F0814224106
S1130610007F40404040007F020C027F007F0408BE
S1130620107F003E4141413E007F09090906003E1A
S11306304151215E007F0919294600464949493143
S11306400001017F0101003F4040403F001F204066
S1130650201F003F4038403F006314081463000724
S11306600870080700615149454300007F4141007B
S113067000552A552A55000041417F00000402011B
S113068002040040404040400000010204000020F9
S113069054545478007F4844443800384444442037
S11306A000384444487F00385454541800087E09E4
S11306B001020018A4A4A47C007F080404780000AC
S11306C0447D4000004080847D00007F1028440069
S11306D00000417F4000007C04180478007C08047A
S11306E0047800384444443800FC242424180018B6
S11306F0242418FC007C08040408004854545420A2
S113070000043F444020003C4040207C001C20402A
S1130710201C003C4030403C004428102844001C6D
S1130720A0A0A07C004464544C440000087741001D
S1130730000000630000000041770800000804087E
S11307400804003D4040207D003D4040403D0021E4
S113075054545479007D1211127D003944444439B3
S1130760003D4242423D000205020000007E014974
S1130770557311241FBECFEFCDBFDFE2DEBF12E2FF
S1130780A0E0B0E2EAE0F3E600E00BBF02C00790AD
S11307900D92A838B107D9F725E2A8E8B2E201C062
S11307A01D92A53FB207E1F70E94411A0C948331D0
S11307B00C940000AC01E0EDF0E090819F73906830
S11307C090838081807F8083808180628083908118
S11307D0907F9160908380818F738083662389F0FA
S11307E0FA016150262F30E02F5F3F4F240F351F51
S11307F0A0EDB0E0919113969C931397E217F30741
S1130800C9F7E0EDF0E0818181608183818180FD21
S1130810FDCFE0EDF0E06481258136814781862FAC
S113082090E0A0E0B0E0B42B922B2081207F2083C5
S1130830BC01CD01832B0895292F332722303105A4
S113084059F02330310569F02130310521F582E179
S113085090E026EF34E028C08EE390E028EB34E00B
S113086023C099278130910551F018F0029769F05F
S113087017C0E4EBF4E0849190E09F0115C0E4EA32
S1130880F4E0849190E09F010FC0E4E8F4E08491E7
S113089090E09F0109C080E090E020E030E004C0D7
S11308A080E090E020E030E0FA0120833183089575
S11308B0EF920F934FE1649F90011124E12C0FE11B
S11308C040EABC0180EA94E00E94FD290F91EF9078
S11308D00895AF92CF92EF920F934FE1649F9001EE
S11308E01124A12CC12CE12C0FE140EABC0180EAC7
S11308F094E00E948F290F91EF90CF90AF900895CC
S1130900AF92CF92EF920F93CF93DF9300D0CDB7F6
S1130910DEB783E089831A82A12CCC24C394E12C12
S113092002E020E430E042E8BE016F5F7F4F80EADE
S113093094E00E948F290F900F90DF91CF910F9137
S1130940EF90CF90AF900895AF92CF92EF920F9324
S11309501F93CF93DF9300D0CDB7DEB711E0198397
S11309601A82A12CCC24C394E12C02E020E430E0D0
S113097042E8BE016F5F7F4F80EA94E00E948F29B6
S11309808FE39FE10197F1F700C000001A8320E490
S113099030E042E8BE016F5F7F4F80EA94E00E943E
S11309A08F290F900F90DF91CF911F910F91EF90AE
S11309B0CF90AF900895AF92CF92EF920F93CF93D1
S11309C0DF9300D000D0CDB7DEB76055698391E2E4
S11309D09A83982F990F890F880F8B838FE78C83C5
S11309E0AA24A394C12CE12C04E020E030E048E7E1
S11309F0BE016F5F7F4F80EA94E00E948F292496A6
S1130A00CDBFDEBFDF91CF910F91EF90CF90AF902C
S1130A10089560E080E00E94DB040895AF92CF92D5
S1130A20EF920F931F93CF93DF931F92CDB7DEB74F
S1130A300E940905198218E0AA24A394C12CEE246B
S1130A40E39400E820E430E048E7BE016F5F7F4FA5
S1130A5080EA94E00E948F29115071F70E940905E1
S1130A600F90DF91CF911F910F91EF90CF90AF90A6
S1130A700895AF92CF92EF920F931F93CF93DF938A
S1130A80CDB7DEB76697CDBFDEBF182F8EEA898358
S1130A9085ED8A8380E88B8388EA8C83AA24A394D7
S1130AA0C12CE12C04E020E030E048E7BE016F5F98
S1130AB07F4F80EA94E00E948F298FE38D8301E0C9
S1130AC020E030E048E7BE016B5F7F4F80EA94E0AE
S1130AD00E948F2983ED8E831F8280E488878DE8AE
S1130AE0898704E020E030E048E7BE016A5F7F4F79
S1130AF080EA94E00E948F29113041F576C08D83FD
S1130B00AA24A394C12CE12C01E020E030E048E7C2
S1130B10BE016B5F7F4F80EA94E00E948F2986E0DC
S1130B20E1E4F1E2DE01519601900D928A95E1F73C
S1130B3006E020E030E048E7BE016F5E7F4F80EAC8
S1130B4094E00E948F290E940E059EC084E18D834B
S1130B50AA24A394C12CE12C01E020E030E048E772
S1130B60BE016B5F7F4F80EA94E00E948F2980E290
S1130B708A871B8681EA8C8788EC8D8704E020E0D5
S1130B8030E048E7BE01665F7F4F80EA94E00E9450
S1130B908F298AED8E8782E18F8781E8888B03E035
S1130BA020E030E048E7BE01625F7F4F80EA94E0D6
S1130BB00E948F298FEC8D8301E020E030E048E72C
S1130BC0BE016B5F7F4F80EA94E00E948F2989ED1C
S1130BD08D8320E030E048E7BE016B5F7F4F80EA01
S1130BE094E00E948F2981EF8ACF80E18D83AA242B
S1130BF0A394C12CE12C01E020E030E048E7BE01E1
S1130C006B5F7F4F80EA94E00E948F2980E28A879D
S1130C101B8681EA8C8788EC8D8704E020E030E035
S1130C2048E7BE01665F7F4F80EA94E00E948F2907
S1130C308AED8E8782E18F8781E8888B03E020E04C
S1130C4030E048E7BE01625F7F4F80EA94E00E9493
S1130C508F298FE98D8301E020E030E048E7BE0171
S1130C606B5F7F4F80EA94E00E948F2989ED8D832A
S1130C7020E030E048E7BE016B5F7F4F80EA94E0FC
S1130C800E948F2982E23BCF6696CDBFDEBFDF9103
S1130C90CF911F910F91EF90CF90AF900895AF92A5
S1130CA0CF92EF920F93E0EEE80FE03608F40BC119
S1130CB0803B09F408C18F3909F405C18F7D8C3953
S1130CC009F401C1863909F4FEC0843809F00DC164
S1130CD0FAC084918D933196A217B307D1F7AA2451
S1130CE0A394C12CE12C06E020E430E048E76EE850
S1130CF072E280EA94E00E948F29F7C08E2F90E080
S1130D00FC01E456F109E933F10508F0EEC0E250C4
S1130D10FF4F0C94F930E2E4F7E0AEE8B2E224E9E4
S1130D2032E284918D9331962A173B07D1F7AA2496
S1130D30A394C12CE12C06E020E430E048E76EE8FF
S1130D4072E280EA94E00E948F29CFC0EAE5F7E0DE
S1130D50AEE8B2E224E932E284918D9331962A1707
S1130D603B07D1F7AA24A394C12CE12C06E020E48C
S1130D7030E048E76EE872E280EA94E00E948F294E
S1130D80B4C0E6E6F7E0AEE8B2E224E932E28491E8
S1130D908D933196A217B307D1F7AA24A394C12C3B
S1130DA0E12C06E020E430E048E76EE872E280EAF5
S1130DB094E00E948F2999C0EEE4F7E0AEE8B2E235
S1130DC024E932E284918D9331962A173B07D1F7B7
S1130DD0AA24A394C12CE12C06E020E430E048E7E7
S1130DE06EE872E280EA94E00E948F297EC0ECE60D
S1130DF0F7E0AEE8B2E224E932E284918D933196D1
S1130E00A217B307D1F7AA24A394C12CE12C06E0BE
S1130E1020E430E048E76EE872E280EA94E00E9461
S1130E208F2963C0E8E4F7E0AEE8B2E224E932E2F5
S1130E3084918D933196A217B307D1F7AA24A39472
S1130E40C12CE12C06E020E430E048E76EE872E2D1
S1130E5080EA94E00E948F2948C0E0E6F7E0AEE81B
S1130E60B2E224E932E284918D9331962A173B074A
S1130E70D1F7AA24A394C12CE12C06E020E430E0AD
S1130E8048E76EE872E280EA94E00E948F292DC060
S1130E90E4E5F7E0AEE8B2E224E932E284918D932E
S1130EA031962A173B07D1F7AA24A394C12CE12C2D
S1130EB006E020E430E048E76EE872E280EA94E07D
S1130EC00E948F2912C0EF3508F018CFF0E0CF014F
S1130ED0880F991FE80FF91FEE0FFF1FE85FFA4F05
S1130EE0AEE8B2E224E932E2F4CE0F91EF90CF9073
S1130EF0AF900895AF92CF92EF920F93E0EEE80F88
S1130F00E03608F40CC1803B09F409C18F3909F4B7
S1130F1006C18F7D8C3909F402C1863909F4FFC0FA
S1130F20843809F00EC1FBC0849180958D9331966D
S1130F30A217B307C9F7AA24A394C12CE12C06E095
S1130F4020E430E048E768E872E280EA94E00E9436
S1130F508F29F7C08E2F90E0FC01E456F109E933A4
S1130F60F10508F0EEC0E95CFE4F0C94F930E2E4C0
S1130F70F7E0A8E8B2E22EE832E284918D9331964C
S1130F802A173B07D1F7AA24A394C12CE12C06E02D
S1130F9020E430E048E768E872E280EA94E00E94E6
S1130FA08F29CFC0EAE5F7E0A8E8B2E22EE832E202
S1130FB084918D9331962A173B07D1F7AA24A394E1
S1130FC0C12CE12C06E020E430E048E768E872E256
S1130FD080EA94E00E948F29B4C0E6E6F7E0A8E82E
S1130FE0B2E22EE832E284918D933196A217B307D0
S1130FF0D1F7AA24A394C12CE12C06E020E430E02C
S113100048E768E872E280EA94E00E948F2999C078
S1131010EEE4F7E0A8E8B2E22EE832E284918D93A0
S113102031962A173B07D1F7AA24A394C12CE12CAB
S113103006E020E430E048E768E872E280EA94E001
S11310400E948F297EC0ECE6F7E0A8E8B2E22EE821
S113105032E284918D933196A217B307D1F7AA2473
S1131060A394C12CE12C06E020E430E048E768E8D2
S113107072E280EA94E00E948F2963C0E8E4F7E01A
S1131080A8E8B2E22EE832E284918D933196A21759
S1131090B307D1F7AA24A394C12CE12C06E020E4E1
S11310A030E048E768E872E280EA94E00E948F2921
S11310B048C0E0E6F7E0A8E8B2E22EE832E2849124
S11310C08D9331962A173B07D1F7AA24A394C12CF8
S11310D0E12C06E020E430E048E768E872E280EAC8
S11310E094E00E948F292DC0E4E5F7E0A8E8B2E27D
S11310F02EE832E284918D9331962A173B07D1F77B
S1131100AA24A394C12CE12C06E020E430E048E7B3
S113111068E872E280EA94E00E948F2912C0EF35F9
S113112008F018CFF0E0CF01880F991FE80FF91FDE
S1131130EE0FFF1FE85FFA4FA8E8B2E22EE832E2B2
S1131140F3CE0F91EF90CF90AF900895CF93DF93AC
S1131150EC018881882331F021960E944F06899101
S11311608111FBCFDF91CF910895CF93DF93EC01F1
S11311708881882331F021960E947A078991811110
S1131180FBCFDF91CF910895DF92EF92FF920F93FF
S11311901F93CF93DF93FC0180818823C1F0D42E69
S11311A0D62F8F010F5F1F4FC0E0CD1730F0DC1634
S11311B020F078010E947A0703C078010E944F064C
S11311C0CF5FF70180810F5F1F4F8111EECFDF9159
S11311D0CF911F910F91FF90EF90DF9008951F9290
S11311E00F920FB60F9211248F939F93AF93BF93D7
S11311F0809166238F5F8093662380916623877036
S1131200B1F48091672390916823A0916923B091F0
S11312106A230196A11DB11D8093672390936823CF
S1131220A0936923B0936A2381E080935A2381E0D9
S113123080935D23BF91AF919F918F910F900FBECB
S11312400F901F9018951F920F920FB60F921124B2
S11312502F933F938F939F93809196228F5F8093D8
S113126096228A3008F44CC09091080620915523A8
S11312709095392F3227209104212323922F909582
S113128090930421209103212323292720930321D0
S1131290932392232091552329272093552330917A
S11312A05523209154239323922B9093542390916C
S11312B0552394FD04C091E39093952212C090911C
S11312C09522915019F0909395220BC094E190933C
S11312D0952290915523209153239071922B9093B2
S11312E053239DEC899F912D11249695969596955F
S11312F0990F292F220F220F920F891B8093962278
S11313008091080682FF02C093E001C090E08091C2
S1131310080683FF02C081E0982780915B23891B24
S113132080FF09C090935B2390915C23827091505D
S1131330890F80935C239F918F913F912F910F9000
S11313400FBE0F901F901895F89490915423892301
S11313509091542398279093542378940895F89463
S11313609091532389239091532398279093532347
S113137078940895F89490915523909589230E9428
S1131380A40908950E94AF090E94A4090895FC01CC
S1131390A0E8B6E088E250968C93509751968C93CF
S11313A081E0828393E2958398E091838483089516
S11313B0FB01208130E0220F331F820F931FDC01D9
S11313C04D935C9380818F5F8F70808308951F920B
S11313D00F920FB60F9211240BB60F922F933F93D7
S11313E04F935F936F937F938F939F93AF93BF9329
S11313F0EF93FF93209168083091690840E050E032
S113140060EC71EE84EE90E00E94B830A90165ECC6
S113141072E286EC92E20E94D809FF91EF91BF91AB
S1131420AF919F918F917F916F915F914F913F9178
S11314302F910F900BBE0F900FBE0F901F90189519
S11314401F920F920FB60F9211240BB60F922F9387
S11314503F934F935F936F937F938F939F93AF9338
S1131460BF93EF93FF9340E050E065EC72E286ECAB
S113147092E20E94D809FF91EF91BF91AF919F91A1
S11314808F917F916F915F914F913F912F910F9029
S11314900BBE0F900FBE0F901F9018951F920F92C6
S11314A00FB60F9211240BB60F922F933F934F93C5
S11314B05F936F937F938F939F93AF93BF93EF93B8
S11314C0FF93209168093091690940E050E060EC95
S11314D071EE84EE90E00E94B830A90166EE72E2EB
S11314E087EE92E20E94D809FF91EF91BF91AF91EC
S11314F09F918F917F916F915F914F913F912F9128
S11315000F900BBE0F900FBE0F901F9018951F9257
S11315100F920FB60F9211240BB60F922F933F9395
S11315204F935F936F937F938F939F93AF93BF93E7
S1131530EF93FF9340E050E066EE72E287EE92E2B2
S11315400E94D809FF91EF91BF91AF919F918F9124
S11315507F916F915F914F913F912F910F900BBEAF
S11315600F900FBE0F901F901895F894FC01AC01DA
S1131570405E5F4F80E090E0DC0121913191820F69
S1131580931FA11DB11DE417F507B9F70097A10535
S1131590B10549F0689413F8B695A7959795879582
S11315A01694D1F702C080E090E078940895CF9229
S11315B0DF92EF92FF92CF93DF93CDB7DEB7A89778
S11315C0CDBFDEBF80915923882309F436C186EC50
S11315D092E20E94B50AA0E0B0E080936223909367
S11315E06323A0936423B093652380911521909184
S11315F0162140916223509163236091642370917A
S11316006523A0E0B0E0841B950BA60BB70B8DA35C
S11316109EA3AFA3B8A7CDA0DEA0EFA0F8A4CC0CE6
S1131620DD1CEE1CFF1CCC0CDD1CEE1CFF1CCC0CCA
S1131630DD1CEE1CFF1CCC0CDD1CEE1CFF1CCC0CBA
S1131640DD1CEE1CFF1C60910B2170910C2180911C
S11316500D2190910E212DE730E040E050E00E94F2
S1131660B830C701B6010E94DA3029A33AA34BA3CC
S11316705CA3809128099091290949A15AA16BA1E1
S11316807CA1A0E0B0E0841B950BA60BB70B8D8F5B
S11316909E8FAF8FB8A38D8D9E8DAF8DB8A1BB23C8
S11316A024F41D8E1E8E1F8E18A28D8D9E8DAF8DDF
S11316B0B8A181329340A105B10544F080E293E0E2
S11316C0A0E0B0E08D8F9E8FAF8FB8A38D8D9E8DDF
S11316D0AF8DB8A180932809909329098D8D9E8D93
S11316E0AF8DB8A181159340A105B1054CF080914F
S11316F0192190911A2102978093192190931A210C
S11317008D8D9E8DAF8DB8A18A3F9105A105B10540
S11317104CF48091192190911A21029680931921F9
S113172090931A218091192190911A21813090412E
S113173030F080E090E18093192190931A218091F8
S1131740192190911A21853A954030F485EA95E063
S11317508093192190931A218091192190911A2133
S113176020911D2130911E21A0E0B0E0821B930B3B
S1131770A109B1098DA39EA3AFA3B8A7CDA0DEA0F4
S1131780EFA0F8A4CC0CDD1CEE1CFF1CCC0CDD1C63
S1131790EE1CFF1CCC0CDD1CEE1CFF1CCC0CDD1C59
S11317A0EE1CFF1CCC0CDD1CEE1CFF1C60910F21F9
S11317B07091102180911121909112212DE730E038
S11317C040E050E00E94B830C701B6010E94DA3010
S11317D0298F3A8F4B8F5C8F20912A0830912B08E8
S11317E0898D9A8DAB8DBC8D820F931FA11DB11D68
S11317F08D8F9E8FAF8FB8A38D8D9E8DAF8DB8A129
S113180081159240A105B1050CF06AC18D8D9E8DA4
S1131810AF8DB8A1181619061A061B060CF457C189
S11318205FC110922A0810922B080FC08FEF91E02D
S113183080932A0890932B0808C0109228091092CC
S1131840290910922A0810922B0880915823882382
S113185009F434C187EE92E20E94B50AA0E0B0E038
S113186080935E2390935F23A0936023B0936123BE
S1131870809113219091142140915E2350915F2314
S11318806091602370916123A0E0B0E0841B950B0C
S1131890A60BB70B8D8B9E8BAF8BB88FCD88DE8854
S11318A0EF88F88CCC0CDD1CEE1CFF1CCC0CDD1C72
S11318B0EE1CFF1CCC0CDD1CEE1CFF1CCC0CDD1C38
S11318C0EE1CFF1CCC0CDD1CEE1CFF1C60910B21DC
S11318D070910C2180910D2190910E212DE730E023
S11318E040E050E00E94B830C701B6010E94DA30EF
S11318F0298B3A8B4B8B5C8B80912A0990912B0915
S113190049895A896B897C89A0E0B0E0841B950BD6
S1131910A60BB70B8D879E87AF87B88B8D859E8569
S1131920AF85B889BB2324F41D861E861F86188ABA
S11319308D859E85AF85B88981329340A105B10517
S113194044F080E293E0A0E0B0E08D879E87AF870B
S1131950B88B8D859E85AF85B88980932A0990932D
S11319602B098D859E85AF85B88981159340A10586
S1131970B1054CF080911721909118210297809322
S11319801721909318218D859E85AF85B8898A3F4C
S11319909105A105B1054CF480911721909118216E
S11319A0029680931721909318218091172190918A
S11319B018218130904130F080E090E1809317212C
S11319C0909318218091172190911821853A954080
S11319D030F485EA95E08093172190931821809143
S11319E017219091182120911B2130911C21A0E0F6
S11319F0B0E0821B930BA109B10989879A87AB8751
S1131A00BC87C984DA84EB84FC84CC0CDD1CEE1C1A
S1131A10FF1CCC0CDD1CEE1CFF1CCC0CDD1CEE1CD6
S1131A20FF1CCC0CDD1CEE1CFF1CCC0CDD1CEE1CC6
S1131A30FF1C60910F2170911021809111219091D0
S1131A4012212DE730E040E050E00E94B830C70199
S1131A50B6010E94DA302D833E834F83588720914C
S1131A602808309129088D819E81AF81B885820F25
S1131A70931FA11DB11D89839A83AB83BC83898184
S1131A809A81AB81BC8181159240A105B10584F591
S1131A9089819A81AB81BC81181619061A061B0626
S1131AA074F126C0109228081092290830C08FEFD4
S1131AB091E0809328089093290829C010922A095C
S1131AC010922B09109228081092290820C08D8D9D
S1131AD09E8DAF8DB8A180932A0890932B08B5CE24
S1131AE0898D9A8DAB8DBC8DBB230CF09FCE99CE86
S1131AF08D819E81AF81B885BB23CCF6D3CF8981FC
S1131B009A81AB81BC818093280890932908A89678
S1131B10CDBFDEBFDF91CF91FF90EF90DF90CF90EC
S1131B200895CF93DF9300D0CDB7DEB71982DC01DF
S1131B301496EC91F0E0062E02C0F595E7950A9410
S1131B40E2F7E0FF02C031E039831A82242311F066
S1131B5021E02A8339812A81321749F021E030E0DB
S1131B6002C0220F331F6A95E2F7FC0127830F900E
S1131B700F90DF91CF910895E0E5F0E082E2828357
S1131B80808188608083818183FFFDCFA0E0B4E001
S1131B908FE790E01A968D939C931B97E0E4F0E016
S1131BA083E0838391E09C938383E0E0F4E081818C
S1131BB080FFFDCF83E0809302040895CF93DF93E9
S1131BC082E08093CA01ECE1F0E0E4911092CA0152
S1131BD0C0E5D0E084E08E83A0E6B0E01396EC93F9
S1131BE013978BE115968C93159787EB16968C9328
S1131BF0169781E08C9388ED84BF83E08883E0E5C9
S1131C00F0E0818181FFFDCFE0E5F0E080E18583B4
S1131C1088ED84BF83E18083818184FFFDCF81E0EF
S1131C208093680088ED84BF84E080934000DF9156
S1131C30CF910895CF93DF93C0E8D1E08AE68883FB
S1131C40A0E6B6E052968C915297816052968C939E
S1131C505297E0E4F8E088EA838330E1318325E0B9
S1131C60208383E0868387839BE69D8353969C91A0
S1131C705397916053969C93E0E4F9E09DEA938333
S1131C803183208386838783E0E0F8E093E39183C4
S1131C9081E080832FEF31E026A337A3E0E0F9E071
S1131CA08083918328EE33E026A337A3E0E0FAE0B3
S1131CB020E030E126A337A3868384E08083DF918C
S1131CC0CF9108958091080682FF02C083E001C08D
S1131CD080E09091080693FF02C091E089278093E9
S1131CE05B2310925C230895F89480915C23982FD1
S1131CF0917090935C23789485950895CF92DF92A8
S1131D00EF92FF920F931F93FC01DA01C901AB011B
S1131D10770F660B770B0081118122813381400F8D
S1131D20511F621F731F8A019B0184179507A60721
S1131D30B7072CF040835183628373830AC06A011E
S1131D407B01C81AD90AEA0AFB0AC082D182E2825C
S1131D50F382332344F4480F591F6A1F7B1F4083C7
S1131D605183628373831F910F91FF90EF90DF90F3
S1131D70CF900895AF92BF92DF92EF92FF920F93AC
S1131D801F93CF93DF93CDB7DEB76597CDBFDEBF8B
S1131D905C01F42ED22E002309F4DCC0FB01808107
S1131DA09181A281B381F501408151816281738166
S1131DB0841B950BA60BB70B8F87988BA98BBA8BBB
S1131DC06F85788989899A8920E13EE040E050E076
S1131DD00E94B8302B873C874D875E87EE2041F008
S1131DE01F86188A198A1A8A1B861C861D861E86D7
S1131DF06B857C858D859E852AE0AE014D5E5F4FA7
S1131E000E9437318B859C85AD85BE850A97A105D7
S1131E10B10560F480E390E089839A83BE016D5E2E
S1131E207F4FCE0101960E94253107C0BE016D5E31
S1131E307F4FCE0101960E943031FE013196019010
S1131E400020E9F731978AE390E0808391836F85DE
S1131E50788989899A8920E13EE040E050E00E9437
S1131E60B8306F87788B898B9A8B6F85788989894D
S1131E709A892CE330E040E050E00E94B8302B8790
S1131E803C874D875E876B857C858D859E852AE0A2
S1131E90AE014D5E5F4F0E9437318B859C85AD85C9
S1131EA0BE850A97A105B10550F4FE013196019053
S1131EB00020E9F7319780E390E080839183BE01AD
S1131EC06D5E7F4F8E010F5F1F4FC8010E94253149
S1131ED0F80101900020E9F731978AE390E08083CC
S1131EE091836F85788989899A892CE330E040E071
S1131EF050E00E94B8306F87788B898B9A8B6F85FE
S1131F00788989899A892AE0AE014D5E5F4F0E94E3
S1131F1037318F859889A989BA890A97A105B105AE
S1131F2048F4F80101900020E9F7319780E390E04C
S1131F3080839183BE016D5E7F4FCE0101960E9426
S1131F4025316D2D8F2D0E94DB04CE0101960E9458
S1131F50A60808C0622F842F0E94DB0487E491E264
S1131F600E94A6086596CDBFDEBFDF91CF911F9179
S1131F700F91FF90EF90DF90BF90AF900895DF92A4
S1131F80EF92FF920F931F93CF93DF93CDB7DEB7FA
S1131F906597CDBFDEBFF62EE42ED22EFC018081E4
S1131FA09181A281B3818E879F87A88BB98B6E851F
S1131FB07F858889998920E13EE040E050E00E94D5
S1131FC0B8302A8B3B8B4C8B5D8B6A897B898C89DF
S1131FD09D892AE0AE01455F5F4F0E9437318A89AF
S1131FE09B89AC89BD890A97A105B10560F480E39A
S1131FF090E089839A83BE01655F7F4FCE0101968D
S11320000E94253107C0BE01655F7F4FCE01019656
S11320100E943031FE01319601900020E9F731979A
S11320208AE390E0808391836E857F85888999898E
S113203020E13EE040E050E00E94B8306E877F87A8
S1132040888B998B6E857F85888999892CE330E00C
S113205040E050E00E94B8302A8B3B8B4C8B5D8B68
S11320606A897B898C899D892AE0AE01455F5F4F2F
S11320700E9437318A899B89AC89BD890A97A10559
S1132080B10550F4FE01319601900020E9F7319733
S113209080E390E080839183BE01655F7F4F8E0172
S11320A00F5F1F4FC8010E942531F80101900020E5
S11320B0E9F731978AE390E0808391836E857F8589
S11320C0888999892CE330E040E050E00E94B830E0
S11320D06E877F87888B998B6E857F8588899989A0
S11320E02AE0AE01455F5F4F0E9437318E859F85A0
S11320F0A889B9890A97A105B10548F4F8010190A6
S11321000020E9F7319780E390E080839183BE015A
S1132110655F7F4FCE0101960E942531F11005C005
S1132120CE0101960E94A60806C04D2D6E2DCE014B
S113213001960E94C4086596CDBFDEBFDF91CF91A2
S11321401F910F91FF90EF90DF900895E0E0F2E08F
S113215086E3848783E08587118282E0828387E037
S1132160848381E080830895FC0181E08083660F8D
S1132170660F660F618380818068808383818823F2
S1132180E9F3A0E0B2E016968C91169716968C931C
S113219080818068808383818823E9F3A0E0B2E0B2
S11321A016968C91169716968C9384819581089532
S11321B09C01A8EEB3E00E9402316C507E41834042
S11321C0910928EE33E040E050E00E94B830A4E1E9
S11321D0BCE30E941131DC01CB01072E7CE0B695F3
S11321E0A795979587957A95D1F7702D0895CF93F4
S11321F0DF93E0910921F0910A218CE494E0818736
S1132200928788E592E08783908780E891E5A1E052
S1132210B0E08787908BA18BB28B8CE291E0A0E039
S1132220B0E0878B908FA18FB28F80E29CE1A0E019
S1132230B0E083879487A587B6871182C09109216E
S1132240D0910A211A8280E19EE0A0E0B0E08B8B5D
S11322509C8BAD8BBE8B81E08C831E821B821D8286
S11322606BE1CE010E94DA036B8F7C8F8D8F9E8F82
S113227061E08091092190910A210E946904DF9113
S1132280CF910895CF93DF93E0910721F091082136
S113229080E29CE1A0E0B0E083879487A587B687BD
S11322A08CE494E08187928788E592E08783908725
S11322B080E891E5A1E0B0E08787908BA18BB28B99
S11322C08CE390E0A0E0B0E0878B908FA18FB28F79
S11322D01182C0910721D09108211A8280E19EE0E9
S11322E0A0E0B0E08B8B9C8BAD8BBE8B81E08C83AC
S11322F01B821E821D826BE1CE010E94DA036B8F6A
S11323007C8F8D8F9E8F62E08091072190910821B0
S11323100E946904DF91CF910895CF93DF93E091F8
S11323200521F091062180E29CE1A0E0B0E08387E2
S11323309487A587B6878CE494E08187928788E5A3
S113234092E08783908780E891E5A1E0B0E08787F9
S1132350908BA18BB28B8CE390E0A0E0B0E0878BF4
S1132360908FA18FB28F1182C0910521D091062147
S11323701A8280E19EE0A0E0B0E08B8B9C8BAD8B59
S1132380BE8B81E08C831B821E821D826BE1CE0199
S11323900E94DA036B8F7C8F8D8F9E8F60919722C2
S11323A06C5F80910721909108210E946904DF915C
S11323B0CF9108954F925F926F927F928F929F92E6
S11323C0AF92BF92CF92DF92EF92FF920F931F933F
S11323D0CF93DF933C01EB016A0129018091022133
S11323E08823B9F010920221F80160816C5FCE015C
S11323F00E9458048B8C9C8CAD8CBE8C6BE1CE01FE
S11324000E94DA0386169706A806B90611F00E9400
S11324108D11F7018081882309F4A1C010820E94E4
S11324200E0560E081E00E94DB0481E591E20E94F8
S1132430A60861E081E00E94DB0483E691E20E9449
S1132440A608F8018081843620F48FE491E20E948A
S1132450A608F80180818A3020F48FE491E20E947A
S1132460A608F80180814AE0B60190E00E94593143
S1132470C6010E94A60862E081E00E94DB0488E6AF
S113248091E20E94A6088A81811104C08EE691E23D
S11324900E94A6088A81813021F485E791E20E9496
S11324A0A6088A81823021F48FE791E20E94A6086F
S11324B063E081E00E94DB048DE891E20E94A608BB
S11324C04AE0B6018F8198850E945931C6010E9465
S11324D0A60887E991E20E94A60864E081E00E94D0
S11324E0DB048CE991E20E94A6084AE0B6018985E2
S11324F09A850E945931C6010E94A60887E991E293
S11325000E94A60865E081E00E94DB0486EA91E26D
S11325100E94A60820E040E060E0CE010B960E94F5
S1132520BF0F66E081E00E94DB0481EB91E20E9430
S1132530A60820E040E060E0CE010F960E94BF0FA5
S113254067E081E00E94DB048CEB91E20E94A60824
S113255020E040E060E0CE0143960E94BF0FE0918E
S11325601123EE2309F448C38E2F90E0FC017097E9
S1132570E336F10508F040C3E059FE4F0C94F930FE
S11325800E94740EF8019081890F808361E081E0DC
S11325900E94DB0483E691E20E94A608F801808190
S11325A0843620F48FE491E20E94A608F801808129
S11325B08A3020F48FE491E20E94A608F801808119
S11325C04AE0B60190E00E945931C6010E94B50864
S11325D080E10E94BA09882309F40EC381E0809344
S11325E00221F7018083F301808382E0F20180837A
S11325F01092112301C30E94740E9A81890F8F3F98
S113260011F08A8302C082E08A839A818BEA989FC0
S1132610812D11248695282F220F820F981B9A83CF
S113262062E081E00E94DB0488E691E20E94A60851
S11326308A81811104C08EE691E20E94B5088A81E4
S1132640813021F485E791E20E94B5088A818230C5
S113265021F48FE791E20E94B50880E10E94BA0953
S1132660882309F4C9C262E081E00E94DB0488E6A1
S113267091E20E94A6088A81811104C08EE691E24B
S11326800E94A6088A81813021F485E791E20E94A4
S1132690A6088A81823021F48FE791E20E94A6087D
S11326A082E0F301808381E0F201808310921123A0
S11326B0A3C20E94740E082E000C990B9C01220FD9
S11326C0331F880F991F880F991F880F991F820F36
S11326D0931F2F813885820F931F8F83988763E020
S11326E08AE00E94DB04E0910921F0910A218781AC
S11326F090850A9720F48FE491E20E94A6088F81C6
S113270098858436910520F48FE491E20E94A6080E
S11327108F819885883E934020F48FE491E20E9453
S1132720A6084AE0B6018F8198850E945931C601F6
S11327300E94B50887E991E20E94A60880E10E9400
S1132740BA09882309F458C263E08AE00E94DB04D2
S11327508F8198850A9720F48FE491E20E94A6085D
S11327608F8198858436910520F48FE491E20E944C
S1132770A6088F819885883E934020F48FE491E2E7
S11327800E94A6084AE0B6018F8198850E945931BB
S1132790C6010E94A60887E991E20E94A60883E088
S11327A0F301808382E0F20180831092112324C21A
S11327B00E94740E082E000C990B9C01220F331FEB
S11327C0880F991F880F991F880F991F820F931FD5
S11327D029853A85820F931F89879A8764E08AE066
S11327E00E94DB0489859A850A9720F48FE491E29C
S11327F00E94A60889859A858436910520F48FE481
S113280091E20E94A60889859A85883E934020F427
S11328108FE491E20E94A6084AE0B60189859A8570
S11328200E945931C6010E94B50887E991E20E94CD
S1132830A60880E10E94BA09882309F4DDC164E096
S11328408AE00E94DB0489859A850A9720F48FE444
S113285091E20E94A60889859A858436910520F420
S11328608FE491E20E94A60889859A85883E934068
S113287020F48FE491E20E94A6084AE0B60189851B
S11328809A850E945931C6010E94A60887E991E2FF
S11328900E94A60884E0F301808382E0F201808331
S11328A010921123A9C10E94740E2B9620E13EE0E0
S11328B0482F4203B001439F700D112420E036E4F9
S11328C045E050E0CE010E947E0E65E08BE00E9460
S11328D0DB0421E040E061E0CE010E94BF0F80E113
S11328E00E94BA09882309F487C165E08BE00E943D
S11328F0DB0420E040E060E0CE010E94BF0F81E5F0
S11329008093112379C10E94740E2B969CE3890253
S1132910B001112420E036E445E050E0CE010E94ED
S11329207E0E65E08BE00E94DB0424E043E061E07E
S1132930CE010E94BF0F80E10E94BA09882309F4E6
S11329405BC165E08BE00E94DB0420E040E060E0D6
S1132950CE010E94BF0F82E5809311234DC10E94D6
S1132960740E2B96682F880F770B20E036E445E031
S113297050E0CE010E947E0E65E08BE00E94DB04F5
S113298027E046E061E0CE010E94BF0F80E10E9493
S1132990BA09882309F430C165E08BE00E94DB04A6
S11329A020E040E060E0CE010E94BF0F85E0F3012B
S11329B0808382E0F2018083109211231DC10E9462
S11329C0740E2F9620E13EE0482F4203B001439F4E
S11329D0700D112420E036E445E050E0CE010E9461
S11329E07E0E66E08BE00E94DB0421E040E061E0C3
S11329F0CE010E94BF0F80E10E94BA09882309F426
S1132A00FBC066E08BE00E94DB0420E040E060E075
S1132A10CE010E94BF0F81E680931123EDC00E9476
S1132A20740E2F969CE38902B001112420E036E451
S1132A3045E050E0CE010E947E0E66E08BE00E94ED
S1132A40DB0424E043E061E0CE010E94BF0F80E19B
S1132A500E94BA09882309F4CFC066E08BE00E9483
S1132A60DB0420E040E060E0CE010E94BF0F82E67C
S1132A7080931123C1C00E94740E682F880F770BB6
S1132A808091092190910A2120E036E445E050E04C
S1132A900F960E947E0E66E08BE00E94DB042F9668
S1132AA027E046E061E0CE010E94BF0F80E10E9472
S1132AB0BA09882309F4A0C066E08BE00E94DB0415
S1132AC020E040E060E0CE010E94BF0F86E0F30109
S1132AD0808382E0F2018083109211238DC00E94D2
S1132AE0740E639620E13EE0482F4203B001439FF9
S1132AF0700D112420E036E445E050E0CE010E9440
S1132B007E0E67E08BE00E94DB0421E040E061E0A0
S1132B10CE010E94BF0F80E10E94BA09882309F404
S1132B206BC067E08BE00E94DB0420E040E060E0E3
S1132B30CE010E94BF0F81E7809311235DC00E94E4
S1132B40740E9CE38902B0011124809109219091B3
S1132B500A2120E036E445E050E043960E947E0ED0
S1132B6067E08BE00E94DB04639624E043E061E0CD
S1132B70CE010E94BF0F80E10E94BA098823E1F1CF
S1132B8067E08BE00E94DB0420E040E060E0CE01DF
S1132B900E94BF0F82E7809311232EC00E94740EFF
S1132BA06396682F880F770B20E036E445E050E009
S1132BB0CE010E947E0E67E08BE00E94DB0427E0DA
S1132BC046E061E0CE010E94BF0F80E10E94BA0995
S1132BD0882391F067E08BE00E94DB0420E040E072
S1132BE060E0CE010E94BF0F87E0F301808382E0A2
S1132BF0F201808310921123DF91CF911F910F91E5
S1132C00FF90EF90DF90CF90BF90AF909F908F9008
S1132C107F906F905F904F9008954F925F926F9264
S1132C207F928F929F92AF92BF92CF92DF92EF9258
S1132C30FF920F93CF93DF935C016B01EA0149018B
S1132C40809101218823B9F010920121609194228E
S1132C506C5FCA010E9458044B8C5C8C6D8C7E8C1A
S1132C606BE1CE010E94DA03461657066806790620
S1132C7011F00E948D11F7018081882309F4A5C009
S1132C8010820E940E0560E081E00E94DB040023B4
S1132C9029F087EC91E20E94A60804C085ED91E238
S1132CA00E94A60861E081E00E94DB0483E691E2D1
S1132CB00E94A6088881843620F48FE491E20E9461
S1132CC0A60888818A3020F48FE491E20E94A60845
S1132CD088814AE0B60190E00E945931C6010E9401
S1132CE0A60862E081E00E94DB0488E691E20E948B
S1132CF0A6088A81811104C08EE691E20E94A6088A
S1132D008A81813059F485E791E20E94A6088A817C
S1132D10813021F48FE791E20E94A60863E081E00C
S1132D200E94DB048DE891E20E94A6084AE0B60105
S1132D308F8198850E945931C6010E94A60887E9AF
S1132D4091E20E94A60864E081E00E94DB048CE921
S1132D5091E20E94A6084AE0B60189859A850E94FC
S1132D605931C6010E94A60887E991E20E94A6088B
S1132D7065E081E00E94DB0486EA91E20E94A608F5
S1132D8020E040E060E0CE010B960E94BF0F66E0B9
S1132D9081E00E94DB0481EB91E20E94A60820E01E
S1132DA040E060E0CE010F960E94BF0F67E081E033
S1132DB00E94DB048CEB91E20E94A60820E040E034
S1132DC060E0CE0143960E94BF0FE0911123EE23F1
S1132DD009F447C38E2F90E0FC017097E336F105A8
S1132DE008F03FC3ED52FE4F0C94F9300E94740E6C
S1132DF090919422890F8093942261E081E00E9453
S1132E00DB0483E691E20E94A6088881843620F4DC
S1132E108FE491E20E94A60888818A3020F48FE42E
S1132E2091E20E94A608809194224AE0B60190E0C3
S1132E300E945931C6010E94B50880E10E94BA0976
S1132E40882309F40EC381E080930121F701808374
S1132E50F501808382E0F40180831092112301C381
S1132E600E94740E9A81890F8F3F11F08A8302C0E9
S1132E7082E08A839A818BEA989F812D112486951A
S1132E80282F220F820F981B9A8362E081E00E9410
S1132E90DB0488E691E20E94A6088A81811104C0BD
S1132EA08EE691E20E94B5088A81813021F485E79B
S1132EB091E20E94B5088A81823021F48FE791E281
S1132EC00E94B50880E10E94BA09882309F4C9C2A6
S1132ED062E081E00E94DB0488E691E20E94A60899
S1132EE08A81811104C08EE691E20E94A6088A813B
S1132EF0813021F485E791E20E94A6088A8182301C
S1132F0021F48FE791E20E94A60882E0F501808314
S1132F1081E0F401808310921123A3C20E94740EF5
S1132F20082E000C990B9C01220F331F880F991F48
S1132F30880F991F880F991F820F931F2F8138853F
S1132F40820F931F8F83988763E08AE00E94DB04DB
S1132F50E0910921F0910A21878190850A9720F454
S1132F608FE491E20E94A6088F81988584369105AA
S1132F7020F48FE491E20E94A6088F819885883E10
S1132F80934020F48FE491E20E94A6084AE0B6013F
S1132F908F8198850E945931C6010E94B50887E93E
S1132FA091E20E94A60880E10E94BA09882309F4EC
S1132FB058C263E08AE00E94DB048F8198850A97F7
S1132FC020F48FE491E20E94A6088F8198858436CC
S1132FD0910520F48FE491E20E94A6088F819885E0
S1132FE0883E934020F48FE491E20E94A6084AE0D0
S1132FF0B6018F8198850E945931C6010E94A608A6
S113300087E991E20E94A60883E0F501808382E0CB
S1133010F40180831092112324C20E94740E082E9E
S1133020000C990B9C01220F331F880F991F880FE6
S1133030991F880F991F820F931F29853A85820F44
S1133040931F89879A8764E08AE00E94DB0489855C
S11330509A850A9720F48FE491E20E94A608898554
S11330609A858436910520F48FE491E20E94A608A3
S113307089859A85883E934020F48FE491E20E94EA
S1133080A6084AE0B60189859A850E945931C6018D
S11330900E94B50887E991E20E94A60880E10E9497
S11330A0BA09882309F4DDC164E08AE00E94DB04E4
S11330B089859A850A9720F48FE491E20E94A608F4
S11330C089859A858436910520F48FE491E20E94E3
S11330D0A60889859A85883E934020F48FE491E27E
S11330E00E94A6084AE0B60189859A850E94593152
S11330F0C6010E94A60887E991E20E94A60884E01E
S1133100F501808382E0F401808310921123A9C128
S11331100E94740E2B9620E13EE0482F4203B0013A
S1133120439F700D112420E036E445E050E0CE01C9
S11331300E947E0E65E08BE00E94DB0421E040E00B
S113314061E0CE010E94BF0F80E10E94BA0988238A
S113315009F487C165E08BE00E94DB0420E040E0D5
S113316060E0CE010E94BF0F81E58093112379C1F5
S11331700E94740E2B969CE38902B001112420E076
S113318036E445E050E0CE010E947E0E65E08BE01F
S11331900E94DB0424E043E061E0CE010E94BF0F03
S11331A080E10E94BA09882309F45BC165E08BE0E1
S11331B00E94DB0420E040E060E0CE010E94BF0FEB
S11331C082E5809311234DC10E94740E2B96682FC3
S11331D0880F770B20E036E445E050E0CE010E94F2
S11331E07E0E65E08BE00E94DB0427E046E061E0B0
S11331F0CE010E94BF0F80E10E94BA09882309F41E
S113320030C165E08BE00E94DB0420E040E060E038
S1133210CE010E94BF0F85E0F501808382E0F401B6
S11332208083109211231DC10E94740E2F9620E1F9
S11332303EE0482F4203B001439F700D112420E06B
S113324036E445E050E0CE010E947E0E66E08BE05D
S11332500E94DB0421E040E061E0CE010E94BF0F48
S113326080E10E94BA09882309F4FBC066E08BE080
S11332700E94DB0420E040E060E0CE010E94BF0F2A
S113328081E680931123EDC00E94740E2F969CE377
S11332908902B001112420E036E445E050E0CE017B
S11332A00E947E0E66E08BE00E94DB0424E043E093
S11332B061E0CE010E94BF0F80E10E94BA09882319
S11332C009F4CFC066E08BE00E94DB0420E040E01C
S11332D060E0CE010E94BF0F82E680931123C1C03B
S11332E00E94740E682F880F770B809109219091AA
S11332F00A2120E036E445E050E00F960E947E0E5D
S113330066E08BE00E94DB042F9627E046E061E054
S1133310CE010E94BF0F80E10E94BA09882309F4FC
S1133320A0C066E08BE00E94DB0420E040E060E0A7
S1133330CE010E94BF0F86E0F501808382E0F40194
S11333408083109211238DC00E94740E639620E135
S11333503EE0482F4203B001439F700D112420E04A
S113336036E445E050E0CE010E947E0E67E08BE03B
S11333700E94DB0421E040E061E0CE010E94BF0F27
S113338080E10E94BA09882309F46BC067E08BE0EE
S11333900E94DB0420E040E060E0CE010E94BF0F09
S11333A081E7809311235DC00E94740E9CE389021F
S11333B0B00111248091092190910A2120E036E482
S11333C045E050E043960E947E0E67E08BE00E9449
S11333D0DB04639624E043E061E0CE010E94BF0F6A
S11333E080E10E94BA098823E1F167E08BE00E9442
S11333F0DB0420E040E060E0CE010E94BF0F82E7E2
S1133400809311232EC00E94740E6396682F880F38
S1133410770B20E036E445E050E0CE010E947E0EBA
S113342067E08BE00E94DB0427E046E061E0CE0128
S11334300E94BF0F80E10E94BA09882391F067E0DF
S11334408BE00E94DB0420E040E060E0CE010E94BB
S1133450BF0F87E0F501808382E0F401808310923E
S11334601123DF91CF910F91FF90EF90DF90CF90D8
S1133470BF90AF909F908F907F906F905F904F9090
S11334800895CF93DF93CDB7DEB7C654D109CDBF2E
S1133490DEBF19820E94BC0D0E94CA2A0E94DE0D62
S11334A00E941A0E0E94A61080EA94E00E94C709A6
S11334B00E94620E91E09093AF241092AE24109279
S11334C0AD24109272251092712510927025E0E4BB
S11334D0F6E088E3828BA0E6B6E083E011968C9355
S11334E0119787E0818320E036E080EEF901818343
S11334F0E0E2F6E0918388E1818B828B52968C9393
S1133500529753968C93A0EAB0E012968C9112973E
S1133510876012968C9380E4D90115968C939583D9
S11335207894E0E0F8E085EA90E080A791A782A78C
S113353093A7E0E0F9E010A611A612A613A661E095
S11335408091092190910A210E94580462E080919F
S11335500721909108210E9458046BE18091092170
S113356090910A210E94DA03E0910921F0910A2145
S1133570038D148D258D368D60177107820793078F
S113358011F00E94F7106BE18091072190910821BE
S11335900E94DA03E0910721F0910821038D148D34
S11335A0258D368D601771078207930711F00E94ED
S11335B042112091092130910A21F90181859285D6
S11335C08093152190931621E0910721F091082111
S11335D0818592858093132190931421C090672351
S11335E0D0906823E0906923F0906A23D9011B9658
S11335F04D915D916D917C911E97D701C601840F09
S1133600951FA61FB71F8A839B83AC83BD83C0907D
S11336106723D0906823E0906923F0906A23D9014E
S11336201F964D915D916D917C915297D701C60182
S1133630840F951FA61FB71F8E839F83A887B98702
S11336408091672390916823A0916923B0916A23A4
S11336504385548565857685840F951FA61FB71FFE
S11336608A879B87AC87BD87809167239091682365
S1133670A0916923B0916A23478550896189728931
S1133680840F951FA61FB71F8E879F87A88BB98BA2
S11336900E9480040E94A40480E00E94390560E036
S11336A081E00E94DB048091280682FF0AC087E043
S11336B0EAE7F2E2DE01529601900D928A95E1F773
S11336C009C087E0E1E8F2E2DE01529601900D9232
S11336D08A95E1F7CE0142960E94A60860E08CE04C
S11336E00E94DB048091280681FF0AC087E0EAE794
S11336F0F2E2DE01529601900D928A95E1F709C03B
S113370087E0E1E8F2E2DE01529601900D928A959B
S1133710E1F7CE0142960E94A608212C312C21010A
S113372024961CAE1DAE1EAE1FAE2497D12C25963A
S11337301FAE259726961FAE269727961FAE27976E
S1133740712C612C812CC12C992493945E01B9E1D4
S1133750AB0EB11C88E291E20E94E72C81E391E276
S11337600E94AA2D8FE191E20E94AA2DEEEAF4E2D2
S11337701081ADEAB4E28C918117C8F4412F50E076
S11337806DE674E289EB92E20E941C31EDEAF4E208
S1133790108381E08093AF248091B922813439F081
S11337A0823449F48091B72280958093B722809126
S11337B0B822813099F4A0E7B5E21C92412F50E081
S11337C069EB72E280E395E20E941C31E1E7F5E2E5
S11337D0108381E0809372251092B822611065C035
S11337E0F1E0CF1206C081E0809359231092572351
S11337F00FC0C11005C0109259231092572311C055
S113380002E0C01205C010925923109257234DC0F4
S113381013E0C11206C081E080935923809357239B
S113382044C024E0C21241C0E0910921F0910A2170
S11338308091672390916823A0916923B0916A23B2
S11338404385548565857685840F951FA61FB71F0C
S11338508A839B83AC83BD83809167239091682383
S1133860A0916923B0916A2347855089618972893F
S1133870840F951FA61FB71F8E839F83A887B987C0
S113388081859285809315219093162110920823A7
S113389081E084831582138210920D2310920E23EB
S11338A010920F2310921023C12C711065C031E0C7
S11338B0831206C081E080935823109256230FC0D0
S11338C0811005C0109258231092562311C042E073
S11338D0841205C010925823109256234DC053E011
S11338E0851206C081E0809358238093562344C0F8
S11338F084E0881241C0E0910721F0910821809171
S1133900672390916823A0916923B0916A2343852A
S1133910548565857685840F951FA61FB71F8A87F2
S11339209B87AC87BD878091672390916823A09182
S11339306923B0916A234785508961897289840F0C
S1133940951FA61FB71F8E879F87A88BB98B81856C
S1133950928580931321909314211092072381E080
S11339608483158213821092092310920A231092E1
S11339700B2310920C23812C80911423811187C076
S113398061100C94EB28711021C027969FAD2797E6
S1133990911121C02696AFAD2697A11136C00E9481
S11339A0740E2596BFAD2597B80F2596BFAF259702
S11339B02CC084E09DEC899FC12C1124C694C6942C
S11339C09C2D990F990FC90E8C19C82E2796EFAD0F
S11339D02797EE23D1F00E94740E20911521309187
S11339E01621082E000C990BAC01440F551F880FAB
S11339F0991F880F991F880F991F840F951F820F95
S1133A00931F80931521909316212696FFAD269738
S1133A10FF23D1F00E94740E2091132130911421C0
S1133A20082E000C990BAC01440F551F880F991FE9
S1133A30880F991F880F991F840F951F820F931F5A
S1133A408093132190931421772099F00E94740E8F
S1133A50880D8F3F09F484E09DEC899F912D1124FA
S1133A60892E86948694982D990F990F980D882EF7
S1133A70891A80E10E94C209882349F081E0809379
S1133A801423E1E1F3E210821182809313238091E5
S1133A905D23882321F010925D230E94D70A61E000
S1133AA088E292E00E94B41080931D2190931E211D
S1133AB060E080E292E00E94B41080931B21909316
S1133AC01C21D39401E30D1510F40C94F428809177
S1133AD01D2190911E2124962CAD3DAD4EAD5FADC0
S1133AE02497280F391F411D511D24962CAF3DAF3B
S1133AF04EAF5FAF249780911B2190911C21280E1B
S1133B00391E411C511C80915923882311F40C94B3
S1133B1048298091572381110C94402980910823CE
S1133B20811104C080E48093050608C04091662397
S1133B3024E066E080E096E00E94910D40916723C6
S1133B40509168236091692370916A238A819B81D3
S1133B50AC81BD81481759076A077B0708F450C137
S1133B60E0910921F0910A218281882311F40C94B7
S1133B703A29823051F50C941C298481882329F137
S1133B808781908580931521909316214091672316
S1133B90509168236091692370916A238785908985
S1133BA0A189B289840F951FA61FB71F4385548529
S1133BB065857685841B950BA60BB70B8A839B833F
S1133BC0AC83BD83148281E08383E0910721F0916B
S1133BD008218281813009F013C183818823B9F0DF
S1133BE081E080930723409167235091682360917B
S1133BF0692370916A23878190858A019B01080F4C
S1133C00191F211D311D0A871B872C873D8785813C
S1133C10882329F18185928580931321909314211F
S1133C20158281E0868314821382F894809167233D
S1133C3090916823A0916923B0916A23E0910721B0
S1133C40F09108214789508D618D728D840F951FE5
S1133C50A61FB71F8A879B87AC87BD877894E0919E
S1133C600921F0910A218681882309F463C08781A0
S1133C709085809313219093142181E0438554858A
S1133C8065857685452B462B472B09F480E0809388
S1133C9058230785108921893289081B11092109B4
S1133CA031094789508D618D728D83899489A589E5
S1133CB0B689840F951FA61FB71F80179107A20707
S1133CC0B30718F5F8948091672390916823A09125
S1133CD06923B0916A23E0910921F0910A21438973
S1133CE0548965897689840F951FA61FB71F8A8713
S1133CF09B87AC87BD877894E0910921F0910A21D4
S1133D0081E08583148213827BC080916723909124
S1133D106823A0916923B0916A23080F191F2A1FF1
S1133D203B1F0A871B872C873D87148281E083838E
S1133D30158266C08481882309F462C087819085D6
S1133D40809313219093142181E0438554856585E4
S1133D507685452B462B472B09F480E08093582326
S1133D600785108921893289081B11092109310924
S1133D704789508D618D728D83899489A589B6890F
S1133D80840F951FA61FB71F80179107A207B307BB
S1133D9018F5F8948091672390916823A091692382
S1133DA0B0916A23E0910921F0910A214389548951
S1133DB065897689840F951FA61FB71F8A879B87FD
S1133DC0AC87BD877894E0910921F0910A2181E0C4
S1133DD085831482138214C0809167239091682391
S1133DE0A0916923B0916A23080F191F2A1F3B1F52
S1133DF00A871B872C873D87148281E08383158281
S1133E0080915823882311F40C9487298091562398
S1133E1081110C947F2980910723811104C081E0D2
S1133E208093250608C04091662324E060E080E288
S1133E3096E00E94910D4091672350916823609110
S1133E40692370916A238A859B85AC85BD85481753
S1133E5059076A077B0708F451C1E0910721F091E3
S1133E6008218281882311F40C947929823079F510
S1133E700C945B298481882351F1878190858093F8
S1133E8013219093142140916723509168236091EA
S1133E90692370916A2387859089A189B289840FE7
S1133EA0951FA61FB71F4385548565857685841B9A
S1133EB0950BA60BB70B8A879B87AC87BD871482AB
S1133EC081E083838281813009F018C107C0828137
S1133ED0813009F013C183818823B9F081E0809394
S1133EE0072340916723509168236091692370915F
S1133EF06A23878190858A019B01080F191F211D60
S1133F00311D0A871B872C873D878581882329F1EA
S1133F10818592858093132190931421158281E0E9
S1133F20868314821382F894809167239091682386
S1133F30A0916923B0916A23E0910721F0910821AF
S1133F404789508D618D728D840F951FA61FB71FF1
S1133F508A879B87AC87BD877894E0910721F0918D
S1133F6008218681882309F463C087819085809322
S1133F7013219093142181E04385548565857685CA
S1133F80452B462B472B09F480E080935823078563
S1133F90108921893289081B1109210931094789AE
S1133FA0508D618D728D83899489A589B689840F1A
S1133FB0951FA61FB71F80179107A207B30718F50F
S1133FC0F8948091672390916823A0916923B0911C
S1133FD06A23E0910721F091082143895489658976
S1133FE07689840F951FA61FB71F8A879B87AC8786
S1133FF0BD877894E0910721F091082181E08583C1
S1134000148213827BC08091672390916823A091CE
S11340106923B0916A23080F191F2A1F3B1F0A87BF
S11340201B872C873D87148281E08383158266C0B9
S11340308481882309F462C0878190858093132149
S11340409093142181E04385548565857685452BBD
S1134050462B472B09F480E0809358230785108969
S113406021893289081B1109210931094789508D99
S1134070618D728D83899489A589B689840F951F72
S1134080A61FB71F80179107A207B30718F5F89466
S11340908091672390916823A0916923B0916A234A
S11340A0E0910721F0910821438954896589768933
S11340B0840F951FA61FB71F8A879B87AC87BD8770
S11340C07894E0910721F091082181E0858314829E
S11340D0138214C08091672390916823A09169236F
S11340E0B0916A23080F191F2A1F3B1F0A871B87D9
S11340F02C873D87148281E0838315828091142369
S113410081119EC680915A23882309F488C0109295
S11341105A2300915923002321F0809157238823A7
S1134120B1F08A819B81AC81BD810196A11DB11D35
S11341308A839B83AC83BD838E819F81A885B98547
S11341400196A11DB11D8E839F83A887B987809195
S11341505823882321F0809156238823B1F08A853F
S11341609B85AC85BD850196A11DB11D8A879B8762
S1134170AC87BD878E859F85A889B9890196A11DC5
S1134180B11D8E879F87A88BB98BE09008230023ED
S113419021F00091572381E0082725E041E0BE018A
S11341A06E5F7F4F87E693E20E94BA0EE090082389
S11341B000915923002321F00091572381E008271F
S11341C026E041E0BE016A5F7F4F87E693E20E94EA
S11341D0BA0EE090072300915823002321F00091A8
S11341E0562381E0082725E04CE0BE01665F7F4F3F
S11341F087E693E20E94BA0EE090072300915823C9
S1134200002321F00091562381E0082726E04CE0AA
S1134210BE01625F7F4F87E693E20E94BA0E992047
S113422009F498CA25961FAD25971F3F21F424E071
S113423025962FAF25978DEC25963FAD2597389F72
S1134240812D112486958695982F990F990F890FA2
S1134250381B25963FAF259760E081E00E94DB0480
S11342608091280682FF0AC087E0EAE7F2E2DE01D5
S1134270529601900D928A95E1F709C087E0E1E832
S1134280F2E2DE01529601900D928A95E1F7CE0199
S113429042960E94A60860E08CE00E94DB048091B4
S11342A0280681FF0AC087E0EAE7F2E2DE015296BF
S11342B001900D928A95E1F709C087E0E1E8F2E206
S11342C0DE01529601900D928A95E1F7CE01429655
S11342D00E94A60861E080E00E94DB04E0E0F9E0CF
S11342E080A591A508EE13E07801E81AF90A82A5E1
S11342F093A5081B190B24968CAD9DADAEADBFAD37
S1134300249780319742A105B10548F580E290E0F9
S1134310D5018D939C9322968EAD9FAD22970E94DA
S1134320D8109C013695279536952795369527956F
S1134330A5ECB0E20E9402314AE0BE01675D7F4F06
S1134340929582958F7089279F7089270E94593191
S1134350BE01675D7F4FC5010E9425311BC02296B7
S11343608EAD9FAD22970E94D8109C01369527955B
S11343703695279536952795A5ECB0E20E94023133
S11343804AE0B501929582958F7089279F7089279D
S11343900E94593180E296E58DAF9EAF1FAEF501C4
S11343A001900020E9F731978CE290E080839183BB
S11343B022968EAD9FAD22970E94D810FC019C01DD
S11343C0369527953695279536952795A5ECB0E231
S11343D00E940231929582958F7089279F70892758
S11343E048EE53E0849F9001859F300D949F300DDB
S11343F011244AE0BE01675D7F4FCF01821B930BFE
S11344000E945931BE01675D7F4FC5010E9425316D
S1134410BE01635C7F4FC5010E942531C5010E9426
S1134420A60861E08CE00E94DB04B0E12B16B7E241
S11344303B064104510430F580E290E0F5018083AD
S11344409183C1010E94D8109C0136952795369519
S1134450279536952795A5ECB0E20E9402314AE0F3
S1134460BE01675D7F4F929582958F7089279F70FB
S113447089270E945931BE01675D7F4FC5010E94A3
S1134480253118C0C1010E94D8109C01369527958A
S11344903695279536952795A5ECB0E20E94023112
S11344A04AE0B501929582958F7089279F7089277C
S11344B00E945931F50101900020E9F731978CE20F
S11344C090E080839183C1010E94D810FC019C017B
S11344D0369527953695279536952795A5ECB0E220
S11344E00E940231929582958F7089279F70892747
S11344F048EE53E0849F9001859F300D949F300DCA
S113450011244AE0BE01675D7F4FCF01821B930BEC
S11345100E945931BE01675D7F4FC5010E9425315C
S1134520BE01635C7F4FC5010E942531C5010E9415
S1134530A60862E081E00E94DB04FAE0EF16F104D1
S113454020F48FE491E20E94A60824E6E216F10426
S113455020F48FE491E20E94A60838EEE31633E0DB
S1134560F30620F48FE491E20E94A6089701ADECD3
S1134570BCEC0E9402312C01569447945694479403
S1134580569447944AE0B501C2010E945931F5019D
S113459001900020E9F731978CE290E080839183C9
S11345A0C201880F991F440C551C440C551C440C23
S11345B0551C480E591E4AE0BE01675D7F4FC70176
S11345C0841995090E945931BE01675D7F4FC50169
S11345D00E942531F50101900020E9F7319780E22E
S11345E095E2808391831282C5010E94A60862E04D
S11345F08CE00E94DB040A30110520F48FE491E280
S11346000E94A6080436110520F48FE491E20E946A
S1134610A608083E43E0140720F48FE491E20E94C8
S1134620A6089801ADECBCEC0E9402317C01F69422
S1134630E794F694E794F694E7944AE0B501C70149
S11346400E945931F50101900020E9F731978CE27D
S113465090E080839183C701880F991FEE0CFF1CA3
S1134660EE0CFF1CEE0CFF1CE80EF91E4AE0BE0126
S1134670675D7F4FC8018E199F090E945931BE01A1
S1134680675D7F4FC5010E942531F501019000202F
S1134690E9F7319780E295E2808391831282C50124
S11346A00E94A608F8948091622390916323A091BC
S11346B06423B09165234AE0B5010E94593178948E
S11346C0D5010D900020E9F7119785E0E3EEF1E2C2
S11346D001900D928A95E1F763E081E00E94DB048A
S11346E08091622390916323A0916423B091652308
S11346F00A97A105B10520F48FE491E20E94A6086F
S11347008091622390916323A0916423B0916523E7
S113471084369105A105B10520F48FE491E20E944D
S1134720A6088091622390916323A0916423B091A1
S11347306523883E9340A105B10520F48FE491E2FE
S11347400E94A608C5010E94A60880911521909197
S113475016214AE0B5010E94593164E081E00E94CB
S1134760DB0480911521909116210A9720F48FE49F
S113477091E20E94A6088091152190911621843619
S1134780910520F48FE491E20E94A60880911521FE
S113479090911621883E934020F48FE491E20E9488
S11347A0A608D5010D900020E9F7119785E0E3EE06
S11347B0F1E201900D928A95E1F72796BFAD279714
S11347C0BB2321F0C5010E94B50803C0C5010E94A6
S11347D0A608F89480915E2390915F23A0916023B2
S11347E0B09161234AE0B5010E9459317894D50112
S11347F00D900020E9F7119785E0E3EEF1E20190D6
S11348000D928A95E1F763E08CE00E94DB048091CD
S11348105E2390915F23A0916023B09161230A9756
S1134820A105B10520F48FE491E20E94A6088091CD
S11348305E2390915F23A0916023B091612384361D
S11348409105A105B10520F48FE491E20E94A60828
S113485080915E2390915F23A0916023B0916123A6
S1134860883E9340A105B10520F48FE491E20E94B3
S1134870A608C5010E94A6088091132190911421D5
S11348804AE0B5010E945931D5010D900020E9F7A5
S1134890119785E0E3EEF1E201900D928A95E1F73C
S11348A064E08CE00E94DB04809113219091142138
S11348B00A9720F48FE491E20E94A60880911321C4
S11348C0909114218436910520F48FE491E20E94A2
S11348D0A6088091132190911421883E934020F4DE
S11348E08FE491E20E94A60826960FAD2697002336
S11348F021F0C5010E94B50803C0C5010E94A608A5
S11349004AE0B50180E090E00E94593125961FAD40
S11349102597111178C080E10E94BA0964E080E013
S11349200E94DB048FE491E20E94A60864E08BE01D
S11349300E94DB048FE491E20E94A60867E080E015
S11349400E94DB048FE491E20E94A60867E08BE0FA
S11349500E94DB048FE491E20E94A60867E081E0F4
S11349600E94DB04C11005C088EE91E20E94A608F3
S113497010C021E0C21205C081EF91E20E94A60896
S113498010C032E0C31205C08AEF91E20E94A6086B
S11349900FC043E0C41205C084E092E20E94A6085E
S11349A007C054E0C51204C08EE092E20E94A6083B
S11349B067E08CE00E94DB04811005C088EE91E280
S11349C00E94A60810C081E0881205C081EF91E220
S11349D00E94A60810C092E0891205C08AEF91E2F5
S11349E00E94A608BCC1A3E08A1205C084E092E23A
S11349F00E94A608DEC0B4E08B12B1C18EE092E240
S1134A000E94A608ACC12596EFAD2597E13009F0C8
S1134A10D0C080E10E94BA09882311F081E06826A1
S1134A2064E080E00E94DB048FE491E20E94A60827
S1134A3064E08BE00E94DB048FE491E20E94A6080C
S1134A4067E080E00E94DB0487E192E20E94A6080E
S1134A5067E08BE00E94DB048FE491E20E94A608E9
S1134A6067E081E00E94DB04662009F451C0C110B4
S1134A7005C088EE91E20E94B50810C0F1E0CF12A3
S1134A8005C081EF91E20E94B50810C002E0C01297
S1134A9005C089E192E20E94B5080FC013E0C1127B
S1134AA005C082E292E20E94B50807C024E0C21267
S1134AB004C08EE092E20E94B50867E08CE00E9498
S1134AC0DB04811005C088EE91E20E94A60810C0A4
S1134AD031E0831205C081EF91E20E94A60810C064
S1134AE042E0841205C089E192E20E94A6086AC1EC
S1134AF053E0851205C082E292E20E94A6082FC10B
S1134B0084E088125FC18EE092E20E94A6085AC136
S1134B10C11005C088EE91E20E94A60810C091E081
S1134B20C91205C081EF91E20E94A60810C0A2E05C
S1134B30CA1205C089E192E20E94A6080FC0B3E040
S1134B40CB1205C082E292E20E94A60807C0E4E00C
S1134B50CE1204C08EE092E20E94A60867E08CE0C8
S1134B600E94DB04811005C088EE91E20E94A60831
S1134B7010C0F1E08F1205C081EF91E20E94A608F7
S1134B8010C002E0801205C089E192E20E94A608EA
S1134B9019C113E0811205C082E292E20E94A608C4
S1134BA0DEC024E082120EC18EE092E20E94A608CA
S1134BB009C125963FAD2597323009F0D0C080E178
S1134BC00E94BA09882311F081E0782664E080E02D
S1134BD00E94DB048FE491E20E94A60864E08BE06B
S1134BE00E94DB048FE491E20E94A60867E080E063
S1134BF00E94DB048FE491E20E94A60867E08BE048
S1134C000E94DB0487E192E20E94A60867E081E04B
S1134C100E94DB04772009F451C0C11005C088EE5E
S1134C2091E20E94A60810C041E0C41205C081EFC1
S1134C3091E20E94A60810C052E0C51205C089E1A5
S1134C4092E20E94A6080FC083E0C81205C082E267
S1134C5092E20E94A60807C094E0C91204C08EE044
S1134C6092E20E94A60867E08CE00E94DB048110B7
S1134C7005C088EE91E20E94B50810C0A1E08A1236
S1134C8005C081EF91E20E94B50810C0B2E08B121A
S1134C9005C089E192E20E94B508C6C0E3E08E1225
S1134CA005C082E292E20E94B5088CC0F4E08F1243
S1134CB0BBC08EE092E20E94B508B6C0C11005C028
S1134CC088EE91E20E94A60810C001E0C01205C05F
S1134CD081EF91E20E94A60810C012E0C11205C043
S1134CE089E192E20E94A6080FC023E0C21205C027
S1134CF082E292E20E94A60807C034E0C31204C014
S1134D008EE092E20E94A60867E08CE00E94DB0439
S1134D10811005C088EE91E20E94A60810C041E00F
S1134D20841205C081EF91E20E94A60810C052E0EF
S1134D30851205C089E192E20E94A60875C083E04D
S1134D40881205C082E292E20E94A6083BC094E069
S1134D5089126AC08EE092E20E94A60865C0259678
S1134D60AFAD2597A33071F580E10E94BA0988237D
S1134D7041F081E02796BFAD2797B8272796BFAFAC
S1134D80279764E080E00E94DB0487E192E20E94BE
S1134D90A60864E08BE00E94DB048FE491E20E94A9
S1134DA0A60867E080E00E94DB048FE491E20E94A1
S1134DB0A60867E08BE00E94DB048FE491E20E9486
S1134DC0A60832C02596EFAD2597E43069F580E159
S1134DD00E94BA09882341F081E02696FFAD269708
S1134DE0F8272696FFAF269764E080E00E94DB0454
S1134DF08FE491E20E94A60864E08BE00E94DB0449
S1134E0087E192E20E94A60867E080E00E94DB044A
S1134E108FE491E20E94A60867E08BE00E94DB0425
S1134E208FE491E20E94A608212C312C21012496C2
S1134E301CAE1DAE1EAE1FAE2497912C0C94AA1B63
S1134E4080911123811105C00E94740E9981890FEC
S1134E50898380911223803109F48FC018F4882348
S1134E6041F0B5C1813109F4EBC0823109F449C183
S1134E70AEC180911323882321F0109213230E9442
S1134E800E0560E081E00E94DB048BE292E20E9466
S1134E90A60861E081E00E94DB0489E392E20E94BB
S1134EA0A60862E081E00E94DB0488E492E20E94AA
S1134EB0A60863E081E00E94DB048BE592E20E9495
S1134EC0A60864E081E00E94DB0488E692E20E9486
S1134ED0A60865E081E00E94DB0485E792E20E9477
S1134EE0A608898190910021891739F18F3F11F427
S1134EF085E0898399818BEA989F812D1124869579
S1134F008695282F220F820F880F981B99839093E0
S1134F10002110E0612F80E00E94DB04898181136D
S1134F2005C087E192E20E94A60804C08FE491E2E2
S1134F300E94A6081F5F163069F780E10E94BA0933
S1134F40882311F40C94AA1B8981853059F080615F
S1134F508093122381E0809313231982809300218C
S1134F600C94AA1B1092142381E080935A230E946C
S1134F700E05992493940C94AA1B409109215091F5
S1134F800A210F2EF3E1EF2EF3E2FF2EF02D01E0C4
S1134F9020E031E2BE01675D7F4FCE0101960E94A1
S1134FA00D168981909100218917E9F08F3F11F442
S1134FB088E089838981877089838093002110E048
S1134FC0612F80E00E94DB048981811305C087E1A1
S1134FD092E20E94A60804C08FE491E20E94A6080F
S1134FE01F5F183069F780E10E94BA09882311F421
S1134FF00C94AA1B898181111DC01092122381E097
S1135000809313230091092110910A216BE1C801B7
S11350100E94DA03D8015B966D937D938D939C93E4
S11350205E9761E08091092190910A210E946904B0
S11350300C94AA1B8295807F809311230C94AA1B45
S113504040910721509108210F2EF3E1EF2EF3E256
S1135050FF2EF02D00E020E031E2BE01675D7F4FBE
S1135060CE0101960E940D16898190910021891725
S1135070E9F08F3F11F488E08983898187708983FF
S11350808093002110E0612F80E00E94DB0489817D
S1135090811305C087E192E20E94A60804C08FE450
S11350A091E20E94A6081F5F183069F780E10E9410
S11350B0BA09882311F40C94AA1B898181111BC09D
S11350C000910721109108216BE1C8010E94DA03C5
S11350D0F801638F748F858F968F62E0809107212A
S11350E0909108210E9469041092122381E0809318
S11350F013230C94AA1B8295807F809311230C9414
S1135100AA1B60910521709106210F2EF3E1EF2E69
S1135110F3E2FF2EF02D07E912E220E031E2AE01C6
S1135120475D5F4FCE0101960E94DA11898190910B
S113513000218917E9F08F3F11F488E08983898180
S1135140877089838093002110E0612F80E00E94A2
S1135150DB048981811305C087E192E20E94A608DD
S113516004C08FE491E20E94A6081F5F183069F71B
S113517080E10E94BA09882311F40C94AA1B898146
S113518081111FC01092122381E080931323009198
S11351900521109106216BE1C8010E94DA03D801B0
S11351A05B966D937D938D939C935E97609197220C
S11351B06C5F80910521909106210E9469040C94F2
S11351C0AA1B8295807F809311230C94AA1B1092B2
S11351D012230C94AA1B0E94740E8C0D8F3F11F0A5
S11351E00C94DA1C0C94D91CED2CF12C00E010E08A
S11351F024966CAD7DAD8EAD9FAD2497A80197012B
S11352000E94B83024962CAF3DAF4EAF5FAF2497C9
S1135210C201B101A80197010E94B83019012A0105
S1135220D12C992493940C94831D81E080930823BA
S1135230109259230C94BD1D83818111F6CF0C94D7
S1135240BD1D81E08093082340916723509168231A
S11352506091692370916A23878190858A019B01FB
S1135260080F191F211D311D0A831B832C833D83C5
S11352700C94BD1D8381882311F40C94BD1DE1CFD2
S1135280E0E0F6E080E4868380E285830C94001FEE
S1135290E0E0F6E080E4868380E286830C94001FDD
S11352A081E08093072310925823848181110C9408
S11352B03D1F0C947E2083818111F2CF0C943A1F00
S11352C081E0809307234091672350916823609184
S11352D0692370916A23878190858A019B01080F55
S11352E0191F211D311D0A871B872C873D870C94AC
S11352F03A1F8381882311F40C943A1FE1CF81E093
S11353008093260680E8809305060C947E2081E035
S11353108093260680E8809306060C947E20AF9244
S1135320CF92EF920F93CF93DF93FC01EB01A3EAAB
S1135330B4E08C918B7F8C934683A0EAB4E01496FE
S11353408C91149786FFFBCF8091A40483FF27C020
S1135350118282E08093810689E0A0E8B6E092E0C1
S113536015969C93159755ED5A95F1F700001696EE
S11353709C93169755ED5A95F1F70000815081F7EB
S113538082E08093820688E081838CE0848381E0DC
S1135390848383E08093A30446838091A404CC2077
S11353A031F0202F30E02115310561F41CC0A1102B
S11353B004C03783848186FFFDCF2783848186FFE1
S11353C0FDCFEFCFDE012C0F3D1FE11003C08C9108
S11353D0878302C088818783948196FFFDCF1196CD
S11353E0A217B30791F783E08093A304DF91CF91D1
S11353F00F91EF90CF90AF900895EF920F93CF93CA
S1135400DF931F92CDB7DEB7FC0183818B7F83834B
S11354104683848186FFFDCF848183FF27C0118268
S113542082E08093410689E0A0E4B6E092E015961C
S11354309C93159755ED5A95F1F7000016969C9399
S1135440169755ED5A95F1F70000815081F782E0E7
S11354508093420688E081838CE0848381E08483A6
S113546083E083834683848186FFFDCFE11008C0F7
S11354703783848186FFFDCF2783848186FFFDCF18
S113548041604683198289818017D0F4202F30E04F
S11354902150310947E094819923ECF7898190E008
S11354A08217930709F4438399818781DB01A90F4C
S11354B0B11D8C9389818F5F89838981801758F30B
S11354C00F90DF91CF910F91EF900895FC0180919F
S11354D06B23882341F180916B238823A4F081EA14
S11354E0808380E28183128213821482158282E097
S11354F090E08683978380916B23806880936B23ED
S113550088E090E0089580916B23813829F483E04A
S113551090E08083918302C01082118210926B23E9
S113552082E090E0089580E090E00895CF93209188
S1135530AF24222389F0572FC62FBC014C2F8DE6B0
S113554094E20E941C31C093AE241092AD241092B8
S1135550AF2481E090E002C080E090E0CF91089514
S1135560CF93DF9320917225222379F0C1E7D5E20E
S1135570488150E060E375E20E941C31888190E02C
S1135580109270251092722502C080E090E0DF91A5
S1135590CF9108951092AF241092AE241092AD24AE
S11355A010927225109271251092702581E391E278
S11355B00E947E2B88E291E20E947E2B8FE191E291
S11355C00E947E2BE0ECF4E081E4808783E0818715
S11355D00E94912E87E08093A2007894089580E041
S11355E0089581E391E20E94C22B88E291E20E9435
S11355F0C22B8FE191E20E94C22B08950895089571
S11356000895662361F020916C23203241F427E051
S1135610FC01AAE3B1E201900D922A95E1F7089505
S11356200F93FC019181913251F018F4903221F1E1
S11356305AC09232B1F1933209F444C054C080810B
S1135640813A09F052C087E0EAE3F1E2A3E7B5E268
S113565001900D928A95E1F7E0E0F0E283E795E2AC
S11356608487958787E090E082879387E8E0F0E27B
S113567002E2069381E040C08081813209F037C0A4
S113568080E280936C23E0E0F0E283E795E2848794
S1135690958712861386E8E0F0E202E2069381E041
S11356A02BC08081813229F5E0E0F0E283E795E2C6
S11356B08487958712861386E8E0F0E202E2069377
S11356C081E01AC080818132B1F4E0E0F0E283E746
S11356D095E28487958712861386E8E0F0E202E279
S11356E0069381E009C080E007C080E005C080E047
S11356F003C080E001C080E00F910895DC01EC91CB
S1135700E6FF22C0EF7013968D919C91149720E1CF
S1135710E29FF0011124E050F04E84879587EC91CC
S1135720EF7013962D913C91149715968D919C9141
S11357301697820F931F20E1E29FF0011124E0509D
S1135740F04E848395830895EE2374F4EF701396DA
S11357508D919C91149720E1E29FF0011124E05077
S1135760F04E848795870895EF7013968D919C91E0
S1135770149720E1E29FF0011124E050F04E84835D
S113578095830895CF93DF93EC010E947E2B1A82B8
S11357902881822F8F7090E026FF91C022230CF085
S11357A048C0FC01E295F295F07FFE27E07FFE27DA
S11357B0E050F04E11861286138626E02087298158
S11357C04D815E8149305105A8F041315105A0F069
S11357D04132510598F04134510590F0413851055A
S11357E088F0413031E0530778F04130524070F096
S11357F037E00DC030E00BC031E009C032E007C033
S113580033E005C034E003C035E001C036E0206178
S1135810232B82959295907F9827807F9827FC016F
S1135820E050F04E218712821382118282E080833D
S1135830CBC0FC01E295F295F07FFE27E07FFE27C6
S1135840E050F04E118212821382108229814D8120
S11358505E8149305105A8F041315105A0F0413233
S1135860510598F04134510590F04138510588F0C4
S1135870413031E0530778F04130524070F037E066
S11358800DC030E00BC031E009C032E007C033E0A6
S113589005C034E003C035E001C036E02061232BAD
S11358A082959295907F9827807F9827FC01E050FD
S11358B0F04E2183128613861186108685C022231A
S11358C00CF042C0FC01E295F295F07FFE27E07FE8
S11358D0FE27E050F04E11861286138626E02087BC
S11358E029814D815E8149305105A8F0413151052E
S11358F0A0F04132510598F04134510590F04138FF
S1135900510588F0413031E0530778F0413052407E
S113591070F037E00DC030E00BC031E009C032E078
S113592007C033E005C034E003C035E001C036E011
S1135930232B82959295907F9827807F9827FC014E
S1135940E050F04E218740C0FC01E295F295F07FD3
S1135950FE27E07FFE27E050F04E11821282138270
S1135960108229814D815E8149305105A8F0413171
S11359705105A0F04132510598F04134510590F0A1
S11359804138510588F0413031E0530778F0413017
S1135990524070F037E00DC030E00BC031E009C078
S11359A032E007C033E005C034E003C035E001C095
S11359B036E0232B82959295907F9827807F9827B5
S11359C0FC01E050F04E2183DF91CF910895EF92D6
S11359D0FF920F931F93CF93DF937C01DC018C9193
S11359E0C82FCF70D0E086FF77C012968C911297A3
S11359F0811139C0FE01E295F295F07FFE27E07F28
S1135A00FE27E050F04E808185FF9DC01FB7F894BB
S1135A10FE01E295F295F07FFE27E07FFE27E0503D
S1135A20F04E62817381848195811796ED91FC918A
S1135A3018970995892BA9F0F7018581968101971B
S1135A40FE01E295F295F07FFE27E07FFE27E0500D
S1135A50F04E8283938302E6069381E0D701129687
S1135A608C931FBF70C0FE01E295F295F07FFE2774
S1135A70E07FFE27E050F04E808184FF64C01FB7B2
S1135A80F894FE01E295F295F07FFE27E07FFE2771
S1135A90E050F04E6285738584859585D70117960D
S1135AA0ED91FC9118970995892BA1F0F701858157
S1135AB096810197FE01E295F295F07FFE27E07F43
S1135AC0FE27E050F04E8287938704E50693D701C2
S1135AD012961C921FBF37C0FE01E295F295F07F2B
S1135AE0FE27E07FFE27E050F04E808185FF2BC02B
S1135AF01FB7F894FE01E295F295F07FFE27E07F50
S1135B00FE27E050F04E6281738184819581D70134
S1135B101796ED91FC9118970995892B99F0F70147
S1135B2085819681FE01E295F295F07FFE27E07F64
S1135B30FE27E050F04E8283938302E60693D7015A
S1135B4012961C921FBFDF91CF911F910F91FF906E
S1135B50EF900895EF92FF920F931F93CF93DF93EB
S1135B607C01DC018C91C82FCF70D0E086FF77C018
S1135B7012968C918823C9F1FE01E295F295F07F8B
S1135B80FE27E07FFE27E050F04E808582FF9DC017
S1135B901FB7F894FE01E295F295F07FFE27E07FAF
S1135BA0FE27E050F04E84819581F701658176816E
S1135BB0615071090780F085E02D0995009799F0EF
S1135BC0C295D295D07FDC27C07FDC27FE01E05050
S1135BD0F04E82839383FE01E85FFF4D04E1069358
S1135BE0D70112961C921FBF70C0FE01E295F29578
S1135BF0F07FFE27E07FFE27E050F04E808581FF96
S1135C0064C01FB7F894FE01E295F295F07FFE2779
S1135C10E07FFE27E050F04E84859585F70165818D
S1135C207681615071090780F085E02D0995009710
S1135C30A1F0C295D295D07FDC27C07FDC27FE017E
S1135C40E050F04E82879387FE01E85FFF4D02E249
S1135C50069381E0D70112968C931FBF36C0FE01D4
S1135C60E295F295F07FFE27E07FFE27E050F04EAC
S1135C70808581FF2AC01FB7F894FE01E295F29552
S1135C80F07FFE27E07FFE27E050F04E8485958567
S1135C90F701658176810780F085E02D09950097ED
S1135CA099F0C295D295D07FDC27C07FDC27FE0116
S1135CB0E050F04E82879387FE01E85FFF4D02E2D9
S1135CC00693D70112961C921FBFDF91CF911F91AB
S1135CD00F91FF90EF90089583E080934400E0E0FB
S1135CE0F0E2A0ECB4E01696ED93FC9317971396AC
