:100000000C94FD030C9424040C9424040C942404F8
:100010000C9424040C9424040C9424040C942404C0
:100020000C9424040C9424040C94140B0C942404B9
:100030000C9424040C9424040C9424040C942404A0
:100040000C9424040C9424040C9424040C94240490
:100050000C94680C0C9424040C942F0C0C94240421
:100060000C9424040C9424040C9424040C94240470
:100070000C9424040C9424040C9424040C94240460
:100080000C9424040C9424040C9424040C94240450
:100090000C9424040C9424040C9424040C94240440
:1000A0000C9424040C9424040C9424040C94240430
:1000B0000C9424040C9424040C9424040C946B0BD2
:1000C0000C9424040C9424040C9424040C94240410
:1000D0000C9424040C9424040C9424040C94240400
:1000E0000C9424040C9424040C9424040C942404F0
:1000F0000C9424040C9424040C9424040C942404E0
:100100000C9424040C9424040C9424040C942404CF
:100110000C9424040C9424040C9424040C942404BF
:100120000C9424040C9424040C9424040C942404AF
:100130000C9424040C9424040C9424040C9424049F
:100140000C9424040C9424040C9424040C94CF0CDC
:100150000C9424040C94960C0C9424040C94240405
:100160000C9424040C9424040C9424040C9424046F
:100170000C9424040C9424040C9424040C9424045F
:100180000C9424040C9424040C9424040C9424044F
:100190000C9424040C9424040C9424040C9424043F
:1001A0000C9424040C9424040C9424040C9424042F
:1001B0000C9424040C9424040C9424040C9424041F
:1001C0000C9424040C9424040C9424040C9424040F
:1001D0000C9424040C9424040C9424040C942404FF
:1001E0000C9424040C9424040C9424040C942404EF
:1001F0000C9424040C94D7410C9457426D099A092D
:100200009A099A099A099A099A099A099A099A09D6
:100210009A099A099A099A099A099A099A099A09C6
:1002200052099A099A099A099A099A0937099A0961
:100230009A091C099A099A099A099A0901099A09BD
:100240009A099A099A099A099A099A099A099A0996
:100250009A099A09E6089A099A099A099A099A093B
:10026000CB089A099A099A099A099A09B008990A31
:10027000C60AC60AC60AC60AC60AC60AC60AC60AFE
:10028000C60AC60AC60AC60AC60AC60AC60AC60AEE
:10029000C60A7E0AC60AC60AC60AC60AC60A630A89
:1002A000C60AC60A480AC60AC60AC60AC60A2D0AE5
:1002B000C60AC60AC60AC60AC60AC60AC60AC60ABE
:1002C000C60AC60AC60A120AC60AC60AC60AC60A62
:1002D000C60AF709C60AC60AC60AC60AC60ADC0959
:1002E0002F10341039103E10431048104D1052108A
:1002F00065106A106F10741079107E1083108810CA
:100300009619341D341D341D341D341D341D341D07
:10031000341D341D341D341D341D341D341DC519C8
:10032000341D341D341D341D341D341D341D341D45
:10033000341D341D341D341D341D341D341D021A6A
:10034000341D341D341D341D341D341D341D341D25
:10035000341D341D341D341D341D341D341D641AE8
:10036000341D341D341D341D341D341D341D341D05
:10037000341D341D341D341D341D341D341DE71A45
:10038000341D341D341D341D341D341D341D341DE5
:10039000341D341D341D341D341D341D341D661BA5
:1003A0009A1BCA1B341D341D341D341D341D341DCD
:1003B000341D341D341D341D341D341D341DFE1BED
:1003C000321C621C341D341D341D341D341D341D7B
:1003D000341D341D341D341D341D341D341D9A1C30
:1003E000CE1C021D471E02220222022202220222EB
:1003F00002220222022202220222022202220222DD
:1004000002227D1E02220222022202220222022255
:1004100002220222022202220222022202220222BC
:100420000222B91E022202220222022202220222F9
:10043000022202220222022202220222022202229C
:1004400002221B1F02220222022202220222022276
:10045000022202220222022202220222022202227C
:1004600002229E1F022202220222022202220222D3
:10047000022202220222022202220222022202225C
:1004800002221D2051208120022202220222022269
:10049000022202220222022202220222022202223C
:1004A0000222B520E9201921022202220222022280
:1004B000022202220222022202220222022202221C
:1004C000022251218521B921CF36D839D839D839DE
:1004D000D839D839D839D839D839D839D839D83994
:1004E000D839D839D839D8397437E4375238C4387C
:1004F0003639AD39B240C840BF41C840BF41D6408F
:10050000F740BF4155416741C441AA411E03430022
:100510004E004300200043006F006E007400720024
:100520006F006C006C006500720000000E03770025
:100530006F006F00640079006D000000040309047F
:1005400009023E00020100C032090400000102025B
:100550000100052400100104240206052406000100
:10056000070582030800FF09040100020A000000D9
:100570000705040240000107058302400001120143
:10058000100102000040EB03042401000102DC0121
:100590000000000000000000002F00000000070025
:1005A000070000147F147F1400242A7F2A1200629F
:1005B000640813230036495522500000050300004B
:1005C00000001C224100000041221C000014083ED3
:1005D00008140008083E0808000000A06000000899
:1005E00008080808000060600000002010080402ED
:1005F000003E5149453E0000427F400000426151AB
:100600004946002141454B31001814127F10002744
:1006100045454539003C4A49493000017109050307
:1006200000364949493600064949291E0000363638
:10063000000000005636000000081422410000149B
:100640001414141400004122140800020151090678
:1006500000324959513E007C1211127C007F4949F9
:100660004936003E41414122007F4141221C007F2A
:1006700049494941007F09090901003E4149497A38
:10068000007F0808087F0000417F410000204041B2
:100690003F01007F08142241007F40404040007F1E
:1006A000020C027F007F0408107F003E4141413E62
:1006B000007F09090906003E4151215E007F0919AA
:1006C00029460046494949310001017F0101003FA7
:1006D0004040403F001F2040201F003F4038403F27
:1006E000006314081463000708700807006151498B
:1006F000454300007F41410000552A552A5500001E
:1007000041417F000004020102040040404040409B
:10071000000001020400002054545478007F484433
:10072000443800384444442000384444487F00386A
:100730005454541800087E0901020018A4A4A47C93
:10074000007F080404780000447D4000004080845D
:100750007D00007F102844000000417F4000007CA5
:1007600004180478007C08040478003844444438B1
:1007700000FC242424180018242418FC007C0804FD
:10078000040800485454542000043F444020003CD6
:100790004040207C001C2040201C003C4030403C5D
:1007A000004428102844001CA0A0A07C00446454ED
:1007B0004C44000008774100000000630000000086
:1007C00041770800000804080804003D4040207DEF
:1007D000003D4040403D002154545479007D1211A9
:1007E000127D003944444439003D4242423D0002FA
:1007F00005020000007E0149557311241FBECFEF92
:10080000CDBFDFE2DEBFEFEEF6E28AEA9FE2819340
:10081000EF3FF907E1F713E2A0E0B0E2E0EDF6E820
:1008200000E00BBF02C007900D92A235B107D9F7C7
:1008300026E2A2E5B3E201C01D92AF3EB207E1F7A6
:100840000E9412220C9466430C940000AC01E0ED6F
:10085000F0E090819F73906890838081807F808397
:100860008081806280839081907F9160908380817D
:100870008F738083662389F0FA016150262F30E060
:100880002F5F3F4F240F351FA0EDB0E091911396DD
:100890009C931397E217F307C9F7E0EDF0E081812D
:1008A00081608183818180FDFDCFE0EDF0E0648196
:1008B000258136814781862F90E0A0E0B0E0B42BFF
:1008C000922B2081207F2083BC01CD01832B0895B2
:1008D000292F33272230310559F02330310569F0B3
:1008E0002130310521F582E190E02EE735E028C086
:1008F0008EE390E020E435E023C099278130910514
:1009000051F018F0029769F017C0ECE3F5E084911C
:1009100090E09F0115C0ECE2F5E0849190E09F012A
:100920000FC0ECE0F5E0849190E09F0109C080E009
:1009300090E020E030E004C080E090E020E030E093
:10094000FA012083318308951F93CF93DF93C0E48E
:10095000D6E010E11E8386E00E94D03A1D83DF912D
:10096000CF911F910895EF92FF921F93CF93DF9342
:10097000EC017B01142F82E00E94D03AC7010E9453
:10098000DA3A612FCE010E94E43ADF91CF911F91B4
:10099000FF90EF900895EF92FF921F93CF93DF9314
:1009A000EC017B01142F83E00E94D03AC7010E9422
:1009B000DA3A612FCE010E94FA3ADF91CF911F916E
:1009C000FF90EF900895EF920F931F93CF93DF93D3
:1009D000442371F040E2649F200D311D1124E12C6D
:1009E00000E240EABC0180EA94E00E947F3B0FC035
:1009F000C0E4D6E010E11E83A901E0E26E9F400D45
:100A0000511D1124BA0140E20E94CB041D83DF91E5
:100A1000CF911F910F91EF900895EF920F931F9335
:100A2000CF93DF93442379F0462F50E0440F551FB6
:100A3000240F351FE12C02E040EABC0180EA94E07B
:100A40000E947F3B0DC0C0E4D6E010E11E8370E041
:100A5000660F771F620F731F42E00E94CB041D8355
:100A6000DF91CF911F910F91EF9008958F929F92F8
:100A7000AF92CF92EF92FF920F931F93CF93DF939A
:100A80004C01162FE901442381F080E2689F200D7C
:100A9000311D1124A12CC12CE12C00E240EAB4014B
:100AA00080EA94E00E94113B1DC00E94A404EFE77D
:100AB000FEE33197F1F700C000000F2EF0E4EF2EB7
:100AC000F6E0FF2EF02D00E1F7010683BE01F0E213
:100AD0001F9F600D711D112440E2C4010E94B304E8
:100AE000F7010583DF91CF911F910F91FF90EF9058
:100AF000CF90AF909F908F9008958F929F92AF92DA
:100B0000CF92EF92FF920F931F93CF93DF934C01FD
:100B1000F62E8901442389F0262F30E0220F331F5F
:100B2000200F311FA12CC12CE12C02E040EABC01B6
:100B300080EA94E00E94113B19C00E94A4048FE750
:100B40009EE30197F1F700C00000C0E4D6E068948E
:100B5000EE24E4F8EE826F2D70E0660F771F600FD1
:100B6000711F42E0C4010E94B304ED82DF91CF9176
:100B70001F910F91FF90EF90CF90AF909F908F902B
:100B80000895AF92CF92EF920F93CF93DF9300D05F
:100B9000CDB7DEB783E089831A82A12CCC24C3941D
:100BA000E12C02E020E430E042E8BE016F5F7F4FBD
:100BB00080EA94E00E94113B0F900F90DF91CF915B
:100BC0000F91EF90CF90AF900895AF92CF92EF92A8
:100BD0000F931F93CF93DF9300D0CDB7DEB711E013
:100BE00019831A82A12CCC24C394E12C02E020E4C6
:100BF00030E042E8BE016F5F7F4F80EA94E00E94E0
:100C0000113B8FE39FE10197F1F700C000001A83C9
:100C100020E430E042E8BE016F5F7F4F80EA94E05D
:100C20000E94113B0F900F90DF91CF911F910F9178
:100C3000EF90CF90AF900895AF92CF92EF920F9335
:100C4000CF93DF931F92CDB7DEB78983AA24A394F5
:100C5000C12CE12C01E020E030E048E7BE016F5FED
:100C60007F4F80EA94E00E94113B0F90DF91CF917B
:100C70000F91EF90CF90AF900895AF92CF92EF92F7
:100C8000FF920F931F93CF93DF9300D000D0CDB787
:100C9000DEB7F62E182F110F810F182F110F4423D6
:100CA000C1F080EB860F898381E28A831B838FE703
:100CB0008C83AA24A394C12CE12C04E020E030E032
:100CC00048E7BE016F5F7F4F80EA94E00E94113BCE
:100CD00038C082E0810F8F708983AA24A394C12C2D
:100CE000E12C01E020E030E048E7BE016F5F7F4F7C
:100CF00080EA94E00E94113B812F90E00296959546
:100D00008795959587959595879595958795806114
:100D1000898320E030E048E7BE016F5F7F4F80EAC3
:100D200094E00E94113B8F2D8F70806B898320E0AF
:100D300030E048E7BE016F5F7F4F80EA94E00E9499
:100D4000113B2496CDBFDEBFDF91CF911F910F9154
:100D5000FF90EF90CF90AF900895482F60E080E033
:100D60000E943D060895AF92CF92DF92EF92FF92DC
:100D70000F931F93CF93DF9300D0CDB7DEB7D82E5C
:100D80000E94AD061982DD20A1F018E0AA24A394E8
:100D9000C12CEE24E39400E820E430E048E7BE01F3
:100DA0006F5F7F4F80EA94E00E94113B115071F712
:100DB00023C0F12C80E00E941C0680E10E941C06EA
:100DC0008F2D8F70806B0E941C061A8214E8AA2453
:100DD000A394C12CE12C01E020E430E048E7BE01FF
:100DE0006E5F7F4F80EA94E00E94113B115079F7CB
:100DF000F39488E0F812DECF8D2D0E94AD060F909F
:100E00000F90DF91CF911F910F91FF90EF90DF90A6
:100E1000CF90AF9008958EEA0E941C0682E00E9457
:100E20001C0680E10E941C0680E40E941C0680EBE8
:100E30000E941C0681E80E941C0680E80E941C0695
:100E400081EA0E941C0686EA0E941C0688EA0E942B
:100E50001C068FE30E941C068DEA0E941C068BE88C
:100E60000E941C0680E30E941C0688EC0E941C065F
:100E700083ED0E941C0680E00E941C0685ED0E9406
:100E80001C0680E80E941C0689ED0E941C068FE16A
:100E90000E941C068AED0E941C0682E10E941C062C
:100EA0008BED0E941C0680E40E941C068FEA0E94C3
:100EB0001C0680E00E94B3060895AF92CF92EF9295
:100EC0000F931F93CF93DF93CDB7DEB76697CDBF58
:100ED000DEBF182F8EEA898385ED8A8380E88B83B5
:100EE00088EA8C83AA24A394C12CE12C04E020E09E
:100EF00030E048E7BE016F5F7F4F80EA94E00E94D8
:100F0000113B8FE38D8301E020E030E048E7BE0134
:100F10006B5F7F4F80EA94E00E94113B83ED8E83EC
:100F20001F8280E488878DE8898704E020E030E034
:100F300048E7BE016A5F7F4F80EA94E00E94113B60
:100F4000113049F577C08D83AA24A394C12CE12CDC
:100F500001E020E030E048E7BE016B5F7F4F80EAB0
:100F600094E00E94113B86E0E0E5F1E2DE0151965B
:100F700001900D928A95E1F706E020E030E048E725
:100F8000BE016F5E7F4F80EA94E00E94113B81E0DA
:100F90000E94B3069EC084E18D83AA24A394C12C31
:100FA000E12C01E020E030E048E7BE016B5F7F4FBD
:100FB00080EA94E00E94113B80E28A871B8681EAE6
:100FC0008C8788EC8D8704E020E030E048E7BE01A4
:100FD000665F7F4F80EA94E00E94113B8AED8E8726
:100FE00082E18F8781E8888B03E020E030E048E7EA
:100FF000BE01625F7F4F80EA94E00E94113B8FEC5C
:101000008D8301E020E030E048E7BE016B5F7F4F59
:1010100080EA94E00E94113B89ED8D8320E030E06E
:1010200048E7BE016B5F7F4F80EA94E00E94113B6E
:1010300081EF89CF80E18D83AA24A394C12CE12C78
:1010400001E020E030E048E7BE016B5F7F4F80EABF
:1010500094E00E94113B80E28A871B8681EA8C879C
:1010600088EC8D8704E020E030E048E7BE01665F51
:101070007F4F80EA94E00E94113B8AED8E8782E1E7
:101080008F8781E8888B03E020E030E048E7BE01ED
:10109000625F7F4F80EA94E00E94113B8FE98D836D
:1010A00001E020E030E048E7BE016B5F7F4F80EA5F
:1010B00094E00E94113B89ED8D8320E030E048E709
:1010C000BE016B5F7F4F80EA94E00E94113B82E299
:1010D0003ACF6696CDBFDEBFDF91CF911F910F91C2
:1010E000EF90CF90AF900895AF92CF92EF920F9381
:1010F000E0EEE80FE03608F40BC1803B09F408C1CC
:101100008F3909F405C18F7D8C3909F401C1863905
:1011100009F4FEC0843809F00DC1FAC084918D93A2
:101120003196A217B307D1F7AA24A394C12CE12CBE
:1011300006E020E430E048E768E573E280EA94E006
:101140000E94113BF7C08E2F90E0FC01E456F1099C
:10115000E933F10508F0EEC0E250FF4F0C94C542B0
:10116000EAECF7E0A8E5B3E22EE533E284918D9353
:1011700031962A173B07D1F7AA24A394C12CE12C5E
:1011800006E020E430E048E768E573E280EA94E0B6
:101190000E94113BCFC0E2EEF7E0A8E5B3E22EE5F6
:1011A00033E284918D9331962A173B07D1F7AA2415
:1011B000A394C12CE12C06E020E430E048E768E588
:1011C00073E280EA94E00E94113BB4C0EEEEF7E0D7
:1011D000A8E5B3E22EE533E284918D933196A21710
:1011E000B307D1F7AA24A394C12CE12C06E020E494
:1011F00030E048E768E573E280EA94E00E94113B42
:1012000099C0E6EDF7E0A8E5B3E22EE533E284917C
:101210008D9331962A173B07D1F7AA24A394C12CAA
:10122000E12C06E020E430E048E768E573E280EA7C
:1012300094E00E94113B7EC0E4EFF7E0A8E5B3E242
:101240002EE533E284918D933196A217B307D1F73F
:10125000AA24A394C12CE12C06E020E430E048E766
:1012600068E573E280EA94E00E94113B63C0E0ED20
:10127000F7E0A8E5B3E22EE533E284918D93319651
:10128000A217B307D1F7AA24A394C12CE12C06E03E
:1012900020E430E048E768E573E280EA94E00E94E9
:1012A000113B48C0E8EEF7E0A8E5B3E22EE533E2F3
:1012B00084918D9331962A173B07D1F7AA24A394E2
:1012C000C12CE12C06E020E430E048E768E573E259
:1012D00080EA94E00E94113B2DC0ECEDF7E0A8E518
:1012E000B3E22EE533E284918D9331962A173B07C2
:1012F000D1F7AA24A394C12CE12C06E020E430E02D
:1013000048E768E573E280EA94E00E94113B12C06E
:10131000EF3508F018CFF0E0CF01880F991FE80FE4
:10132000F91FEE0FFF1FE057FA4FA8E5B3E22EE5D5
:1013300033E2F4CE0F91EF90CF90AF900895AF923B
:10134000CF92EF920F93E0EEE80FE03608F40CC175
:10135000803B09F409C18F3909F406C18F7D8C39AE
:1013600009F402C1863909F4FFC0843809F00EC1BE
:10137000FBC0849180958D933196A217B307C9F76E
:10138000AA24A394C12CE12C06E020E430E048E735
:1013900062E573E280EA94E00E94113BF7C08E2F71
:1013A00090E0FC01E456F109E933F10508F0EEC0E4
:1013B000E95CFE4F0C94C542EAECF7E0A2E5B3E22B
:1013C00028E533E284918D9331962A173B07D1F7B4
:1013D000AA24A394C12CE12C06E020E430E048E7E5
:1013E00062E573E280EA94E00E94113BCFC0E2EE36
:1013F000F7E0A2E5B3E228E533E284918D933196DC
:101400002A173B07D1F7AA24A394C12CE12C06E0AC
:1014100020E430E048E762E573E280EA94E00E946D
:10142000113BB4C0EEEEF7E0A2E5B3E228E533E20B
:1014300084918D933196A217B307D1F7AA24A39470
:10144000C12CE12C06E020E430E048E762E573E2DD
:1014500080EA94E00E94113B99C0E6EDF7E0A2E536
:10146000B3E228E533E284918D9331962A173B0746
:10147000D1F7AA24A394C12CE12C06E020E430E0AB
:1014800048E762E573E280EA94E00E94113B7EC087
:10149000E4EFF7E0A2E5B3E228E533E284918D932F
:1014A0003196A217B307D1F7AA24A394C12CE12C3B
:1014B00006E020E430E048E762E573E280EA94E089
:1014C0000E94113B63C0E0EDF7E0A2E5B3E228E53E
:1014D00033E284918D933196A217B307D1F7AA24F2
:1014E000A394C12CE12C06E020E430E048E762E55B
:1014F00073E280EA94E00E94113B48C0E8EEF7E016
:10150000A2E5B3E228E533E284918D9331962A1760
:101510003B07D1F7AA24A394C12CE12C06E020E4D8
:1015200030E048E762E573E280EA94E00E94113B14
:101530002DC0ECEDF7E0A2E5B3E228E533E28491BB
:101540008D9331962A173B07D1F7AA24A394C12C77
:10155000E12C06E020E430E048E762E573E280EA4F
:1015600094E00E94113B12C0EF3508F018CFF0E074
:10157000CF01880F991FE80FF91FEE0FFF1FE057EB
:10158000FA4FA2E5B3E228E533E2F3CE0F91EF90F4
:10159000CF90AF900895CF93DF93EC01888188239B
:1015A00031F021960E94740889918111FBCFDF915F
:1015B000CF910895CF93DF93EC018881882331F098
:1015C00021960E949F0989918111FBCFDF91CF91D4
:1015D0000895DF92EF92FF920F931F93CF93DF93C3
:1015E000FC0180818823C1F0D42ED62F8F010F5F9C
:1015F0001F4FC0E0CD1730F0DC1620F078010E94BC
:101600009F0903C078010E947408CF5FF7018081B1
:101610000F5F1F4F8111EECFDF91CF911F910F917F
:10162000FF90EF90DF9008951F920F920FB60F92E8
:1016300011242F938F939F93AF93BF938091602436
:101640008F5F80936024809160248770B9F58091CA
:101650005F248E3F28F480915F248F5F80935F2406
:10166000909160248DEC989F812D1124869586950C
:10167000282F220F220F820F98130AC08091072172
:10168000882319F01092072103C081E0809307217D
:101690008091612490916224A0916324B09164248C
:1016A0000196A11DB11D8093612490936224A093A3
:1016B0006324B093642481E08093532481E0809379
:1016C0005624BF91AF919F918F912F910F900FBE94
:1016D0000F901F9018951F920F920FB60F92112422
:1016E0002F933F938F939F93809161238F5F80937C
:1016F00061238A3008F44CC09091080620914E2452
:101700009095392F3227209103212323922F9095F2
:101710009093032120910221232329272093022142
:101720009323922320914E24292720934E243091F5
:101730004E2420914D249323922B90934D249091ED
:101740004E2494FD04C091E39093602312C09091C5
:101750006023915019F0909360230BC094E1909313
:10176000602390914E2420914C249071922B909361
:101770004C249DEC899F912D1124969596959695D4
:10178000990F292F220F220F920F891B809361231B
:101790008091080682FF02C093E001C090E0809132
:1017A000080683FF02C081E0982780915424891B9A
:1017B00080FF09C0909354249091552482709150D9
:1017C000890F809355249F918F913F912F910F9076
:1017D0000FBE0F901F901895F89490914D24892377
:1017E00090914D24982790934D2478940895F894DF
:1017F00090914C24892390914C24982790934C24C9
:1018000078940895F89490914E24909589230E949D
:10181000EC0B08950E94F70B0E94EC0B0895FC015D
:10182000A0E8B6E088E250968C93509751968C933E
:1018300081E0828393E2958398E091838483089585
:10184000FB01208130E0220F331F820F931FDC0148
:101850004D935C9380818F5F8F70808308951F927A
:101860000F920FB60F9211240BB60F922F933F9346
:101870004F935F936F937F938F939F93AF93BF9398
:10188000EF93FF93209168083091690840E050E0A1
:1018900060EC71EE84EE90E00E948442A90163E95D
:1018A00073E284E993E20E94200CFF91EF91BF91D3
:1018B000AF919F918F917F916F915F914F913F91E8
:1018C0002F910F900BBE0F900FBE0F901F90189589
:1018D0001F920F920FB60F9211240BB60F922F93F7
:1018E0003F934F935F936F937F938F939F93AF93A8
:1018F000BF93EF93FF9340E050E063E973E284E924
:1019000093E20E94200CFF91EF91BF91AF919F91C4
:101910008F917F916F915F914F913F912F910F9098
:101920000BBE0F900FBE0F901F9018951F920F9235
:101930000FB60F9211240BB60F922F933F934F9334
:101940005F936F937F938F939F93AF93BF93EF9327
:10195000FF93209168093091690940E050E060EC04
:1019600071EE84EE90E00E948442A90164EB73E280
:1019700085EB93E20E94200CFF91EF91BF91AF9114
:101980009F918F917F916F915F914F913F912F9197
:101990000F900BBE0F900FBE0F901F9018951F92C7
:1019A0000F920FB60F9211240BB60F922F933F9305
:1019B0004F935F936F937F938F939F93AF93BF9357
:1019C000EF93FF9340E050E064EB73E285EB93E22A
:1019D0000E94200CFF91EF91BF91AF919F918F9149
:1019E0007F916F915F914F913F912F910F900BBE1F
:1019F0000F900FBE0F901F901895F894FC01AC014A
:101A0000405E5F4F80E090E0DC0121913191820FD8
:101A1000931FA11DB11DE417F507B9F70097A105A4
:101A2000B10549F0689413F8B695A79597958795F1
:101A30001694D1F702C080E090E078940895CF9298
:101A4000DF92EF92FF92CF93DF93CDB7DEB7A897E7
:101A5000CDBFDEBF80915224882309F45CC184E9A4
:101A600093E20E94FD0CA0E0B0E080935B24909391
:101A70005C24A0935D24B0935E24809124219091F6
:101A8000252140915B2450915C2460915D247091EC
:101A90005E24A0E0B0E0841B950BA60BB70B8DA3D2
:101AA0009EA3AFA3B8A7CDA0DEA0EFA0F8A4CC0C56
:101AB000DD1CEE1CFF1CCC0CDD1CEE1CFF1CCC0C3A
:101AC000DD1CEE1CFF1CCC0CDD1CEE1CFF1CCC0C2A
:101AD000DD1CEE1CFF1C60911A2170911B2180916E
:101AE0001C2190911D212DE730E040E050E00E9444
:101AF0008442C701B6010E94A64229A33AA34BA380
:101B00005CA3809128099091290949A15AA16BA150
:101B10007CA1A0E0B0E0841B950BA60BB70B8D8FCA
:101B20009E8FAF8FB8A38D8D9E8DAF8DB8A1BB2337
:101B300024F41D8E1E8E1F8E18A28D8D9E8DAF8D4E
:101B4000B8A181329340A105B10544F080E293E051
:101B5000A0E0B0E08D8F9E8FAF8FB8A38D8D9E8D4E
:101B6000AF8DB8A180932809909329098D8D9E8D02
:101B7000AF8DB8A181159340A105B105E4F08DA109
:101B80009EA1AFA1B8A58C399F4FAF4FBF4F54F462
:101B9000809128219091292140978093282190932A
:101BA000292109C0809128219091292102978093B1
:101BB0002821909329218D8D9E8DAF8DB8A18A3FCC
:101BC0009105A105B105E4F48DA19EA1AFA1B8A531
:101BD00085369105A105B10554F080912821909199
:101BE00029214096809328219093292109C0809132
:101BF00028219091292102968093282190932921D0
:101C000080912821909129218130904130F080E00D
:101C100090E180932821909329218091282190910F
:101C20002921853A954030F485EA95E08093282172
:101C300090932921809128219091292120912C2174
:101C400030912D21A0E0B0E0821B930BA109B109D6
:101C50008DA39EA3AFA3B8A7CDA0DEA0EFA0F8A44C
:101C6000CC0CDD1CEE1CFF1CCC0CDD1CEE1CFF1C88
:101C7000CC0CDD1CEE1CFF1CCC0CDD1CEE1CFF1C78
:101C8000CC0CDD1CEE1CFF1C60911E2170911F21ED
:101C900080912021909121212DE730E040E050E01B
:101CA0000E948442C701B6010E94A642298F3A8F42
:101CB0004B8F5C8F20912A0830912B08898D9A8D4B
:101CC000AB8DBC8D820F931FA11DB11D8D8F9E8F7B
:101CD000AF8FB8A38D8D9E8DAF8DB8A18115924029
:101CE000A105B1050CF090C18D8D9E8DAF8DB8A171
:101CF000181619061A061B060CF47DC185C1109230
:101D00002A0810922B080FC08FEF91E080932A08C9
:101D100090932B0808C0109228091092290910925C
:101D20002A0810922B0880915124882309F45AC163
:101D300085EB93E20E94FD0CA0E0B0E08093572475
:101D400090935824A0935924B0935A24809122212F
:101D50009091232140915724509158246091592407
:101D600070915A24A0E0B0E0841B950BA60BB70B32
:101D70008D8B9E8BAF8BB88FCD88DE88EF88F88CEB
:101D8000CC0CDD1CEE1CFF1CCC0CDD1CEE1CFF1C67
:101D9000CC0CDD1CEE1CFF1CCC0CDD1CEE1CFF1C57
:101DA000CC0CDD1CEE1CFF1C6091122170911321E4
:101DB00080911421909115212DE730E040E050E012
:101DC0000E948442C701B6010E94A642298B3A8B29
:101DD0004B8B5C8B80912A0990912B0949895A89F8
:101DE0006B897C89A0E0B0E0841B950BA60BB70B38
:101DF0008D879E87AF87B88B8D859E85AF85B88987
:101E0000BB2324F41D861E861F86188A8D859E8519
:101E1000AF85B88981329340A105B10544F080E2D5
:101E200093E0A0E0B0E08D879E87AF87B88B8D856B
:101E30009E85AF85B88980932A0990932B098D855B
:101E40009E85AF85B88981159340A105B105E4F061
:101E50008D899E89AF89B88D8C399F4FAF4FBF4F09
:101E600054F4809126219091272140978093262138
:101E70009093272109C080912621909127210297D4
:101E800080932621909327218D859E85AF85B889E3
:101E90008A3F9105A105B105E4F48D899E89AF893A
:101EA000B88D85369105A105B10554F080912621A4
:101EB000909127214096809326219093272109C055
:101EC000809126219091272102968093262190933C
:101ED000272180912621909127218130904130F057
:101EE00080E090E180932621909327218091262104
:101EF00090912721853A954030F485EA95E08093CA
:101F000026219093272180912621909127212091AD
:101F10002A2130912B21A0E0B0E0821B930BA10974
:101F2000B10989879A87AB87BC87C984DA84EB8437
:101F3000FC84CC0CDD1CEE1CFF1CCC0CDD1CEE1C50
:101F4000FF1CCC0CDD1CEE1CFF1CCC0CDD1CEE1CA5
:101F5000FF1CCC0CDD1CEE1CFF1C60911621709147
:101F6000172180911821909119212DE730E040E050
:101F700050E00E948442C701B6010E94A6422D8310
:101F80003E834F83588720912808309129088D81FE
:101F90009E81AF81B885820F931FA11DB11D8983DA
:101FA0009A83AB83BC8389819A81AB81BC81811583
:101FB0009240A105B105CCF589819A81AB81BC81A4
:101FC000181619061A061B063CF12FC01092280895
:101FD0001092290831C08FEF91E0809328089093E8
:101FE00029082AC010922A0910922B091092280859
:101FF0001092290821C08D8D9E8DAF8DB8A1809340
:102000002A0890932B088FCE898D9A8DAB8DBC8D2D
:10201000BB230CF079CE73CE89819A81AB81BC81D0
:10202000809328089093290807C08D819E81AF81F5
:10203000B885BB2384F6CACFA896CDBFDEBFDF919B
:10204000CF91FF90EF90DF90CF90089590E088308F
:10205000910568F5FC01E059FE4F0C94C54286E5F8
:1020600091E20E94CB0A08958EE591E20E94CB0A8C
:10207000089586E691E20E94CB0A08958EE691E2E9
:102080000E94CB0A089586E791E20E94CB0A089548
:102090008EE791E20E94CB0A089586E891E20E94C1
:1020A000CB0A08958EE891E20E94CB0A089586E952
:1020B00091E20E94CB0A089590E08830910568F57E
:1020C000FC01E858FE4F0C94C54286E591E20E945F
:1020D000DA0A08958EE591E20E94DA0A089586E60A
:1020E00091E20E94DA0A08958EE691E20E94DA0AED
:1020F000089586E791E20E94DA0A08958EE791E258
:102100000E94DA0A089586E891E20E94DA0A0895A8
:102110008EE891E20E94DA0A089586E991E20E942F
:10212000DA0A0895CF93DF9300D0CDB7DEB71982D6
:10213000DC011496EC91F0E0062E02C0F595E795CF
:102140000A94E2F7E0FF02C031E039831A822423C7
:1021500011F021E02A8339812A81321749F021E0E8
:1021600030E002C0220F331F6A95E2F7FC0127839B
:102170000F900F90DF91CF9108950F931F93CF93FE
:10218000DF93FA0120812223E1F1EB018C0110821F
:10219000809163230E94B3064091632360E081E055
:1021A0000E943D068EE991E20E94CB0A4091632392
:1021B00061E081E00E943D0683EA91E20E94CB0A41
:1021C0000A30110520F486E292E20E94CB0A4AE02E
:1021D000BE01C8010E942C43CE010E94CB0A8EEAA8
:1021E00091E20E94CB0A4091632362E081E00E9469
:1021F0003D0681EB91E20E94CB0A89EB91E20E94BD
:10220000CB0ADF91CF911F910F910895E0E5F0E0A7
:1022100082E28283808188608083818183FFFDCF19
:10222000A0E0B4E08FE790E01A968D939C931B9703
:10223000E0E4F0E083E0838391E09C938383E0E03B
:10224000F4E0818180FFFDCF83E080930204089554
:10225000CF93DF9382E08093CA01ECE1F0E0E49158
:102260001092CA01C0E5D0E084E08E83A0E6B0E021
:102270001396EC9313978BE115968C93159787EB38
:1022800016968C93169781E08C9388ED84BF83E03B
:102290008883E0E5F0E0818181FFFDCFE0E5F0E0BB
:1022A00080E1858388ED84BF83E18083818184FF21
:1022B000FDCF81E08093680088ED84BF84E0809347
:1022C0004000DF91CF910895CF93DF93C0E8D1E034
:1022D0008AE68883A0E6B6E052968C915297816098
:1022E00052968C935297E0E4F8E088EA838330E1D9
:1022F000318325E0208383E0868387839BE69D836B
:1023000053969C915397916053969C93E0E4F9E027
:102310009DEA93833183208386838783E0E0F8E01E
:1023200093E3918381E080832FEF31E026A337A3ED
:10233000E0E0F9E08083918328EE33E026A337A321
:10234000E0E0FAE020E030E126A337A3868384E0D2
:102350008083DF91CF9108958091080682FF02C0AB
:1023600083E001C080E09091080693FF02C091E0F5
:102370008927809354241092552408958091082130
:10238000823059F0843099F08130E1F4F8948091F2
:1023900055241092552478940895F89480915524EA
:1023A000982F917090935524789485950895F8947A
:1023B00080915524982F9370909355247894859507
:1023C00085950895F89480915524982F9370909353
:1023D000552478948595859508954F925F926F92D4
:1023E0007F929F92AF92BF92CF92DF92EF92FF9235
:1023F0000F931F93CF93DF93EC01962E5A0169013F
:10240000F8018081882309F426C11082809163231A
:102410000E94B3064091632360E081E00E943D0684
:10242000992029F08EEB91E20E94CB0A04C082ED44
:1024300091E20E94CB0A4091632361E081E00E9417
:102440003D0687EE91E20E94CB0A8C819D81AE8190
:10245000BF8180349244AF40B10520F486E292E21D
:102460000E94CB0A8C819D81AE81BF8180319742D1
:10247000A105B10520F486E292E20E94CB0A8C818C
:102480009D81AE81BF81883E9340A105B10520F4B6
:1024900086E292E20E94CB0A6C817D818E819F81CF
:1024A00024E630E040E050E00E948442DA01C901B5
:1024B0004AE0B6010E942C43C6010E94CB0A40911B
:1024C000632362E081E00E943D0684EF91E20E9476
:1024D000CB0A88819981AA81BB8180349244AF4024
:1024E000B10520F486E292E20E94CB0A88819981AC
:1024F000AA81BB81803A9648A140B10520F486E2CA
:1025000092E20E94CB0A88819981AA81BB818031A5
:102510009742A105B10520F486E292E20E94CB0A1F
:10252000688179818A819B8128EE33E040E050E028
:102530000E948442DA01C9014AE0B6010E942C439C
:10254000C6010E94CB0A4091632363E081E00E94B0
:102550003D0683E092E20E94CB0A8C859D85AE8584
:10256000BF8580349244AF40B10520F486E292E208
:102570000E94CB0A8C859D85AE85BF8580319742B0
:10258000A105B10520F486E292E20E94CB0A8C8577
:102590009D85AE85BF85883E9340A105B10520F499
:1025A00086E292E20E94CB0A6C857D858E859F85AE
:1025B00024E630E040E050E00E948442DA01C901A4
:1025C0004AE0B6010E942C43C6010E94CB0A40910A
:1025D000632364E081E00E943D0680E192E20E9474
:1025E000CB0A88859985AA85BB8580349244AF4003
:1025F000B10520F486E292E20E94CB0A8885998593
:10260000AA85BB85803A9648A140B10520F486E2B0
:1026100092E20E94CB0A88859985AA85BB85803184
:102620009742A105B10520F486E292E20E94CB0A0E
:10263000688579858A859B8528EE33E040E050E007
:102640000E948442DA01C9014AE0B6010E942C438B
:10265000C6010E94CB0A8091DF23882309F4BCC104
:10266000803209F473C018F4803141F0A6C1803380
:1026700009F4D4C0803409F439C19FC10E94BE114D
:10268000A82F880FBB0B24E630E00E94DD424C806F
:102690005D806E807F80DC01CB01840D951DA61DC1
:1026A000B71D8C839D83AE83BF834091632361E01C
:1026B0008CE00E943D068C819D81AE81BF8180347B
:1026C0009244AF40B10520F486E292E20E94CB0A28
:1026D0008C819D81AE81BF8180319742A105B1057A
:1026E00020F486E292E20E94CB0A8C819D81AE8129
:1026F000BF81883E9340A105B10520F486E292E2B5
:102700000E94CB0A6C817D818E819F8124E630E01E
:1027100040E050E00E948442DA01C9014AE0B6017B
:102720000E942C43C6010E94DA0A80E10E94020C3A
:10273000882309F451C181E0F8018083F501808389
:1027400082E0F70180831092DF2346C10E94BE1110
:10275000A82F880FBB0B24E630E00E94DD424880A2
:1027600059806A807B80DC01CB01840D951DA61DFC
:10277000B71D88839983AA83BB834091632362E05A
:102780008EE00E943D0688819981AA81BB818034B8
:102790009244AF40B10520F486E292E20E94CB0A57
:1027A00088819981AA81BB8180319742A105B105B9
:1027B00020F486E292E20E94CB0A88819981AA8164
:1027C000BB81883E9340A105B10520F486E292E2E8
:1027D0000E94CB0A688179818A819B8124E630E05E
:1027E00040E050E00E948442DA01C9014AE0B601AB
:1027F0000E942C43C6010E94DA0A80E10E94020C6A
:10280000882309F4E9C081E0F8018083F501808321
:1028100082E0F70180831092DF23DEC00E94BE11A8
:10282000A82F880FBB0B24E630E00E94DD424C84C9
:102830005D846E847F84DC01CB01840D951DA61D13
:10284000B71D8C879D87AE87BF874091632363E068
:102850008CE00E943D068C859D85AE85BF858034C9
:102860009244AF40B10520F486E292E20E94CB0A86
:102870008C859D85AE85BF8580319742A105B105C8
:1028800020F486E292E20E94CB0A8C859D85AE857B
:10289000BF85883E9340A105B10520F486E292E20F
:1028A0000E94CB0A6C857D858E859F8524E630E06D
:1028B00040E050E00E948442DA01C9014AE0B601DA
:1028C0000E942C43C6010E94DA0A80E10E94020C99
:1028D000882309F481C081E0F8018083F5018083B9
:1028E00082E0F70180831092DF2376C00E94BE1140
:1028F000A82F880FBB0B24E630E00E94DD424884FD
:1029000059846A847B84DC01CB01840D951DA61D4E
:10291000B71D88879987AA87BB874091632364E0A6
:102920008EE00E943D0688859985AA85BB85803406
:102930009244AF40B10520F486E292E20E94CB0AB5
:1029400088859985AA85BB8580319742A105B10507
:1029500020F486E292E20E94CB0A88859985AA85B6
:10296000BB85883E9340A105B10520F486E292E242
:102970000E94CB0A688579858A859B8524E630E0AC
:1029800040E050E00E948442DA01C9014AE0B60109
:102990000E942C43C6010E94DA0A80E10E94020CC8
:1029A0008823D1F081E0F8018083F501808382E003
:1029B000F70180831092DF230FC080E10E94020C98
:1029C000882351F081E0F8018083F501808382E063
:1029D000F70180831092DF23DF91CF911F910F9138
:1029E000FF90EF90DF90CF90BF90AF909F907F903F
:1029F0006F905F904F900895CF92DF92EF92FF9289
:102A00000F931F93FC01DA01C901AB01770F660B2D
:102A1000770B0081118122813381400F511F621F8A
:102A2000731F8A019B0184179507A607B7072CF02F
:102A300040835183628373830AC06A017B01C81A91
:102A4000D90AEA0AFB0AC082D182E282F3823323E6
:102A500044F4480F591F6A1F7B1F408351836283D0
:102A600073831F910F91FF90EF90DF90CF900895A7
:102A7000AF92BF92DF92EF92FF920F931F93CF938B
:102A8000DF93CDB7DEB76597CDBFDEBF5C01F42E17
:102A9000D22E002309F4DEC0FB0180819181A28146
:102AA000B381F5014081518162817381841B950B53
:102AB000A60BB70B8F87988BA98BBA8B6F857889FC
:102AC00089899A8920E13EE040E050E00E948442FA
:102AD0002B873C874D875E87EE2041F01F86188A42
:102AE000198A1A8A1B861C861D861E866B857C8524
:102AF0008D859E852AE0AE014D5E5F4F0E940A43A0
:102B00008B859C85AD85BE850A97A105B10560F4CE
:102B100080E390E089839A83BE016D5E7F4FCE0192
:102B200001960E94F84207C0BE016D5E7F4FCE0144
:102B300001960E940343FE01319601900020E9F7BF
:102B400031978AE390E0808391836F8578898989C2
:102B50009A8920E13EE040E050E00E9484426F8785
:102B6000788B898B9A8B6F85788989899A892CE3F0
:102B700030E040E050E00E9484422B873C874D8744
:102B80005E876B857C858D859E852AE0AE014D5ED6
:102B90005F4F0E940A438B859C85AD85BE850A9751
:102BA000A105B10550F4FE01319601900020E9F72E
:102BB000319780E390E080839183BE016D5E7F4F0B
:102BC0008E010F5F1F4FC8010E94F842F80101906B
:102BD0000020E9F731978AE390E0808391836F8545
:102BE000788989899A892CE330E040E050E00E949E
:102BF00084426F87788B898B9A8B6F8578898989D6
:102C00009A892AE0AE014D5E5F4F0E940A438F858C
:102C10009889A989BA890A97A105B10548F4F801EC
:102C200001900020E9F7319780E390E08083918361
:102C3000BE016D5E7F4FCE0101960E94F842409129
:102C400063236D2D8F2D0E943D06CE0101960E94BB
:102C5000CB0A0AC040916323622F8F2D0E943D064C
:102C60008EE192E20E94CB0A6596CDBFDEBFDF9176
:102C7000CF911F910F91FF90EF90DF90BF90AF9099
:102C80000895DF92EF92FF920F931F93CF93DF93FC
:102C9000CDB7DEB76597CDBFDEBFF62EE42ED22EC0
:102CA000FC0180819181A281B3818E879F87A88B4F
:102CB000B98B8E859F85A889B98981309644A540B6
:102CC000B10540F080E096E4A5E0B0E08E879F87F4
:102CD000A88BB98B6E857F858889998920E13EE034
:102CE00040E050E00E9484422A8B3B8B4C8B5D8BF2
:102CF0006A897B898C899D892AE0AE01455F5F4F97
:102D00000E940A438A899B89AC89BD890A97A105DB
:102D1000B10560F480E390E089839A83BE01655F2A
:102D20007F4FCE0101960E94F84207C0BE01655F49
:102D30007F4FCE0101960E940343FE013196019020
:102D40000020E9F731978AE390E0808391836E85D4
:102D50007F858889998920E13EE040E050E00E942B
:102D600084426E877F87888B998B6E857F85888963
:102D700099892CE330E040E050E00E9484422A8BA5
:102D80003B8B4C8B5D8B6A897B898C899D892AE082
:102D9000AE01455F5F4F0E940A438A899B89AC89D7
:102DA000BD890A97A105B10550F4FE013196019045
:102DB0000020E9F7319780E390E080839183BE01A2
:102DC000655F7F4F8E010F5F1F4FC8010E94F84261
:102DD000F80101900020E9F731978AE390E08083C1
:102DE00091836E857F85888999892CE330E040E066
:102DF00050E00E9484426E877F87888B998B6E8516
:102E00007F85888999892AE0AE01455F5F4F0E94DE
:102E10000A438E859F85A889B9890A97A105B105BE
:102E200048F4F80101900020E9F7319780E390E041
:102E300080839183BE01655F7F4FCE0101960E9422
:102E4000F842F11005C0CE0101960E94CB0A06C0DF
:102E50004D2D6E2DCE0101960E94E90A6596CDBFDB
:102E6000DEBFDF91CF911F910F91FF90EF90DF9028
:102E70000895E0E0F2E086E3848783E085871182AD
:102E800082E0828387E0848381E080830895FC016F
:102E900081E08083660F660F660F618380818068A2
:102EA000808383818823E9F3A0E0B2E016968C91B9
:102EB000169716968C9380818068808383818823FF
:102EC000E9F3A0E0B2E016968C91169716968C93D3
:102ED0008481958108959C01A8EEB3E00E94CE42C2
:102EE0006C507E418340910928EE33E040E050E091
:102EF0000E948442A4E1BCE30E94E442DC01CB01D5
:102F0000072E7CE0B695A795979587957A95D1F78A
:102F1000702D0895CF93DF93E0911021F09111214E
:102F20008CE494E08287938788E592E0808791879C
:102F300080E891E5A1E0B0E0808B918BA28BB38B10
:102F40008CE291E0A0E0B0E0808F918FA28FB38FF0
:102F500080E29CE1A0E0B0E084879587A687B787F0
:102F60001182C0911021D09111211A8280E19EE03E
:102F7000A0E0B0E08C8B9D8BAE8BBF8B81E08D830E
:102F80001F821C821E821B826CE1CE010E942604DD
:102F90006C8F7D8F8E8F9F8F28E230E0409162236F
:102FA00060E080911021909111210E943605DF91FF
:102FB000CF910895CF93DF93E0910E21F0910F21EF
:102FC00080E29CE1A0E0B0E084879587A687B78780
:102FD0008CE494E08287938788E592E080879187EC
:102FE00080E891E5A1E0B0E0808B918BA28BB38B60
:102FF0008CE390E0A0E0B0E0808F918FA28FB38F40
:103000001182C0910E21D0910F211A8280E19EE0A1
:10301000A0E0B0E08C8B9D8BAE8BBF8B81E08D836D
:103020001C821F821E821B826CE1CE010E9426043C
:103030006C8F7D8F8E8F9F8F28E430E040916223CC
:1030400060E080910E2190910F210E943605DF9162
:10305000CF9108950F931F93CF93DF93EC01162F19
:10306000042F80EA96E8A1E0B0E088839983AA83E0
:10307000BB8388879987AA87BB878C839D83AE8310
:10308000BF838C879D87AE87BF8760E1CE010E949A
:103090002604688B798B8A8B9B8B20E030E0402F55
:1030A000612FCE010E947D05DF91CF911F910F917D
:1030B0000895CF93DF93EC0180E29CE1A0E0B0E0C3
:1030C0008C879D87AE87BF878CE494E08A879B8737
:1030D00088E592E08887998780E891E5A1E0B0E0F3
:1030E000888B998BAA8BBB8B8CE390E0A0E0B0E03F
:1030F000888F998FAA8FBB8F19821A8280E19EE0F8
:10310000A0E0B0E08C8B9D8BAE8BBF8B81E08D837C
:103110001C821F821E821B826CE1CE010E9426044B
:103120006C8F7D8F8E8F9F8FDF91CF9108954F92FF
:103130005F926F927F928F929F92AF92BF92CF9247
:10314000DF92EF92FF920F931F93CF93DF933C0197
:10315000EB016A012901809101218823D9F01092A5
:10316000012128E630E040916223F8016081CE0120
:103170000E94E3048C8C9D8CAE8CBF8C6CE1CE01E4
:103180000E94260486169706A806B90619F0CE01F5
:103190000E945918F7018081882309F4B6C0108273
:1031A000809163230E94B3064091632360E081E035
:1031B0000E943D0688E292E20E94CB0A8B810E9427
:1031C00026104091632361E081E00E943D0685E383
:1031D00092E20E94CB0AF8018081843620F486E2D4
:1031E00092E20E94CB0AF80180818A3020F486E2C4
:1031F00092E20E94CB0AF80180814AE0B60190E099
:103200000E942C43C6010E94CB0A4091632362E0D6
:1032100081E00E943D068AE392E20E94CB0A8A8105
:10322000811104C080E492E20E94CB0A8A8181303D
:1032300021F487E492E20E94CB0A8A81823021F451
:1032400081E592E20E94CB0A4091632363E081E032
:103250000E943D068FE592E20E94CB0A4AE0B60149
:10326000888599850E942C43C6010E94CB0A89E675
:1032700092E20E94CB0A4091632364E081E00E94C5
:103280003D068EE692E20E94CB0A4AE0B6018A85AC
:103290009B850E942C43C6010E94CB0A89E692E2DC
:1032A0000E94CB0A4091632365E081E00E943D06C5
:1032B00088E792E20E94CB0A20E040E060E0CE0185
:1032C0000C960E9441164091632366E081E00E94C3
:1032D0003D0683E892E20E94CB0A20E040E060E0F5
:1032E000CE0140960E9441164091632367E081E041
:1032F0000E943D068EE892E20E94CB0A20E040E068
:1033000060E0CE0144960E944116E091DF23EE2357
:1033100009F4AAC38E2F90E0FC013197E237F10542
:1033200008F0A2C3E058FE4F0C94C5420E94BE11A3
:103330009B81890F87708B834091632360E081E0DC
:103340000E943D0688E292E20E94CB0A8B810E9495
:103350005C1080E10E94020C882309F485C340912F
:10336000632360E081E00E943D0688E292E20E94D1
:10337000CB0A8B810E94261082E0F301808381E0DA
:10338000F20180831092DF236FC30E94BE11F80107
:103390009081890F80834091632361E081E00E94E6
:1033A0003D0685E392E20E94CB0AF80180818436D3
:1033B00020F486E292E20E94CB0AF80180818A30F2
:1033C00020F486E292E20E94CB0AF80180814AE072
:1033D000B60190E00E942C43C6010E94DA0A80E107
:1033E0000E94020C882309F43FC381E080930121ED
:1033F000F7018083F301808382E0F20180831092E1
:10340000DF2332C30E94BE119A81890F8F3F11F0D2
:103410008A8302C082E08A839A818BEA989F812DF9
:1034200011248695282F220F820F981B9A83409192
:10343000632362E081E00E943D068AE392E20E94FB
:10344000CB0A8A81811104C080E492E20E94DA0AE8
:103450008A81813021F487E492E20E94DA0A8A812B
:10346000823021F481E592E20E94DA0A80E10E9432
:10347000020C882309F4F8C24091632362E081E0E2
:103480000E943D068AE392E20E94CB0A8A81811162
:1034900004C080E492E20E94CB0A8A81813021F448
:1034A00087E492E20E94CB0A8A81823021F481E58E
:1034B00092E20E94CB0A82E0F301808381E0F20174
:1034C00080831092DF23D0C20E94BE11082E000C10
:1034D000990B9C01220F331F880F991F880F991F8A
:1034E000880F991F820F931F28853985820F931F9C
:1034F000888799874091632363E08AE00E943D06B4
:10350000E0911021F0911121808591850A9720F496
:1035100086E292E20E94CB0A8885998584369105DD
:1035200020F486E292E20E94CB0A88859985883E43
:10353000934020F486E292E20E94CB0A4AE0B60170
:10354000888599850E942C43C6010E94DA0A89E683
:1035500092E20E94CB0A80E10E94020C882309F4C7
:1035600083C24091632363E08AE00E943D06888520
:1035700099850A9720F486E292E20E94CB0A888518
:1035800099858436910520F486E292E20E94CB0A66
:1035900088859985883E934020F486E292E20E94D5
:1035A000CB0A4AE0B601888599850E942C43C60162
:1035B0000E94CB0A89E692E20E94CB0A83E0F301E3
:1035C000808382E0F20180831092DF234DC20E944B
:1035D000BE11082E000C990B9C01220F331F880F7F
:1035E000991F880F991F880F991F820F931F2A8593
:1035F0003B85820F931F8A879B874091632364E0FA
:103600008AE00E943D068A859B850A9720F486E21F
:1036100092E20E94CB0A8A859B858436910520F42C
:1036200086E292E20E94CB0A8A859B85883E93407F
:1036300020F486E292E20E94CB0A4AE0B6018A8533
:103640009B850E942C43C6010E94DA0A89E692E219
:103650000E94CB0A80E10E94020C882309F404C274
:103660004091632364E08AE00E943D068A859B8541
:103670000A9720F486E292E20E94CB0A8A859B8513
:103680008436910520F486E292E20E94CB0A8A8574
:103690009B85883E934020F486E292E20E94CB0A0A
:1036A0004AE0B6018A859B850E942C43C6010E9490
:1036B000CB0A89E692E20E94CB0A84E0F301808380
:1036C00082E0F20180831092DF23CEC10E94BE11FE
:1036D0002C9620E13EE0482F4203B001439F700D3D
:1036E000112420E036E445E050E0CE010E94FC14B5
:1036F0004091632365E08BE00E943D0621E040E0BD
:1037000061E0CE010E94411680E10E94020C8823F4
:1037100009F4AAC14091632365E08BE00E943D0655
:1037200020E040E060E0CE010E94411681E58093F8
:10373000DF239AC10E94BE112C969CE38902B0013E
:10374000112420E036E445E050E0CE010E94FC1454
:103750004091632365E08BE00E943D0624E043E056
:1037600061E0CE010E94411680E10E94020C882394
:1037700009F47AC14091632365E08BE00E943D0625
:1037800020E040E060E0CE010E94411682E5809397
:10379000DF236AC10E94BE112C96682F880F770B19
:1037A00020E036E445E050E0CE010E94FC14409158
:1037B000632365E08BE00E943D0627E046E061E080
:1037C000CE010E94411680E10E94020C882309F478
:1037D0004BC14091632365E08BE00E943D0620E0F1
:1037E00040E060E0CE010E94411685E0F301808355
:1037F00082E0F20180831092DF2336C10E94BE1165
:10380000609620E13EE0482F4203B001439F700DD7
:10381000112420E036E445E050E0CE010E94FC1483
:103820004091632366E08BE00E943D0621E040E08A
:1038300061E0CE010E94411680E10E94020C8823C3
:1038400009F412C14091632366E08BE00E943D06BB
:1038500020E040E060E0CE010E94411681E68093C6
:10386000DF2302C10E94BE1160969CE38902B00171
:10387000112420E036E445E050E0CE010E94FC1423
:103880004091632366E08BE00E943D0624E043E024
:1038900061E0CE010E94411680E10E94020C882363
:1038A00009F4E2C04091632366E08BE00E943D068C
:1038B00020E040E060E0CE010E94411682E6809365
:1038C000DF23D2C00E94BE11682F880F770B809132
:1038D00010219091112120E036E445E050E040961F
:1038E0000E94FC144091632366E08BE00E943D0639
:1038F000609627E046E061E0CE010E94411680E13B
:103900000E94020C882309F4AFC04091632366E053
:103910008BE00E943D0620E040E060E0CE010E9486
:10392000411686E0F301808382E0F20180831092E9
:10393000DF239AC00E94BE11649620E13EE0482F2A
:103940004203B001439F700D112420E036E445E0AE
:1039500050E0CE010E94FC144091632367E08BE0AD
:103960000E943D0621E040E061E0CE010E94411648
:1039700080E10E94020C882309F476C04091632301
:1039800067E08BE00E943D0620E040E060E0CE0171
:103990000E94411681E78093DF2366C00E94BE111A
:1039A0009CE38902B0011124809110219091112192
:1039B00020E036E445E050E044960E94FC1440913B
:1039C000632367E08BE00E943D06649624E043E0B9
:1039D00061E0CE010E94411680E10E94020C882322
:1039E00009F442C04091632367E08BE00E943D06EA
:1039F00020E040E060E0CE010E94411682E7809323
:103A0000DF2332C00E94BE116496682F880F770BA7
:103A100020E036E445E050E0CE010E94FC144091E5
:103A2000632367E08BE00E943D0627E046E061E00B
:103A3000CE010E94411680E10E94020C8823A1F071
:103A40004091632367E08BE00E943D0620E040E068
:103A500060E0CE010E94411687E0F301808382E09E
:103A6000F20180831092DF23DF91CF911F910F919C
:103A7000FF90EF90DF90CF90BF90AF909F908F908E
:103A80007F906F905F904F9008954F925F926F92EA
:103A90007F928F929F92AF92BF92CF92DF92EF92DE
:103AA000FF920F93CF93DF934C016B01EA01590111
:103AB00080915F238823D9F010925F2328E630E0BD
:103AC0004091622360915E23CE010E94E3044C8CFE
:103AD0005D8C6E8C7F8C6CE1CE010E9426044616B4
:103AE00057066806790619F0CE010E945918F701A9
:103AF0008081882309F4BAC01082809163230E94D8
:103B0000B3064091632360E081E00E943D060023FC
:103B100029F089E992E20E94CB0A04C081EA92E28C
:103B20000E94CB0A8B810E9426104091632361E0A2
:103B300081E00E943D0685E392E20E94CB0A8881E3
:103B4000843620F486E292E20E94CB0A88818A3091
:103B500020F486E292E20E94CB0A88814AE0B60114
:103B600090E00E942C43C6010E94CB0A409163233F
:103B700062E081E00E943D068AE392E20E94CB0A65
:103B80008A81811104C080E492E20E94CB0A8A817A
:103B9000813059F487E492E20E94CB0A8A81813015
:103BA00021F481E592E20E94CB0A4091632363E015
:103BB00081E00E943D068FE592E20E94CB0A4AE036
:103BC000B601888599850E942C43C6010E94CB0AC4
:103BD00089E692E20E94CB0A4091632364E081E08F
:103BE0000E943D068EE692E20E94CB0A4AE0B601B0
:103BF0008A859B850E942C43C6010E94CB0A89E6D8
:103C000092E20E94CB0A4091632365E081E00E942A
:103C10003D0688E792E20E94CB0A20E040E060E0A7
:103C2000CE010C960E9441164091632366E081E02C
:103C30000E943D0683E892E20E94CB0A20E040E029
:103C400060E0CE0140960E9441164091632367E0F8
:103C500081E00E943D068EE892E20E94CB0A20E0BD
:103C600040E060E0CE0144960E944116E091DF23DF
:103C7000EE2309F4C7C38E2F90E0FC013197E237A1
:103C8000F10508F0BFC3EE50FE4F0C94C5420E94F0
:103C9000BE119B81890F87708B834091632360E005
:103CA00081E00E943D06002371F089E992E20E94C2
:103CB000CB0A8B810E945C1080E10E94020C882359
:103CC00009F4A0C394C381EA92E20E94CB0A8B81DB
:103CD0000E945C1080E10E94020C882309F492C3C8
:103CE0007BC38B810E94261082E0F401808381E0F7
:103CF000F50180831092DF2385C30E94BE1190914D
:103D00005E23890F80935E234091632361E081E00D
:103D10000E943D0685E392E20E94CB0A88818436A8
:103D200020F486E292E20E94CB0A88818A3020F455
:103D300086E292E20E94CB0A80915E234AE0B601BD
:103D400090E00E942C43C6010E94DA0A80E10E94A2
:103D5000020C882309F456C381E080935F23F701A6
:103D60008083F401808382E0F50180831092DF2359
:103D700049C30E94BE119A81890F8F3F11F08A8337
:103D800002C082E08A839A818BEA989F812D112458
:103D90008695282F220F820F981B9A8340916323C8
:103DA00062E081E00E943D068AE392E20E94CB0A33
:103DB0008A81811104C080E492E20E94DA0A8A8139
:103DC000813021F487E492E20E94DA0A8A8182300B
:103DD00021F481E592E20E94DA0A80E10E94020C5D
:103DE000882309F40FC34091632362E081E00E94BD
:103DF0003D068AE392E20E94CB0A8A81811104C0C7
:103E000080E492E20E94CB0A8A81813021F487E427
:103E100092E20E94CB0A8A81823021F481E592E20B
:103E20000E94CB0A82E0F401808381E0F501808367
:103E30001092DF23E7C20E94BE11082E000C990BDE
:103E40009C01220F331F880F991F880F991F880F1D
:103E5000991F820F931F28853985820F931F8887AA
:103E600099874091632363E08AE00E943D06E091D8
:103E70001021F0911121808591850A9720F486E226
:103E800092E20E94CB0A888599858436910520F4B8
:103E900086E292E20E94CB0A88859985883E93400B
:103EA00020F486E292E20E94CB0A4AE0B6018885BD
:103EB00099850E942C43C6010E94DA0A89E692E2A3
:103EC0000E94CB0A80E10E94020C882309F49AC266
:103ED0004091632363E08AE00E943D0688859985CE
:103EE0000A9720F486E292E20E94CB0A888599859F
:103EF0008436910520F486E292E20E94CB0A8885FE
:103F00009985883E934020F486E292E20E94CB0A93
:103F10004AE0B601888599850E942C43C6010E941B
:103F2000CB0A89E692E20E94CB0A83E0F401808307
:103F300082E0F50180831092DF2364C20E94BE11EB
:103F4000082E000C990B9C01220F331F880F991F1C
:103F5000880F991F880F991F820F931F2A853B8511
:103F6000820F931F8A879B874091632364E08AE0D6
:103F70000E943D068A859B850A9720F486E292E29C
:103F80000E94CB0A8A859B858436910520F486E2BF
:103F900092E20E94CB0A8A859B85883E934020F45A
:103FA00086E292E20E94CB0A4AE0B6018A859B85AE
:103FB0000E942C43C6010E94DA0A89E692E20E941E
:103FC000CB0A80E10E94020C882309F41BC24091B5
:103FD000632364E08AE00E943D068A859B850A97F8
:103FE00020F486E292E20E94CB0A8A859B85843681
:103FF000910520F486E292E20E94CB0A8A859B8595
:10400000883E934020F486E292E20E94CB0A4AE086
:10401000B6018A859B850E942C43C6010E94CB0A6B
:1040200089E692E20E94CB0A84E0F401808382E078
:10403000F50180831092DF23E5C10E94BE112C960A
:1040400020E13EE0482F4203B001439F700D112450
:1040500020E036E445E050E0CE010E94FC1440919F
:10406000632365E08BE00E943D0621E040E061E0D3
:10407000CE010E94411680E10E94020C882309F4BF
:10408000C1C14091632365E08BE00E943D0620E0C2
:1040900040E060E0CE010E94411681E58093DF237D
:1040A000B1C10E94BE112C969CE38902B00111247B
:1040B00020E036E445E050E0CE010E94FC1440913F
:1040C000632365E08BE00E943D0624E043E061E06D
:1040D000CE010E94411680E10E94020C882309F45F
:1040E00091C14091632365E08BE00E943D0620E092
:1040F00040E060E0CE010E94411682E58093DF231C
:1041000081C10E94BE112C96682F880F770B20E08A
:1041100036E445E050E0CE010E94FC144091632358
:1041200065E08BE00E943D0627E046E061E0CE01BD
:104130000E94411680E10E94020C882309F462C1AA
:104140004091632365E08BE00E943D0620E040E063
:1041500060E0CE010E94411685E0F401808382E098
:10416000F50180831092DF234DC10E94BE1160963D
:1041700020E13EE0482F4203B001439F700D11241F
:1041800020E036E445E050E0CE010E94FC1440916E
:10419000632366E08BE00E943D0621E040E061E0A1
:1041A000CE010E94411680E10E94020C882309F48E
:1041B00029C14091632366E08BE00E943D0620E028
:1041C00040E060E0CE010E94411681E68093DF234B
:1041D00019C10E94BE1160969CE38902B0011124AE
:1041E00020E036E445E050E0CE010E94FC1440910E
:1041F000632366E08BE00E943D0624E043E061E03B
:10420000CE010E94411680E10E94020C882309F42D
:10421000F9C04091632366E08BE00E943D0620E0F8
:1042200040E060E0CE010E94411682E68093DF23E9
:10423000E9C00E94BE11682F880F770B8091102172
:104240009091112120E036E445E050E040960E9434
:10425000FC144091632366E08BE00E943D0660966B
:1042600027E046E061E0CE010E94411680E10E9415
:10427000020C882309F4C6C04091632366E08BE0FA
:104280000E943D0620E040E060E0CE010E94411621
:1042900086E0F401808382E0F50180831092DF23C1
:1042A000B1C00E94BE11649620E13EE0482F420357
:1042B000B001439F700D112420E036E445E050E04A
:1042C000CE010E94FC144091632367E08BE00E94C2
:1042D0003D0621E040E061E0CE010E94411680E110
:1042E0000E94020C882309F48DC04091632367E08B
:1042F0008BE00E943D0620E040E060E0CE010E949D
:10430000411681E78093DF237DC00E94BE119CE3AC
:104310008902B0011124809110219091112120E097
:1043200036E445E050E044960E94FC14409163233B
:1043300067E08BE00E943D06649624E043E061E084
:10434000CE010E94411680E10E94020C882309F4EC
:1043500059C04091632367E08BE00E943D0620E056
:1043600040E060E0CE010E94411682E78093DF23A7
:1043700049C00E94BE116496682F880F770B20E019
:1043800036E445E050E0CE010E94FC1440916323E6
:1043900067E08BE00E943D0627E046E061E0CE0149
:1043A0000E94411680E10E94020C882359F140913D
:1043B000632367E08BE00E943D0620E040E060E080
:1043C000CE010E94411687E0F401808382E0F5016E
:1043D00080831092DF2316C04091632360E081E068
:1043E0000E943D0681EA92E20E94CB0A7ACC40917B
:1043F000632360E081E00E943D0689E992E20E9429
:10440000CB0A6FCCDF91CF910F91FF90EF90DF90AF
:10441000CF90BF90AF909F908F907F906F905F9064
:104420004F900895CF93DF93CDB7DEB7C055D10934
:10443000CDBFDEBF0F2EF0E4AF2EF6E0BF2EF02D85
:104440000F2EF3E08F2EF02DD50115968C9200E003
:1044500016E00F2EF0EE9F2EF02DF80191820F2E18
:10446000F0E2EF2EF6E0FF2EF02DDD24D394D701FD
:104470001196DC9219826894662465F865826894C6
:10448000CC24C6F8C5820E9406116894772477F878
:10449000F80175820E94963CD7011596DC920E9425
:1044A0002811F80166820E9464110E94391780EA7F
:1044B00094E00E940F0CD80116967C920E94AC11D9
:1044C000D092A9251092A8251092A72510926C26AB
:1044D00010926B2610926A2688E3F501828BE0E643
:1044E000F6E0818287E0D50111968C93D801119670
:1044F0009C92D7011196DC92119788E151968C938A
:10450000519752968C935297828B838BE0EAF0E01E
:10451000828187608283F801C5821596DC92789447
:10452000E0E0F8E010A611A612A613A6E0E0F9E07C
:1045300010A611A612A613A61092282110922921C6
:1045400010922621109227210E94C13A60EA80EA47
:1045500094E00E94E83B8093622362E880EA94E062
:104560000E94E83B8093632328E230E0409162237D
:1045700060E080911021909111210E94E30428E4D1
:1045800030E04091622360E080910E2190910F21F4
:104590000E94E30420E030E04091622360E08091DB
:1045A0000C2190910D210E940D0520E030E04091FA
:1045B000622361E080910A2190910B210E940D05F8
:1045C0006CE180911021909111210E942604E091CC
:1045D0001021F0911121048D158D268D378D6017D6
:1045E00071078207930711F00E948A176CE180918E
:1045F0000E2190910F210E942604E0910E21F0914E
:104600000F21048D158D268D378D60177107820758
:10461000930711F00E94DA1760E180910C219091CC
:104620000D210E942604E0910C21F0910D210089BA
:10463000118922893389601771078207930731F046
:104640004091622360E0CF010E942A1860E18091CE
:104650000A2190910B210E942604E0910A21F091F9
:104660000B2100891189228933896017710782071C
:10467000930731F04091622361E0CF010E942A1834
:104680002091102130911121D9011A968D919C9180
:104690001B978093242190932521E0910E21F09186
:1046A0000F21828593858093222190932321C090AE
:1046B0006124D0906224E0906324F09064241C96DE
:1046C0004D915D916D917C911F97D701C601840F2B
:1046D000951FA61FB71F8A839B83AC83BD83C090A1
:1046E0006124D0906224E0906324F0906424D90186
:1046F00050964D915D916D917C915397D701C60174
:10470000840F951FA61FB71F8E839F83A887B98725
:104710008091612490916224A0916324B0916424DB
:104720004485558566857785840F951FA61FB71F1D
:104730008A879B87AC87BD87809161249091622492
:10474000A0916324B091642440895189628973895E
:10475000840F951FA61FB71F8E879F87A88BB98BC5
:1047600080916323882341F00E94C1050E94E505E2
:1047700080E00E945D0712C0BFEFE3ECF9E0B150AA
:10478000E040F040E1F700C0000080E00E940B072D
:104790004091632361E081E00E943D0640916323E4
:1047A00060E081E00E943D068091280682FF0AC0F9
:1047B00087E0E3E4F3E2DE01529601900D928A95E0
:1047C000E1F709C087E0EAE4F3E2DE0152960190E6
:1047D0000D928A95E1F7CE0142960E94CB0A409154
:1047E000632360E08CE00E943D068091280681FFF3
:1047F0000AC087E0E3E4F3E2DE01529601900D92F5
:104800008A95E1F709C087E0EAE4F3E2DE01529617
:1048100001900D928A95E1F7CE0142960E94CB0A53
:1048200082E090E00E9456438093082181E090E06E
:104830000E9456438093E32380E090E00E94564319
:104840008093092129961FAE299728961FAE289795
:1048500026961CAE1DAE1EAE1FAE2697612C712C87
:104860004301D12C27961FAE27972C961FAE2C976D
:104870002D961FAE2D97512C412C22961FAE2297BC
:1048800021961FAE21970F2EF0E22F2EF6E03F2E3D
:10489000F02D5E0109E1A00EB11C0E94B43A2B96E6
:1048A0008EAF9FAF2B97D10118968C91847090E0BA
:1048B0002896BFAD28972B2F30E082179307C1F1C0
:1048C000F101808582FF21C0E0910C21F0910D2142
:1048D00084819581A681B78180931E2190931F21A9
:1048E000A0932021B093212180819181A281B38165
:1048F00080931E2190931F21A0932021B09321210A
:10490000F1E02896FFAF289713C0E0910C21F091B9
:104910000D2180859185A285B38580931E2190937A
:104920001F21A0932021B093212128961FAE289704
:10493000D10118968C91827090E02996BFAD29978D
:104940002B2F30E082179307C1F1F101808581FFA1
:1049500021C0E0910A21F0910B2184819581A681EB
:10496000B7818093162190931721A0931821B093BB
:10497000192180819181A281B38180931621909326
:104980001721A0931821B0931921F1E02996FFAFC8
:10499000299713C0E0910A21F0910B218085918520
:1049A000A285B3858093162190931721A093182197
:1049B000B093192129961FAE299787E391E20E94AF
:1049C000B33E80E491E20E94763F8EE291E20E9443
:1049D000763FA8EAB5E21C91E7EAF5E2808181170B
:1049E000C8F4412F50E067E675E287E893E20E9441
:1049F000EF42A7EAB5E21C9381E08093A92580915C
:104A00008723813439F0823449F48091852380955D
:104A10008093852380918623813091F4EAE6F6E243
:104A20001082412F50E067E873E28AE296E20E942A
:104A3000EF4210936B2681E080936C2610928623C0
:104A40004110B4C02196FFAD2197F13031F481E0DF
:104A5000809352241092502415C021960FAD2197B7
:104A6000011105C0109252241092502456C0219674
:104A70001FAD2197123031F481E08093522480934E
:104A8000502494C021962FAD2197233009F045C0C2
:104A9000E0911021F0911121809161249091622484
:104AA000A0916324B09164244485558566857785FB
:104AB000840F951FA61FB71F8A839B83AC83BD837A
:104AC0008091612490916224A0916324B091642428
:104AD0004089518962897389840F951FA61FB71F6A
:104AE0008E839F83A887B9878285938580932421AD
:104AF000909325211092D62381E08583168214821B
:104B00001092DB231092DC231092DD231092DE231F
:104B100031E021963FAF219749C021964FAD2197B3
:104B2000443009F043C0E0911021F09111218091AF
:104B3000612490916224A0916324B09164244485FF
:104B4000558566857785840F951FA61FB71F8A83B5
:104B50009B83AC83BD838091612490916224A0915A
:104B60006324B09164244089518962897389840FD8
:104B7000951FA61FB71F8E839F83A887B98782853D
:104B8000938580932421909325211092D62381E050
:104B90008583168214821092DB231092DC231092FC
:104BA000DD231092DE2321961FAE21975110B4C051
:104BB00022965FAD2297513031F481E080935124E9
:104BC00010924F2415C022968FAD2297811105C0F7
:104BD0001092512410924F2456C022969FAD2297D6
:104BE000923031F481E08093512480934F2494C01B
:104BF0002296AFAD2297A33009F045C0E0910E2177
:104C0000F0910F218091612490916224A0916324FE
:104C1000B09164244485558566857785840F951FFA
:104C2000A61FB71F8A879B87AC87BD8780916124A9
:104C300090916224A0916324B091642440895189A9
:104C400062897389840F951FA61FB71F8E879F8760
:104C5000A88BB98B82859385809322219093232101
:104C60001092D52381E08583168214821092D72377
:104C70001092D8231092D9231092DA23B1E0229611
:104C8000BFAF229749C02296EFAD2297E43009F0DA
:104C900043C0E0910E21F0910F2180916124909109
:104CA0006224A0916324B09164244485558566856F
:104CB0007785840F951FA61FB71F8A879B87AC87B0
:104CC000BD878091612490916224A0916324B0916A
:104CD00064244089518962897389840F951FA61FB6
:104CE000B71F8E879F87A88BB98B8285938580930A
:104CF0002221909323211092D52381E0858316826F
:104D000014821092D7231092D8231092D923109294
:104D1000DA2322961FAE22978091E2238111A4C04C
:104D200041100C94DC39511035C02D96FFAD2D97F4
:104D3000F11135C02C960FAD2C9701114AC080910E
:104D40005F24853B70F40E94BE1127961FAD279704
:104D5000180F27961FAF2797F89410925F24789426
:104D600038C00E94BE1110925F2433C084E09DECD5
:104D7000899F912D11249695969521969FAF219705
:104D8000990F990F21962FAD2197920F891B21968C
:104D90008FAF21972D963FAD2D973323D1F00E94F1
:104DA000BE112091242130912521082E000C990B51
:104DB000AC01440F551F880F991F880F991F880F4A
:104DC000991F840F951F820F931F80932421909326
:104DD00025212C964FAD2C974423D1F00E94BE1173
:104DE0002091222130912321082E000C990BAC0137
:104DF000440F551F880F991F880F991F880F991FFF
:104E0000840F951F820F931F80932221909323215B
:104E10005520E1F00E94BE1122965FAD2297850FCA
:104E20008F3F09F484E09DEC899F912D1124969584
:104E3000969522969FAF2297990F990F2296AFAD24
:104E400022979A0F891B22968FAF229780E10E94AA
:104E50000A0C882349F081E08093E223EFEDF3E22E
:104E6000108211828093E12380915624882321F0BF
:104E7000109256240E941F0D61E088E292E00E9489
:104E8000471780932C2190932D2160E080E292E0DF
:104E90000E94471780932A2190932B21D394B1E34A
:104EA000BD1510F40C94E83980912C2190912D219E
:104EB000680E791E811C911C80912A2190912B21D2
:104EC00026960CAD1DAD2EAD3FAD2697080F191FD0
:104ED000211D311D26960CAF1DAF2EAF3FAF26977B
:104EE00080915224882311F40C943D3A80915024EF
:104EF00081110C94453A8091D623811104C080E43D
:104F00008093050608C04091602424E066E080E0BC
:104F100096E00E9492104091612450916224609129
:104F20006324709164248A819B81AC81BD81481780
:104F300059076A077B0708F471C1E0911021F091CD
:104F400011218281882311F40C94313A823079F551
:104F50000C94153A8581882351F180859185809341
:104F600024219093252140916124509162246091E5
:104F700063247091642480899189A289B389840F04
:104F8000951FA61FB71F4485558566857785841BA9
:104F9000950BA60BB70B8A839B83AC83BD831582CD
:104FA00081E084838281813009F038C109C0828127
:104FB000813009F033C18481882311F40C94373A8D
:104FC00081E08093D62340916124509162246091C6
:104FD00063247091642480859185480F591F611D59
:104FE000711D4A835B836C837D830C949F3A40914F
:104FF000DB235091DC236091DD237091DE23808DD3
:10500000918DA28DB38D840F951FA61FB71F80931E
:10501000DB239093DC23A093DD23B093DE238285F2
:1050200093858093242190932521168281E08783A4
:1050300015821482F8948091612490916224A09149
:105040006324B0916424E0911021F0911121408DEE
:10505000518D628D738D840F951FA61FB71F8A8394
:105060009B83AC83BD8378940C949F3A8085918513
:1050700080932421909325214489558966897789D5
:105080008091DB239091DC23A091DD23B091DE237E
:10509000840F951FA61FB71F8093DB239093DC23FB
:1050A000A093DD23B093DE230089118922893389FF
:1050B000081B190B2A0B3B0BD901C801008D118D60
:1050C000228D338D400F511F621F731F48175907E0
:1050D0006A077B0720F5F8948091612490916224FF
:1050E000A0916324B0916424E0911021F0911121EA
:1050F0004489558966897789840F951FA61FB71F34
:105100008A839B83AC83BD837894E0911021F091D6
:10511000112181E086831582148217827FC040911D
:105120006124509162246091632470916424840FFF
:10513000951FA61FB71F8A839B83AC83BD831582EF
:1051400081E084831682178269C08581882309F4EF
:1051500065C0992309F462C08085918580932421DC
:105160009093252144855585668577854093DB237B
:105170005093DC236093DD237093DE238089918933
:10518000A289B389841B950BA60BB70B008D118DDB
:10519000228D338D4489558966897789400F511F47
:1051A000621F731F481759076A077B0718F5F894A1
:1051B0008091612490916224A0916324B091642431
:1051C000E0911021F09111214489558966897789F0
:1051D000840F951FA61FB71F8A839B83AC83BD8353
:1051E0007894E0911021F091112181E0868315825D
:1051F000148214C040916124509162246091632410
:1052000070916424840F951FA61FB71F8A839B8308
:10521000AC83BD83158281E0848316828091512402
:10522000882311F40C948B3A80914F2481110C94B3
:10523000833A8091D523811105C081E0D101159673
:105240008C9307C04091602424E060E0C1010E947B
:105250009210409161245091622460916324709176
:1052600064248A859B85AC85BD85481759076A07E4
:105270007B0708F468C1E0910E21F0910F21828133
:10528000882311F40C94743A823079F50C94583ACE
:105290008581882351F18085918580932221909387
:1052A0002321409161245091622460916324709184
:1052B000642480899189A289B389840F951FA61FD0
:1052C000B71F4485558566857785841B950BA60B8E
:1052D000B70B8A879B87AC87BD87158281E0848363
:1052E0008281813009F02FC107C08281813009F0AD
:1052F0002AC184818823A9F081E08093D52340913D
:1053000061245091622460916324709164248085AB
:105310009185480F591F611D711D4A875B876C87F6
:105320007D878681882311F40C947A3A4091D723A3
:105330005091D8236091D9237091DA23848995897B
:10534000A689B789840F951FA61FB71F8093D723FF
:105350009093D823A093D923B093DA2382859385A1
:105360008093222190932321168281E087831582E6
:105370001482F8948091612490916224A091632416
:10538000B0916424E0910E21F0910F21408D518D58
:10539000628D738D840F951FA61FB71F8A879B8709
:1053A000AC87BD877894CFC080859185809322217A
:1053B0009093232144895589668977898091D723E1
:1053C0009091D823A091D923B091DA23840F951F0F
:1053D000A61FB71F8093D7239093D823A093D923D8
:1053E000B093DA230089118922893389081B190BAC
:1053F0002A0B3B0BD901C801008D118D228D338DF5
:10540000400F511F621F731F481759076A077B0718
:1054100018F5F8948091612490916224A0916324FE
:10542000B0916424E0910E21F0910F2144895589B7
:1054300066897789840F951FA61FB71F8A879B8768
:10544000AC87BD877894E0910E21F0910F2181E027
:1054500086831582148277C0409161245091622422
:105460006091632470916424840F951FA61FB71F59
:105470008A879B87AC87BD87158281E084831682EB
:1054800062C0808591858093222190932321448559
:105490005585668577854093D7235093D8236093AD
:1054A000D9237093DA2380899189A289B389841BD7
:1054B000950BA60BB70B008D118D228D338D448972
:1054C000558966897789400F511F621F731F4817DE
:1054D00059076A077B0718F5F89480916124909129
:1054E0006224A0916324B0916424E0910E21F09194
:1054F0000F214489558966897789840F951FA61FD6
:10550000B71F8A879B87AC87BD877894E0910E216F
:10551000F0910F2181E086831582148214C040919E
:105520006124509162246091632470916424840FFB
:10553000951FA61FB71F8A879B87AC87BD871582DB
:1055400081E0848316828091E22381110C94B93624
:1055500080915324882309F48AC010925324009127
:105560005224002321F0809150248823B1F08A81B5
:105570009B81AC81BD810196A11DB11D8A839B8356
:10558000AC83BD838E819F81A885B9850196A11DBD
:10559000B11D8E839F83A887B9878091512488236A
:1055A00021F080914F248823B1F08A859B85AC85BA
:1055B000BD850196A11DB11D8A879B87AC87BD87DC
:1055C0008E859F85A889B9890196A11DB11D8E87F9
:1055D0009F87A88BB98B80915F24E090D62300230E
:1055E00021F00091502481E0082725E041E0BE0130
:1055F0006E5F7F4F81E694E20E943815E090D623DB
:1056000000915224002321F00091502481E00827CA
:1056100026E041E0BE016A5F7F4F81E694E20E948E
:105620003815E090D52300915124002321F00091FA
:105630004F2481E0082725E04CE0BE01665F7F4FE4
:1056400081E694E20E943815E090D5230091512420
:10565000002321F000914F2481E0082726E04CE050
:10566000BE01625F7F4F81E694E20E94381580910F
:105670000621882309F411C927961FAD27971F3FDC
:1056800021F424E027962FAF27978DEC27963FAD86
:105690002797389F812D112486958695982F990FED
:1056A000990F890F381B27963FAF279780910921C3
:1056B000882309F480C08230D8F04091632360E0F1
:1056C00081E00E943D06E0911021F091112183813B
:1056D0000E9426104091632360E08CE00E943D060A
:1056E000E0910E21F0910F2183810E942610A6C027
:1056F000809107218823D9F04091632360E081E005
:105700000E943D06E0911021F091112183810E94B9
:1057100026104091632360E08CE00E943D06E091FA
:105720000E21F0910F2183810E94261087C04091A5
:10573000632360E081E00E943D06D10118968C91C0
:1057400082FF0AC089E0EAEAF2E2DE0152960190A5
:105750000D928A95E1F709C089E0E3EBF2E2DE0100
:10576000529601900D928A95E1F7CE0142960E94E1
:10577000CB0A4091632360E08CE00E943D06F1017A
:10578000808581FF0AC089E0EAEAF2E2DE015296F2
:1057900001900D928A95E1F709C089E0E3EBF2E20E
:1057A000DE01529601900D928A95E1F7CE01429664
:1057B0000E94CB0A43C04091632360E081E00E94D5
:1057C0003D06D10118968C9182FF0AC089E0EAEA71
:1057D000F2E2DE01529601900D928A95E1F709C03E
:1057E00089E0E3EBF2E2DE01529601900D928A9598
:1057F000E1F7CE0142960E94CB0A4091632360E01C
:105800008CE00E943D06F101808581FF0AC089E09D
:10581000EAEAF2E2DE01529601900D928A95E1F7F2
:1058200009C089E0E3EBF2E2DE01529601900D92AD
:105830008A95E1F7CE0142960E94CB0AE0E0F9E0BA
:10584000E0A4F1A402A513A52B960EAF1FAF2B97D2
:10585000109206218091E323882309F48EC610E17B
:10586000611617E271068104910430F580E290E040
:10587000D5018D939C93C3010E946B179C013695B3
:1058800027953695279536952795A5ECB0E20E9489
:10589000CE424AE0BE01675D7F4F929582958F7040
:1058A00089279F7089270E942C43BE01675D7F4F27
:1058B000C5010E94F84218C0C3010E946B179C01E9
:1058C000369527953695279536952795A5ECB0E220
:1058D0000E94CE424AE0B501929582958F70892749
:1058E0009F7089270E942C4380E296E58DAF9EAF82
:1058F0001FAEF50101900020E9F731978CE290E0AE
:1059000080839183C3010E946B17FC019C01369533
:1059100027953695279536952795A5ECB0E20E94F8
:10592000CE42929582958F7089279F70892748EE85
:1059300053E0849F9001859F300D949F300D11247A
:105940004AE0BE01675D7F4FCF01821B930B0E942F
:105950002C43BE01675D7F4FC5010E94F842BE0126
:10596000635C7F4FC5010E94F8424091632361E070
:1059700081E00E943D06C5010E94CB0A409163234D
:1059800061E08CE00E943D0626960CAD1DAD2EAD6B
:105990003FAD2697003117422105310548F580E2D9
:1059A00090E0D5018D939C9324968EAD9FAD249766
:1059B0000E946B179C01369527953695279536954D
:1059C0002795A5ECB0E20E94CE424AE0BE01675D99
:1059D0007F4F929582958F7089279F7089270E94AB
:1059E0002C43BE01675D7F4FC5010E94F8421BC07A
:1059F00024968EAD9FAD24970E946B179C0136951F
:105A000027953695279536952795A5ECB0E20E9407
:105A1000CE424AE0B501929582958F7089279F709A
:105A200089270E942C4308EE13E048018E189F0836
:105A3000F50101900020E9F731978CE290E0808336
:105A4000918324968EAD9FAD24970E946B17FC0125
:105A50009C01369527953695279536952795A5EC83
:105A6000B0E20E94CE42929582958F7089279F70F6
:105A70008927809F9001819F300D909F300D1124C8
:105A80004AE0BE01675D7F4FCF01821B930B0E94EE
:105A90002C43BE01675D7F4FC5010E94F842BE01E5
:105AA000635C7F4FC5010E94F842C5010E94CB0A8A
:105AB0004091632362E081E00E943D06BAE08B16CC
:105AC000910420F486E292E20E94CB0AE4E68E166C
:105AD000910420F486E292E20E94CB0AF8EE8F163F
