S01B0000446F7070656C4D61676E6574727565687265722E737265634C
S11300000C94FE030C9425040C9425040C942504F0
S11300100C9425040C9425040C9425040C942504B8
S11300200C9425040C9425040C946E0B0C94250458
S11300300C9425040C9425040C9425040C94250498
S11300400C9425040C9425040C9425040C94250488
S11300500C94C20C0C9425040C94890C0C94250467
S11300600C9425040C9425040C9425040C94250468
S11300700C9425040C9425040C9425040C94250458
S11300800C9425040C9425040C9425040C94250448
S11300900C9425040C9425040C9425040C94250438
S11300A00C9425040C9425040C9425040C94250428
S11300B00C9425040C9425040C9425040C94C50B71
S11300C00C9425040C9425040C9425040C94250408
S11300D00C9425040C9425040C9425040C942504F8
S11300E00C9425040C9425040C9425040C942504E8
S11300F00C9425040C9425040C9425040C942504D8
S11301000C9425040C9425040C9425040C942504C7
S11301100C9425040C9425040C9425040C942504B7
S11301200C9425040C9425040C9425040C942504A7
S11301300C9425040C9425040C9425040C94250497
S11301400C9425040C9425040C9425040C94290D7A
S11301500C9425040C94F00C0C9425040C942504A4
S11301600C9425040C9425040C9425040C94250467
S11301700C9425040C9425040C9425040C94250457
S11301800C9425040C9425040C9425040C94250447
S11301900C9425040C9425040C9425040C94250437
S11301A00C9425040C9425040C9425040C94250427
S11301B00C9425040C9425040C9425040C94250417
S11301C00C9425040C9425040C9425040C94250407
S11301D00C9425040C9425040C9425040C942504F7
S11301E00C9425040C9425040C9425040C942504E7
S11301F00C9425040C9449430C94C943C709F4098D
S1130200F409F409F409F409F409F409F409F40902
S1130210F409F409F409F409F409F409F409F409F2
S1130220AC09F409F409F409F409F4099109F4098D
S1130230F4097609F409F409F409F4095B09F409E9
S1130240F409F409F409F409F409F409F409F409C2
S1130250F409F4094009F409F409F409F409F40966
S11302602509F409F409F409F409F4090A09F30A5B
S1130270200B200B200B200B200B200B200B200B22
S1130280200B200B200B200B200B200B200B200B12
S1130290200BD80A200B200B200B200B200BBD0AAF
S11302A0200B200BA20A200B200B200B200B870A0B
S11302B0200B200B200B200B200B200B200B200BE2
S11302C0200B200B200B6C0A200B200B200B200B87
S11302D0200B510A200B200B200B200B200B360A7D
S11302E089108E10931098109D10A210A710AC10B6
S11302F0BF10C410C910CE10D310D810DD10E210F6
S1130300221BC01EC01EC01EC01EC01EC01EC01E9A
S1130310C01EC01EC01EC01EC01EC01EC01E511B5B
S1130320C01EC01EC01EC01EC01EC01EC01EC01ED9
S1130330C01EC01EC01EC01EC01EC01EC01E8E1BFE
S1130340C01EC01EC01EC01EC01EC01EC01EC01EB9
S1130350C01EC01EC01EC01EC01EC01EC01EF01B7C
S1130360C01EC01EC01EC01EC01EC01EC01EC01E99
S1130370C01EC01EC01EC01EC01EC01EC01E731CD8
S1130380C01EC01EC01EC01EC01EC01EC01EC01E79
S1130390C01EC01EC01EC01EC01EC01EC01EF21C39
S11303A0261D561DC01EC01EC01EC01EC01EC01E5F
S11303B0C01EC01EC01EC01EC01EC01EC01E8A1D80
S11303C0BE1DEE1DC01EC01EC01EC01EC01EC01E0F
S11303D0C01EC01EC01EC01EC01EC01EC01E261EC3
S11303E05A1E8E1ED31F8E238E238E238E238E237E
S11303F08E238E238E238E238E238E238E238E2371
S11304008E2309208E238E238E238E238E238E23E8
S11304108E238E238E238E238E238E238E238E2350
S11304208E2345208E238E238E238E238E238E238C
S11304308E238E238E238E238E238E238E238E2330
S11304408E23A7208E238E238E238E238E238E230A
S11304508E238E238E238E238E238E238E238E2310
S11304608E232A218E238E238E238E238E238E2366
S11304708E238E238E238E238E238E238E238E23F0
S11304808E23A921DD210D228E238E238E238E23FC
S11304908E238E238E238E238E238E238E238E23D0
S11304A08E2341227522A5228E238E238E238E2312
S11304B08E238E238E238E238E238E238E238E23B0
S11304C08E23DD2211234523E7374D3B4D3B4D3B26
S11304D04D3B4D3B4D3B4D3B4D3B4D3B4D3B4D3BD8
S11304E04D3B4D3B4D3B4D3B8738F7386539D7394C
S11304F0493AC03AEB3A24423A4231433A42314310
S1130500484269423143C742D94236431C431E0321
S113051043004E004300200043006F006E0074004F
S113052072006F006C006C006500720000000E0326
S113053077006F006F00640079006D000000040311
S1130540090409023E00020100C03209040000014E
S113055002020100052400100104240206052406F9
S11305600001070582030800FF09040100020A00D4
S11305700000070504024000010705830240000152
S11305801201100102000040EB03042401000102E7
S1130590DC010000000000000000002F000000004B
S11305A00700070000147F147F1400242A7F2A12F6
S11305B000626408132300364955225000000503E5
S11305C0000000001C224100000041221C00001415
S11305D0083E08140008083E0808000000A0600057
S11305E000080808080800006060000000201008E7
S11305F00402003E5149453E0000427F4000004253
S113060061514946002141454B31001814127F10B5
S1130610002745454539003C4A49493000017109E4
S1130620050300364949493600064949291E000098
S1130630363600000000563600000008142241003F
S1130640001414141414000041221408000201516F
S1130650090600324959513E007C1211127C007F78
S113066049494936003E41414122007F4141221C13
S1130670007F49494941007F09090901003E414978
S1130680497A007F0808087F0000417F410000206C
S113069040413F01007F08142241007F4040404018
S11306A0007F020C027F007F0408107F003E41415E
S11306B0413E007F09090906003E4151215E007F49
S11306C0091929460046494949310001017F0101C0
S11306D0003F4040403F001F2040201F003F403863
S11306E0403F0063140814630007087008070061A2
S11306F05149454300007F41410000552A552A5580
S1130700000041417F000004020102040040404017
S11307104040000001020400002054545478007F3B
S11307204844443800384444442000384444487F12
S113073000385454541800087E0901020018A4A477
S1130740A47C007F080404780000447D400000403D
S113075080847D00007F102844000000417F400019
S1130760007C04180478007C0804047800384444AD
S1130770443800FC242424180018242418FC007C89
S11307800804040800485454542000043F44402002
S1130790003C4040207C001C2040201C003C403099
S11307A0403C004428102844001CA0A0A07C004425
S11307B064544C44000008774100000000630000CA
S11307C0000041770800000804080804003D404088
S11307D0207D003D4040403D002154545479007D2B
S11307E01211127D003944444439003D4242423DD5
S11307F0000205020000007E0149557311241FBE4A
S1130800CFEFCDBFDFE2DEBFE1E3F7E28AEA9FE2AA
S11308108193EF3FF907E1F713E2A0E0B0E2E4E9E6
S1130820F9E800E00BBF02C007900D92A039B107B0
S1130830D9F727E2A0E9B3E201C01D92A133B207C0
S1130840E1F70E949E230C94C8440C940000AC0170
S1130850E0EDF0E090819F73906890838081807FC9
S113086080838081806280839081907F9160908377
S113087080818F738083662389F0FA016150262F6B
S113088030E02F5F3F4F240F351FA0EDB0E0919172
S113089013969C931397E217F307C9F7E0EDF0E082
S11308A0818181608183818180FDFDCFE0EDF0E075
S11308B06481258136814781862F90E0A0E0B0E0F5
S11308C0B42B922B2081207F2083BC01CD01832B6C
S11308D00895292F33272230310559F0233031056B
S11308E069F02130310521F582E190E020E835E01E
S11308F028C08EE390E022E435E023C099278130BC
S1130900910551F018F0029769F017C0EEE3F5E095
S1130910849190E09F0115C0EEE2F5E0849190E0AF
S11309209F010FC0EEE0F5E0849190E09F0109C0C3
S113093080E090E020E030E004C080E090E020E03F
S113094030E0FA012083318308951F93CF93DF931E
S1130950C0E4D6E010E11E8386E00E94423C1D8381
S1130960DF91CF911F910895EF92FF921F93CF9340
S1130970DF93EC017B01142F82E00E94423CC7010B
S11309800E944C3C612FCE010E94563CDF91CF91D6
S11309901F91FF90EF900895EF92FF921F93CF93D2
S11309A0DF93EC017B01142F83E00E94423CC701DA
S11309B00E944C3C612FCE010E946C3CDF91CF9190
S11309C01F91FF90EF900895EF920F931F93CF9391
S11309D0DF939A01662349F0E12C07E040EABC0169
S11309E080EA94E00E94F13C09C0C0E4D6E010E142
S11309F01E8347E0B9010E94CC041D83DF91CF918F
S1130A001F910F91EF900895EF920F931F93CF933F
S1130A10DF93442371F040E2649F200D311D1124C3
S1130A20E12C00E240EABC0180EA94E00E94F13C3F
S1130A300FC0C0E4D6E010E11E83A901E0E26E9F7E
S1130A40400D511D1124BA0140E20E94CC041D83C3
S1130A50DF91CF911F910F91EF900895EF920F9333
S1130A601F93CF93DF93442379F0462F50E0440F34
S1130A70551F240F351FE12C02E040EABC0180EA37
S1130A8094E00E94F13C0DC0C0E4D6E010E11E8366
S1130A9070E0660F771F620F731F42E00E94CC0460
S1130AA01D83DF91CF911F910F91EF9008956F9265
S1130AB07F928F929F92AF92CF92EF920F931F9358
S1130AC0CF93DF933C014A01662361F0A12CC12C32
S1130AD0E12C07E09A0140EABC0180EA94E00E941C
S1130AE0833C12C00E94A5048FE79EE30197F1F7AF
S1130AF000C00000C0E4D6E010E11E8347E0B4016A
S1130B00C3010E94B4041D83DF91CF911F910F9103
S1130B10EF90CF90AF909F908F907F906F900895BB
S1130B208F929F92AF92CF92EF92FF920F931F9367
S1130B30CF93DF934C01162FE901442381F080E227
S1130B40689F200D311D1124A12CC12CE12C00E241
S1130B5040EAB40180EA94E00E94833C1DC00E94F4
S1130B60A504EFE7FEE33197F1F700C000000F2E74
S1130B70F0E4EF2EF6E0FF2EF02D00E1F7010683FE
S1130B80BE01F0E21F9F600D711D112440E2C401FB
S1130B900E94B404F7010583DF91CF911F910F9157
S1130BA0FF90EF90CF90AF909F908F9008958F9289
S1130BB09F92AF92CF92EF92FF920F931F93CF9396
S1130BC0DF934C01F62E8901442389F0262F30E06F
S1130BD0220F331F200F311FA12CC12CE12C02E066
S1130BE040EABC0180EA94E00E94833C19C00E9460
S1130BF0A5048FE79EE30197F1F700C00000C0E46D
S1130C00D6E06894EE24E4F8EE826F2D70E0660F6F
S1130C10771F600F711F42E0C4010E94B404ED828B
S1130C20DF91CF911F910F91FF90EF90CF90AF90F4
S1130C309F908F900895AF92CF92EF920F93CF939E
S1130C40DF9300D0CDB7DEB783E089831A82A12C6D
S1130C50CC24C394E12C02E020E430E042E8BE015D
S1130C606F5F7F4F80EA94E00E94833C0F900F9067
S1130C70DF91CF910F91EF90CF90AF900895AF9205
S1130C80CF92EF920F931F93CF93DF9300D0CDB702
S1130C90DEB711E019831A82A12CCC24C394E12C71
S1130CA002E020E430E042E8BE016F5F7F4F80EA5B
S1130CB094E00E94833C8FE39FE10197F1F700C029
S1130CC000001A8320E430E042E8BE016F5F7F4FEA
S1130CD080EA94E00E94833C0F900F90DF91CF91C3
S1130CE01F910F91EF90CF90AF900895AF92CF9254
S1130CF0EF920F93CF93DF931F92CDB7DEB7898323
S1130D00AA24A394C12CE12C01E020E030E048E7C0
S1130D10BE016F5F7F4F80EA94E00E94833C0F9096
S1130D20DF91CF910F91EF90CF90AF900895AF9254
S1130D30CF92EF92FF920F931F93CF93DF9300D044
S1130D4000D0CDB7DEB7F62E182F110F810F182F54
S1130D50110F4423C1F080EB860F898381E28A83DB
S1130D601B838FE78C83AA24A394C12CE12C04E079
S1130D7020E030E048E7BE016F5F7F4F80EA94E0F7
S1130D800E94833C38C082E0810F8F708983AA243B
S1130D90A394C12CE12C01E020E030E048E7BE013F
S1130DA06F5F7F4F80EA94E00E94833C812F90E044
S1130DB0029695958795959587959595879595959B
S1130DC087958061898320E030E048E7BE016F5F4A
S1130DD07F4F80EA94E00E94833C8F2D8F70806B5C
S1130DE0898320E030E048E7BE016F5F7F4F80EAEF
S1130DF094E00E94833C2496CDBFDEBFDF91CF9167
S1130E001F910F91FF90EF90CF90AF900895482FCE
S1130E1060E080E00E9497060895AF92CF92DF923F
S1130E20EF92FF920F931F93CF93DF9300D0CDB730
S1130E30DEB7D82E0E9407071982DD20A1F018E042
S1130E40AA24A394C12CEE24E39400E820E430E027
S1130E5048E7BE016F5F7F4F80EA94E00E94833CC5
S1130E60115071F723C0F12C80E00E94760680E1D6
S1130E700E9476068F2D8F70806B0E9476061A82F0
S1130E8014E8AA24A394C12CE12C01E020E430E06E
S1130E9048E7BE016E5F7F4F80EA94E00E94833C86
S1130EA0115079F7F39488E0F812DECF8D2D0E946B
S1130EB007070F900F90DF91CF911F910F91FF9033
S1130EC0EF90DF90CF90AF9008958EEA0E9476065F
S1130ED082E00E94760680E10E94760680E40E9409
S1130EE0760680EB0E94760681E80E94760680E80A
S1130EF00E94760681EA0E94760686EA0E947606B9
S1130F0088EA0E9476068FE30E9476068DEA0E94A4
S1130F1076068BE80E94760680E30E94760688ECCB
S1130F200E94760683ED0E94760680E00E94760693
S1130F3085ED0E94760680E80E94760689ED0E947F
S1130F4076068FE10E9476068AED0E94760682E19B
S1130F500E9476068BED0E94760680E40E94760657
S1130F608FEA0E94760680E00E940D070895AF92F2
S1130F70CF92EF920F931F93CF93DF93CDB7DEB74A
S1130F806697CDBFDEBF182F8EEA898385ED8A83ED
S1130F9080E88B8388EA8C83AA24A394C12CE12C57
S1130FA004E020E030E048E7BE016F5F7F4F80EA55
S1130FB094E00E94833C8FE38D8301E020E030E0E5
S1130FC048E7BE016B5F7F4F80EA94E00E94833C58
S1130FD083ED8E831F8280E488878DE8898704E00F
S1130FE020E030E048E7BE016A5F7F4F80EA94E08A
S1130FF00E94833C113049F577C08D83AA24A394C1
S1131000C12CE12C01E020E030E048E7BE016B5F39
S11310107F4F80EA94E00E94833C86E0E0E5F1E2C1
S1131020DE01519601900D928A95E1F706E020E0E9
S113103030E048E7BE016F5E7F4F80EA94E00E9493
S1131040833C81E00E940D079EC084E18D83AA2425
S1131050A394C12CE12C01E020E030E048E7BE017C
S11310606B5F7F4F80EA94E00E94833C80E28A8732
S11310701B8681EA8C8788EC8D8704E020E030E0D1
S113108048E7BE01665F7F4F80EA94E00E94833C9C
S11310908AED8E8782E18F8781E8888B03E020E0E8
S11310A030E048E7BE01625F7F4F80EA94E00E942F
S11310B0833C8FEC8D8301E020E030E048E7BE0103
S11310C06B5F7F4F80EA94E00E94833C89ED8D83BF
S11310D020E030E048E7BE016B5F7F4F80EA94E098
S11310E00E94833C81EF89CF80E18D83AA24A3945D
S11310F0C12CE12C01E020E030E048E7BE016B5F49
S11311007F4F80EA94E00E94833C80E28A871B86BA
S113111081EA8C8788EC8D8704E020E030E048E7A2
S1131120BE01665F7F4F80EA94E00E94833C8AEDB3
S11311308E8782E18F8781E8888B03E020E030E0AE
S113114048E7BE01625F7F4F80EA94E00E94833CDF
S11311508FE98D8301E020E030E048E7BE016B5F5A
S11311607F4F80EA94E00E94833C89ED8D8320E0E8
S113117030E048E7BE016B5F7F4F80EA94E00E9455
S1131180833C82E23ACF6696CDBFDEBFDF91CF913A
S11311901F910F91EF90CF90AF900895AF92CF929F
S11311A0EF920F93E0EEE80FE03608F40BC1803BBA
S11311B009F408C18F3909F405C18F7D8C3909F40C
S11311C001C1863909F4FEC0843809F00DC1FAC0A2
S11311D084918D933196A217B307D1F7AA24A394CF
S11311E0C12CE12C06E020E430E048E766E973E234
S11311F080EA94E00E94833CF7C08E2F90E0FC01CB
S1131200E456F109E933F10508F0EEC0E250FF4F6E
S11312100C943744ECECF7E0A6E9B3E22CE933E2B2
S113122084918D9331962A173B07D1F7AA24A3946E
S1131230C12CE12C06E020E430E048E766E973E2E3
S113124080EA94E00E94833CCFC0E4EEF7E0A6E994
S1131250B3E22CE933E284918D9331962A173B074C
S1131260D1F7AA24A394C12CE12C06E020E430E0B9
S113127048E766E973E280EA94E00E94833CB4C0E4
S1131280E0EFF7E0A6E9B3E22CE933E284918D9331
S11312903196A217B307D1F7AA24A394C12CE12C49
S11312A006E020E430E048E766E973E280EA94E08F
S11312B00E94833C99C0E8EDF7E0A6E9B3E22CE98B
S11312C033E284918D9331962A173B07D1F7AA24F0
S11312D0A394C12CE12C06E020E430E048E766E961
S11312E073E280EA94E00E94833C7EC0E6EFF7E07C
S11312F0A6E9B3E22CE933E284918D933196A217E7
S1131300B307D1F7AA24A394C12CE12C06E020E46E
S113131030E048E766E973E280EA94E00E94833CA7
S113132063C0E2EDF7E0A6E9B3E22CE933E284918D
S11313308D933196A217B307D1F7AA24A394C12C95
S1131340E12C06E020E430E048E766E973E280EA55
S113135094E00E94833C48C0EAEEF7E0A6E9B3E2D9
S11313602CE933E284918D9331962A173B07D1F708
S1131370AA24A394C12CE12C06E020E430E048E741
S113138066E973E280EA94E00E94833C2DC0EEEDAE
S1131390F7E0A6E9B3E22CE933E284918D93319628
S11313A02A173B07D1F7AA24A394C12CE12C06E009
S11313B020E430E048E766E973E280EA94E00E94C2
S11313C0833C12C0EF3508F018CFF0E0CF01880F4E
S11313D0991FE80FF91FEE0FFF1FEE56FA4FA6E90B
S11313E0B3E22CE933E2F4CE0F91EF90CF90AF90BB
S11313F00895AF92CF92EF920F93E0EEE80FE036AC
S113140008F40CC1803B09F409C18F3909F406C101
S11314108F7D8C3909F402C1863909F4FFC0843800
S113142009F00EC1FBC0849180958D933196A2176B
S1131430B307C9F7AA24A394C12CE12C06E020E445
S113144030E048E760E973E280EA94E00E94833C7C
S1131450F7C08E2F90E0FC01E456F109E933F10561
S113146008F0EEC0E95CFE4F0C943744ECECF7E076
S1131470A0E9B3E226E933E284918D9331962A17E9
S11314803B07D1F7AA24A394C12CE12C06E020E465
S113149030E048E760E973E280EA94E00E94833C2C
S11314A0CFC0E4EEF7E0A0E9B3E226E933E28491A9
S11314B08D9331962A173B07D1F7AA24A394C12C04
S11314C0E12C06E020E430E048E760E973E280EADA
S11314D094E00E94833CB4C0E0EFF7E0A0E9B3E2FB
S11314E026E933E284918D933196A217B307D1F79D
S11314F0AA24A394C12CE12C06E020E430E048E7C0
S113150060E973E280EA94E00E94833C99C0E8EDCC
S1131510F7E0A0E9B3E226E933E284918D933196B2
S11315202A173B07D1F7AA24A394C12CE12C06E087
S113153020E430E048E760E973E280EA94E00E9446
S1131540833C7EC0E6EFF7E0A0E9B3E226E933E2AC
S113155084918D933196A217B307D1F7AA24A3944B
S1131560C12CE12C06E020E430E048E760E973E2B6
S113157080EA94E00E94833C63C0E2EDF7E0A0E9D6
S1131580B3E226E933E284918D933196A217B3072F
S1131590D1F7AA24A394C12CE12C06E020E430E086
S11315A048E760E973E280EA94E00E94833C48C023
S11315B0EAEEF7E0A0E9B3E226E933E284918D9301
S11315C031962A173B07D1F7AA24A394C12CE12C06
S11315D006E020E430E048E760E973E280EA94E062
S11315E00E94833C2DC0EEEDF7E0A0E9B3E226E9CA
S11315F033E284918D9331962A173B07D1F7AA24BD
S1131600A394C12CE12C06E020E430E048E760E933
S113161073E280EA94E00E94833C12C0EF3508F044
S113162018CFF0E0CF01880F991FE80FF91FEE0FD4
S1131630FF1FEE56FA4FA0E9B3E226E933E2F3CEF8
S11316400F91EF90CF90AF900895CF93DF93EC017B
S11316508881882331F021960E94CE0889918111D6
S1131660FBCFDF91CF910895CF93DF93EC01888175
S1131670882331F021960E94F90989918111FBCFC9
S1131680DF91CF910895DF92EF92FF920F931F9312
S1131690CF93DF93FC0180818823C1F0D42ED62F11
S11316A08F010F5F1F4FC0E0CD1730F0DC1620F024
S11316B078010E94F90903C078010E94CE08CF5F27
S11316C0F70180810F5F1F4F8111EECFDF91CF9122
S11316D01F910F91FF90EF90DF9008951F920F924A
S11316E00FB60F9211242F938F939F93AF93BF93B1
S11316F08091A2248F5F8093A2248091A22487707A
S1131700B9F58091A1248E3F28F48091A1248F5FA4
S11317108093A1249091A2248DEC989F812D112473
S113172086958695282F220F220F820F98130AC0C0
S113173080910721882319F01092072103C081E0CA
S1131740809307218091A3249091A424A091A5249F
S1131750B091A6240196A11DB11D8093A32490935A
S1131760A424A093A524B093A62481E08093952477
S113177081E080939824BF91AF919F918F912F9195
S11317800F900FBE0F901F9018951F920F920FB6D7
S11317900F9211242F933F938F939F9380919F23B4
S11317A08F5F80939F238A3008F44CC09091080681
S11317B0209190249095392F3227209103212323BF
S11317C0922F90959093032120910221232329277E
S11317D0209302219323922320919024292720935C
S11317E090243091902420918F249323922B9093D2
S11317F08F249091902494FD04C091E390939E23B0
S113180012C090919E23915019F090939E230BC087
S113181094E190939E239091902420918E24907132
S1131820922B90938E249DEC899F912D1124969553
S113183096959695990F292F220F220F920F891BA7
S113184080939F238091080682FF02C093E001C029
S113185090E08091080683FF02C081E09827809180
S11318609624891B80FF09C0909396249091972415
S113187082709150890F809397249F918F913F910B
S11318802F910F900FBE0F901F901895F894909180
S11318908F24892390918F24982790938F24789470
S11318A00895F89490918E24892390918E249827FA
S11318B090938E2478940895F89490919024909520
S11318C089230E94460C08950E94510C0E94460CE4
S11318D00895FC01A0E8B6E088E250968C935097F6
S11318E051968C9381E0828393E2958398E091836F
S11318F084830895FB01208130E0220F331F820F7F
S1131900931FDC014D935C9380818F5F8F70808384
S113191008951F920F920FB60F9211240BB60F92D7
S11319202F933F934F935F936F937F938F939F93E3
S1131930AF93BF93EF93FF932091680830916908A8
S113194040E050E060EC71EE84EE90E00E94F643DB
S1131950A9016FEC73E280ED93E20E947A0CFF918F
S1131960EF91BF91AF919F918F917F916F915F9113
S11319704F913F912F910F900BBE0F900FBE0F9080
S11319801F9018951F920F920FB60F9211240BB649
S11319900F922F933F934F935F936F937F938F9304
S11319A09F93AF93BF93EF93FF9340E050E06FECAE
S11319B073E280ED93E20E947A0CFF91EF91BF9164
S11319C0AF919F918F917F916F915F914F913F91D3
S11319D02F910F900BBE0F900FBE0F901F90189574
S11319E01F920F920FB60F9211240BB60F922F93E2
S11319F03F934F935F936F937F938F939F93AF9393
S1131A00BF93EF93FF93209168093091690940E0F7
S1131A1050E060EC71EE84EE90E00E94F643A90180
S1131A2060EF73E281EF93E20E947A0CFF91EF91F1
S1131A30BF91AF919F918F917F916F915F914F91E2
S1131A403F912F910F900BBE0F900FBE0F901F90E0
S1131A5018951F920F920FB60F9211240BB60F9286
S1131A602F933F934F935F936F937F938F939F93A2
S1131A70AF93BF93EF93FF9340E050E060EF73E2C6
S1131A8081EF93E20E947A0CFF91EF91BF91AF91A5
S1131A909F918F917F916F915F914F913F912F9182
S1131AA00F900BBE0F900FBE0F901F901895F894D7
S1131AB0FC01AC01405E5F4F80E090E0DC012191CD
S1131AC03191820F931FA11DB11DE417F507B9F7DA
S1131AD00097A105B10549F0689413F8B695A79548
S1131AE0979587951694D1F702C080E090E078949A
S1131AF00895CF92DF92EF92FF92CF93DF93CDB709
S1131B00DEB7A897CDBFDEBF80919424882309F463
S1131B105CC180ED93E20E94570DA0E0B0E0809399
S1131B209D2490939E24A0939F24B093A0248091FD
S1131B3024219091252140919D2450919E246091CF
S1131B409F247091A024A0E0B0E0841B950BA60B09
S1131B50B70B8DA39EA3AFA3B8A7CDA0DEA0EFA023
S1131B60F8A4CC0CDD1CEE1CFF1CCC0CDD1CEE1C04
S1131B70FF1CCC0CDD1CEE1CFF1CCC0CDD1CEE1C75
S1131B80FF1CCC0CDD1CEE1CFF1C60911A21709113
S1131B901B2180911C2190911D212DE730E040E014
S1131BA050E00E94F643C701B6010E94184429A3DD
S1131BB03AA34BA35CA3809128099091290949A1D8
S1131BC05AA16BA17CA1A0E0B0E0841B950BA60BED
S1131BD0B70B8D8F9E8FAF8FB8A38D8D9E8DAF8DDC
S1131BE0B8A1BB2324F41D8E1E8E1F8E18A28D8DCA
S1131BF09E8DAF8DB8A181329340A105B10544F00B
S1131C0080E293E0A0E0B0E08D8F9E8FAF8FB8A309
S1131C108D8D9E8DAF8DB8A180932809909329094D
S1131C208D8D9E8DAF8DB8A181159340A105B10511
S1131C30E4F08DA19EA1AFA1B8A58C399F4FAF4F01
S1131C40BF4F54F48091282190912921409780938B
S1131C5028219093292109C080912821909129213C
S1131C60029780932821909329218D8D9E8DAF8D8D
S1131C70B8A18A3F9105A105B105E4F48DA19EA107
S1131C80AFA1B8A585369105A105B10554F08091A1
S1131C9028219091292140968093282190932921ED
S1131CA009C08091282190912921029680932821AE
S1131CB0909329218091282190912921813090416C
S1131CC030F080E090E18093282190932921809145
S1131CD0282190912921853A954030F485EA95E0B0
S1131CE08093282190932921809128219091292162
S1131CF020912C2130912D21A0E0B0E0821B930B88
S1131D00A109B1098DA39EA3AFA3B8A7CDA0DEA05E
S1131D10EFA0F8A4CC0CDD1CEE1CFF1CCC0CDD1CCD
S1131D20EE1CFF1CCC0CDD1CEE1CFF1CCC0CDD1CC3
S1131D30EE1CFF1CCC0CDD1CEE1CFF1C60911E2154
S1131D4070911F2180912021909121212DE730E075
S1131D5040E050E00E94F643C701B6010E941844D7
S1131D60298F3A8F4B8F5C8F20912A0830912B0852
S1131D70898D9A8DAB8DBC8D820F931FA11DB11DD2
S1131D808D8F9E8FAF8FB8A38D8D9E8DAF8DB8A193
S1131D9081159240A105B1050CF090C18D8D9E8DE9
S1131DA0AF8DB8A1181619061A061B060CF47DC1CE
S1131DB085C110922A0810922B080FC08FEF91E072
S1131DC080932A0890932B0808C010922809109237
S1131DD0290910922A0810922B08809193248823B1
S1131DE009F45AC181EF93E20E94570DA0E0B0E0DC
S1131DF08093992490939A24A0939B24B0939C2439
S1131E0080912221909123214091992450919A24E8
S1131E1060919B2470919C24A0E0B0E0841B950BFE
S1131E20A60BB70B8D8B9E8BAF8BB88FCD88DE88BE
S1131E30EF88F88CCC0CDD1CEE1CFF1CCC0CDD1CDC
S1131E40EE1CFF1CCC0CDD1CEE1CFF1CCC0CDD1CA2
S1131E50EE1CFF1CCC0CDD1CEE1CFF1C609112213F
S1131E607091132180911421909115212DE730E078
S1131E7040E050E00E94F643C701B6010E941844B6
S1131E80298B3A8B4B8B5C8B80912A0990912B097F
S1131E9049895A896B897C89A0E0B0E0841B950B41
S1131EA0A60BB70B8D879E87AF87B88B8D859E85D4
S1131EB0AF85B889BB2324F41D861E861F86188A25
S1131EC08D859E85AF85B88981329340A105B10582
S1131ED044F080E293E0A0E0B0E08D879E87AF8776
S1131EE0B88B8D859E85AF85B88980932A09909398
S1131EF02B098D859E85AF85B88981159340A105F1
S1131F00B105E4F08D899E89AF89B88D8C399F4FD6
S1131F10AF4FBF4F54F480912621909127214097D1
S1131F20809326219093272109C0809126219091A6
S1131F302721029780932621909327218D859E85C2
S1131F40AF85B8898A3F9105A105B105E4F48D896F
S1131F509E89AF89B88D85369105A105B10554F0E8
S1131F608091262190912721409680932621909359
S1131F70272109C0809126219091272102968093E0
S1131F802621909327218091262190912721813029
S1131F90904130F080E090E18093262190932721B6
S1131FA08091262190912721853A954030F485EA45
S1131FB095E080932621909327218091262190916A
S1131FC0272120912A2130912B21A0E0B0E0821B0F
S1131FD0930BA109B10989879A87AB87BC87C98408
S1131FE0DA84EB84FC84CC0CDD1CEE1CFF1CCC0CD2
S1131FF0DD1CEE1CFF1CCC0CDD1CEE1CFF1CCC0CF1
S1132000DD1CEE1CFF1CCC0CDD1CEE1CFF1C6091C7
S113201016217091172180911821909119212DE793
S113202030E040E050E00E94F643C701B6010E9450
S113203018442D833E834F8358872091280830917C
S113204029088D819E81AF81B885820F931FA11DC0
S1132050B11D89839A83AB83BC8389819A81AB81C7
S1132060BC8181159240A105B105CCF589819A8185
S1132070AB81BC81181619061A061B063CF12FC049
S1132080109228081092290831C08FEF91E08093B4
S11320902808909329082AC010922A0910922B0923
S11320A0109228081092290821C08D8D9E8DAF8D25
S11320B0B8A180932A0890932B088FCE898D9A8D8E
S11320C0AB8DBC8DBB230CF079CE73CE89819A8104
S11320D0AB81BC81809328089093290807C08D8127
S11320E09E81AF81B885BB2384F6CACFA896CDBFA5
S11320F0DEBFDF91CF91FF90EF90DF90CF900895F6
S113210090E08830910568F5FC01E059FE4F0C948D
S1132110374486E591E20E94250B08958EE591E20D
S11321200E94250B089586E691E20E94250B0895EE
S11321308EE691E20E94250B089586E791E20E94C3
S1132140250B08958EE791E20E94250B089586E8F9
S113215091E20E94250B08958EE891E20E94250BDE
S1132160089586E991E20E94250B089590E0883055
S1132170910568F5FC01E858FE4F0C94374486E558
S113218091E20E94340B08958EE591E20E94340B93
S1132190089586E691E20E94340B08958EE691E25A
S11321A00E94340B089586E791E20E94340B08954F
S11321B08EE791E20E94340B089586E891E20E9432
S11321C0340B08958EE891E20E94340B089586E959
S11321D091E20E94340B0895CF93DF9300D0CDB7E2
S11321E0DEB71982DC011496EC91F0E0062E02C0F1
S11321F0F595E7950A94E2F7E0FF02C031E03983F0
S11322001A82242311F021E02A8339812A8132178A
S113221049F021E030E002C0220F331F6A95E2F753
S1132220FC0127830F900F90DF91CF9108950F93B6
S11322301F93CF93DF93FA0120812223E1F1EB0175
S11322408C0110828091A1230E940D074091A1234B
S113225060E081E00E9497068EE991E20E94250BDE
S11322604091A12361E081E00E94970683EA91E214
S11322700E94250B0A30110520F48AE592E20E949F
S1132280250B4AE0BE01C8010E949E44CE010E9473
S1132290250B8EEA91E20E94250B4091A12362E076
S11322A081E00E94970681EB91E20E94250B89EB65
S11322B091E20E94250BDF91CF911F910F91089518
S11322C0E0E5F0E082E2828380818860808381811E
S11322D083FFFDCFA0E0B4E08FE790E01A968D93E2
S11322E09C931B97E0E4F0E083E0838391E09C936C
S11322F08383E0E0F4E0818180FFFDCF83E080937D
S113230002040895CF93DF9382E08093CA01ECE145
S1132310F0E0E4911092CA01C0E5D0E084E08E833D
S1132320A0E6B0E01396EC9313978BE115968C938B
S1132330159787EB16968C93169781E08C9388ED0E
S113234084BF83E08883E0E5F0E0818181FFFDCFF5
S1132350E0E5F0E080E1858388ED84BF83E180835C
S1132360818184FFFDCF81E08093680088ED84BF84
S113237084E080934000DF91CF910895CF93DF9361
S1132380C0E8D1E08AE68883A0E6B6E052968C9154
S11323905297816052968C935297E0E4F8E088EA71
S11323A0838330E1318325E0208383E08683878340
S11323B09BE69D8353969C915397916053969C936F
S11323C0E0E4F9E09DEA9383318320838683878365
S11323D0E0E0F8E093E3918381E080832FEF31E044
S11323E026A337A3E0E0F9E08083918328EE33E06D
S11323F026A337A3E0E0FAE020E030E126A337A3E8
S1132400868384E08083DF91CF91089580910806CC
S113241082FF02C083E001C080E09091080693FF30
S113242002C091E0892780939624109297240895FE
S1132430E0910821F09109218281823059F08430A1
S113244099F08130E1F4F8948091972410929724C4
S113245078940895F89480919724982F917090938C
S11324609724789485950895F89480919724982FCB
S11324709370909397247894859585950895F8940E
S113248080919724982F93709093972478948595AE
S113249085950895AF92BF92CF92DF92EF92FF920B
S11324A00F931F93CF93DF93EC015B017A016901D2
S11324B0F9018081882309F448C010828091A12306
S11324C00E940D074091A12360E081E00E949706DD
S11324D08FEB91E20E94250B4091A12361E081E002
S11324E00E9497068DEC91E20E94250B8A814AE0B6
S11324F0B70190E00E949E44C7010E94250B4091C1
S1132500A12362E081E00E94970687ED91E20E9498
S1132510250B88814AE0B70190E00E949E44C701E0
S11325200E94250B4091A12363E081E00E9497065D
S113253084EE91E20E94250B89814AE0B70190E084
S11325400E949E44C7010E94250B80911B2488236E
S113255009F49CC0803291F1803309F454C0803175
S113256009F085C00E941812882341F08A818430C2
S113257018F4880F8A8302C081E08A834091A123E2
S113258061E089E00E9497068A814AE0B70190E001
S11325900E949E44C7010E94340B80E10E945C0C9F
S11325A0882309F473C081E0F6018083F5018083F8
S11325B082E0F801808310921B2468C00E941812E4
S11325C09881890F88834091A12362E08CE00E9466
S11325D0970688814AE0B70190E00E949E44C701B3
S11325E00E94340B80E10E945C0C882309F44EC0E5
S11325F081E0F6018083F501808382E0F801808325
S113260010921B2443C00E9418129981890F8B3F9A
S113261010F4898302C082E0898399818BEA989FB0
S1132620812D11248695282F220F820F981B9983C0
S11326304091A12363E08DE00E94970689814AE0DE
S1132640B70190E00E949E44C7010E94340B80E1D0
S11326500E945C0C8823D1F081E0F6018083F501AF
S1132660808382E0F801808310921B240FC080E1F4
S11326700E945C0C882351F081E0F6018083F5010F
S1132680808382E0F801808310921B24DF91CF9134
S11326901F910F91FF90EF90DF90CF90BF90AF907C
S11326A008954F925F926F927F929F92AF92BF92E2
S11326B0CF92DF92EF92FF920F931F93CF93DF930A
S11326C0EC01962E5A016901F8018081882309F4EE
S11326D026C110828091A1230E940D074091A1235D
S11326E060E081E00E949706992029F082EF91E250
S11326F00E94250B04C086E092E20E94250B4091C3
S1132700A12361E081E00E9497068BE192E20E949E
S1132710250B8C819D81AE81BF8180349244AF4072
S1132720B10520F48AE592E20E94250B8C819D81FB
S1132730AE81BF8180319742A105B10520F48AE5BD
S113274092E20E94250B8C819D81AE81BF81883EDF
S11327509340A105B10520F48AE592E20E94250B7D
S11327606C817D818E819F8124E630E040E050E0E1
S11327700E94F643DA01C9014AE0B6010E949E4470
S1132780C6010E94250B4091A12362E081E00E94D2
S1132790970688E292E20E94250B88819981AA819A
S11327A0BB8180349244AF40B10520F48AE592E2C3
S11327B00E94250B88819981AA81BB81803A964821
S11327C0A140B10520F48AE592E20E94250B88819C
S11327D09981AA81BB8180319742A105B10520F47A
S11327E08AE592E20E94250B688179818A819B8126
S11327F028EE33E040E050E00E94F643DA01C901DC
S11328004AE0B6010E949E44C6010E94250B4091F5
S1132810A12363E081E00E94970687E392E20E948D
S1132820250B8C859D85AE85BF8580349244AF4051
S1132830B10520F48AE592E20E94250B8C859D85E2
S1132840AE85BF8580319742A105B10520F48AE5A4
S113285092E20E94250B8C859D85AE85BF85883EBE
S11328609340A105B10520F48AE592E20E94250B6C
S11328706C857D858E859F8524E630E040E050E0C0
S11328800E94F643DA01C9014AE0B6010E949E445F
S1132890C6010E94250B4091A12364E081E00E94BF
S11328A0970684E492E20E94250B88859985AA857F
S11328B0BB8580349244AF40B10520F48AE592E2AE
S11328C00E94250B88859985AA85BB85803A964800
S11328D0A140B10520F48AE592E20E94250B888587
S11328E09985AA85BB8580319742A105B10520F45D
S11328F08AE592E20E94250B688579858A859B8505
S113290028EE33E040E050E00E94F643DA01C901CA
S11329104AE0B6010E949E44C6010E94250B8091A4
S11329201B24882309F4BCC1803209F473C018F451
S1132930803141F0A6C1803309F4D4C0803409F455
S113294039C19FC10E941812A82F880FBB0B24E61F
S113295030E00E944F444C805D806E807F80DC01BB
S1132960CB01840D951DA61DB71D8C839D83AE835D
S1132970BF834091A12361E08CE00E9497068C8183
S11329809D81AE81BF8180349244AF40B10520F473
S11329908AE592E20E94250B8C819D81AE81BF81E4
S11329A080319742A105B10520F48AE592E20E94A4
S11329B0250B8C819D81AE81BF81883E9340A1050A
S11329C0B10520F48AE592E20E94250B6C817D8199
S11329D08E819F8124E630E040E050E00E94F6437F
S11329E0DA01C9014AE0B6010E949E44C6010E9470
S11329F0340B80E10E945C0C882309F451C181E00E
S1132A00F8018083F501808382E0F70180831092CE
S1132A101B2446C10E941812A82F880FBB0B24E662
S1132A2030E00E944F44488059806A807B80DC01FA
S1132A30CB01840D951DA61DB71D88839983AA8398
S1132A40BB834091A12362E08EE00E9497068881B7
S1132A509981AA81BB8180349244AF40B10520F4AE
S1132A608AE592E20E94250B88819981AA81BB8123
S1132A7080319742A105B10520F48AE592E20E94D3
S1132A80250B88819981AA81BB81883E9340A10549
S1132A90B10520F48AE592E20E94250B68817981D0
S1132AA08A819B8124E630E040E050E00E94F643B6
S1132AB0DA01C9014AE0B6010E949E44C6010E949F
S1132AC0340B80E10E945C0C882309F4E9C081E0A6
S1132AD0F8018083F501808382E0F70180831092FE
S1132AE01B24DEC00E941812A82F880FBB0B24E6FB
S1132AF030E00E944F444C845D846E847F84DC010A
S1132B00CB01840D951DA61DB71D8C879D87AE87AF
S1132B10BF874091A12363E08CE00E9497068C85D7
S1132B209D85AE85BF8580349244AF40B10520F4C5
S1132B308AE592E20E94250B8C859D85AE85BF8532
S1132B4080319742A105B10520F48AE592E20E9402
S1132B50250B8C859D85AE85BF85883E9340A10558
S1132B60B10520F48AE592E20E94250B6C857D85EF
S1132B708E859F8524E630E040E050E00E94F643D5
S1132B80DA01C9014AE0B6010E949E44C6010E94CE
S1132B90340B80E10E945C0C882309F481C081E03D
S1132BA0F8018083F501808382E0F701808310922D
S1132BB01B2476C00E941812A82F880FBB0B24E692
S1132BC030E00E944F44488459846A847B84DC0149
S1132BD0CB01840D951DA61DB71D88879987AA87EB
S1132BE0BB874091A12364E08EE00E94970688850C
S1132BF09985AA85BB8580349244AF40B10520F401
S1132C008AE592E20E94250B88859985AA85BB8571
S1132C1080319742A105B10520F48AE592E20E9431
S1132C20250B88859985AA85BB85883E9340A10597
S1132C30B10520F48AE592E20E94250B6885798526
S1132C408A859B8524E630E040E050E00E94F6430C
S1132C50DA01C9014AE0B6010E949E44C6010E94FD
S1132C60340B80E10E945C0C8823D1F081E0F801F0
S1132C708083F501808382E0F701808310921B2416
S1132C800FC080E10E945C0C882351F081E0F801C0
S1132C908083F501808382E0F701808310921B24F6
S1132CA0DF91CF911F910F91FF90EF90DF90CF9024
S1132CB0BF90AF909F907F906F905F904F900895DA
S1132CC0CF92DF92EF92FF920F931F93FC01DA01F0
S1132CD0C901AB01770F660B770B0081118122814B
S1132CE03381400F511F621F731F8A019B01841798
S1132CF09507A607B7072CF040835183628373833B
S1132D000AC06A017B01C81AD90AEA0AFB0AC0820E
S1132D10D182E282F382332344F4480F591F6A1F9D
S1132D207B1F40835183628373831F910F91FF90B4
S1132D30EF90DF90CF900895AF92BF92DF92EF9221
S1132D40FF920F931F93CF93DF93CDB7DEB76597B1
S1132D50CDBFDEBF5C01F42ED22E002309F4DEC009
S1132D60FB0180819181A281B381F5014081518170
S1132D7062817381841B950BA60BB70B8F87988B8D
S1132D80A98BBA8B6F85788989899A8920E13EE07D
S1132D9040E050E00E94F6432B873C874D875E87D6
S1132DA0EE2041F01F86188A198A1A8A1B861C860F
S1132DB01D861E866B857C858D859E852AE0AE01E9
S1132DC04D5E5F4F0E947C448B859C85AD85BE859E
S1132DD00A97A105B10560F480E390E089839A83A2
S1132DE0BE016D5E7F4FCE0101960E946A4407C00A
S1132DF0BE016D5E7F4FCE0101960E947544FE01B7
S1132E00319601900020E9F731978AE390E08083BE
S1132E1091836F85788989899A8920E13EE040E031
S1132E2050E00E94F6436F87788B898B9A8B6F856D
S1132E30788989899A892CE330E040E050E00E9447
S1132E40F6432B873C874D875E876B857C858D8514
S1132E509E852AE0AE014D5E5F4F0E947C448B85C7
S1132E609C85AD85BE850A97A105B10550F4FE0188
S1132E70319601900020E9F7319780E390E0808358
S1132E809183BE016D5E7F4F8E010F5F1F4FC8019E
S1132E900E946A44F80101900020E9F731978AE31F
S1132EA090E0808391836F85788989899A892CE35E
S1132EB030E040E050E00E94F6436F87788B898BC6
S1132EC09A8B6F85788989899A892AE0AE014D5E4B
S1132ED05F4F0E947C448F859889A989BA890A9793
S1132EE0A105B10548F4F80101900020E9F73197F4
S1132EF080E390E080839183BE016D5E7F4FCE01BD
S1132F0001960E946A444091A1236D2D8F2D0E9449
S1132F109706CE0101960E94250B0AC04091A12379
S1132F20622F8F2D0E94970682E592E20E94250B64
S1132F306596CDBFDEBFDF91CF911F910F91FF90BA
S1132F40EF90DF90BF90AF900895DF92EF92FF92E1
S1132F500F931F93CF93DF93CDB7DEB76597CDBFA4
S1132F60DEBFF62EE42ED22EFC0180819181A28157
S1132F70B3818E879F87A88BB98B8E859F85A889FF
S1132F80B98981309644A540B10540F080E096E4CB
S1132F90A5E0B0E08E879F87A88BB98B6E857F856F
S1132FA08889998920E13EE040E050E00E94F643A0
S1132FB02A8B3B8B4C8B5D8B6A897B898C899D89A1
S1132FC02AE0AE01455F5F4F0E947C448A899B8959
S1132FD0AC89BD890A97A105B10560F480E390E04E
S1132FE089839A83BE01655F7F4FCE0101960E945B
S1132FF06A4407C0BE01655F7F4FCE0101960E94FF
S11330007544FE01319601900020E9F731978AE377
S113301090E0808391836E857F858889998920E1FA
S11330203EE040E050E00E94F6436E877F87888B45
S1133030998B6E857F85888999892CE330E040E0FF
S113304050E00E94F6432A8B3B8B4C8B5D8B6A8944
S11330507B898C899D892AE0AE01455F5F4F0E9480
S11330607C448A899B89AC89BD890A97A105B105ED
S113307050F4FE01319601900020E9F7319780E386
S113308090E080839183BE01655F7F4F8E010F5F67
S11330901F4FC8010E946A44F80101900020E9F71B
S11330A031978AE390E0808391836E857F85888958
S11330B099892CE330E040E050E00E94F6436E87AB
S11330C07F87888B998B6E857F85888999892AE08B
S11330D0AE01455F5F4F0E947C448E859F85A88921
S11330E0B9890A97A105B10548F4F80101900020B7
S11330F0E9F7319780E390E080839183BE01655FB7
S11331007F4FCE0101960E946A44F11005C0CE01A2
S113311001960E94250B06C04D2D6E2DCE01019601
S11331200E94430B6596CDBFDEBFDF91CF911F9107
S11331300F91FF90EF90DF900895E0E0F2E086E3D6
S1133140848783E08587118282E0828387E0848399
S113315081E080830895FC0181E08083660F660F1F
S1133160660F618380818068808383818823E9F38B
S1133170A0E0B2E016968C91169716968C938081F7
S11331808068808383818823E9F3A0E0B2E0169607
S11331908C91169716968C938481958108959C0141
S11331A0A8EEB3E00E9440446C507E4183409109F4
S11331B028EE33E040E050E00E94F643A4E1BCE393
S11331C00E945644DC01CB01072E7CE0B695A795FE
S11331D0979587957A95D1F7702D0895CF93DF93BE
S11331E0E0910821F09109211082E0910821F091E9
S11331F0092184E0828382E08183C0910821D091F7
S1133200092163E0CE010E9427046B837C838D83B4
S11332109E8348E250E06091A02380910821909120
S113322009210E945705DF91CF910895CF93DF9331
S1133230E0911021F09111218CE494E0828793872E
S113324088E592E08087918780E891E5A1E0B0E08D
S1133250808B918BA28BB38B8CE291E0A0E0B0E0E9
S1133260808F918FA28FB38F80E29CE1A0E0B0E0C9
S113327084879587A687B7871182C0911021D09142
S113328011211A8280E19EE0A0E0B0E08C8B9D8B3E
S1133290AE8BBF8B81E08D831F821C821E821B82BA
S11332A06CE1CE010E9427046C8F7D8F8E8F9F8FDF
S11332B02FE230E04091A02360E0809110219091B2
S11332C011210E949005DF91CF910895CF93DF9350
S11332D0E0910E21F0910F2180E29CE1A0E0B0E0AA
S11332E084879587A687B7878CE494E08287938741
S11332F088E592E08087918780E891E5A1E0B0E0DD
S1133300808B918BA28BB38B8CE390E0A0E0B0E038
S1133310808F918FA28FB38F1182C0910E21D09193
S11333200F211A8280E19EE0A0E0B0E08C8B9D8B9F
S1133330AE8BBF8B81E08D831C821F821E821B8219
S11333406CE1CE010E9427046C8F7D8F8E8F9F8F3E
S11333502FE430E04091A02360E080910E21909111
S11333600F210E949005DF91CF9108950F931F9331
S1133370CF93DF93EC01162F042F80EA96E8A1E0A7
S1133380B0E088839983AA83BB8388879987AA87B7
S1133390BB878C839D83AE83BF838C879D87AE87D9
S11333A0BF8760E1CE010E942704688B798B8A8BEA
S11333B09B8B20E030E0402F612FCE010E94D70587
S11333C0DF91CF911F910F910895CF93DF93EC017B
S11333D080E29CE1A0E0B0E08C879D87AE87BF8748
S11333E08CE494E08A879B8788E592E088879987B4
S11333F080E891E5A1E0B0E0888B998BAA8BBB8B28
S11334008CE390E0A0E0B0E0888F998FAA8FBB8F07
S113341019821A8280E19EE0A0E0B0E08C8B9D8B43
S1133420AE8BBF8B81E08D831C821F821E821B8228
S11334306CE1CE010E9427046C8F7D8F8E8F9F8F4D
S1133440DF91CF9108954F925F926F927F928F9206
S11334509F92AF92BF92CF92DF92EF92FF920F931F
S11334601F93CF93DF933C01EB016A012901809103
S113347001218823D9F0109201212FE630E04091F8
S1133480A023F8016081CE010E9404058C8C9D8CE0
S1133490AE8CBF8C6CE1CE010E9427048616970681
S11334A0A806B90619F0CE010E94E519F70180813A
S11334B0882309F4B6C010828091A1230E940D07CD
S11334C04091A12360E081E00E9497068CE592E29E
S11334D00E94250B8B810E9480104091A12361E002
S11334E081E00E94970689E692E20E94250BF8018A
S11334F08081843620F48AE592E20E94250BF8014B
S113350080818A3020F48AE592E20E94250BF8013A
S113351080814AE0B60190E00E949E44C6010E9468
S1133520250B4091A12362E081E00E9497068EE67C
S113353092E20E94250B8A81811104C084E792E201
S11335400E94250B8A81813021F48BE792E20E944C
S1133550250B8A81823021F485E892E20E94250BB2
S11335604091A12363E081E00E94970683E992E2FF
S11335700E94250B4AE0B601888599850E949E44E5
S1133580C6010E94250B8DE992E20E94250B409111
S1133590A12364E081E00E94970682EA92E20E94FD
S11335A0250B4AE0B6018A859B850E949E44C6018C
S11335B00E94250B8DE992E20E94250B4091A123E4
S11335C065E081E00E9497068CEA92E20E94250B56
S11335D020E040E060E0CE010C960E94A5174091E7
S11335E0A12366E081E00E94970687EB92E20E94A5
S11335F0250B20E040E060E0CE0140960E94A51734
S11336004091A12367E081E00E94970682EC92E258
S11336100E94250B20E040E060E0CE0144960E9429
S1133620A517E0911B24EE2309F4AAC38E2F90E082
S1133630FC013197E237F10508F0A2C3E058FE4FD0
S11336400C9437440E9418129B81890F87708B83D6
S11336504091A12360E081E00E9497068CE592E20C
S11336600E94250B8B810E94B61080E10E945C0CA5
S1133670882309F485C34091A12360E081E00E947E
S113368097068CE592E20E94250B8B810E948010A4
S113369082E0F301808381E0F201808310921B2495
S11336A06FC30E941812F8019081890F80834091A2
S11336B0A12361E081E00E94970689E692E20E94DC
S11336C0250BF8018081843620F48AE592E20E9479
S11336D0250BF80180818A3020F48AE592E20E9469
S11336E0250BF80180814AE0B60190E00E949E44D7
S11336F0C6010E94340B80E10E945C0C882309F40B
S11337003FC381E080930121F7018083F30180832B
S113371082E0F201808310921B2432C30E941812AB
S11337209A81890F8F3F11F08A8302C082E08A83D5
S11337309A818BEA989F812D11248695282F220F38
S1133740820F981B9A834091A12362E081E00E943A
S113375097068EE692E20E94250B8A81811104C0AD
S113376084E792E20E94340B8A81813021F48BE752
S113377092E20E94340B8A81823021F485E892E23D
S11337800E94340B80E10E945C0C882309F4F8C287
S11337904091A12362E081E00E9497068EE692E2C6
S11337A00E94250B8A81811104C084E792E20E9461
S11337B0250B8A81813021F48BE792E20E94250B4C
S11337C08A81823021F485E892E20E94250B82E00E
S11337D0F301808381E0F201808310921B24D0C224
S11337E00E941812082E000C990B9C01220F331F03
S11337F0880F991F880F991F880F991F820F931F95
S113380028853985820F931F888799874091A12342
S113381063E08AE00E949706E0911021F091112163
S1133820808591850A9720F48AE592E20E94250B0F
S1133830888599858436910520F48AE592E20E9470
S1133840250B88859985883E934020F48AE592E289
S11338500E94250B4AE0B601888599850E949E4402
S1133860C6010E94340B8DE992E20E94250B80E18F
S11338700E945C0C882309F483C24091A12363E075
S11338808AE00E949706888599850A9720F48AE53C
S113389092E20E94250B888599858436910520F44F
S11338A08AE592E20E94250B88859985883E93409B
S11338B020F48AE592E20E94250B4AE0B60188854D
S11338C099850E949E44C6010E94250B8DE992E2CF
S11338D00E94250B83E0F301808382E0F201808360
S11338E010921B244DC20E941812082E000C990B32
S11338F09C01220F331F880F991F880F991F880F6F
S1133900991F820F931F2A853B85820F931F8A87F5
S11339109B874091A12364E08AE00E9497068A85F0
S11339209B850A9720F48AE592E20E94250B8A85FA
S11339309B858436910520F48AE592E20E94250B4A
S11339408A859B85883E934020F48AE592E20E9412
S1133950250B4AE0B6018A859B850E949E44C601D8
S11339600E94340B8DE992E20E94250B80E10E94B3
S11339705C0C882309F404C24091A12364E08AE02A
S11339800E9497068A859B850A9720F48AE592E22D
S11339900E94250B8A859B858436910520F48AE54F
S11339A092E20E94250B8A859B85883E934020F4F1
S11339B08AE592E20E94250B4AE0B6018A859B853E
S11339C00E949E44C6010E94250B8DE992E20E944A
S11339D0250B84E0F301808382E0F201808310925E
S11339E01B24CEC10E9418122C9620E13EE0482FE1
S11339F04203B001439F700D112420E036E445E0FA
S1133A0050E0CE010E9460164091A12365E08BE056
S1133A100E94970621E040E061E0CE010E94A517D4
S1133A2080E10E945C0C882309F4AAC14091A1237F
S1133A3065E08BE00E94970620E040E060E0CE0164
S1133A400E94A51781E580931B249AC10E94181235
S1133A502C969CE38902B001112420E036E445E071
S1133A6050E0CE010E9460164091A12365E08BE0F6
S1133A700E94970624E043E061E0CE010E94A5176E
S1133A8080E10E945C0C882309F47AC14091A1234F
S1133A9065E08BE00E94970620E040E060E0CE0104
S1133AA00E94A51782E580931B246AC10E94181204
S1133AB02C96682F880F770B20E036E445E050E021
S1133AC0CE010E9460164091A12365E08BE00E9424
S1133AD0970627E046E061E0CE010E94A51780E149
S1133AE00E945C0C882309F44BC14091A12365E03A
S1133AF08BE00E94970620E040E060E0CE010E9447
S1133B00A51785E0F301808382E0F201808310929F
S1133B101B2436C10E941812609620E13EE0482F13
S1133B204203B001439F700D112420E036E445E0C8
S1133B3050E0CE010E9460164091A12366E08BE024
S1133B400E94970621E040E061E0CE010E94A517A3
S1133B5080E10E945C0C882309F412C14091A123E6
S1133B6066E08BE00E94970620E040E060E0CE0132
S1133B700E94A51781E680931B2402C10E9418129B
S1133B8060969CE38902B001112420E036E445E00C
S1133B9050E0CE010E9460164091A12366E08BE0C4
S1133BA00E94970624E043E061E0CE010E94A5173D
S1133BB080E10E945C0C882309F4E2C04091A123B7
S1133BC066E08BE00E94970620E040E060E0CE01D2
S1133BD00E94A51782E680931B24D2C00E9418126B
S1133BE0682F880F770B809110219091112120E08C
S1133BF036E445E050E040960E9460164091A123CF
S1133C0066E08BE00E949706609627E046E061E05C
S1133C10CE010E94A51780E10E945C0C882309F460
S1133C20AFC04091A12366E08BE00E94970620E09C
S1133C3040E060E0CE010E94A51786E0F301808396
S1133C4082E0F201808310921B249AC00E94181211
S1133C50649620E13EE0482F4203B001439F700D7B
S1133C60112420E036E445E050E0CE010E946016C5
S1133C704091A12367E08BE00E94970621E040E099
S1133C8061E0CE010E94A51780E10E945C0C8823AC
S1133C9009F476C04091A12367E08BE00E94970667
S1133CA020E040E060E0CE010E94A51781E7809308
S1133CB01B2466C00E9418129CE38902B0011124DF
S1133CC0809110219091112120E036E445E050E0EC
S1133CD044960E9460164091A12367E08BE00E9405
S1133CE09706649624E043E061E0CE010E94A517A4
S1133CF080E10E945C0C882309F442C04091A12316
S1133D0067E08BE00E94970620E040E060E0CE018F
S1133D100E94A51782E780931B2432C00E941812C8
S1133D206496682F880F770B20E036E445E050E076
S1133D30CE010E9460164091A12367E08BE00E94AF
S1133D40970627E046E061E0CE010E94A51780E1D6
S1133D500E945C0C8823A1F04091A12367E08BE0D2
S1133D600E94970620E040E060E0CE010E94A51783
S1133D7087E0F301808382E0F201808310921B24A8
S1133D80DF91CF911F910F91FF90EF90DF90CF9033
S1133D90BF90AF909F908F907F906F905F904F9067
S1133DA008954F925F926F927F928F929F92AF92FB
S1133DB0BF92CF92DF92EF92FF920F93CF93DF9354
S1133DC04C016B01EA01590180919D238823D9F0AC
S1133DD010929D232FE630E04091A02360919C2314
S1133DE0CE010E9404054C8C5D8C6E8C7F8C6CE142
S1133DF0CE010E942704461657066806790619F074
S1133E00CE010E94E519F7018081882309F4BAC024
S1133E1010828091A1230E940D074091A12360E0AC
S1133E2081E00E949706002329F08DEC92E20E9423
S1133E30250B04C085ED92E20E94250B8B810E9424
S1133E4080104091A12361E081E00E94970689E6F9
S1133E5092E20E94250B8881843620F48AE592E25E
S1133E600E94250B88818A3020F48AE592E20E9420
S1133E70250B88814AE0B60190E00E949E44C60169
S1133E800E94250B4091A12362E081E00E949706E5
S1133E908EE692E20E94250B8A81811104C084E798
S1133EA092E20E94250B8A81813059F48BE792E2D9
S1133EB00E94250B8A81813021F485E892E20E94D8
S1133EC0250B4091A12363E081E00E94970683E9DA
S1133ED092E20E94250B4AE0B601888599850E94EA
S1133EE09E44C6010E94250B8DE992E20E94250B97
S1133EF04091A12364E081E00E94970682EA92E265
S1133F000E94250B4AE0B6018A859B850E949E4447
S1133F10C6010E94250B8DE992E20E94250B409177
S1133F20A12365E081E00E9497068CEA92E20E9458
S1133F30250B20E040E060E0CE010C960E94A5171E
S1133F404091A12366E081E00E94970687EB92E20C
S1133F500E94250B20E040E060E0CE0140960E94E4
S1133F60A5174091A12367E081E00E94970682ECA7
S1133F7092E20E94250B20E040E060E0CE014496EE
S1133F800E94A517E0911B24EE2309F4C7C38E2FCA
S1133F9090E0FC013197E237F10508F0BFC3EE5021
S1133FA0FE4F0C9437440E9418129B81890F87702E
S1133FB08B834091A12360E081E00E949706002357
S1133FC071F08DEC92E20E94250B8B810E94B61059
S1133FD080E10E945C0C882309F4A0C394C385ED9E
S1133FE092E20E94250B8B810E94B61080E10E9410
S1133FF05C0C882309F492C37BC38B810E948010DC
S113400082E0F401808381E0F501808310921B2417
S113401085C30E94181290919C23890F80939C233E
S11340204091A12361E081E00E94970689E692E233
S11340300E94250B8881843620F48AE592E20E944E
S1134040250B88818A3020F48AE592E20E94250BB0
S113405080919C234AE0B60190E00E949E44C601F0
S11340600E94340B80E10E945C0C882309F456C33F
S113407081E080939D23F7018083F401808382E0B3
S1134080F501808310921B2449C30E9418129A815F
S1134090890F8F3F11F08A8302C082E08A839A815C
S11340A08BEA989F812D11248695282F220F820F49
S11340B0981B9A834091A12362E081E00E949706B5
S11340C08EE692E20E94250B8A81811104C084E766
S11340D092E20E94340B8A81813021F48BE792E2D0
S11340E00E94340B8A81823021F485E892E20E9496
S11340F0340B80E10E945C0C882309F40FC34091C7
S1134100A12362E081E00E9497068EE692E20E947B
S1134110250B8A81811104C084E792E20E94250B59
S11341208A81813021F48BE792E20E94250B8A81F7
S1134130823021F485E892E20E94250B82E0F401AA
S1134140808381E0F501808310921B24E7C20E94E2
S11341501812082E000C990B9C01220F331F880F94
S1134160991F880F991F880F991F820F931F288505
S11341703985820F931F888799874091A12363E033
S11341808AE00E949706E0911021F0911121808528
S113419091850A9720F48AE592E20E94250B88858E
S11341A099858436910520F48AE592E20E94250BD4
S11341B088859985883E934020F48AE592E20E949E
S11341C0250B4AE0B601888599850E949E44C60164
S11341D00E94340B8DE992E20E94250B80E10E943B
S11341E05C0C882309F49AC24091A12363E08AE01D
S11341F00E949706888599850A9720F48AE592E2B9
S11342000E94250B888599858436910520F48AE5DA
S113421092E20E94250B88859985883E934020F47C
S11342208AE592E20E94250B4AE0B60188859985C9
S11342300E949E44C6010E94250B8DE992E20E94D1
S1134240250B83E0F401808382E0F50180831092E2
S11342501B2464C20E941812082E000C990B9C01A6
S1134260220F331F880F991F880F991F880F991FDA
S1134270820F931F2A853B85820F931F8A879B8712
S11342804091A12364E08AE00E9497068A859B8579
S11342900A9720F48AE592E20E94250B8A859B8581
S11342A08436910520F48AE592E20E94250B8A85E2
S11342B09B85883E934020F48AE592E20E94250B78
S11342C04AE0B6018A859B850E949E44C6010E94ED
S11342D0340B8DE992E20E94250B80E10E945C0C74
S11342E0882309F41BC24091A12364E08AE00E9460
S11342F097068A859B850A9720F48AE592E20E94B4
S1134300250B8A859B858436910520F48AE592E203
S11343100E94250B8A859B85883E934020F48AE57C
S113432092E20E94250B4AE0B6018A859B850E9491
S11343309E44C6010E94250B8DE992E20E94250B42
S113434084E0F401808382E0F501808310921B24D1
S1134350E5C10E9418122C9620E13EE0482F42034A
S1134360B001439F700D112420E036E445E050E095
S1134370CE010E9460164091A12365E08BE00E946B
S1134380970621E040E061E0CE010E94A51780E19C
S11343900E945C0C882309F4C1C14091A12365E00B
S11343A08BE00E94970620E040E060E0CE010E948E
S11343B0A51781E580931B24B1C10E9418122C9685
S11343C09CE38902B001112420E036E445E050E08A
S11343D0CE010E9460164091A12365E08BE00E940B
S11343E0970624E043E061E0CE010E94A51780E136
S11343F00E945C0C882309F491C14091A12365E0DB
S11344008BE00E94970620E040E060E0CE010E942D
S1134410A51782E580931B2481C10E9418122C9653
S1134420682F880F770B20E036E445E050E0CE019A
S11344300E9460164091A12365E08BE00E949706DC
S113444027E046E061E0CE010E94A51780E10E94CA
S11344505C0C882309F462C14091A12365E08BE0E0
S11344600E94970620E040E060E0CE010E94A5177C
S113447085E0F401808382E0F501808310921B249F
S11344804DC10E941812609620E13EE0482F42037D
S1134490B001439F700D112420E036E445E050E064
S11344A0CE010E9460164091A12366E08BE00E9439
S11344B0970621E040E061E0CE010E94A51780E16B
S11344C00E945C0C882309F429C14091A12366E071
S11344D08BE00E94970620E040E060E0CE010E945D
S11344E0A51781E680931B2419C10E9418126096B7
S11344F09CE38902B001112420E036E445E050E059
S1134500CE010E9460164091A12366E08BE00E94D8
S1134510970624E043E061E0CE010E94A51780E104
S11345200E945C0C882309F4F9C04091A12366E041
S11345308BE00E94970620E040E060E0CE010E94FC
S1134540A51782E680931B24E9C00E941812682FE5
S1134550880F770B809110219091112120E036E48F
S113456045E050E040960E9460164091A12366E029
S11345708BE00E949706609627E046E061E0CE015A
S11345800E94A51780E10E945C0C882309F4C6C030
S11345904091A12366E08BE00E94970620E040E072
S11345A060E0CE010E94A51786E0F401808382E0DA
S11345B0F501808310921B24B1C00E9418126496E6
S11345C020E13EE0482F4203B001439F700D1124C7
S11345D020E036E445E050E0CE010E9460164091B0
S11345E0A12367E08BE00E94970621E040E061E0B0
S11345F0CE010E94A51780E10E945C0C882309F477
S11346008DC04091A12367E08BE00E94970620E0D3
S113461040E060E0CE010E94A51781E780931B244F
S11346207DC00E9418129CE38902B001112480917C
S113463010219091112120E036E445E050E04496A9
S11346400E9460164091A12367E08BE00E949706C8
S1134650649624E043E061E0CE010E94A51780E166
S11346600E945C0C882309F459C04091A12367E09F
S11346708BE00E94970620E040E060E0CE010E94BB
S1134680A51782E780931B2449C00E9418126496E0
S1134690682F880F770B20E036E445E050E0CE0128
S11346A00E9460164091A12367E08BE00E94970668
S11346B027E046E061E0CE010E94A51780E10E9458
S11346C05C0C882359F14091A12367E08BE00E94A0
S11346D0970620E040E060E0CE010E94A51787E045
S11346E0F401808382E0F501808310921B2416C0BC
S11346F04091A12360E081E00E94970685ED92E25B
S11347000E94250B7ACC4091A12360E081E00E94B5
S113471097068DEC92E20E94250B6FCCDF91CF912E
S11347200F91FF90EF90DF90CF90BF90AF909F904C
S11347308F907F906F905F904F900895CF93DF9309
S1134740CDB7DEB7CF54D109CDBFDEBF0F2EF0E415
S1134750AF2EF6E0BF2EF02D0F2EF3E08F2EF02DAE
S1134760D50115968C9200E016E00F2EF0EE9F2EE8
S1134770F02DF80191820F2EF0E2EF2EF6E0FF2EDD
S1134780F02DDD24D394D7011196DC92198268941C
S1134790662465F865826894CC24C6F8C5820E94B4
S11347A060116894772477F8F80175820E94083EB6
S11347B0D7011596DC920E948211F80166820E944C
S11347C0BE110E949D1880EA94E00E94690CD801F1
S11347D016967C920E940612D092EB251092EA253E
S11347E01092E9251092AE261092AD261092AC26B6
S11347F088E3F501828BE0E6F6E0818287E0D5016B
S113480011968C93D80111969C92D7011196DC9243
S1134810119788E151968C93519752968C935297A5
S1134820828B838BE0EAF0E0828187608283F801E7
S1134830C5821596DC927894E0E0F8E010A611A603
S113484012A613A6E0E0F9E010A611A612A613A67C
S113485010922821109229211092262110922721AA
S11348600E94333C60EA80EA94E00E945A3D8093BF
S1134870A02362E880EA94E00E945A3D8093A12339
S11348802FE230E04091A02360E0809110219091CC
S113489011210E9404052FE430E04091A02360E040
S11348A080910E2190910F210E94040520E030E0B8
S11348B04091A02360E080910C2190910D210E94F1
S11348C02E0520E030E04091A02361E080910A2190
S11348D090910B210E942E0548E250E06091A023A4
S11348E080910821909109210E94E40463E0809161
S11348F00821909109210E942704E0910821F09158
S1134900092103811481258136816017710782078B
S1134910930711F00E94EE186CE1809110219091A0
S113492011210E942704E0911021F0911121048D9E
S1134930158D268D378D601771078207930711F047
S11349400E9416196CE180910E2190910F210E9412
S11349502704E0910E21F0910F21048D158D268DF1
S1134960378D601771078207930711F00E9466194B
S113497060E180910C2190910D210E942704E09127
S11349800C21F0910D210089118922893389601746
S113499071078207930731F04091A02360E0CF01B3
S11349A00E94B61960E180910A2190910B210E9426
S11349B02704E0910A21F0910B21008911892289B1
S11349C03389601771078207930731F04091A02360
S11349D061E0CF010E94B61920911021309111217C
S11349E0D9011A968D919C911B97809324219093C1
S11349F02521E0910E21F0910F21828593858093EA
S1134A00222190932321C090A324D090A424E09049
S1134A10A524F090A6241C964D915D916D917C91F6
S1134A201F97D701C601840F951FA61FB71F8A833E
S1134A309B83AC83BD83C090A324D090A424E09036
S1134A40A524F090A624D90150964D915D916D91C5
S1134A507C915397D701C601840F951FA61FB71FDA
S1134A608E839F83A887B9878091A3249091A424DF
S1134A70A091A524B091A6244485558566857785A3
S1134A80840F951FA61FB71F8A879B87AC87BD8796
S1134A908091A3249091A424A091A524B091A6244C
S1134AA04089518962897389840F951FA61FB71F96
S1134AB08E879F87A88BB98B8091A123882341F08F
S1134AC00E941B060E943F0680E00E94B70712C0A6
S1134AD0BFEFE3ECF9E0B150E040F040E1F700C093
S1134AE0000080E00E9465074091A12361E081E01D
S1134AF00E9497064091A12360E081E00E949706FE
S1134B008091280682FF0AC087E0E2E8F3E2DE0132
S1134B10529601900D928A95E1F709C087E0E9E881
S1134B20F3E2DE01529601900D928A95E1F7CE01EF
S1134B3042960E94250B4091A12360E08CE00E94E4
S1134B4097068091280681FF0AC087E0E2E8F3E235
S1134B50DE01529601900D928A95E1F709C087E033
S1134B60E9E8F3E2DE01529601900D928A95E1F7AD
S1134B70CE0142960E94250B28961FAE28972796B1
S1134B801FAE279725961CAE1DAE1EAE1FAE2597F1
S1134B90612C712C4301D12C26961FAE26972B969F
S1134BA01FAE2B972C961FAE2C97512C412C21967F
S1134BB01FAE2197C12C0F2EF0E22F2EF6E03F2ED0
S1134BC0F02D5E0109E1A00EB11C0E94263C2A963C
S1134BD08EAF9FAF2A97D10118968C91847090E084
S1134BE02796BFAD27972B2F30E082179307C1F18B
S1134BF0F101808582FF21C0E0910C21F0910D210B
S1134C0084819581A681B78180931E2190931F2171
S1134C10A0932021B093212180819181A281B3812D
S1134C2080931E2190931F21A0932021B0932121D2
S1134C30F1E02796FFAF279713C0E0910C21F09184
S1134C400D2180859185A285B38580931E21909343
S1134C501F21A0932021B093212127961FAE2797CF
S1134C60D10118968C91827090E02896BFAD289758
S1134C702B2F30E082179307C1F1F101808581FF6A
S1134C8021C0E0910A21F0910B2184819581A681B4
S1134C90B7818093162190931721A0931821B09384
S1134CA0192180819181A281B381809316219093EF
S1134CB01721A0931821B0931921F1E02896FFAF92
S1134CC0289713C0E0910A21F0910B2180859185EA
S1134CD0A285B3858093162190931721A093182160
S1134CE0B093192128961FAE289787E391E20E947A
S1134CF0254080E491E20E94E8408EE291E20E9425
S1134D00E840AAEEB5E21C91E9EEF5E28081811754
S1134D1098F5412F50E069EA75E283EC93E20E9432
S1134D206144A9EEB5E21C9381E08093EB25E3ECAA
S1134D30F3E28081803101F5E0910821F0910921AD
S1134D4084E082831092AC268BE0EEEDF2E2DE0189
S1134D50999601900D928A95E1F78EE0FE01B9963D
S1134D60ACE6B6E201900D928A95E1F78EE080936D
S1134D70AD2681E08093AE264110A3C0F1E0CF12AE
S1134D8006C081E0809394241092922410C0C11034
S1134D9005C010929424109292244FC002E0C012D5
S1134DA006C081E080939424809392248AC013E007
S1134DB0C11243C0E0911021F09111218091A324EC
S1134DC09091A424A091A524B091A624448555854E
S1134DD066857785840F951FA61FB71F8A839B83DB
S1134DE0AC83BD838091A3249091A424A091A52495
S1134DF0B091A6244089518962897389840F951FD3
S1134E00A61FB71F8E839F83A887B9878285938542
S1134E1080932421909325211092122481E085838C
S1134E2016821482109217241092182410921924B6
S1134E3010921A24CC24C39444C024E0C21241C06A
S1134E40E0911021F09111218091A3249091A42448
S1134E50A091A524B091A6244485558566857785BF
S1134E60840F951FA61FB71F8A839B83AC83BD83C2
S1134E708091A3249091A424A091A524B091A62468
S1134E804089518962897389840F951FA61FB71FB2
S1134E908E839F83A887B9878285938580932421F5
S1134EA0909325211092122481E085831682148226
S1134EB010921724109218241092192410921A2474
S1134EC0C12C5110B4C021963FAD2197313031F43B
S1134ED081E0809393241092912415C021964FADC4
S1134EE02197411105C0109293241092912456C029
S1134EF021965FAD2197523031F481E08093932461
S1134F008093912494C021968FAD2197833009F02A
S1134F1045C0E0910E21F0910F218091A32490913E
S1134F20A424A091A524B091A62444855585668522
S1134F307785840F951FA61FB71F8A879B87AC8729
S1134F40BD878091A3249091A424A091A524B0911D
S1134F50A6244089518962897389840F951FA61FED
S1134F60B71F8E879F87A88BB98B82859385809383
S1134F702221909323211092112481E085831682AB
S1134F801482109213241092142410921524109257
S1134F90162491E021969FAF219749C02196AFAD89
S1134FA02197A43009F043C0E0910E21F0910F2124
S1134FB08091A3249091A424A091A524B091A62427
S1134FC04485558566857785840F951FA61FB71F71
S1134FD08A879B87AC87BD878091A3249091A42462
S1134FE0A091A524B091A62440895189628973892E
S1134FF0840F951FA61FB71F8E879F87A88BB98B19
S113500082859385809322219093232110921124E9
S113501081E0858316821482109213241092142442
S1135020109215241092162421961FAE2197809178
S11350301E2481119DC041100C94513B51102EC06F
S11350402C96BFAD2C97B1112EC02B96EFAD2B979C
S1135050E11143C08091A124853B70F40E94181291
S11350602696FFAD2697F80F2696FFAF2697F8945D
S11350701092A124789431C00E9418121092A12495
S11350802CC084E09DEC899FC12C1124C694C69445
S11350909C2D990F990FC90E8C19C82E2C960FAD03
S11350A02C970023D1F00E941812209124213091D2
S11350B02521082E000C990BAC01440F551F880FB5
S11350C0991F880F991F880F991F840F951F820FAE
S11350D0931F80932421909325212B961FAD2B970A
S11350E01123D1F00E941812209122213091232102
S11350F0082E000C990BAC01440F551F880F991F03
S1135100880F991F880F991F840F951F820F931F73
S113511080932221909323215520E1F00E941812BC
S113512021962FAD2197820F8F3F09F484E09DECE7
S1135130899F912D11249695969521969FAF21973D
S1135140990F990F21963FAD2197930F891B2196B3
S11351508FAF219780E10E94640C882349F081E09D
S113516080931E24EBE1F4E21082118280931D24CB
S113517080919824882321F0109298240E94790D1C
S113518061E088E292E00E94AB1880932C21909316
S11351902D2160E080E292E00E94AB1880932A21E6
S11351A090932B21D39441E34D1510F40C945A3B66
S11351B080912C2190912D21680E791E811C911CC7
S11351C080912A2190912B2125960CAD1DAD2EADF9
S11351D03FAD2597080F191F211D311D25960CAFD2
S11351E01DAF2EAF3FAF259780919424882311F4EF
S11351F00C94B73B8091922481110C94AF3B809125
S11352001224811104C080E48093050608C04091F3
S1135210A22424E066E080E096E00E94EC10409135
S1135220A3245091A4246091A5247091A6248A817A
S11352309B81AC81BD81481759076A077B0708F435
S113524071C1E0911021F09111218281882311F420
S11352500C94A33B823079F50C94873B8581882399
S113526051F180859185809324219093252140914B
S1135270A3245091A4246091A5247091A62480892C
S11352809189A289B389840F951FA61FB71F4485EE
S1135290558566857785841B950BA60BB70B8A838A
S11352A09B83AC83BD83158281E0848382818130BA
S11352B009F038C109C08281813009F033C1848189
S11352C0882311F40C94A93B81E08093122440912B
S11352D0A3245091A4246091A5247091A6248085D0
S11352E09185480F591F611D711D4A835B836C832F
S11352F07D830C94113C40911724509118246091A3
S1135300192470911A24808D918DA28DB38D840FF0
S1135310951FA61FB71F8093172490931824A0935A
S11353201924B0931A248285938580932421909321
S11353302521168281E0878315821482F894809156
S1135340A3249091A424A091A524B091A624E09133
S11353501021F0911121408D518D628D738D840F38
S1135360951FA61FB71F8A839B83AC83BD83789444
S11353700C94113C80859185809324219093252160
S113538044895589668977898091172490911824D6
S1135390A0911924B0911A24840F951FA61FB71F3A
S11353A08093172490931824A0931924B0931A245B
S11353B00089118922893389081B190B2A0B3B0B9D
S11353C0D901C801008D118D228D338D400F511FDD
S11353D0621F731F481759076A077B0720F5F89463
S11353E08091A3249091A424A091A524B091A624F3
S11353F0E0911021F09111214489558966897789BA
S1135400840F951FA61FB71F8A839B83AC83BD831C
S11354107894E0911021F091112181E08683158226
S1135420148217827FC04091A3245091A4246091D8
S1135430A5247091A624840F951FA61FB71F8A83E5
S11354409B83AC83BD83158281E08483168217829B
S113545069C08581882309F465C0992309F462C071
S113546080859185809324219093252144855585B9
S113547066857785409317245093182460931924E4
S113548070931A2480899189A289B389841B950B0E
S1135490A60BB70B008D118D228D338D4489558950
S11354A066897789400F511F621F731F4817590778
S11354B06A077B0718F5F8948091A3249091A4249B
S11354C0A091A524B091A624E0911021F09111217E
S11354D04489558966897789840F951FA61FB71F4C
S11354E08A839B83AC83BD837894E0911021F091EF
S11354F0112181E086831582148214C04091A32473
S11355005091A4246091A5247091A624840F951F22
S1135510A61FB71F8A839B83AC83BD83158281E05A
S11355208483168280919324882311F40C94FE3B87
S11355308091912481110C94F53B80911124811167
S113554005C081E0D10115968C9307C04091A22437
S113555024E060E0C1010E94EC104091A32450912A
S1135560A4246091A5247091A6248A859B85AC858A
S1135570BD85481759076A077B0708F468C1E0919D
S11355800E21F0910F218281882311F40C94E63BC3
S1135590823079F50C94CA3B8581882351F180854A
S11355A0918580932221909323214091A3245091AB
S11355B0A4246091A5247091A62480899189A2894C
S11355C0B389840F951FA61FB71F4485558566852B
S11355D07785841B950BA60BB70B8A879B87AC87B3
S11355E0BD87158281E084838281813009F02FC1D7
S11355F007C08281813009F02AC184818823A9F0FF
S113560081E0809311244091A3245091A4246091BB
S1135610A5247091A62480859185480F591F611D8A
S1135620711D4A875B876C877D878681882311F487
S11356300C94EC3B40911324509114246091152454
S11356407091162484899589A689B789840F951F3A
S1135650A61FB71F8093132490931424A09315249A
S1135660B0931624828593858093222190932321DD
S1135670168281E0878315821482F8948091A32492
S11356809091A424A091A524B091A624E0910E2188
S1135690F0910F21408D518D628D738D840F951F74
S11356A0A61FB71F8A879B87AC87BD877894CFC016
S11356B08085918580932221909323214489558963
S11356C0668977898091132490911424A0911524DC
S11356D0B0911624840F951FA61FB71F809313241F
S11356E090931424A0931524B0931624008911894F
S11356F022893389081B190B2A0B3B0BD901C801DA
S1135700008D118D228D338D400F511F621F731F29
S1135710481759076A077B0718F5F8948091A32462
S11357209091A424A091A524B091A624E0910E21E7
S1135730F0910F214489558966897789840F951FD3
S1135740A61FB71F8A879B87AC87BD877894E09193
S11357500E21F0910F2181E086831582148277C097
S11357604091A3245091A4246091A5247091A6246F
S1135770840F951FA61FB71F8A879B87AC87BD8799
S1135780158281E08483168262C08085918580932E
S113579022219093232144855585668577854093FE
S11357A01324509314246093152470931624808931
S11357B09189A289B389841B950BA60BB70B008D25
S11357C0118D228D338D4489558966897789400FDF
S11357D0511F621F731F481759076A077B0718F583
S11357E0F8948091A3249091A424A091A524B0912D
S11357F0A624E0910E21F0910F21448955896689F0
S11358007789840F951FA61FB71F8A879B87AC874C
S1135810BD877894E0910E21F0910F2181E0868379
S11358201582148214C04091A3245091A424609141
S1135830A5247091A624840F951FA61FB71F8A87DD
S11358409B87AC87BD87158281E084831682809113
S11358501E2481110C94D13780919524882309F456
S11358608AC01092952400919424002321F0809101
S113587092248823B1F08A819B81AC81BD810196F9
S1135880A11DB11D8A839B83AC83BD838E819F81BF
S1135890A885B9850196A11DB11D8E839F83A88714
S11358A0B98780919324882321F0809191248823BF
S11358B0B1F08A859B85AC85BD850196A11DB11D7E
S11358C08A879B87AC87BD878E859F85A889B98980
S11358D00196A11DB11D8E879F87A88BB98B8091DE
S11358E0A124E0901224002321F00091922481E06D
S11358F0082725E041E0BE016E5F7F4F83EA94E212
S11359000E949C16E090122400919424002321F01C
S11359100091922481E0082726E041E0BE016A5FFD
S11359207F4F83EA94E20E949C16E0901124009138
S11359309324002321F00091912481E0082725E09D
S11359404CE0BE01665F7F4F83EA94E20E949C169E
S1135950E090112400919324002321F000919124DC
S113596081E0082726E04CE0BE01625F7F4F83EAB6
S113597094E20E949C1680910621882309F425C98B
S113598026961FAD26971F3F21F424E026962FAFBD
S113599026978DEC26963FAD2697389F812D1124AE
S11359A086958695982F990F990F890F381B2696FF
S11359B03FAF2697E0910821F09109218181882346
S11359C009F480C08230D8F04091A12360E081E0E6
S11359D00E949706E0911021F091112183810E9489
S11359E080104091A12360E08CE00E949706E09132
S11359F00E21F0910F2183810E948010A6C0809116
S1135A0007218823D9F04091A12360E081E00E941E
S1135A109706E0911021F091112183810E9480105A
S1135A204091A12360E08CE00E949706E0910E2152
S1135A30F0910F2183810E94801087C04091A1239F
S1135A4060E081E00E949706D10118968C9182FF54
S1135A500AC089E0E9EEF2E2DE01529601900D926D
S1135A608A95E1F709C089E0E2EFF2E2DE0152969D
S1135A7001900D928A95E1F7CE0142960E94250B82
S1135A804091A12360E08CE00E949706F10180859B
S1135A9081FF0AC089E0E9EEF2E2DE01529601904C
S1135AA00D928A95E1F709C089E0E2EFF2E2DE01A6
S1135AB0529601900D928A95E1F7CE0142960E948A
S1135AC0250B43C04091A12360E081E00E9497062A
S1135AD0D10118968C9182FF0AC089E0E9EEF2E2C6
S1135AE0DE01529601900D928A95E1F709C089E092
S1135AF0E2EFF2E2DE01529601900D928A95E1F70F
S1135B00CE0142960E94250B4091A12360E08CE0D7
S1135B100E949706F101808581FF0AC089E0E9EEC1
S1135B20F2E2DE01529601900D928A95E1F709C0E6
S1135B3089E0E2EFF2E2DE01529601900D928A953D
S1135B40E1F7CE0142960E94250BE0E0F9E0E0A4E3
S1135B50F1A402A513A52A960EAF1FAF2A9710929F
S1135B600621E0910821F09109218081882309F41C
S1135B7055C610E1611617E271068104910430F5EF
S1135B8080E290E0D5018D939C93C3010E94CF18CD
S1135B909C01369527953695279536952795A5EC3E
S1135BA0B0E20E9440444AE0BE01675D7F4F929597
S1135BB082958F7089279F7089270E949E44BE0119
S1135BC0675D7F4FC5010E946A4418C0C3010E94EB
S1135BD0CF189C01369527953695279536952795A8
S1135BE0A5ECB0E20E9440444AE0B501929582954A
S1135BF08F7089279F7089270E949E4480E296E5D2
S1135C008DAF9EAF1FAEF50101900020E9F73197EB
S1135C108CE290E080839183C3010E94CF18FC0141
S1135C209C01369527953695279536952795A5ECAD
S1135C30B0E20E944044929582958F7089279F70AC
S1135C40892748EE53E0849F9001859F300D949FEF
S1135C50300D11244AE0BE01675D7F4FCF01821BE6
S1135C60930B0E949E44BE01675D7F4FC5010E9455
S1135C706A44BE01635C7F4FC5010E946A4440913F
S1135C80A12361E081E00E949706C5010E94250BD3
S1135C904091A12361E08CE00E94970625960CAD0B
S1135CA01DAD2EAD3FAD25970031174221053105BD
S1135CB048F580E290E0D5018D939C9323968EADB8
S1135CC09FAD23970E94CF189C0136952795369552
S1135CD0279536952795A5ECB0E20E9440444AE00A
S1135CE0BE01675D7F4F929582958F7089279F7063
