S01B0000446F7070656C4D61676E6574727565687265722E737265634C
S11300000C942B030C944A030C944A030C944A0357
S11300100C944A030C944A030C944A030C944A0328
S11300200C944A030C944A030C9403070C944A035B
S11300300C944A030C944A030C944A030C944A0308
S11300400C944A030C944A030C944A030C944A03F8
S11300500C9434080C944A030C94FB070C944A0344
S11300600C944A030C944A030C944A030C944A03D8
S11300700C944A030C944A030C944A030C944A03C8
S11300800C944A030C944A030C944A030C944A03B8
S11300900C944A030C944A030C944A030C944A03A8
S11300A00C944A030C944A030C944A030C944A0398
S11300B00C944A030C944A030C944A030C94370797
S11300C00C944A030C944A030C944A030C944A0378
S11300D00C944A030C944A030C944A030C944A0368
S11300E00C944A030C944A030C944A030C944A0358
S11300F00C944A030C944A030C944A030C944A0348
S11301000C944A030C944A030C944A030C944A0337
S11301100C944A030C944A030C944A030C944A0327
S11301200C944A030C944A030C944A030C944A0317
S11301300C944A030C944A030C944A030C944A0307
S11301400C944A030C944A030C944A030C949B08A1
S11301500C944A030C9462080C944A030C944A03CA
S11301600C944A030C944A030C944A030C944A03D7
S11301700C944A030C944A030C944A030C944A03C7
S11301800C944A030C944A030C944A030C944A03B7
S11301900C944A030C944A030C944A030C944A03A7
S11301A00C944A030C944A030C944A030C944A0397
S11301B00C944A030C944A030C944A030C944A0387
S11301C00C944A030C944A030C944A030C944A0377
S11301D00C944A030C944A030C944A030C944A0367
S11301E00C944A030C944A030C944A030C944A0357
S11301F00C944A030C944A030C944A037D05A70506
S1130200A705A705A705A705A705A705A705A7058A
S1130210A705A705A705A705A705A705A705A7057A
S11302206505A705A705A705A705A7054D05A70506
S1130230A7053505A705A705A705A7051D05A70556
S1130240A705A705A705A705A705A705A705A7054A
S1130250A705A7050505A705A705A705A705A705DC
S1130260ED04A705A705A705A705A705D5048C06D2
S1130270B606B606B606B606B606B606B606B6069A
S1130280B606B606B606B606B606B606B606B6068A
S1130290B6067406B606B606B606B606B6065C0616
S11302A0B606B6064406B606B606B606B6062C0666
S11302B0B606B606B606B606B606B606B606B6065A
S11302C0B606B606B6061406B606B606B606B606EC
S11302D0B606FC05B606B606B606B606B606E405C8
S11302E0540FF711F711F711F711F711F711F7116F
S11302F0F711F711F711F711F711F711F711F711BA
S1130300D30FF711F711F711F711F711F711F711CF
S1130310F711F711F711F711F711F711F711F71199
S11303204E107E10AA10F711F711F711F711F711FB
S1130330F711F711F711F711F711F711F711F71179
S1130340DA100A113611F711F711F711F711F71135
S1130350F711F711F711F711F711F711F711F71159
S11303606A119A11C9117F1EC621C621C621C62150
S1130370C621C621C621C621C621C621C621C62141
S1130380C621C621C621211FC621C621C621C621D8
S1130390C621C621C621C621C621C621C621C62121
S11303A0C621C621C621C31FFF1F3720C621C6216F
S11303B0C621C621C621C621C621C621C621C62101
S11303C0C621C621C6216F20AB20E320C621C62149
S11303D0C621C621C621C621C621C621C621C621E1
S11303E0C621C621C6211B2157218F2100000000F0
S11303F000000000002F00000000070007000014A8
S11304007F147F1400242A7F2A12006264081323B5
S113041000364955225000000503000000001C224C
S11304204100000041221C000014083E081400088A
S1130430083E0808000000A060000008080808083A
S1130440000060600000002010080402003E5149D2
S1130450453E0000427F4000004261514946002170
S113046041454B31001814127F100027454545398A
S1130470003C4A49493000017109050300364949E5
S1130480493600064949291E00003636000000009E
S113049056360000000814224100001414141414E9
S11304A00000412214080002015109060032495992
S11304B0513E007C1211127C007F49494936003EAE
S11304C041414122007F4141221C007F4949494169
S11304D0007F09090901003E4149497A007F080863
S11304E0087F0000417F4100002040413F01007F20
S11304F008142241007F40404040007F020C027FEC
S1130500007F0408107F003E4141413E007F0909FD
S11305100906003E4151215E007F09192946004623
S1130520494949310001017F0101003F4040403FFA
S1130530001F2040201F003F4038403F0063140844
S1130540146300070870080700615149454300001F
S11305507F41410000552A552A55000041417F0042
S11305600004020102040040404040400000010237
S11305700400002054545478007F48444438003820
S11305804444442000384444487F003854545418A8
S113059000087E0901020018A4A4A47C007F0804BA
S11305A004780000447D4000004080847D00007F8A
S11305B0102844000000417F4000007C04180478A7
S11305C0007C0804047800384444443800FC2424A3
S11305D024180018242418FC007C0804040800488B
S11305E05454542000043F444020003C4040207CAC
S11305F0001C2040201C003C4030403C004428109B
S11306002844001CA0A0A07C004464544C44000076
S113061008774100000000630000000041770800F3
S1130620000804080804003D4040207D003D40408F
S1130630403D002154545479007D1211127D00393B
S113064044444439003D4242423D00020502000058
S1130650007E0149557311241FBECFEFCDBFDFE2E9
S1130660DEBF11E2A0E0B0E2E2E5F7E400E00BBF98
S113067002C007900D92A035B107D9F721E2A0E599
S1130680B1E201C01D92AA3FB207E1F70E945412E1
S11306900C94A7230C940000CF92EF920F93CF9366
S11306A0DF9300D000D0CDB7DEB76055698391E207
S11306B09A83982F990F890F880F8B838FE78C83E8
S11306C0C12CE12C04E020E048E7BE016F5F7F4FBE
S11306D080EA94E00E9481222496CDBFDEBFDF91A0
S11306E0CF910F91EF90CF90089560E080E00E9449
S11306F04C030895CF92EF920F931F93CF93DF9300
S11307001F92CDB7DEB70E947503198218E0C12C81
S1130710EE24E39400E820E448E7BE016F5F7F4FD6
S113072080EA94E00E948122115089F70E947503A7
S11307300F90DF91CF911F910F91EF90CF9008957B
S1130740CF92EF920F931F93CF93DF93CDB7DEB782
S11307506697CDBFDEBF182F8EEA898385ED8A8325
S113076080E88B8388EA8C83C12CE12C04E020E0B0
S113077048E7BE016F5F7F4F80EA94E00E948122C8
S11307808FE38D8301E020E048E7BE016B5F7F4F7C
S113079080EA94E00E94812283ED8E831F8280E4AC
S11307A088878DE8898704E020E048E7BE016A5F16
S11307B07F4F80EA94E00E948122113021F56BC0C2
S11307C08D83C12CE12C01E020E048E7BE016B5F82
S11307D07F4F80EA94E00E94812286E0EBE1F0E220
S11307E0DE01519601900D928A95E1F706E020E032
S11307F048E7BE016F5E7F4F80EA94E00E94812249
S11308000E947A0390C084E18D83C12CE12C01E025
S113081020E048E7BE016B5F7F4F80EA94E00E94CE
S1130820812280E28A871B8681EA8C8788EC8D8707
S113083004E020E048E7BE01665F7F4F80EA94E071
S11308400E9481228AED8E8782E18F8781E8888BDE
S113085003E020E048E7BE01625F7F4F80EA94E056
S11308600E9481228FEC8D8301E020E048E7BE01E5
S11308706B5F7F4F80EA94E00E94812289ED8D8333
S113088020E048E7BE016B5F7F4F80EA94E00E945E
S1130890812281EF95CF80E18D83C12CE12C01E091
S11308A020E048E7BE016B5F7F4F80EA94E00E943E
S11308B0812280E28A871B8681EA8C8788EC8D8777
S11308C004E020E048E7BE01665F7F4F80EA94E0E1
S11308D00E9481228AED8E8782E18F8781E8888B4E
S11308E003E020E048E7BE01625F7F4F80EA94E0C6
S11308F00E9481228FE98D8301E020E048E7BE0158
S11309006B5F7F4F80EA94E00E94812289ED8D83A2
S113091020E048E7BE016B5F7F4F80EA94E00E94CD
S1130920812282E24DCF6696CDBFDEBFDF91CF91AB
S11309301F910F91EF90CF900895CF92EF920F9364
S1130940E0EEE80FE03608F4F0C0803B09F4EDC0B7
S11309508F3909F4EAC08F7D8C3909F4E6C08639F1
S113096009F4E3C0843809F0F2C0DFC084918D93A8
S11309703196A217B307D1F7C12CE12C06E020E48D
S113098048E766E571E280EA94E00E948122DFC0D4
S11309908E2F90E0FC01E456F109E933F10508F0EB
S11309A0D6C0E250FF4F0C942623E6E2F6E0A6E51B
S11309B0B1E22CE531E284918D9331962A173B07FD
S11309C0D1F7C12CE12C06E020E448E766E571E2AA
S11309D080EA94E00E948122BAC0EEE3F6E0A6E544
S11309E0B1E22CE531E284918D9331962A173B07CD
S11309F0D1F7C12CE12C06E020E448E766E571E27A
S1130A0080EA94E00E948122A2C0EAE4F6E0A6E52E
S1130A10B1E22CE531E284918D933196A217B307AC
S1130A20D1F7C12CE12C06E020E448E766E571E249
S1130A3080EA94E00E9481228AC0E2E3F6E0A6E51F
S1130A40B1E22CE531E284918D9331962A173B076C
S1130A50D1F7C12CE12C06E020E448E766E571E219
S1130A6080EA94E00E94812272C0E0E5F6E0A6E507
S1130A70B1E22CE531E284918D933196A217B3074C
S1130A80D1F7C12CE12C06E020E448E766E571E2E9
S1130A9080EA94E00E9481225AC0ECE2F6E0A6E5E6
S1130AA0B1E22CE531E284918D933196A217B3071C
S1130AB0D1F7C12CE12C06E020E448E766E571E2B9
S1130AC080EA94E00E94812242C0E4E4F6E0A6E5D4
S1130AD0B1E22CE531E284918D9331962A173B07DC
S1130AE0D1F7C12CE12C06E020E448E766E571E289
S1130AF080EA94E00E9481222AC0E8E3F6E0A6E5B9
S1130B00B1E22CE531E284918D9331962A173B07AB
S1130B10D1F7C12CE12C06E020E448E766E571E258
S1130B2080EA94E00E94812212C0EF3508F030CFB1
S1130B30F0E0CF01880F991FE80FF91FEE0FFF1F98
S1130B40E451FC4FA6E5B1E22CE531E20FCF0F9161
S1130B50EF90CF900895CF92EF920F93E0EEE80FCD
S1130B60E03608F4F1C0803B09F4EEC08F3909F493
S1130B70EBC08F7D8C3909F4E7C0863909F4E4C0F1
S1130B80843809F0F3C0E0C0849180958D93319648
S1130B90A217B307C9F7C12CE12C06E020E448E70B
S1130BA060E571E280EA94E00E948122DFC08E2F2A
S1130BB090E0FC01E456F109E933F10508F0D6C0F0
S1130BC0E95CFE4F0C942623E6E2F6E0A0E5B1E2F0
S1130BD026E531E284918D9331962A173B07D1F7AC
S1130BE0C12CE12C06E020E448E760E571E280EAEC
S1130BF094E00E948122BAC0EEE3F6E0A0E5B1E2FF
S1130C0026E531E284918D9331962A173B07D1F77B
S1130C10C12CE12C06E020E448E760E571E280EABB
S1130C2094E00E948122A2C0EAE4F6E0A0E5B1E2E9
S1130C3026E531E284918D933196A217B307D1F75B
S1130C40C12CE12C06E020E448E760E571E280EA8B
S1130C5094E00E9481228AC0E2E3F6E0A0E5B1E2DA
S1130C6026E531E284918D9331962A173B07D1F71B
S1130C70C12CE12C06E020E448E760E571E280EA5B
S1130C8094E00E94812272C0E0E5F6E0A0E5B1E2C2
S1130C9026E531E284918D933196A217B307D1F7FB
S1130CA0C12CE12C06E020E448E760E571E280EA2B
S1130CB094E00E9481225AC0ECE2F6E0A0E5B1E2A1
S1130CC026E531E284918D933196A217B307D1F7CB
S1130CD0C12CE12C06E020E448E760E571E280EAFB
S1130CE094E00E94812242C0E4E4F6E0A0E5B1E28F
S1130CF026E531E284918D9331962A173B07D1F78B
S1130D00C12CE12C06E020E448E760E571E280EACA
S1130D1094E00E9481222AC0E8E3F6E0A0E5B1E273
S1130D2026E531E284918D9331962A173B07D1F75A
S1130D30C12CE12C06E020E448E760E571E280EA9A
S1130D4094E00E94812212C0EF3508F030CFF0E029
S1130D50CF01880F991FE80FF91FEE0FFF1FE45111
S1130D60FC4FA0E5B1E226E531E20ECF0F91EF9002
S1130D70CF900895CF93DF93EC018881882331F0DD
S1130D8021960E949D0489918111FBCFDF91CF911F
S1130D900895CF93DF93EC018881882331F0219665
S1130DA00E94AB0589918111FBCFDF91CF9108950A
S1130DB0DF92EF92FF920F931F93CF93DF93FC0187
S1130DC080818823C1F0D42ED62F8F010F5F1F4F4F
S1130DD0C0E0CD1730F0DC1620F078010E94AB059E
S1130DE003C078010E949D04CF5FF70180810F5FEB
S1130DF01F4F8111EECFDF91CF911F910F91FF9083
S1130E00EF90DF9008951F920F920FB60F92112466
S1130E108F939F93AF93BF938091F5218F5F8093BE
S1130E20F5218091F5218770B1F48091F62190919C
S1130E30F721A091F821B091F9210196A11DB11DCE
S1130E408093F6219093F721A093F821B093F92190
S1130E5081E08093E92181E08093EC21BF91AF91FF
S1130E609F918F910F900FBE0F901F9018951F9216
S1130E700F920FB60F9211242F933F938F939F934A
S1130E8080915D218F5F80935D218A3008F44CC08E
S1130E90909108062091E4219095392F32272091D2
S1130EA002202323922F90959093022020910120D9
S1130EB02323292720930120932392232091E421A3
S1130EC029272093E4213091E4212091E3219323E5
S1130ED0922B9093E3219091E42194FD04C091E33B
S1130EE090935C2112C090915C21915019F09093E1
S1130EF05C210BC094E190935C219091E4212091BA
S1130F00E2219071922B9093E2219DEC899F912D87
S1130F101124969596959695990F292F220F220FB5
S1130F20920F891B80935D218091080682FF02C085
S1130F3093E001C090E08091080683FF02C081E045
S1130F4098278091EA21891B80FF09C09093EA21A8
S1130F509091EB2182709150890F8093EB219F91A6
S1130F608F913F912F910F900FBE0F901F90189566
S1130F70F8949091E32189239091E3219827909309
S1130F80E32178940895F8949091E2218923909133
S1130F90E22198279093E22178940895F89490910F
S1130FA0E421909589230E94B80708950E94C307FD
S1130FB00E94B8070895FC01A0E8B6E088E25096C4
S1130FC08C93509751968C9381E0828393E295831E
S1130FD098E0918384830895FB01208130E0220FFF
S1130FE0331F820F931FDC014D935C9380818F5FCD
S1130FF08F70808308951F920F920FB60F92112461
S11310000BB60F922F933F934F935F936F937F93FE
S11310108F939F93AF93BF93EF93FF9320916808AF
S11310203091690840E050E060EC71EE84EE90E0AD
S11310300E94E522A9016EE571E28FE591E20E942A
S1131040EC07FF91EF91BF91AF919F918F917F91A9
S11310506F915F914F913F912F910F900BBE0F9025
S11310600FBE0F901F9018951F920F920FB60F92FC
S113107011240BB60F922F933F934F935F936F936B
S11310807F938F939F93AF93BF93EF93FF9340E02E
S113109050E06EE571E28FE591E20E94EC07FF916A
S11310A0EF91BF91AF919F918F917F916F915F91DC
S11310B04F913F912F910F900BBE0F900FBE0F9049
S11310C01F9018951F920F920FB60F9211240BB612
S11310D00F922F933F934F935F936F937F938F93CD
S11310E09F93AF93BF93EF93FF932091680930913F
S11310F0690940E050E060EC71EE84EE90E00E94FB
S1131100E522A9016FE771E280E891E20E94EC0711
S1131110FF91EF91BF91AF919F918F917F916F91CB
S11311205F914F913F912F910F900BBE0F900FBE87
S11311300F901F9018951F920F920FB60F921124C3
S11311400BB60F922F933F934F935F936F937F93BD
S11311508F939F93AF93BF93EF93FF9340E050E03F
S11311606FE771E280E891E20E94EC07FF91EF9152
S1131170BF91AF919F918F917F916F915F914F91AB
S11311803F912F910F900BBE0F900FBE0F901F90A9
S11311901895F894FC01AC01405E5F4F80E090E04C
S11311A0DC0121913191820F931FA11DB11DE41720
S11311B0F507B9F70097A105B10549F0689413F84C
S11311C0B695A795979587951694D1F702C080E0B8
S11311D090E078940895CF92DF92EF92FF92CF93AC
S11311E0DF93CDB7DEB7A897CDBFDEBF8091E821EE
S11311F0882309F436C18FE591E20E94C908A0E072
S1131200B0E08093F1219093F221A093F321B09365
S1131210F42180911120909112204091F12150915C
S1131220F2216091F3217091F421A0E0B0E0841BDD
S1131230950BA60BB70B8DA39EA3AFA3B8A7CDA008
S1131240DEA0EFA0F8A4CC0CDD1CEE1CFF1CCC0C23
S1131250DD1CEE1CFF1CCC0CDD1CEE1CFF1CCC0C9E
S1131260DD1CEE1CFF1CCC0CDD1CEE1CFF1C609175
S11312700720709108208091092090910A202DE781
S113128030E040E050E00E94E522C701B6010E9430
S1131290072329A33AA34BA35CA380912809909127
S11312A0290949A15AA16BA17CA1A0E0B0E0841B4B
S11312B0950BA60BB70B8D8F9E8FAF8FB8A38D8D1B
S11312C09E8DAF8DB8A1BB2324F41D8E1E8E1F8E60
S11312D018A28D8D9E8DAF8DB8A181329340A1054A
S11312E0B10544F080E293E0A0E0B0E08D8F9E8FE2
S11312F0AF8FB8A38D8D9E8DAF8DB8A18093280933
S1131300909329098D8D9E8DAF8DB8A18115934041
S1131310A105B1054CF080911520909116200297FB
S113132080931520909316208D8D9E8DAF8DB8A13E
S11313308A3F9105A105B1054CF480911520909147
S113134016200296809315209093162080911520E4
S1131350909116208130904130F080E090E18093AC
S11313601520909316208091152090911620853A8F
S1131370954030F485EA95E08093152090931620EB
S113138080911520909116202091192030911A20D7
S1131390A0E0B0E0821B930BA109B1098DA39EA329
S11313A0AFA3B8A7CDA0DEA0EFA0F8A4CC0CDD1CA1
S11313B0EE1CFF1CCC0CDD1CEE1CFF1CCC0CDD1C3D
S11313C0EE1CFF1CCC0CDD1CEE1CFF1CCC0CDD1C2D
S11313D0EE1CFF1C60910B2070910C2080910D205D
S11313E090910E202DE730E040E050E00E94E5228D
S11313F0C701B6010E940723298F3A8F4B8F5C8F58
S113140020912A0830912B08898D9A8DAB8DBC8D43
S1131410820F931FA11DB11D8D8F9E8FAF8FB8A317
S11314208D8D9E8DAF8DB8A181159240A105B1051A
S11314300CF06AC18D8D9E8DAF8DB8A1181619065A
S11314401A061B060CF457C15FC110922A081092A9
S11314502B080FC08FEF91E080932A0890932B08FC
S113146008C0109228091092290910922A08109293
S11314702B088091E721882309F434C180E891E2A4
S11314800E94C908A0E0B0E08093ED219093EE2182
S1131490A093EF21B093F02180910F209091102020
S11314A04091ED215091EE216091EF217091F02156
S11314B0A0E0B0E0841B950BA60BB70B8D8B9E8B25
S11314C0AF8BB88FCD88DE88EF88F88CCC0CDD1C10
S11314D0EE1CFF1CCC0CDD1CEE1CFF1CCC0CDD1C1C
S11314E0EE1CFF1CCC0CDD1CEE1CFF1CCC0CDD1C0C
S11314F0EE1CFF1C60910720709108208091092048
S113150090910A202DE730E040E050E00E94E5226F
S1131510C701B6010E940723298B3A8B4B8B5C8B46
S113152080912A0990912B0949895A896B897C8970
S1131530A0E0B0E0841B950BA60BB70B8D879E87AC
S1131540AF87B88B8D859E85AF85B889BB2324F47E
S11315501D861E861F86188A8D859E85AF85B8894F
S113156081329340A105B10544F080E293E0A0E00C
S1131570B0E08D879E87AF87B88B8D859E85AF85BC
S1131580B88980932A0990932B098D859E85AF8510
S1131590B88981159340A105B1054CF080911320C1
S11315A090911420029780931320909314208D859A
S11315B09E85AF85B8898A3F9105A105B1054CF494
S11315C0809113209091142002968093132090937D
S11315D0142080911320909114208130904130F098
S11315E080E090E180931320909314208091132045
S11315F090911420853A954030F485EA95E08093E3
S11316001320909314208091132090911420209102
S1131610172030911820A0E0B0E0821B930BA109A1
S1131620B10989879A87AB87BC87C984DA84EB843C
S1131630FC84CC0CDD1CEE1CFF1CCC0CDD1CEE1C55
S1131640FF1CCC0CDD1CEE1CFF1CCC0CDD1CEE1CAA
S1131650FF1CCC0CDD1CEE1CFF1C60910B20709158
S11316600C2080910D2090910E202DE730E040E079
S113167050E00E94E522C701B6010E9407232D8392
S11316803E834F83588720912808309129088D8103
S11316909E81AF81B885820F931FA11DB11D8983DF
S11316A09A83AB83BC8389819A81AB81BC81811588
S11316B09240A105B10584F589819A81AB81BC81F1
S11316C0181619061A061B0674F126C0109228086B
S11316D01092290830C08FEF91E0809328089093EE
S11316E0290829C010922A0910922B09109228085F
S11316F01092290820C08D8D9E8DAF8DB8A1809346
S11317002A0890932B08B5CE898D9A8DAB8DBC8D0C
S1131710BB230CF09FCE99CE8D819E81AF81B8857D
S1131720BB23CCF6D3CF89819A81AB81BC818093D2
S1131730280890932908A896CDBFDEBFDF91CF91EA
S1131740FF90EF90DF90CF900895CF93DF9300D078
S1131750CDB7DEB71982DC011496EC91F0E0062EC9
S113176002C0F595E7950A94E2F7E0FF02C031E084
S113177039831A82242311F021E02A8339812A81B2
S1131780321749F021E030E002C0220F331F6A957E
S1131790E2F7FC0127830F900F90DF91CF9108951A
S11317A081E080935000E0E5F0E0818180FFFDCF8F
S11317B088ED84BF10924100E0E5F0E080E185838C
S11317C08083818184FFFDCF88ED84BF84E0809392
S11317D040000895E0E5F0E082E282838081886041
S11317E08083818183FFFDCFA0E0B4E08FE790E0A8
S11317F01A968D939C931B97E0E4F0E083E0838337
S113180091E09C938383E0E0F4E0818180FFFDCF4D
S113181083E0809302040895CF93DF93C0E8D1E07E
S11318208AE68883A0E6B6E052968C91529781604E
S113183052968C935297E0E4F8E088EA838330E18F
S1131840318325E0208383E0868387839BE69D8321
S113185053969C915397916053969C93E0E4F9E0DE
S11318609DEA93833183208386838783E0E0F8E0D5
S113187093E3918381E080832FEF31E026A337A3A4
S1131880E0E0F9E08083918328EE33E026A337A3D8
S1131890E0E0FAE020E030E126A337A3868384E089
S11318A08083DF91CF9108958091080682FF02C062
S11318B083E001C080E09091080693FF02C091E0AC
S11318C089278093EA211092EB210895F89480915E
S11318D0EB21982F91709093EB217894859508953E
S11318E0CF92DF92EF92FF920F931F93FC01DA01E4
S11318F0C901AB01770F660B770B0081118122813F
S11319003381400F511F621F731F8A019B0184178B
S11319109507A607B7072CF040835183628373832E
S11319200AC06A017B01C81AD90AEA0AFB0AC08202
S1131930D182E282F382332344F4480F591F6A1F91
S11319407B1F40835183628373831F910F91FF90A8
S1131950EF90DF90CF900895AF92BF92DF92EF9215
S1131960FF920F931F93CF93DF93CDB7DEB76597A5
S1131970CDBFDEBF5C01F42ED22E002309F4DCC0FF
S1131980FB0180819181A281B381F5014081518164
S113199062817381841B950BA60BB70B8F87988B81
S11319A0A98BBA8B6F85788989899A8920E13EE071
S11319B040E050E00E94E5222B873C874D875E87FC
S11319C0EE2041F01F86188A198A1A8A1B861C8603
S11319D01D861E866B857C858D859E852AE0AE01DD
S11319E04D5E5F4F0E945B238B859C85AD85BE85D4
S11319F00A97A105B10560F480E390E089839A8396
S1131A00BE016D5E7F4FCE0101960E94492307C03F
S1131A10BE016D5E7F4FCE0101960E945423FE01EC
S1131A20319601900020E9F731978AE390E08083B2
S1131A3091836F85788989899A8920E13EE040E025
S1131A4050E00E94E5226F87788B898B9A8B6F8593
S1131A50788989899A892CE330E040E050E00E943B
S1131A60E5222B873C874D875E876B857C858D853A
S1131A709E852AE0AE014D5E5F4F0E945B238B85FD
S1131A809C85AD85BE850A97A105B10550F4FE017C
S1131A90319601900020E9F7319780E390E080834C
S1131AA09183BE016D5E7F4F8E010F5F1F4FC80192
S1131AB00E944923F80101900020E9F731978AE355
S1131AC090E0808391836F85788989899A892CE352
S1131AD030E040E050E00E94E5226F87788B898BEC
S1131AE09A8B6F85788989899A892AE0AE014D5E3F
S1131AF05F4F0E945B238F859889A989BA890A97C9
S1131B00A105B10548F4F80101900020E9F73197E7
S1131B1080E390E080839183BE016D5E7F4FCE01B0
S1131B2001960E9449236D2D8F2D0E944C03CE01F6
S1131B3001960E94BA0608C0622F842F0E944C03AB
S1131B4081E290E20E94BA066596CDBFDEBFDF91C6
S1131B50CF911F910F91FF90EF90DF90BF90AF90C6
S1131B600895DF92EF92FF920F931F93CF93DF9329
S1131B70CDB7DEB76597CDBFDEBFF62EE42ED22EED
S1131B80FC0180819181A281B3818E879F87A88B7C
S1131B90B98B6E857F858889998920E13EE040E094
S1131BA050E00E94E5222A8B3B8B4C8B5D8B6A892B
S1131BB07B898C899D892AE0AE01455F5F4F0E9435
S1131BC05B238A899B89AC89BD890A97A105B105E4
S1131BD060F480E390E089839A83BE01655F7F4F60
S1131BE0CE0101960E94492307C0BE01655F7F4F65
S1131BF0CE0101960E945423FE01319601900020EB
S1131C00E9F731978AE390E0808391836E857F853D
S1131C108889998920E13EE040E050E00E94E52275
S1131C206E877F87888B998B6E857F858889998954
S1131C302CE330E040E050E00E94E5222A8B3B8B0D
S1131C404C8B5D8B6A897B898C899D892AE0AE01E6
S1131C50455F5F4F0E945B238A899B89AC89BD895C
S1131C600A97A105B10550F4FE01319601900020B8
S1131C70E9F7319780E390E080839183BE01655F4B
S1131C807F4F8E010F5F1F4FC8010E944923F80147
S1131C9001900020E9F731978AE390E080839183F3
S1131CA06E857F85888999892CE330E040E050E097
S1131CB00E94E5226E877F87888B998B6E857F854E
S1131CC0888999892AE0AE01455F5F4F0E945B23B2
S1131CD08E859F85A889B9890A97A105B10548F41D
S1131CE0F80101900020E9F7319780E390E08083C8
S1131CF09183BE01655F7F4FCE0101960E94492307
S1131D00F11005C0CE0101960E94BA0606C04D2D01
S1131D106E2DCE0101960E94D8066596CDBFDEBF1A
S1131D20DF91CF911F910F91FF90EF90DF90089575
S1131D308F929F92AF92BF92CF92DF92EF92FF92D7
S1131D400F93CF93DF934C016B01EA015901F70123
S1131D508081882309F497C010820E947A0360E08E
S1131D6081E00E944C03002329F08BE290E20E9460
S1131D70BA0604C089E390E20E94BA0661E081E0F9
S1131D800E944C0387E490E20E94BA0688814AE0EC
S1131D90B60190E00E947D23C6010E94BA0662E06B
S1131DA081E00E944C038CE490E20E94BA068A818E
S1131DB0811104C082E590E20E94BA068A818130D2
S1131DC059F489E590E20E94BA068A81813021F4AF
S1131DD083E690E20E94BA0663E081E00E944C032D
S1131DE081E790E20E94BA064AE0B6018E819F81A3
S1131DF00E947D23C6010E94BA068BE790E20E94EE
S1131E00BA0664E081E00E944C0380E890E20E94FC
S1131E10BA064AE0B601888599850E947D23C601E9
S1131E200E94BA068BE790E20E94BA0665E081E060
S1131E300E944C038AE890E20E94BA0620E040E047
S1131E4060E0CE010A960E94B10D66E081E00E9436
S1131E504C0385E990E20E94BA0620E040E060E08D
S1131E60CE010E960E94B10D67E081E00E944C0302
S1131E7080EA90E20E94BA0620E040E060E0CE01F1
S1131E8042960E94B10DE091A221EE2309F4AFC263
S1131E908E2F90E0FC01F097E334F10508F0A7C21F
S1131EA0E059FE4F0C9426230E94660C082E000C69
S1131EB0990B9C01220F331F880F991F880F991FBC
S1131EC0880F991F820F931F2E813F81820F931FCA
S1131ED08E839F8363E08AE00E944C03E091052097
S1131EE0F0910620868197810A9720F489E290E296
S1131EF00E94BA068E819F818436910520F489E27E
S1131F0090E20E94BA068E819F81883E934020F41D
S1131F1089E290E20E94BA064AE0B6018E819F816E
S1131F200E947D23C6010E94C9068BE790E20E94AD
S1131F30BA0680E10E94CE07882309F458C263E000
S1131F408AE00E944C038E819F810A9720F489E2E3
S1131F5090E20E94BA068E819F818436910520F416
S1131F6089E290E20E94BA068E819F81883E934066
S1131F7020F489E290E20E94BA064AE0B6018E811A
S1131F809F810E947D23C6010E94BA068BE790E2DE
S1131F900E94BA0683E0F401808382E0F501808325
S1131FA01092A22124C20E94660C082E000C990BE8
S1131FB09C01220F331F880F991F880F991F880FC8
S1131FC0991F820F931F28853985820F931F888755
S1131FD0998764E08AE00E944C03888599850A9772
S1131FE020F489E290E20E94BA06888599858436B5
S1131FF0910520F489E290E20E94BA0688859985C9
S1132000883E934020F489E290E20E94BA064AE0B6
S1132010B601888599850E947D23C6010E94C90660
S11320208BE790E20E94BA0680E10E94CE078823E3
S113203009F4DDC164E08AE00E944C038885998537
S11320400A9720F489E290E20E94BA06888599856D
S11320508436910520F489E290E20E94BA068885CC
S11320609985883E934020F489E290E20E94BA0662
S11320704AE0B601888599850E947D23C6010E94A5
S1132080BA068BE790E20E94BA0684E0F4018083EA
S113209082E0F50180831092A221A9C10E94660CFE
S11320A02A9620E13EE0482F4203B001439F700D81
S11320B0112420E033EA42E050E0CE010E94700C8B
S11320C065E08BE00E944C0321E040E061E0CE013A
S11320D00E94B10D80E10E94CE07882309F487C1D4
S11320E065E08BE00E944C0320E040E060E0CE011C
S11320F00E94B10D81E58093A22179C10E94660CF2
S11321002A969CE38902B001112420E033EA42E0DC
S113211050E0CE010E94700C65E08BE00E944C03FD
S113212024E043E061E0CE010E94B10D80E10E9411
S1132130CE07882309F45BC165E08BE00E944C0361
S113214020E040E060E0CE010E94B10D82E5809382
S1132150A2214DC10E94660C2A96682F880F770B26
S113216020E033EA42E050E0CE010E94700C65E0CA
S11321708BE00E944C0327E046E061E0CE010E9420
S1132180B10D80E10E94CE07882309F430C165E0D7
S11321908BE00E944C0320E040E060E0CE010E940E
S11321A0B10D85E0F401808382E0F5018083109213
S11321B0A2211DC10E94660C2E9620E13EE0482F0C
S11321C04203B001439F700D112420E033EA42E042
S11321D050E0CE010E94700C66E08BE00E944C033C
S11321E021E040E061E0CE010E94B10D80E10E9457
S11321F0CE07882309F4FBC066E08BE00E944C0301
S113220020E040E060E0CE010E94B10D81E68093C1
S1132210A221EDC00E94660C2E969CE38902B001B7
S1132220112420E033EA42E050E0CE010E94700C19
S113223066E08BE00E944C0324E043E061E0CE01C1
S11322400E94B10D80E10E94CE07882309F4CFC01B
S113225066E08BE00E944C0320E040E060E0CE01A9
S11322600E94B10D82E68093A221C1C00E94660C37
S1132270682F880F770B809105209091062020E02D
S113228033EA42E050E00E960E94700C66E08BE068
S11322900E944C032E9627E046E061E0CE010E94A6
S11322A0B10D80E10E94CE07882309F4A0C066E046
S11322B08BE00E944C0320E040E060E0CE010E94ED
S11322C0B10D86E0F401808382E0F50180831092F1
S11322D0A2218DC00E94660C629620E13EE0482F48
S11322E04203B001439F700D112420E033EA42E021
S11322F050E0CE010E94700C67E08BE00E944C031A
S113230021E040E061E0CE010E94B10D80E10E9435
S1132310CE07882309F46BC067E08BE00E944C036E
S113232020E040E060E0CE010E94B10D81E780939F
S1132330A2215DC00E94660C9CE38902B0011124B5
S1132340809105209091062020E033EA42E050E09D
S113235042960E94700C67E08BE00E944C036296E8
S113236024E043E061E0CE010E94B10D80E10E94CF
S1132370CE078823E1F167E08BE00E944C0320E064
S113238040E060E0CE010E94B10D82E78093A2217B
S11323902EC00E94660C6296682F880F770B20E08F
S11323A033EA42E050E0CE010E94700C67E08BE01B
S11323B00E944C0327E046E061E0CE010E94B10D8B
S11323C080E10E94CE07882391F067E08BE00E94B1
S11323D04C0320E040E060E0CE010E94B10D87E0B4
S11323E0F401808382E0F50180831092A221DF91C1
S11323F0CF910F91FF90EF90DF90CF90BF90AF906F
S11324009F908F900895E0E0F2E086E3848783E074
S11324108587118282E0828387E0848381E08083E0
S11324200895FC0181E08083660F660F660F618367
S113243080818068808383818823E9F3A0E0B2E00F
S113244016968C91169716968C938081806880835B
S113245083818823E9F3A0E0B2E016968C91169765
S113246016968C938481958108959C01A8EEB3E01F
S11324700E942F236C507E418340910928EE33E063
S113248040E050E00E94E522A4E1BCE30E943E2328
S1132490DC01CB01072E7CE0B695A795979587952F
S11324A07A95D1F7702D0895CF93DF93CDB7DEB72A
S11324B0CD54D109CDBFDEBFE0910520F0910620B7
S11324C04CE454E04087518728E532E02683378383
S11324D00F2EF0E88F2EF1E59F2EAA24A394B12CA1
S11324E0F02D86869786A08AB18A8CE291E0A0E0DE
S11324F0B0E0868B978BA08FB18F0F2EF0E24F2E1A
S1132500FCE15F2E612C712CF02D4286538664868B
S113251075861182E0910520F0910620128280E1F7
S11325209EE0A0E0B0E0828B938BA48BB58BFF245C
S1132530F394F4821382158260857185609311206F
S113254070931220E0910320F09104204286538678
S11325506486758640875187268337838686978667
S1132560A08AB18A4CE350E060E070E0468B578B60
S1132570608F718F1182E0910320F0910420128208
S1132580828B938BA48BB58BF4821382158220915A
S1132590052030910620D90118968D919C911997A8
S11325A080931120909312208085918580930F2031
S11325B09093102019828090F6219090F721A0909A
S11325C0F821B090F9211A964D915D916D917C910D
S11325D01D97D501C401840F951FA61FB71F8A83B9
S11325E09B83AC83BD838090F6219090F721A090CB
S11325F0F821B090F921D9011E964D915D916D910C
S11326007C915197D501C401840F951FA61FB71F54
S11326108E839F83A887B9878091F6219091F721B3
S1132620A091F821B091F92142855385648575857F
S1132630840F951FA61FB71F8A879B87AC87BD870A
S11326408091F6219091F721A091F821B091F92180
S11326504685578560897189840F951FA61FB71F0A
S11326608E879F87A88BB98B0E94D00B0E940C0C7D
S11326700E9403120E94EA0B80EA94E00E94DB07A6
S11326800E94540CE0E4F6E088E3828B40E656E0D6
S113269083E0DA0111968C9387E0818320E036E0B1
S11326A080EED90111968C9300E216E0D8011196C0
S11326B0FC92119788E151968C93519752968C9382
S11326C0DA0152968C93529753968C93A0EAB0E019
S11326D012968C911297876012968C9380E4D9019C
S11326E015968C93D8011596FC927894A0E0B8E0E6
S11326F085EA90E098968D939C9399979A968D93FA
S11327009C939B97A0E0B9E098961D921C92999790
S11327109A961D921C929B9784E08683AFE3BFE157
S11327201197F1F700C000008583EFE3FFE13197D3
S1132730F1F700C0000080E00E94A00360E081E0A7
S11327400E944C03D80118968C9182FF0AC087E03E
S1132750E2E4F1E2DE01529601900D928A95E1F7EE
S113276009C087E0E9E4F1E2DE01529601900D929E
S11327708A95E1F7CE0142960E94BA0660E08CE0A9
S11327800E944C038091280681FF0AC087E0E2E49E
S1132790F1E2DE01529601900D928A95E1F709C0AB
S11327A087E0E9E4F1E2DE01529601900D928A9508
S11327B0E1F7CE0142960E94BA0628961CAE1DAEE1
S11327C01EAE1FAE289724961CAE1DAE1EAE1FAEC5
S11327D02497D12CA12C29961FAE29972A961FAE97
S11327E02A97512C412CB12CC12C9924939411E09B
S11327F01E01B9E12B0E311C7B2C6A2C411059C0EF
S1132800E1E0CE1205C01093E8211092E6210FC03A
S1132810C11005C01092E8211092E62110C0F2E028
S1132820CF1205C01092E8211092E62142C023E0A5
S1132830C21205C01093E8211093E6213AC034E097
S1132840C31237C0E0910520F09106208091F62153
S11328509091F721A091F821B091F92142855385F7
S113286064857585840F951FA61FB71F8A839B8374
S1132870AC83BD838091F6219091F721A091F8213A
S1132880B091F9214685578560897189840F951F18
S1132890A61FB71F8E839F83A887B98780859185DC
S11328A080931120909312201092A12114831382FB
S11328B0C12C51105DC041E0741205C01093E72192
S11328C01092E5210FC0711005C01092E7211092FB
S11328D0E52110C052E0751205C01092E721109254
S11328E0E52146C083E0781205C01093E7211093D8
S11328F0E5213EC094E079123BC0E0910320F091C1
S113290004208091F6219091F721A091F821B091B3
S1132910F9214285538564857585840F951FA61F0B
S1132920B71F8A879B87AC87BD878091F6219091DA
S1132930F721A091F821B091F92146855785608946
S11329407189840F951FA61FB71F8E879F87A88B39
S1132950B98B8085918580930F20909310201092DD
S1132960A0211483E0910520F09106201382712C9C
S11329708091A521811180C041100C9450225110E6
S11329801BC02A96AFAD2A97A1111BC02996BFADD3
S11329902997B11130C00E94660C680E2CC084E0E7
S11329A09DEC899FC12C1124C694C6949C2D990F2B
S11329B0990FC90E8C19C82E2A96EFAD2A97EE23CB
S11329C0D1F00E94660C2091112030911220082E23
S11329D0000C990BAC01440F551F880F991F880FE9
S11329E0991F880F991F840F951F280F391F209353
S11329F01120309312202996FFAD2997FF23D1F09F
S1132A000E94660C20910F2030911020082E000C9B
S1132A10990BAC01440F551F880F991F880F991FFC
S1132A20880F991F840F951F280F391F20930F209B
S1132A3030931020552091F00E94660C870D8F3F33
S1132A4009F484E09DEC899F712C1124769476948A
S1132A50972D990F990F790E8719782E80E10E948E
S1132A60D607882349F01093A521A2EAB1E21C926B
S1132A701092A3211093A4218091EC21882321F0AA
S1132A801092EC210E94EB08612F88E292E00E94F0
S1132A9011128093192090931A2060E080E292E052
S1132AA00E9411128093172090931820D394B1E3BD
S1132AB0BD1510F40C9459228091192090911A207C
S1132AC024962CAD3DAD4EAD5FAD2497280F391F34
S1132AD0411D511D24962CAF3DAF4EAF5FAF2497DF
S1132AE0809117209091182028962CAD3DAD4EADC5
S1132AF05FAD2897280F391F411D511D28962CAF13
S1132B003DAF4EAF5FAF28978091E821882309F449
S1132B1078C08091E621811174C08091A121811136
S1132B2004C080E48093050608C04091F52124E0A8
S1132B3066E080E096E00E94A50B4091F62150915A
S1132B40F7216091F8217091F9218A819B81AC81F0
S1132B50BD81481759076A077B0708F455C0E091FF
S1132B600520F0910620828181114EC08381882343
S1132B7001F11093A1218091F6219091F721A09168
S1132B80F821B091F9212E968CAF9DAFAEAFBFAFB7
S1132B902E97868197812E962CAD3DAD4EAD5FADBF
S1132BA02E97280F391F411D511D2A833B834C83C7
S1132BB05D838481882341F18681978180931120EC
S1132BC0909312204091F6215091F7216091F821C1
S1132BD07091F92186859785A089B189840F951F05
S1132BE0A61FB71F4285538564857585841B950B85
S1132BF0A60BB70B8A839B83AC83BD831482138398
S1132C0003C080E4809306068091E721882309F4B9
S1132C1077C08091E521811173C08091A021811139
S1132C2003C01093250608C04091F52124E060E01C
S1132C3080E296E00E94A50B4091F6215091F72185
S1132C406091F8217091F9218A859B85AC85BD85B9
S1132C50481759076A077B0708F454C0E09103201A
S1132C60F0910420828181114DC08381882301F178
S1132C701093A0218091F6219091F721A091F82141
S1132C80B091F9212E968CAF9DAFAEAFBFAF2E970A
S1132C90868197812E962CAD3DAD4EAD5FAD2E97BE
S1132CA0280F391F411D511D2A873B874C875D879B
S1132CB08481882339F18681978180930F209093B2
S1132CC010204091F6215091F7216091F8217091E4
S1132CD0F92186859785A089B189840F951FA61F40
S1132CE0B71F4285538564857585841B950BA60B98
S1132CF0B70B8A879B87AC87BD871482138302C076
S1132D00109326068091A521811192C68091E92114
S1132D10882309F484C01092E9210091E82100235A
S1132D2021F08091E6218823B1F08A819B81AC81D6
S1132D30BD810196A11DB11D8A839B83AC83BD8394
S1132D408E819F81A885B9850196A11DB11D8E83B1
S1132D509F83A887B9878091E721882321F08091F8
S1132D60E5218823B1F08A859B85AC85BD850196D4
S1132D70A11DB11D8A879B87AC87BD878E859F85E2
S1132D80A889B9890196A11DB11D8E879F87A88B3B
S1132D90B98BE090A121002319F00091E6210127CD
S1132DA025E0412FBE016E5F7F4F86EF91E20E94C6
S1132DB0AC0CE090A1210091E821002319F00091CE
S1132DC0E621012726E0412FBE016A5F7F4F86EF8F
S1132DD091E20E94AC0CE090A0210091E721002335
S1132DE019F00091E521012725E04CE0BE01665F62
S1132DF07F4F86EF91E20E94AC0CE090A0210091FD
S1132E00E721002319F00091E521012726E04CE099
S1132E10BE01625F7F4F86EF91E20E94AC0C992065
S1132E2009F4ECCC3FEF631203C06894662462F8A3
S1132E308DEC689E812D112486958695982F990F87
S1132E40990F890F681A60E0812F0E944C038091CA
S1132E50280682FF0AC087E0E2E4F1E2DE0152962E
S1132E6001900D928A95E1F709C087E0E9E4F1E267
S1132E70DE01529601900D928A95E1F7CE014296B9
S1132E800E94BA0660E08CE00E944C038091280600
S1132E9081FF0AC087E0E2E4F1E2DE01529601908C
S1132EA00D928A95E1F709C087E0E9E4F1E2DE01D9
S1132EB0529601900D928A95E1F7CE0142960E94B6
S1132EC0BA06612F80E00E944C03E0E0F9E020A5FF
S1132ED031A588EE93E04C01821A930A22A533A50A
S1132EE07C01E21AF30A24968CAD9DADAEADBFAD64
S1132EF0249780319742A105B10548F580E290E01E
S1132F00D1018D939C9322968EAD9FAD22970E9402
S1132F1035129C0136952795369527953695279534
S1132F20A5ECB0E20E942F234AE0BE01675D7F4F0B
S1132F30929582958F7089279F7089270E947D239F
S1132F40BE01675D7F4FC1010E9449231BC02296C9
S1132F508EAD9FAD22970E9435129C013695279520
S1132F603695279536952795A5ECB0E20E942F2338
S1132F704AE0B101929582958F7089279F708927C5
S1132F800E947D2380E296E58DAF9EAF1FAEF101D6
S1132F9001900020E9F731978CE290E080839183DF
S1132FA022968EAD9FAD22970E943512FC019C01A2
S1132FB0369527953695279536952795A5ECB0E255
S1132FC00E942F23929582958F7089279F7089275D
S1132FD048EE53E0849F9001859F300D949F300DFF
S1132FE011244AE0BE01675D7F4FCF01821B930B22
S1132FF00E947D23BE01675D7F4FC1010E9449236A
S1133000BE01635C7F4FC1010E944923C1010E943C
S1133010BA06612F8CE00E944C0328962CAD3DAD7E
S11330204EAD5FAD2897203137424105510548F533
S113303080E290E0D1018D939C9326968EAD9FAD56
S113304026970E9435129C0136952795369527952B
S113305036952795A5ECB0E20E942F234AE0BE01E5
S1133060675D7F4F929582958F7089279F7089271E
S11330700E947D23BE01675D7F4FC1010E944923E9
S11330801BC026968EAD9FAD26970E9435129C01DB
S1133090369527953695279536952795A5ECB0E274
S11330A00E942F234AE0B101929582958F7089275F
S11330B09F7089270E947D23F10101900020E9F788
S11330C031978CE290E08083918326968EAD9FADFC
S11330D026970E943512FC019C013695279536955A
S11330E0279536952795A5ECB0E20E942F2392955B
S11330F082958F7089279F70892748EE53E0849FBB
S11331009001859F300D949F300D11244AE0BE013B
S1133110675D7F4FCF01821B930B0E947D23BE010D
S1133120675D7F4FC1010E944923BE01635C7F4FED
S1133130C1010E944923C1010E94BA0662E0812FA5
S11331400E944C03BAE08B16910420F489E290E2C9
S11331500E94BA06E4E68E16910420F489E290E215
S11331600E94BA06F8EE8F16F3E09F0620F489E277
S113317090E20E94BA069401ADECBCEC0E942F23AD
S11331805C01B694A794B694A794B694A7944AE025
S1133190B101C5010E947D23F10101900020E9F7EE
S11331A031978CE290E080839183C501880F991F49
S11331B0AA0CBB1CAA0CBB1CAA0CBB1CA80EB91ED7
S11331C04AE0BE01675D7F4FC4018A199B090E94D2
S11331D07D23BE01675D7F4FC1010E944923F10138
S11331E001900020E9F7319780E295E28083918392
S11331F01282C1010E94BA0662E08CE00E944C0374
S11332002AE0E216F10420F489E290E20E94BA0670
S113321034E6E316F10420F489E290E20E94BA064F
S113322048EEE41643E0F40620F489E290E20E94BA
S1133230BA069701ADECBCEC0E942F235C01B69456
S1133240A794B694A794B694A7944AE0B101C50193
S11332500E947D23F10101900020E9F731978CE26F
S113326090E080839183C501880F991FAA0CBB1C31
S1133270AA0CBB1CAA0CBB1CA80EB91E4AE0BE01BA
S1133280675D7F4FC7018A199B090E947D23BE0198
S1133290675D7F4FC1010E944923F1010190002025
S11332A0E9F7319780E295E2808391831282C1012C
S11332B00E94BA06F8948091F1219091F221A09194
S11332C0F321B091F4214AE0B1010E947D23789466
S11332D0D1010D900020E9F7119785E0EBEAF0E2C7
S11332E001900D928A95E1F763E0812F0E944C03CF
S11332F08091F1219091F221A091F321B091F421D8
S11333000A97A105B10520F489E290E20E94BA0669
S11333108091F1219091F221A091F321B091F421B7
S113332084369105A105B10520F489E290E20E945A
S1133330BA068091F1219091F221A091F321B091EC
S1133340F421883E9340A105B10520F489E290E27E
S11333500E94BA06C1010E94BA0680911120909180
S113336012204AE0B1010E947D2364E0812F0E9473
S11333704C0380911120909112200A9720F489E245
S113338090E20E94BA068091112090911220843616
S1133390910520F489E290E20E94BA0680911120FE
S11333A090911220883E934020F489E290E20E949A
S11333B0BA06D1010D900020E9F7119785E0EBEAF8
S11333C0F0E201900D928A95E1F72A96BFAD2A9713
S11333D0BB2321F0C1010E94C90603C0C1010E94A0
S11333E0BA06F8948091ED219091EE21A091EF21FD
S11333F0B091F0214AE0B1010E947D237894D1017B
S11334000D900020E9F7119785E0EBEAF0E20190D6
S11334100D928A95E1F763E08CE00E944C03809161
S1133420ED219091EE21A091EF21B091F0210A9726
S1133430A105B10520F489E290E20E94BA068091C8
S1133440ED219091EE21A091EF21B091F0218436ED
S11334509105A105B10520F489E290E20E94BA0623
S11334608091ED219091EE21A091EF21B091F02176
S1133470883E9340A105B10520F489E290E20E94C0
S1133480BA06C1010E94BA0680910F2090911020C3
S11334904AE0B1010E947D23D1010D900020E9F79B
S11334A0119785E0EBEAF0E201900D928A95E1F73D
S11334B064E08CE00E944C0380910F2090911020D6
S11334C00A9720F489E290E20E94BA0680910F20C4
S11334D0909110208436910520F489E290E20E94B4
S11334E0BA0680910F2090911020883E934020F4DA
S11334F089E290E20E94BA0629962FAD29972223E9
S113350021F0C1010E94C90603C0C1010E94BA068C
S11335104AE0B10180E090E00E947D23611078C010
S113352080E10E94CE0764E080E00E944C0389E2BF
S113353090E20E94BA0664E08BE00E944C0389E2A8
S113354090E20E94BA0667E080E00E944C0389E2A0
S113355090E20E94BA0667E08BE00E944C0389E285
S113356090E20E94BA0667E0812F0E944C03C110CA
S113357005C080EB90E20E94BA0610C031E0C3128D
S113358005C089EB90E20E94BA0610C042E0C41262
S113359005C082EC90E20E94BA060FC053E0C51247
S11335A005C08CEC90E20E94BA0607C084E0C81201
S11335B004C086ED90E20E94BA0667E08CE00E94A7
S11335C04C03711005C080EB90E20E94BA0610C053
S11335D091E0791205C089EB90E20E94BA0610C00E
S11335E0A2E07A1205C082EC90E20E94BA06B2C14F
S11335F0B3E07B1205C08CEC90E20E94BA06D9C0FD
S1133600E4E07E12A7C186ED90E20E94BA06A2C150
S1133610F1E06F12CEC080E10E94CE0781114126F5
S113362064E080E00E944C0389E290E20E94BA06C2
S113363064E08BE00E944C0389E290E20E94BA06A7
S113364067E080E00E944C038FED90E20E94BA068E
S113365067E08BE00E944C0389E290E20E94BA0684
S113366067E0812F0E944C03442009F451C0C1102B
S113367005C080EB90E20E94C90610C021E0C2128E
S113368005C089EB90E20E94C90610C032E0C31263
S113369005C081EE90E20E94C9060FC043E0C41247
S11336A005C08AEE90E20E94C90607C054E0C51224
S11336B004C086ED90E20E94C90667E08CE00E9497
S11336C04C03711005C080EB90E20E94BA0610C052
S11336D081E0781205C089EB90E20E94BA0610C01E
S11336E092E0791205C081EE90E20E94BA0662C1AE
S11336F0A3E07A1205C08AEE90E20E94BA062AC1BB
S1133700B4E07B1257C186ED90E20E94BA0652C122
S1133710C11005C080EB90E20E94BA0610C0E1E03F
S1133720CE1205C089EB90E20E94BA0610C0F2E006
S1133730CF1205C081EE90E20E94BA060FC023E0CA
S1133740C21205C08AEE90E20E94BA0607C034E0B5
S1133750C31204C086ED90E20E94BA0667E08CE0D2
S11337600E944C03711005C080EB90E20E94BA06DF
S113377010C041E0741205C089EB90E20E94BA06C1
S113378010C052E0751205C081EE90E20E94BA06A4
S113379011C183E0781205C08AEE90E20E94BA0655
S11337A0D9C094E0791206C186ED90E20E94BA066F
S11337B001C1A2E06A12CEC080E10E94CE0781114D
S11337C0512664E080E00E944C0389E290E20E946A
S11337D0BA0664E08BE00E944C0389E290E20E9406
S11337E0BA0667E080E00E944C0389E290E20E94FE
S11337F0BA0667E08BE00E944C038FED90E20E94D2
S1133800BA0667E0812F0E944C03552009F451C089
S1133810C11005C080EB90E20E94BA0610C0B1E06E
S1133820CB1205C089EB90E20E94BA0610C0E2E018
S1133830CE1205C081EE90E20E94BA060FC0F3E0FA
S1133840CF1205C08AEE90E20E94BA0607C024E0B7
S1133850C21204C086ED90E20E94BA0667E08CE0D2
S11338600E944C03711005C080EB90E20E94C906CF
S113387010C031E0731205C089EB90E20E94C906C2
S113388010C042E0741205C081EE90E20E94C906A5
S1133890C0C053E0751205C08AEE90E20E94C906CA
S11338A089C084E07812B5C086ED90E20E94C90612
S11338B0B0C0C11005C080EB90E20E94BA0610C0EF
S11338C091E0C91205C089EB90E20E94BA0610C0CB
S11338D0A2E0CA1205C081EE90E20E94BA060FC0AF
S11338E0B3E0CB1205C08AEE90E20E94BA0607C08C
S11338F0E4E0CE1204C086ED90E20E94BA0667E0CE
S11339008CE00E944C03711005C080EB90E20E9491
S1133910BA0610C0F1E07F1205C089EB90E20E9464
S1133920BA0610C022E0721205C081EE90E20E9435
S1133930BA066FC033E0731205C08AEE90E20E94AB
S1133940BA0638C044E0741264C086ED90E20E9466
S1133950BA065FC053E065122DC080E10E94CE0715
S1133960882339F02A968FAD2A9781272A968FAF1C
S11339702A9764E080E00E944C038FED90E20E945D
S1133980BA0664E08BE00E944C0389E290E20E9454
S1133990BA0667E080E00E944C0389E290E20E944C
S11339A0BA0667E08BE00E944C0389E290E20E9431
S11339B0BA062FC094E069122CC080E10E94CE07A1
S11339C0882339F02996AFAD2997A1272996AFAF5F
S11339D0299764E080E00E944C0389E290E20E940F
S11339E0BA0664E08BE00E944C038FED90E20E94E3
S11339F0BA0667E080E00E944C0389E290E20E94EC
S1133A00BA0667E08BE00E944C0389E290E20E94D0
S1133A10BA0628961CAE1DAE1EAE1FAE289724967D
S1133A201CAE1DAE1EAE1FAE2497912C0C94FE133B
S1133A30E2EAF1E28081811105C00E94660C99815D
S1133A40890F89838091A321803109F486C0813153
S1133A5009F4D5C4811120C58091A421882321F0C3
S1133A601092A4210E947A0360E0812F0E944C03EB
S1133A7083EF90E20E94BA06612F812F0E944C03CB
S1133A8081E091E20E94BA0662E0812F0E944C0319
S1133A9080E191E20E94BA0663E0812F0E944C0308
S1133AA083E291E20E94BA0664E0812F0E944C03F3
S1133AB080E391E20E94BA0665E0812F0E944C03E4
S1133AC08DE391E20E94BA068981909100208917C2
S1133AD039F18F3F11F485E0898399818BEA989FAE
S1133AE0812D112486958695282F220F820F880F09
S1133AF0981B99839093002000E0602F80E00E943F
S1133B004C038981801305C08FED90E20E94BA06B0
S1133B1004C089E290E20E94BA060F5F063069F79A
S1133B2080E10E94CE07882311F40C94FE1389814E
S1133B30853051F080618093A3211093A4211982D0
S1133B40109300200C94FE131092A5211093E921E8
S1133B500E947A03912E0C94FE138091A421882351
S1133B6009F4BBC01092A4210E947A0360E0812F63
S1133B700E944C038BE290E20E94BA06612F812FCF
S1133B800E944C0387E490E20E94BA06E09105206B
S1133B90F091062080814AE0BE01675D7F4F90E08E
S1133BA00E947D23CE0189960E94BA0662E0812F8D
S1133BB00E944C038CE490E20E94BA06E091052036
S1133BC0F09106208281811104C082E590E20E9476
S1133BD0BA06E0910520F09106208281813079F4C3
S1133BE089E590E20E94BA06E0910520F091062052
S1133BF08281813021F483E690E20E94BA0663E078
S1133C00812F0E944C0381E790E20E94BA06E09162
S1133C100520F09106204AE0BE01675D7F4F868152
S1133C2097810E947D23CE0189960E94BA068BE774
S1133C3090E20E94BA0664E0812F0E944C0380E85F
S1133C4090E20E94BA06E0910520F09106204AE035
S1133C50BE01675D7F4F808591850E947D23CE01E3
S1133C6089960E94BA068BE790E20E94BA0665E044
S1133C70812F0E944C038AE890E20E94BA06809148
S1133C8005209091062020E040E060E00A960E9422
S1133C90B10D66E0812F0E944C0385E990E20E94F9
S1133CA0BA06809105209091062020E040E060E073
S1133CB00E960E94B10D67E0812F0E944C0380EAAA
S1133CC090E20E94BA06809105209091062020E09F
S1133CD040E060E042960E94B10DA2EAB1E2EC91AC
S1133CE0EE2309F453C38E2F90E0FC01F097E334E4
S1133CF0F10508F04BC3ED54FE4F0C9426230E94AB
S1133D00660CE0910520F0910620082E000C990B1A
S1133D109C01220F331F880F991F880F991F880F4A
S1133D20991F820F931F26813781820F931F8683E9
S1133D30978363E08AE00E944C03E0910520F091B0
S1133D400620868197810A9720F489E290E20E94F6
S1133D50BA06E0910520F091062086819781843689
S1133D60910520F489E290E20E94BA06E0910520D0
S1133D70F091062086819781883E934020F489E261
S1133D8090E20E94BA06E0910520F09106204AE0F4
S1133D90BE01675D7F4F868197810E947D23CE019E
S1133DA089960E94C9068BE790E20E94BA0680E1D8
S1133DB00E94CE07882309F4E9C263E08AE00E94E6
S1133DC04C03E0910520F0910620868197810A97A3
S1133DD020F489E290E20E94BA06E0910520F09175
S1133DE00620868197818436910520F489E290E249
S1133DF00E94BA06E0910520F09106208681978101
S1133E00883E934020F489E290E20E94BA06E09151
S1133E100520F09106204AE0BE01675D7F4F868150
S1133E2097810E947D23CE0189960E94BA068BE772
S1133E3090E20E94BA0683E08983A2EAB1E21C926E
S1133E40AEC20E94660CE0910520F0910620082E77
S1133E50000C990B9C01220F331F880F991F880FA8
S1133E60991F880F991F820F931F20853185820F18
S1133E70931F8087918764E08AE00E944C03E0915D
S1133E800520F0910620808591850A9720F489E227
S1133E9090E20E94BA06E0910520F0910620808508
S1133EA091858436910520F489E290E20E94BA0655
S1133EB0E0910520F091062080859185883E93400D
S1133EC020F489E290E20E94BA06E0910520F09184
S1133ED006204AE0BE01675D7F4F808591850E9480
S1133EE07D23CE0189960E94C9068BE790E20E9449
S1133EF0BA0680E10E94CE07882309F447C264E031
S1133F008AE00E944C03E0910520F0910620808510
S1133F1091850A9720F489E290E20E94BA06E09122
S1133F200520F0910620808591858436910520F442
S1133F3089E290E20E94BA06E0910520F091062001
S1133F4080859185883E934020F489E290E20E9426
S1133F50BA06E0910520F09106204AE0BE01675DB3
S1133F607F4F808591850E947D23CE0189960E9492
S1133F70BA068BE790E20E94BA0684E08983A2EA3B
S1133F80B1E21C920CC20E94660C20E13EE0482F74
S1133F904203B001439F700D11248091052090913C
S1133FA0062020E033EA42E050E00A960E94700CBA
S1133FB065E08BE00E944C038091052090910620DF
S1133FC0212F40E0612F0A960E94B10D80E10E94EA
S1133FD0CE07882309F4DAC165E08BE00E944C0324
S1133FE0809105209091062020E040E060E00A9650
S1133FF00E94B10D81E5A2EAB1E28C93C7C10E948F
S1134000660CBCE38B02B0011124809105209091D1
S1134010062020E033EA42E050E00A960E94700C49
S113402065E08BE00E944C0380910520909106206E
S113403024E043E0612F0A960E94B10D80E10E94C2
S1134040CE07882309F4A2C165E08BE00E944C03EB
S1134050809105209091062020E040E060E00A96DF
S11340600E94B10D82E5E2EAF1E280838FC10E94F1
S1134070660C682F880F770B80910520909106209D
S113408020E033EA42E050E00A960E94700C65E0BA
S11340908BE00E944C03809105209091062027E03C
S11340A046E0612F0A960E94B10D80E10E94CE077E
S11340B0882309F46BC165E08BE00E944C03809176
S11340C005209091062020E040E060E00A960E94DE
S11340D0B10D85E08983A2EAB1E21C9260C10E941D
S11340E0660C20E13EE0482F4203B001439F700D6F
S11340F01124809105209091062020E033EA42E0CB
S113410050E00E960E94700C66E08BE00E944C0317
S11341108091052090910620212F40E0612F0E967A
S11341200E94B10D80E10E94CE07882309F42EC1BC
S113413066E08BE00E944C0380910520909106205C
S113414020E040E060E00E960E94B10D81E6A2EA14
S1134150B1E28C931BC10E94660CBCE38B02B001DC
S11341601124809105209091062020E033EA42E05A
S113417050E00E960E94700C66E08BE00E944C03A7
S1134180809105209091062024E043E0612F0E9653
S11341900E94B10D80E10E94CE07882309F4F6C085
S11341A066E08BE00E944C038091052090910620EC
S11341B020E040E060E00E960E94B10D82E6E2EA63
S11341C0F1E28083E3C00E94660C682F880F770BAE
S11341D0809105209091062020E033EA42E050E0EF
S11341E00E960E94700C66E08BE00E944C03809156
S11341F005209091062027E046E0612F0E960E944C
S1134200B10D80E10E94CE07882309F4BFC066E0A7
S11342108BE00E944C03809105209091062020E0C1
S113422040E060E00E960E94B10D86E08983A2EA28
S1134230B1E21C92B4C00E94660C20E13EE0482F1B
S11342404203B001439F700D112480910520909189
S1134250062020E033EA42E050E042960E94700CCF
S113426067E08BE00E944C0380910520909106202A
S1134270212F40E0612F42960E94B10D80E10E94FF
S1134280CE07882309F482C067E08BE00E944C03C8
S1134290809105209091062020E040E060E0429665
S11342A00E94B10D81E7A2EAB1E28C936FC00E9433
S11342B0660CBCE38B02B00111248091052090911F
S11342C0062020E033EA42E050E042960E94700C5F
S11342D067E08BE00E944C038091052090910620BA
S11342E024E043E0612F42960E94B10D80E10E94D8
S11342F0CE07882309F44AC067E08BE00E944C0390
S1134300809105209091062020E040E060E04296F4
S11343100E94B10D82E7E2EAF1E2808337C00E9495
S1134320660C682F880F770B8091052090910620EA
S113433020E033EA42E050E042960E94700C67E0CD
S11343408BE00E944C03809105209091062027E089
S113435046E0612F42960E94B10D80E10E94CE0793
S11343608823A1F067E08BE00E944C038091052034
S11343709091062020E040E060E042960E94B10D5A
S113438087E08983A2EAB1E21C9209C089819091F5
S113439000208917E9F08F3F11F488E0898389812F
S11343A0877089838093002000E0602F80E00E9462
S11343B04C038981081305C08FED90E20E94BA0670
S11343C004C089E290E20E94BA060F5F083069F7E0
S11343D080E10E94CE07882311F40C94FE13898196
S11343E0811106C01092A3211093A4210C94FE13F2
S11343F08295807FE2EAF1E280830C94FE1340917F
S11344000320509104200F2EF4EAEF2EF1E2FF2E48
S1134410F02D00E020E030E2BE01675D7F4FCE0169
S113442001960E94980E8981909100208917E9F0E5
S11344308F3F11F488E08983898187708983809311
S1134440002000E0602F80E00E944C0389818013EB
S113445005C08FED90E20E94BA0604C089E290E2A2
S11344600E94BA060F5F083069F780E10E94CE0708
S1134470882311F40C94FE138981811106C01092D3
S1134480A3211093A4210C94FE138295807FA2EAA9
S1134490B1E28C930C94FE131092A3210C94FE139E
S11344A00E94660C8C0D8F3F11F00C94D0140C9468
S11344B0CF148D2C912CA12CB12C24966CAD7DADF8
S11344C08EAD9FAD2497A50194010E94E522249608
S11344D02CAF3DAF4EAF5FAF249728966CAD7DAD4A
S11344E08EAD9FAD2897A50194010E94E5222896E0
S11344F02CAF3DAF4EAF5FAF2897D12C912E0C94CB
S11345008415CF92EF920F93CF93DF93FC01EB01CD
S1134510A3EAB4E08C918B7F8C934683A0EAB4E049
S113452014968C91149786FFFBCF8091A40483FF8B
S113453027C0118282E08093810689E0A0E8B6E07A
S113454092E015969C93159735ED3A95F1F7000096
S113455016969C93169735ED3A95F1F70000815025
S113456081F782E08093820688E081838CE08483F3
S113457081E0848383E08093A30446838091A40430
S1134580C11001C02783848186FFFDCF202F30E036
S11345902115310589F0DE012C0F3D1FE11003C008
S11345A08C91878302C088818783948196FFFDCF95
S11345B01196A217B30791F783E08093A304DF91C8
S11345C0CF910F91EF90CF900895A1E21A2EAA1BDC
S11345D0BB1BFD010DC0AA1FBB1FEE1FFF1FA217AF
S11345E0B307E407F50720F0A21BB30BE40BF50BAC
S11345F0661F771F881F991F1A9469F76095709535
S1134600809590959B01AC01BD01CF010895052EC5
S113461097FB1EF400940E941E2357FD07D00E94AE
S1134620E52207FC03D04EF40C941E2350954095CC
S1134630309521953F4F4F4F5F4F0895909580954A
S1134640709561957F4F8F4F9F4F0895EE0FFF1F19
S11346500024001C0BBE0790F691E02D0994A29F44
S1134660B001B39FC001A39F700D811D1124911D42
S1134670B29F700D811D1124911D08950E942F2356
S1134680A59F900DB49F900DA49F800D911D1124A2
S11346900895FB01DC010D900020E9F711970190CA
S11346A00D920020E1F70895FB01DC0101900D92C9
S11346B00020E1F70895BB27FA01A62F62177105C0
S11346C081059105330B30FB66F0AA27660F771F2F
S11346D0881F991FAA1FA21710F0A21B63953850B8
S11346E0A9F7A05DAA3308F0A95DA19336F7B1112B
S11346F0B1931082CA010C949723BB27FB01552761
S1134700AA27880F991FAA1FA41710F0A41B83952A
S11347105051B9F7A05DAA3308F0A95DA1930097A1
S113472079F7B111B1931192CB010C949723DC0169
S1134730FC01672F71917723E1F7329704C07C91D4
S11347406D9370836291AE17BF07C8F30895F89410
S1054750FFCF95
S1134752FFFFFFA621C421A0860100A08601005804
S1134762025802210F550800040004DB40A4A62EBF
S1134772AF2020202020202020200050726F666964
S11347826C206C696E6B73200050726F66696C20CA
S1134792726563687473004944203A005479703A2C
S11347A220006E6F726D616C007765636873656C6F
S11347B26E6400736564696D656E74696572656EB5
S11347C2004C616E6773616D3A20002055704D0094
S11347D25363686E656C6C3A200074207363686E70
S11347E2656C6C20007420476573616D7420200031
S11347F274206C616E6773616D20002052504D000D
S11348024175746F2F417573004175746F2F416E3A
S1134812200048616E642F417573200048616E6404
S11348222F416E2020005265736574202020003EC3
S11348320048616E642F4175730048616E642F41B4
S11348426E200050726F66696C206C696E6B733AED
S11348520050726F66696C207265636874733A0003
S113486250726F66696C6520626561726265697413
S1134872656E00526567656C7061726D2E20310041
S1134882526567656C7061726D2E203200457869DD
S11348927400313230206D6D00313430206D6D0082
S9030000FC
